{
  "_format": "hh-sol-artifact-1",
  "contractName": "MothoraVault",
  "sourceName": "contracts/MothoraVault.sol",
  "abi": [
    {
      "inputs": [
        {
          "internalType": "address",
          "name": "_tokenAddress",
          "type": "address"
        },
        {
          "internalType": "address",
          "name": "_gameItemsAddress",
          "type": "address"
        },
        {
          "internalType": "address",
          "name": "_playerContractAddress",
          "type": "address"
        },
        {
          "internalType": "uint256",
          "name": "_epochRewardsPercentage",
          "type": "uint256"
        },
        {
          "internalType": "uint256",
          "name": "_epochDuration",
          "type": "uint256"
        }
      ],
      "stateMutability": "nonpayable",
      "type": "constructor"
    },
    {
      "anonymous": false,
      "inputs": [
        {
          "indexed": true,
          "internalType": "address",
          "name": "previousOwner",
          "type": "address"
        },
        {
          "indexed": true,
          "internalType": "address",
          "name": "newOwner",
          "type": "address"
        }
      ],
      "name": "OwnershipTransferred",
      "type": "event"
    },
    {
      "inputs": [
        {
          "internalType": "address",
          "name": "",
          "type": "address"
        }
      ],
      "name": "RewardsBalance",
      "outputs": [
        {
          "internalType": "uint256",
          "name": "",
          "type": "uint256"
        }
      ],
      "stateMutability": "view",
      "type": "function"
    },
    {
      "inputs": [
        {
          "internalType": "bool",
          "name": "autocompound",
          "type": "bool"
        }
      ],
      "name": "claimEpochRewards",
      "outputs": [],
      "stateMutability": "nonpayable",
      "type": "function"
    },
    {
      "inputs": [
        {
          "internalType": "uint256",
          "name": "_amount",
          "type": "uint256"
        }
      ],
      "name": "contributeVaultParts",
      "outputs": [],
      "stateMutability": "nonpayable",
      "type": "function"
    },
    {
      "inputs": [],
      "name": "distributeRewards",
      "outputs": [],
      "stateMutability": "nonpayable",
      "type": "function"
    },
    {
      "inputs": [
        {
          "internalType": "uint256",
          "name": "numerator",
          "type": "uint256"
        },
        {
          "internalType": "uint256",
          "name": "denominator",
          "type": "uint256"
        },
        {
          "internalType": "uint256",
          "name": "precision",
          "type": "uint256"
        }
      ],
      "name": "divider",
      "outputs": [
        {
          "internalType": "uint256",
          "name": "",
          "type": "uint256"
        }
      ],
      "stateMutability": "pure",
      "type": "function"
    },
    {
      "inputs": [],
      "name": "epochDuration",
      "outputs": [
        {
          "internalType": "uint256",
          "name": "",
          "type": "uint256"
        }
      ],
      "stateMutability": "view",
      "type": "function"
    },
    {
      "inputs": [],
      "name": "epochRewards",
      "outputs": [
        {
          "internalType": "uint256",
          "name": "",
          "type": "uint256"
        }
      ],
      "stateMutability": "view",
      "type": "function"
    },
    {
      "inputs": [],
      "name": "essenceInterface",
      "outputs": [
        {
          "internalType": "contract IERC20",
          "name": "",
          "type": "address"
        }
      ],
      "stateMutability": "view",
      "type": "function"
    },
    {
      "inputs": [
        {
          "internalType": "uint256",
          "name": "",
          "type": "uint256"
        }
      ],
      "name": "factionPartsBalance",
      "outputs": [
        {
          "internalType": "uint256",
          "name": "",
          "type": "uint256"
        }
      ],
      "stateMutability": "view",
      "type": "function"
    },
    {
      "inputs": [],
      "name": "factor1",
      "outputs": [
        {
          "internalType": "uint256",
          "name": "",
          "type": "uint256"
        }
      ],
      "stateMutability": "view",
      "type": "function"
    },
    {
      "inputs": [],
      "name": "factor2",
      "outputs": [
        {
          "internalType": "uint256",
          "name": "",
          "type": "uint256"
        }
      ],
      "stateMutability": "view",
      "type": "function"
    },
    {
      "inputs": [],
      "name": "factor3",
      "outputs": [
        {
          "internalType": "uint256",
          "name": "",
          "type": "uint256"
        }
      ],
      "stateMutability": "view",
      "type": "function"
    },
    {
      "inputs": [
        {
          "internalType": "address",
          "name": "_player",
          "type": "address"
        }
      ],
      "name": "getTotalBalance",
      "outputs": [
        {
          "internalType": "uint256",
          "name": "balance",
          "type": "uint256"
        },
        {
          "internalType": "uint256",
          "name": "stakedBalance",
          "type": "uint256"
        },
        {
          "internalType": "uint256",
          "name": "pendingRewards",
          "type": "uint256"
        }
      ],
      "stateMutability": "view",
      "type": "function"
    },
    {
      "inputs": [
        {
          "internalType": "address",
          "name": "",
          "type": "address"
        }
      ],
      "name": "lastUpdate",
      "outputs": [
        {
          "internalType": "uint256",
          "name": "",
          "type": "uint256"
        }
      ],
      "stateMutability": "view",
      "type": "function"
    },
    {
      "inputs": [],
      "name": "maxedFactor1",
      "outputs": [
        {
          "internalType": "uint256",
          "name": "",
          "type": "uint256"
        }
      ],
      "stateMutability": "view",
      "type": "function"
    },
    {
      "inputs": [],
      "name": "maxedFactor2",
      "outputs": [
        {
          "internalType": "uint256",
          "name": "",
          "type": "uint256"
        }
      ],
      "stateMutability": "view",
      "type": "function"
    },
    {
      "inputs": [],
      "name": "maxedFactor3",
      "outputs": [
        {
          "internalType": "uint256",
          "name": "",
          "type": "uint256"
        }
      ],
      "stateMutability": "view",
      "type": "function"
    },
    {
      "inputs": [
        {
          "internalType": "address",
          "name": "",
          "type": "address"
        },
        {
          "internalType": "address",
          "name": "",
          "type": "address"
        },
        {
          "internalType": "uint256[]",
          "name": "",
          "type": "uint256[]"
        },
        {
          "internalType": "uint256[]",
          "name": "",
          "type": "uint256[]"
        },
        {
          "internalType": "bytes",
          "name": "",
          "type": "bytes"
        }
      ],
      "name": "onERC1155BatchReceived",
      "outputs": [
        {
          "internalType": "bytes4",
          "name": "",
          "type": "bytes4"
        }
      ],
      "stateMutability": "nonpayable",
      "type": "function"
    },
    {
      "inputs": [
        {
          "internalType": "address",
          "name": "",
          "type": "address"
        },
        {
          "internalType": "address",
          "name": "",
          "type": "address"
        },
        {
          "internalType": "uint256",
          "name": "",
          "type": "uint256"
        },
        {
          "internalType": "uint256",
          "name": "",
          "type": "uint256"
        },
        {
          "internalType": "bytes",
          "name": "",
          "type": "bytes"
        }
      ],
      "name": "onERC1155Received",
      "outputs": [
        {
          "internalType": "bytes4",
          "name": "",
          "type": "bytes4"
        }
      ],
      "stateMutability": "nonpayable",
      "type": "function"
    },
    {
      "inputs": [],
      "name": "owner",
      "outputs": [
        {
          "internalType": "address",
          "name": "",
          "type": "address"
        }
      ],
      "stateMutability": "view",
      "type": "function"
    },
    {
      "inputs": [
        {
          "internalType": "uint256",
          "name": "",
          "type": "uint256"
        }
      ],
      "name": "playerAddresses",
      "outputs": [
        {
          "internalType": "address",
          "name": "",
          "type": "address"
        }
      ],
      "stateMutability": "view",
      "type": "function"
    },
    {
      "inputs": [
        {
          "internalType": "address",
          "name": "",
          "type": "address"
        }
      ],
      "name": "playerIds",
      "outputs": [
        {
          "internalType": "uint256",
          "name": "",
          "type": "uint256"
        }
      ],
      "stateMutability": "view",
      "type": "function"
    },
    {
      "inputs": [
        {
          "internalType": "address",
          "name": "",
          "type": "address"
        }
      ],
      "name": "playerStakedPartsBalance",
      "outputs": [
        {
          "internalType": "uint256",
          "name": "",
          "type": "uint256"
        }
      ],
      "stateMutability": "view",
      "type": "function"
    },
    {
      "inputs": [],
      "name": "renounceOwnership",
      "outputs": [],
      "stateMutability": "nonpayable",
      "type": "function"
    },
    {
      "inputs": [
        {
          "internalType": "uint256",
          "name": "_amount",
          "type": "uint256"
        }
      ],
      "name": "stakeTokens",
      "outputs": [],
      "stateMutability": "nonpayable",
      "type": "function"
    },
    {
      "inputs": [
        {
          "internalType": "address",
          "name": "",
          "type": "address"
        }
      ],
      "name": "stakedDuration",
      "outputs": [
        {
          "internalType": "uint256",
          "name": "",
          "type": "uint256"
        }
      ],
      "stateMutability": "view",
      "type": "function"
    },
    {
      "inputs": [
        {
          "internalType": "address",
          "name": "",
          "type": "address"
        }
      ],
      "name": "stakedESSBalance",
      "outputs": [
        {
          "internalType": "uint256",
          "name": "",
          "type": "uint256"
        }
      ],
      "stateMutability": "view",
      "type": "function"
    },
    {
      "inputs": [
        {
          "internalType": "bytes4",
          "name": "interfaceId",
          "type": "bytes4"
        }
      ],
      "name": "supportsInterface",
      "outputs": [
        {
          "internalType": "bool",
          "name": "",
          "type": "bool"
        }
      ],
      "stateMutability": "view",
      "type": "function"
    },
    {
      "inputs": [
        {
          "internalType": "address",
          "name": "",
          "type": "address"
        }
      ],
      "name": "timeTier",
      "outputs": [
        {
          "internalType": "uint256",
          "name": "",
          "type": "uint256"
        }
      ],
      "stateMutability": "view",
      "type": "function"
    },
    {
      "inputs": [],
      "name": "totalStakedBalance",
      "outputs": [
        {
          "internalType": "uint256",
          "name": "",
          "type": "uint256"
        }
      ],
      "stateMutability": "view",
      "type": "function"
    },
    {
      "inputs": [
        {
          "internalType": "address",
          "name": "newOwner",
          "type": "address"
        }
      ],
      "name": "transferOwnership",
      "outputs": [],
      "stateMutability": "nonpayable",
      "type": "function"
    },
    {
      "inputs": [
        {
          "internalType": "uint256",
          "name": "_amount",
          "type": "uint256"
        }
      ],
      "name": "unstakeTokens",
      "outputs": [],
      "stateMutability": "nonpayable",
      "type": "function"
    }
  ],
  "bytecode": "0x60806040523480156200001157600080fd5b506040516200209d3803806200209d833981016040819052620000349162000101565b6200003f3362000094565b60018055600a80546001600160a01b03199081166001600160a01b0397881617909155600c8054821695871695909517909455600d80549094169290941691909117909155601255601355426014556200015e565b600080546001600160a01b038381166001600160a01b0319831681178455604051919092169283917f8be0079c531659141344cd1fd0a4f28419497f9722a3daafe3b4186f6b6457e09190a35050565b80516001600160a01b0381168114620000fc57600080fd5b919050565b600080600080600060a086880312156200011a57600080fd5b6200012586620000e4565b94506200013560208701620000e4565b93506200014560408701620000e4565b6060870151608090970151959894975095949392505050565b611f2f806200016e6000396000f3fe608060405234801561001057600080fd5b50600436106101f05760003560e01c806372cf17731161010f578063cb03fb1e116100a2578063e12a770011610071578063e12a770014610479578063eaaa1b1d14610482578063f23a6e61146104a2578063f2fde38b146104c157600080fd5b8063cb03fb1e146103f8578063d36ec06114610418578063d3d3819314610438578063d7f81f361461046657600080fd5b806388e1e939116100de57806388e1e939146103865780638ace109f146103a65780638da5cb5b146103af578063bc197c81146103c057600080fd5b806372cf17731461034e5780637547c7a314610361578063773f7a3a146103745780637d9f21551461037d57600080fd5b806344cfedbd11610187578063608e4dd011610156578063608e4dd01461030b578063696786d31461031e5780636f4a2cd01461033e578063715018a61461034657600080fd5b806344cfedbd146102b95780634c880e22146102d95780634ff0876a146102e25780635ca5e068146102eb57600080fd5b806315c6aee2116101c357806315c6aee21461027f5780632ee981e61461029257806334a0d80e1461029b5780633c41ed43146102a457600080fd5b806301ffc9a7146101f55780630620eedc1461021d5780630f3c1fe51461023457806313476a4614610254575b600080fd5b61020861020336600461192b565b6104d4565b60405190151581526020015b60405180910390f35b610226600e5481565b604051908152602001610214565b610226610242366004611971565b60086020526000908152604090205481565b600a54610267906001600160a01b031681565b6040516001600160a01b039091168152602001610214565b61026761028d36600461198c565b61050b565b610226601b5481565b61022660165481565b6102b76102b236600461198c565b610535565b005b6102266102c7366004611971565b60056020526000908152604090205481565b610226601a5481565b61022660135481565b6102266102f936600461198c565b60096020526000908152604090205481565b6102b761031936600461198c565b610850565b61022661032c366004611971565b60076020526000908152604090205481565b6102b76109cc565b6102b7611080565b6102b761035c3660046119b3565b6110b6565b6102b761036f36600461198c565b611115565b610226600f5481565b61022660175481565b610226610394366004611971565b60026020526000908152604090205481565b61022660185481565b6000546001600160a01b0316610267565b6103df6103ce366004611afc565b63bc197c8160e01b95945050505050565b6040516001600160e01b03199091168152602001610214565b610226610406366004611971565b60066020526000908152604090205481565b610226610426366004611971565b60046020526000908152604090205481565b61044b610446366004611971565b6111b1565b60408051938452602084019290925290820152606001610214565b610226610474366004611ba6565b611258565b61022660195481565b610226610490366004611971565b60036020526000908152604090205481565b6103df6104b0366004611bd2565b63f23a6e6160e01b95945050505050565b6102b76104cf366004611971565b6112a6565b60006001600160e01b03198216630271189760e51b148061050557506301ffc9a760e01b6001600160e01b03198316145b92915050565b601c818154811061051b57600080fd5b6000918252602090912001546001600160a01b0316905081565b6002600154036105605760405162461bcd60e51b815260040161055790611c37565b60405180910390fd5b6002600155806105b25760405162461bcd60e51b815260206004820152601a60248201527f416d6f756e74206d757374206265206d6f7265207468616e20300000000000006044820152606401610557565b600c54604080516393e6198760e01b8152905183926001600160a01b03169162fdd58e91339184916393e61987916004808201926020929091908290030181865afa158015610605573d6000803e3d6000fd5b505050506040513d601f19601f820116820180604052508101906106299190611c6e565b6040516001600160e01b031960e085901b1681526001600160a01b0390921660048301526024820152604401602060405180830381865afa158015610672573d6000803e3d6000fd5b505050506040513d601f19601f820116820180604052508101906106969190611c6e565b10156106f85760405162461bcd60e51b815260206004820152602b60248201527f54686520506c6179657220646f6573206e6f74206861766520656e6f7567682060448201526a5661756c7420506172747360a81b6064820152608401610557565b600c54604051637921219560e11b81523360048201523060248201526000604482018190526064820184905260a0608483015260a48201526001600160a01b039091169063f242432a9060c401600060405180830381600087803b15801561075f57600080fd5b505af1158015610773573d6000803e3d6000fd5b50503360009081526008602052604081208054859450909250610797908490611c9d565b9091555050600d5460405163de325b8f60e01b815233600482015282916009916000916001600160a01b03169063de325b8f90602401602060405180830381865afa1580156107ea573d6000803e3d6000fd5b505050506040513d601f19601f8201168201806040525081019061080e9190611c6e565b8152602001908152602001600020600082825461082b9190611c9d565b9250508190555080601060008282546108449190611c9d565b90915550506001805550565b6002600154036108725760405162461bcd60e51b815260040161055790611c37565b6002600155806108c45760405162461bcd60e51b815260206004820152601b60248201527f416d6f756e74206d757374206265206d6f7265207468616e20302e00000000006044820152606401610557565b336000908152600260205260409020546109205760405162461bcd60e51b815260206004820152601b60248201527f5374616b696e672062616c616e63652063616e6e6f74206265203000000000006044820152606401610557565b336000908152600260205260409020548111156109945760405162461bcd60e51b815260206004820152602c60248201527f43616e6e6f7420756e7374616b65206d6f7265207468616e20796f757220737460448201526b616b65642062616c616e636560a01b6064820152608401610557565b33600090815260026020526040812080548392906109b3908490611cb5565b9250508190555080600e60008282546108449190611cb5565b6000546001600160a01b031633146109f65760405162461bcd60e51b815260040161055790611ccc565b6000600e5411610a485760405162461bcd60e51b815260206004820152601a60248201527f546865726520617265206e6f20746f6b656e73207374616b65640000000000006044820152606401610557565b601354601454610a589042611cb5565b610a629190611d01565b601354610a6f9190611d23565b601454610a7c9190611c9d565b601581905560115410610ae65760405162461bcd60e51b815260206004820152602c60248201527f54686520706c617965722068617320616c726561647920636c61696d6564206960448201526b0dc40e8d0d2e640cae0dec6d60a31b6064820152608401610557565b610b11601254600e54610af99190611d23565b610b0590610258611d23565b63bbf81e006000611258565b600f55600060165560015b601d548111610bd857610b5f601c610b35600184611cb5565b81548110610b4557610b45611d42565b6000918252602090912001546001600160a01b0316611341565b60026000601c610b70600186611cb5565b81548110610b8057610b80611d42565b60009182526020808320909101546001600160a01b03168352820192909252604001902054610baf9190611d23565b60166000828254610bc09190611c9d565b90915550819050610bd081611d58565b915050610b1c565b506010546017556003600081905260096020527fc575c31fea594a6eb97c8e9d3f9caee4c16218c6ef37e923234c0fe9014a61e754600d54604051633093550960e01b815291926001600160a01b0390911691633093550991610c419160040190815260200190565b602060405180830381865afa158015610c5e573d6000803e3d6000fd5b505050506040513d601f19601f82011682018060405250810190610c829190611c6e565b610c8c9190611d23565b6002600081905260096020527f6cde3cea4b3a3fb2488b2808bae7556f4a405e50f65e1794383bc026131b13c354600d54604051633093550960e01b815291926001600160a01b0390911691633093550991610cee9160040190815260200190565b602060405180830381865afa158015610d0b573d6000803e3d6000fd5b505050506040513d601f19601f82011682018060405250810190610d2f9190611c6e565b610d399190611d23565b6001600081905260096020527f92e85d02570a8092d09a6e3a57665bc3815a2699a4074001bf1ccabf660f5a3654600d54604051633093550960e01b815291926001600160a01b0390911691633093550991610d9b9160040190815260200190565b602060405180830381865afa158015610db8573d6000803e3d6000fd5b505050506040513d601f19601f82011682018060405250810190610ddc9190611c6e565b610de69190611d23565b610df09190611c9d565b610dfa9190611c9d565b60185560015b601d54811161107957610e19601c610b35600184611cb5565b60026000601c610e2a600186611cb5565b81548110610e3a57610e3a611d42565b60009182526020808320909101546001600160a01b03168352820192909252604001902054610e699190611d23565b60195560086000601c610e7d600185611cb5565b81548110610e8d57610e8d611d42565b60009182526020808320909101546001600160a01b039081168452908301939093526040909101812054601a55600d546009921663de325b8f601c610ed3600187611cb5565b81548110610ee357610ee3611d42565b60009182526020909120015460405160e083901b6001600160e01b03191681526001600160a01b039091166004820152602401602060405180830381865afa158015610f33573d6000803e3d6000fd5b505050506040513d601f19601f82011682018060405250810190610f579190611c6e565b8152602081019190915260400160002054601b819055600f54610f9e91610f7f906005611d23565b610f899190611d23565b601854610f97906064611d23565b6000611258565b610fcb600f54601a546019610fb39190611d23565b610fbd9190611d23565b601754610f97906064611d23565b610ff8600f546019546046610fe09190611d23565b610fea9190611d23565b601654610f97906064611d23565b6110029190611c9d565b61100c9190611c9d565b60036000601c61101d600186611cb5565b8154811061102d5761102d611d42565b60009182526020808320909101546001600160a01b0316835282019290925260400181208054909190611061908490611c9d565b9091555081905061107181611d58565b915050610e00565b5042601155565b6000546001600160a01b031633146110aa5760405162461bcd60e51b815260040161055790611ccc565b6110b4600061150d565b565b80156110da57336000908152600360205260409020546110d59061155d565b611102565b33600081815260036020526040902054600a54611102926001600160a01b039091169161169f565b5033600090815260036020526040812055565b6002600154036111375760405162461bcd60e51b815260040161055790611c37565b6002600155806111895760405162461bcd60e51b815260206004820152601b60248201527f416d6f756e74206d757374206265206d6f7265207468616e20302e00000000006044820152606401610557565b600a546111a1906001600160a01b0316333084611707565b6111aa8161155d565b5060018055565b600a546040516370a0823160e01b81526001600160a01b03838116600483015260009283928392909116906370a0823190602401602060405180830381865afa158015611202573d6000803e3d6000fd5b505050506040513d601f19601f820116820180604052508101906112269190611c6e565b6001600160a01b0394909416600090815260026020908152604080832054600390925290912054949590949350915050565b6000600a83611268846001611c9d565b61127390600a611e55565b61127d9087611d23565b6112879190611d01565b611292906005611c9d565b61129c9190611d01565b90505b9392505050565b6000546001600160a01b031633146112d05760405162461bcd60e51b815260040161055790611ccc565b6001600160a01b0381166113355760405162461bcd60e51b815260206004820152602660248201527f4f776e61626c653a206e6577206f776e657220697320746865207a65726f206160448201526564647265737360d01b6064820152608401610557565b61133e8161150d565b50565b6001600160a01b0381166000908152600660205260408120546113649042611cb5565b6001600160a01b0383166000908152600560205260408120805490919061138c908490611c9d565b90915550506001600160a01b03821660009081526006602090815260408083204290556005909152902054610258106113e0576001600160a01b0382166000908152600760205260409020600a90556114f1565b6001600160a01b03821660009081526005602052604090205461025810801561142357506001600160a01b0382166000908152600560205260409020546104b010155b15611449576001600160a01b0382166000908152600760205260409020600d90556114f1565b6001600160a01b0382166000908152600560205260409020546104b010801561148c57506001600160a01b038216600090815260056020526040902054610bb810155b156114b2576001600160a01b0382166000908152600760205260409020601090556114f1565b6001600160a01b038216600090815260056020526040902054610bb810156114f1576001600160a01b0382166000908152600760205260409020601490555b506001600160a01b031660009081526007602052604090205490565b600080546001600160a01b038381166001600160a01b0319831681178455604051919092169283917f8be0079c531659141344cd1fd0a4f28419497f9722a3daafe3b4186f6b6457e09190a35050565b336000908152600260205260408120549081900361160f573360009081526004602052604081205490036115f857601d805490600061159b83611d58565b9091555050601d5433600081815260046020526040812092909255601c805460018101825592527f0e4562a10381dec21b205ed72637e6b1b523bdd0e4d4d50af5cd23dd4500a21190910180546001600160a01b03191690911790555b33600090815260066020526040902042905561165e565b336000908152600260205260409020546116299082611d01565b336000908152600660205260409020546116439042611cb5565b61164d9190611d23565b336000908152600560205260409020555b336000908152600260205260408120805484929061167d908490611c9d565b9250508190555081600e60008282546116969190611c9d565b90915550505050565b6040516001600160a01b03831660248201526044810182905261170290849063a9059cbb60e01b906064015b60408051601f198184030181529190526020810180516001600160e01b03166001600160e01b031990931692909217909152611745565b505050565b6040516001600160a01b038085166024830152831660448201526064810182905261173f9085906323b872dd60e01b906084016116cb565b50505050565b600061179a826040518060400160405280602081526020017f5361666545524332303a206c6f772d6c6576656c2063616c6c206661696c6564815250856001600160a01b03166118179092919063ffffffff16565b80519091501561170257808060200190518101906117b89190611e61565b6117025760405162461bcd60e51b815260206004820152602a60248201527f5361666545524332303a204552433230206f7065726174696f6e20646964206e6044820152691bdd081cdd58d8d9595960b21b6064820152608401610557565b606061129c8484600085856001600160a01b0385163b6118795760405162461bcd60e51b815260206004820152601d60248201527f416464726573733a2063616c6c20746f206e6f6e2d636f6e74726163740000006044820152606401610557565b600080866001600160a01b031685876040516118959190611eaa565b60006040518083038185875af1925050503d80600081146118d2576040519150601f19603f3d011682016040523d82523d6000602084013e6118d7565b606091505b50915091506118e78282866118f2565b979650505050505050565b6060831561190157508161129f565b8251156119115782518084602001fd5b8160405162461bcd60e51b81526004016105579190611ec6565b60006020828403121561193d57600080fd5b81356001600160e01b03198116811461129f57600080fd5b80356001600160a01b038116811461196c57600080fd5b919050565b60006020828403121561198357600080fd5b61129f82611955565b60006020828403121561199e57600080fd5b5035919050565b801515811461133e57600080fd5b6000602082840312156119c557600080fd5b813561129f816119a5565b634e487b7160e01b600052604160045260246000fd5b604051601f8201601f1916810167ffffffffffffffff81118282101715611a0f57611a0f6119d0565b604052919050565b600082601f830112611a2857600080fd5b8135602067ffffffffffffffff821115611a4457611a446119d0565b8160051b611a538282016119e6565b9283528481018201928281019087851115611a6d57600080fd5b83870192505b848310156118e757823582529183019190830190611a73565b600082601f830112611a9d57600080fd5b813567ffffffffffffffff811115611ab757611ab76119d0565b611aca601f8201601f19166020016119e6565b818152846020838601011115611adf57600080fd5b816020850160208301376000918101602001919091529392505050565b600080600080600060a08688031215611b1457600080fd5b611b1d86611955565b9450611b2b60208701611955565b9350604086013567ffffffffffffffff80821115611b4857600080fd5b611b5489838a01611a17565b94506060880135915080821115611b6a57600080fd5b611b7689838a01611a17565b93506080880135915080821115611b8c57600080fd5b50611b9988828901611a8c565b9150509295509295909350565b600080600060608486031215611bbb57600080fd5b505081359360208301359350604090920135919050565b600080600080600060a08688031215611bea57600080fd5b611bf386611955565b9450611c0160208701611955565b93506040860135925060608601359150608086013567ffffffffffffffff811115611c2b57600080fd5b611b9988828901611a8c565b6020808252601f908201527f5265656e7472616e637947756172643a207265656e7472616e742063616c6c00604082015260600190565b600060208284031215611c8057600080fd5b5051919050565b634e487b7160e01b600052601160045260246000fd5b60008219821115611cb057611cb0611c87565b500190565b600082821015611cc757611cc7611c87565b500390565b6020808252818101527f4f776e61626c653a2063616c6c6572206973206e6f7420746865206f776e6572604082015260600190565b600082611d1e57634e487b7160e01b600052601260045260246000fd5b500490565b6000816000190483118215151615611d3d57611d3d611c87565b500290565b634e487b7160e01b600052603260045260246000fd5b600060018201611d6a57611d6a611c87565b5060010190565b600181815b80851115611dac578160001904821115611d9257611d92611c87565b80851615611d9f57918102915b93841c9390800290611d76565b509250929050565b600082611dc357506001610505565b81611dd057506000610505565b8160018114611de65760028114611df057611e0c565b6001915050610505565b60ff841115611e0157611e01611c87565b50506001821b610505565b5060208310610133831016604e8410600b8410161715611e2f575081810a610505565b611e398383611d71565b8060001904821115611e4d57611e4d611c87565b029392505050565b600061129f8383611db4565b600060208284031215611e7357600080fd5b815161129f816119a5565b60005b83811015611e99578181015183820152602001611e81565b8381111561173f5750506000910152565b60008251611ebc818460208701611e7e565b9190910192915050565b6020815260008251806020840152611ee5816040850160208701611e7e565b601f01601f1916919091016040019291505056fea26469706673582212203c263bf3c2dbba6f1e571c3207d11b3542ee0a73422be017b779ec122bec046364736f6c634300080d0033",
  "linkReferences": {},
  "deployedLinkReferences": {}
}