{
  "_format": "hh-sol-artifact-1",
  "contractName": "MothoraVault",
  "sourceName": "contracts/MothoraVault.sol",
  "abi": [
    {
      "inputs": [
        {
          "internalType": "address",
          "name": "_tokenAddress",
          "type": "address"
        },
        {
          "internalType": "address",
          "name": "_gameItemsAddress",
          "type": "address"
        },
        {
          "internalType": "address",
          "name": "_playerContractAddress",
          "type": "address"
        },
        {
          "internalType": "uint256",
          "name": "_epochRewardsPercentage",
          "type": "uint256"
        },
        {
          "internalType": "uint256",
          "name": "_epochDuration",
          "type": "uint256"
        }
      ],
      "stateMutability": "nonpayable",
      "type": "constructor"
    },
    {
      "anonymous": false,
      "inputs": [
        {
          "indexed": true,
          "internalType": "address",
          "name": "previousOwner",
          "type": "address"
        },
        {
          "indexed": true,
          "internalType": "address",
          "name": "newOwner",
          "type": "address"
        }
      ],
      "name": "OwnershipTransferred",
      "type": "event"
    },
    {
      "inputs": [
        {
          "internalType": "address",
          "name": "",
          "type": "address"
        }
      ],
      "name": "RewardsBalance",
      "outputs": [
        {
          "internalType": "uint256",
          "name": "",
          "type": "uint256"
        }
      ],
      "stateMutability": "view",
      "type": "function"
    },
    {
      "inputs": [],
      "name": "a",
      "outputs": [
        {
          "internalType": "address",
          "name": "",
          "type": "address"
        }
      ],
      "stateMutability": "view",
      "type": "function"
    },
    {
      "inputs": [],
      "name": "claimEpochRewards",
      "outputs": [],
      "stateMutability": "nonpayable",
      "type": "function"
    },
    {
      "inputs": [
        {
          "internalType": "uint256",
          "name": "_amount",
          "type": "uint256"
        }
      ],
      "name": "contributeVaultParts",
      "outputs": [],
      "stateMutability": "nonpayable",
      "type": "function"
    },
    {
      "inputs": [],
      "name": "distributeRewards",
      "outputs": [],
      "stateMutability": "nonpayable",
      "type": "function"
    },
    {
      "inputs": [],
      "name": "essenceAddress",
      "outputs": [
        {
          "internalType": "contract IERC20",
          "name": "",
          "type": "address"
        }
      ],
      "stateMutability": "view",
      "type": "function"
    },
    {
      "inputs": [
        {
          "internalType": "uint256",
          "name": "",
          "type": "uint256"
        }
      ],
      "name": "factionPartsBalance",
      "outputs": [
        {
          "internalType": "uint256",
          "name": "",
          "type": "uint256"
        }
      ],
      "stateMutability": "view",
      "type": "function"
    },
    {
      "inputs": [
        {
          "internalType": "address",
          "name": "",
          "type": "address"
        }
      ],
      "name": "lastUpdate",
      "outputs": [
        {
          "internalType": "uint256",
          "name": "",
          "type": "uint256"
        }
      ],
      "stateMutability": "view",
      "type": "function"
    },
    {
      "inputs": [],
      "name": "owner",
      "outputs": [
        {
          "internalType": "address",
          "name": "",
          "type": "address"
        }
      ],
      "stateMutability": "view",
      "type": "function"
    },
    {
      "inputs": [
        {
          "internalType": "address",
          "name": "",
          "type": "address"
        }
      ],
      "name": "playerIds",
      "outputs": [
        {
          "internalType": "uint256",
          "name": "",
          "type": "uint256"
        }
      ],
      "stateMutability": "view",
      "type": "function"
    },
    {
      "inputs": [
        {
          "internalType": "address",
          "name": "",
          "type": "address"
        }
      ],
      "name": "playerStakedPartsBalance",
      "outputs": [
        {
          "internalType": "uint256",
          "name": "",
          "type": "uint256"
        }
      ],
      "stateMutability": "view",
      "type": "function"
    },
    {
      "inputs": [],
      "name": "renounceOwnership",
      "outputs": [],
      "stateMutability": "nonpayable",
      "type": "function"
    },
    {
      "inputs": [
        {
          "internalType": "uint256",
          "name": "_amount",
          "type": "uint256"
        }
      ],
      "name": "stakeTokens",
      "outputs": [],
      "stateMutability": "nonpayable",
      "type": "function"
    },
    {
      "inputs": [
        {
          "internalType": "address",
          "name": "",
          "type": "address"
        }
      ],
      "name": "stakedDuration",
      "outputs": [
        {
          "internalType": "uint256",
          "name": "",
          "type": "uint256"
        }
      ],
      "stateMutability": "view",
      "type": "function"
    },
    {
      "inputs": [
        {
          "internalType": "address",
          "name": "",
          "type": "address"
        }
      ],
      "name": "stakedESSBalance",
      "outputs": [
        {
          "internalType": "uint256",
          "name": "",
          "type": "uint256"
        }
      ],
      "stateMutability": "view",
      "type": "function"
    },
    {
      "inputs": [
        {
          "internalType": "address",
          "name": "",
          "type": "address"
        }
      ],
      "name": "timeTier",
      "outputs": [
        {
          "internalType": "uint256",
          "name": "",
          "type": "uint256"
        }
      ],
      "stateMutability": "view",
      "type": "function"
    },
    {
      "inputs": [
        {
          "internalType": "address",
          "name": "newOwner",
          "type": "address"
        }
      ],
      "name": "transferOwnership",
      "outputs": [],
      "stateMutability": "nonpayable",
      "type": "function"
    },
    {
      "inputs": [
        {
          "internalType": "uint256",
          "name": "_amount",
          "type": "uint256"
        }
      ],
      "name": "unstakeTokens",
      "outputs": [],
      "stateMutability": "nonpayable",
      "type": "function"
    }
  ],
  "bytecode": "0x60806040523480156200001157600080fd5b50604051620019e9380380620019e9833981016040819052620000349162000126565b6200003f33620000b9565b60018055600a80546001600160a01b038088166001600160a01b031992831617909255600c8054878416908316179055600d8054928616929091169190911790556064620000988369d3c21bcecceda100000062000183565b620000a49190620001b1565b60115560125550504260135550620001d49050565b600080546001600160a01b038381166001600160a01b0319831681178455604051919092169283917f8be0079c531659141344cd1fd0a4f28419497f9722a3daafe3b4186f6b6457e09190a35050565b80516001600160a01b03811681146200012157600080fd5b919050565b600080600080600060a086880312156200013f57600080fd5b6200014a8662000109565b94506200015a6020870162000109565b93506200016a6040870162000109565b6060870151608090970151959894975095949392505050565b6000816000190483118215151615620001ac57634e487b7160e01b600052601160045260246000fd5b500290565b600082620001cf57634e487b7160e01b600052601260045260246000fd5b500490565b61180580620001e46000396000f3fe608060405234801561001057600080fd5b50600436106101165760003560e01c8063715018a6116100a2578063cb03fb1e11610071578063cb03fb1e14610268578063d36ec06114610288578063dc540cf8146102a8578063eaaa1b1d146102b0578063f2fde38b146102d057600080fd5b8063715018a61461021c5780637547c7a31461022457806388e1e939146102375780638da5cb5b1461025757600080fd5b80635ba7905e116100e95780635ba7905e146101ae5780635ca5e068146101c1578063608e4dd0146101e1578063696786d3146101f45780636f4a2cd01461021457600080fd5b80630dbe671f1461011b5780630f3c1fe51461014b5780633c41ed431461017957806344cfedbd1461018e575b600080fd5b601a5461012e906001600160a01b031681565b6040516001600160a01b0390911681526020015b60405180910390f35b61016b610159366004611606565b60086020526000908152604090205481565b604051908152602001610142565b61018c61018736600461162f565b6102e3565b005b61016b61019c366004611606565b60056020526000908152604090205481565b600a5461012e906001600160a01b031681565b61016b6101cf36600461162f565b60096020526000908152604090205481565b61018c6101ef36600461162f565b6105d9565b61016b610202366004611606565b60076020526000908152604090205481565b61018c6107a7565b61018c610d99565b61018c61023236600461162f565b610dff565b61016b610245366004611606565b60026020526000908152604090205481565b6000546001600160a01b031661012e565b61016b610276366004611606565b60066020526000908152604090205481565b61016b610296366004611606565b60046020526000908152604090205481565b61018c610ff2565b61016b6102be366004611606565b60036020526000908152604090205481565b61018c6102de366004611606565b61102f565b600081116103385760405162461bcd60e51b815260206004820152601a60248201527f416d6f756e74206d757374206265206d6f7265207468616e203000000000000060448201526064015b60405180910390fd5b600c54604080516393e6198760e01b8152905183926001600160a01b03169162fdd58e91339184916393e61987916004808201926020929091908290030181865afa15801561038b573d6000803e3d6000fd5b505050506040513d601f19601f820116820180604052508101906103af9190611648565b6040516001600160e01b031960e085901b1681526001600160a01b0390921660048301526024820152604401602060405180830381865afa1580156103f8573d6000803e3d6000fd5b505050506040513d601f19601f8201168201806040525081019061041c9190611648565b101561047e5760405162461bcd60e51b815260206004820152602b60248201527f54686520506c6179657220646f6573206e6f74206861766520656e6f7567682060448201526a5661756c7420506172747360a81b606482015260840161032f565b600c54604051637921219560e11b8152336004820152306024820152600160448201526064810183905260a06084820152600060a48201526001600160a01b039091169063f242432a9060c401600060405180830381600087803b1580156104e557600080fd5b505af11580156104f9573d6000803e3d6000fd5b5050336000908152600860205260409020546105189250839150611677565b3360008181526008602052604080822093909355600d54925163de325b8f60e01b81526004810192909252916001600160a01b03169063de325b8f90602401602060405180830381865afa158015610574573d6000803e3d6000fd5b505050506040513d601f19601f820116820180604052508101906105989190611648565b6000818152600960205260409020549091506105b5908390611677565b600082815260096020526040902055600f546105d2908390611677565b600f555050565b60026001540361062b5760405162461bcd60e51b815260206004820152601f60248201527f5265656e7472616e637947756172643a207265656e7472616e742063616c6c00604482015260640161032f565b60026001558061067d5760405162461bcd60e51b815260206004820152601b60248201527f416d6f756e74206d757374206265206d6f7265207468616e20302e0000000000604482015260640161032f565b336000908152600260205260409020546106d95760405162461bcd60e51b815260206004820152601b60248201527f5374616b696e672062616c616e63652063616e6e6f7420626520300000000000604482015260640161032f565b3360009081526002602052604090205481111561074d5760405162461bcd60e51b815260206004820152602c60248201527f43616e6e6f7420756e7374616b65206d6f7265207468616e20796f757220737460448201526b616b65642062616c616e636560a01b606482015260840161032f565b600a54610764906001600160a01b031633836110fa565b3360009081526002602052604090205461077f90829061168f565b33600090815260026020526040902055600e5461079d90829061168f565b600e555060018055565b6001601254601354426107ba919061168f565b6107c491906116bc565b6107ce91906116d0565b6012546107db91906116e4565b6013546107e89190611677565b6014819055601054106108535760405162461bcd60e51b815260206004820152602d60248201527f54686520706c617965722068617320616c726561647920636c61696d6564206960448201526c37103a3434b99032b837b1b41760991b606482015260840161032f565b60015b60195481116108f75761088f6018828154811061087557610875611703565b6000918252602090912001546001600160a01b0316611162565b60026000601884815481106108a6576108a6611703565b60009182526020808320909101546001600160a01b031683528201929092526040019020546108d591906116e4565b6015546108e29190611677565b601555806108ef81611719565b915050610856565b50600f546016556003600081905260096020527fc575c31fea594a6eb97c8e9d3f9caee4c16218c6ef37e923234c0fe9014a61e754600d54604051633093550960e01b815291926001600160a01b03909116916330935509916109609160040190815260200190565b602060405180830381865afa15801561097d573d6000803e3d6000fd5b505050506040513d601f19601f820116820180604052508101906109a19190611648565b6109ab91906116e4565b6002600081905260096020527f6cde3cea4b3a3fb2488b2808bae7556f4a405e50f65e1794383bc026131b13c354600d54604051633093550960e01b815291926001600160a01b0390911691633093550991610a0d9160040190815260200190565b602060405180830381865afa158015610a2a573d6000803e3d6000fd5b505050506040513d601f19601f82011682018060405250810190610a4e9190611648565b610a5891906116e4565b6001600081905260096020527f92e85d02570a8092d09a6e3a57665bc3815a2699a4074001bf1ccabf660f5a3654600d54604051633093550960e01b815291926001600160a01b0390911691633093550991610aba9160040190815260200190565b602060405180830381865afa158015610ad7573d6000803e3d6000fd5b505050506040513d601f19601f82011682018060405250810190610afb9190611648565b610b0591906116e4565b610b0f9190611677565b610b199190611677565b60175560015b6019548111610d9257606460175460096000600d60009054906101000a90046001600160a01b03166001600160a01b031663de325b8f60188781548110610b6857610b68611703565b60009182526020909120015460405160e083901b6001600160e01b03191681526001600160a01b039091166004820152602401602060405180830381865afa158015610bb8573d6000803e3d6000fd5b505050506040513d601f19601f82011682018060405250810190610bdc9190611648565b815260200190815260200160002054610bf591906116bc565b610c009060056116e4565b610c0a91906116bc565b60646016546008600060188681548110610c2657610c26611703565b60009182526020808320909101546001600160a01b03168352820192909252604001902054610c5591906116bc565b610c609060196116e4565b610c6a91906116bc565b6064601554610c856018868154811061087557610875611703565b6002600060188881548110610c9c57610c9c611703565b60009182526020808320909101546001600160a01b03168352820192909252604001902054610ccb91906116e4565b610cd591906116bc565b610ce09060466116e4565b610cea91906116bc565b6003600060188681548110610d0157610d01611703565b60009182526020808320909101546001600160a01b03168352820192909252604001902054610d309190611677565b610d3a9190611677565b610d449190611677565b6003600060188481548110610d5b57610d5b611703565b60009182526020808320909101546001600160a01b0316835282019290925260400190205580610d8a81611719565b915050610b1f565b5042601055565b6000546001600160a01b03163314610df35760405162461bcd60e51b815260206004820181905260248201527f4f776e61626c653a2063616c6c6572206973206e6f7420746865206f776e6572604482015260640161032f565b610dfd6000611323565b565b600260015403610e515760405162461bcd60e51b815260206004820152601f60248201527f5265656e7472616e637947756172643a207265656e7472616e742063616c6c00604482015260640161032f565b600260015580610ea35760405162461bcd60e51b815260206004820152601b60248201527f416d6f756e74206d757374206265206d6f7265207468616e20302e0000000000604482015260640161032f565b33600081815260026020526040902054600a549091610ecd916001600160a01b0316903085611373565b33600090815260026020526040902054610ee8908390611677565b33600090815260026020526040812091909155819003610f8a57336000908152600460205260408120549003610f855760198054906000610f2883611719565b9091555050601954336000818152600460205260408120929092556018805460018101825592527fb13d2d76d1f4b7be834882e410b3e3a8afaf69f83600ae24db354391d2378d2e90910180546001600160a01b03191690911790555b610fd9565b33600090815260026020526040902054610fa490826116bc565b33600090815260066020526040902054610fbe904261168f565b610fc891906116e4565b336000908152600560205260409020555b81600e54610fe79190611677565b600e55505060018055565b33600081815260036020526040902054600a5461101d926001600160a01b0390911691309190611373565b33600090815260036020526040812055565b6000546001600160a01b031633146110895760405162461bcd60e51b815260206004820181905260248201527f4f776e61626c653a2063616c6c6572206973206e6f7420746865206f776e6572604482015260640161032f565b6001600160a01b0381166110ee5760405162461bcd60e51b815260206004820152602660248201527f4f776e61626c653a206e6577206f776e657220697320746865207a65726f206160448201526564647265737360d01b606482015260840161032f565b6110f781611323565b50565b6040516001600160a01b03831660248201526044810182905261115d90849063a9059cbb60e01b906064015b60408051601f198184030181529190526020810180516001600160e01b03166001600160e01b0319909316929092179091526113b1565b505050565b6001600160a01b038116600090815260066020526040812054611185904261168f565b6001600160a01b0383166000908152600560205260409020546111a89190611677565b6001600160a01b03831660009081526005602081815260408084209485556006825290922042905590525462015180106111fd576001600160a01b038216600090815260076020526040902060019055611307565b6001600160a01b0382166000908152600560205260409020546201518010801561124257506001600160a01b0382166000908152600560205260409020546202a30010155b1561127157611253600a600d6116bc565b6001600160a01b038316600090815260076020526040902055611307565b6001600160a01b0382166000908152600560205260409020546202a3001080156112b657506001600160a01b0382166000908152600560205260409020546206978010155b156112c757611253600a60106116bc565b6001600160a01b038216600090815260056020526040902054620697801015611307576001600160a01b0382166000908152600760205260409020600290555b506001600160a01b031660009081526007602052604090205490565b600080546001600160a01b038381166001600160a01b0319831681178455604051919092169283917f8be0079c531659141344cd1fd0a4f28419497f9722a3daafe3b4186f6b6457e09190a35050565b6040516001600160a01b03808516602483015283166044820152606481018290526113ab9085906323b872dd60e01b90608401611126565b50505050565b6000611406826040518060400160405280602081526020017f5361666545524332303a206c6f772d6c6576656c2063616c6c206661696c6564815250856001600160a01b03166114839092919063ffffffff16565b80519091501561115d57808060200190518101906114249190611732565b61115d5760405162461bcd60e51b815260206004820152602a60248201527f5361666545524332303a204552433230206f7065726174696f6e20646964206e6044820152691bdd081cdd58d8d9595960b21b606482015260840161032f565b6060611492848460008561149c565b90505b9392505050565b6060824710156114fd5760405162461bcd60e51b815260206004820152602660248201527f416464726573733a20696e73756666696369656e742062616c616e636520666f6044820152651c8818d85b1b60d21b606482015260840161032f565b6001600160a01b0385163b6115545760405162461bcd60e51b815260206004820152601d60248201527f416464726573733a2063616c6c20746f206e6f6e2d636f6e7472616374000000604482015260640161032f565b600080866001600160a01b031685876040516115709190611780565b60006040518083038185875af1925050503d80600081146115ad576040519150601f19603f3d011682016040523d82523d6000602084013e6115b2565b606091505b50915091506115c28282866115cd565b979650505050505050565b606083156115dc575081611495565b8251156115ec5782518084602001fd5b8160405162461bcd60e51b815260040161032f919061179c565b60006020828403121561161857600080fd5b81356001600160a01b038116811461149557600080fd5b60006020828403121561164157600080fd5b5035919050565b60006020828403121561165a57600080fd5b5051919050565b634e487b7160e01b600052601160045260246000fd5b6000821982111561168a5761168a611661565b500190565b6000828210156116a1576116a1611661565b500390565b634e487b7160e01b600052601260045260246000fd5b6000826116cb576116cb6116a6565b500490565b6000826116df576116df6116a6565b500690565b60008160001904831182151516156116fe576116fe611661565b500290565b634e487b7160e01b600052603260045260246000fd5b60006001820161172b5761172b611661565b5060010190565b60006020828403121561174457600080fd5b8151801515811461149557600080fd5b60005b8381101561176f578181015183820152602001611757565b838111156113ab5750506000910152565b60008251611792818460208701611754565b9190910192915050565b60208152600082518060208401526117bb816040850160208701611754565b601f01601f1916919091016040019291505056fea26469706673582212205c6ae40f48e4939b38e68eba4f5a07bb943ca2d85ad57f040b70a7c4d472af2064736f6c634300080d0033",
  "linkReferences": {},
  "deployedLinkReferences": {}
}