{
  "_format": "hh-sol-artifact-1",
  "contractName": "MothoraVault",
  "sourceName": "contracts/MothoraVault.sol",
  "abi": [
    {
      "inputs": [
        {
          "internalType": "address",
          "name": "_tokenAddress",
          "type": "address"
        },
        {
          "internalType": "address",
          "name": "_gameItemsAddress",
          "type": "address"
        },
        {
          "internalType": "address",
          "name": "_playerContractAddress",
          "type": "address"
        },
        {
          "internalType": "uint256",
          "name": "_epochRewardsPercentage",
          "type": "uint256"
        },
        {
          "internalType": "uint256",
          "name": "_epochDuration",
          "type": "uint256"
        }
      ],
      "stateMutability": "nonpayable",
      "type": "constructor"
    },
    {
      "anonymous": false,
      "inputs": [
        {
          "indexed": true,
          "internalType": "address",
          "name": "previousOwner",
          "type": "address"
        },
        {
          "indexed": true,
          "internalType": "address",
          "name": "newOwner",
          "type": "address"
        }
      ],
      "name": "OwnershipTransferred",
      "type": "event"
    },
    {
      "inputs": [],
      "name": "claimEpochRewards",
      "outputs": [],
      "stateMutability": "nonpayable",
      "type": "function"
    },
    {
      "inputs": [
        {
          "internalType": "uint256",
          "name": "_amount",
          "type": "uint256"
        }
      ],
      "name": "contributeVaultParts",
      "outputs": [],
      "stateMutability": "nonpayable",
      "type": "function"
    },
    {
      "inputs": [],
      "name": "essenceAddress",
      "outputs": [
        {
          "internalType": "contract IERC20",
          "name": "",
          "type": "address"
        }
      ],
      "stateMutability": "view",
      "type": "function"
    },
    {
      "inputs": [
        {
          "internalType": "uint256",
          "name": "",
          "type": "uint256"
        }
      ],
      "name": "factionPartsBalance",
      "outputs": [
        {
          "internalType": "uint256",
          "name": "",
          "type": "uint256"
        }
      ],
      "stateMutability": "view",
      "type": "function"
    },
    {
      "inputs": [
        {
          "internalType": "address",
          "name": "",
          "type": "address"
        }
      ],
      "name": "lastClaimTime",
      "outputs": [
        {
          "internalType": "uint256",
          "name": "",
          "type": "uint256"
        }
      ],
      "stateMutability": "view",
      "type": "function"
    },
    {
      "inputs": [
        {
          "internalType": "address",
          "name": "",
          "type": "address"
        }
      ],
      "name": "lastUpdate",
      "outputs": [
        {
          "internalType": "uint256",
          "name": "",
          "type": "uint256"
        }
      ],
      "stateMutability": "view",
      "type": "function"
    },
    {
      "inputs": [],
      "name": "owner",
      "outputs": [
        {
          "internalType": "address",
          "name": "",
          "type": "address"
        }
      ],
      "stateMutability": "view",
      "type": "function"
    },
    {
      "inputs": [
        {
          "internalType": "address",
          "name": "",
          "type": "address"
        }
      ],
      "name": "playerStakedPartsBalance",
      "outputs": [
        {
          "internalType": "uint256",
          "name": "",
          "type": "uint256"
        }
      ],
      "stateMutability": "view",
      "type": "function"
    },
    {
      "inputs": [],
      "name": "renounceOwnership",
      "outputs": [],
      "stateMutability": "nonpayable",
      "type": "function"
    },
    {
      "inputs": [
        {
          "internalType": "uint256",
          "name": "_amount",
          "type": "uint256"
        }
      ],
      "name": "stakeTokens",
      "outputs": [],
      "stateMutability": "nonpayable",
      "type": "function"
    },
    {
      "inputs": [
        {
          "internalType": "address",
          "name": "",
          "type": "address"
        }
      ],
      "name": "stakedDuration",
      "outputs": [
        {
          "internalType": "uint256",
          "name": "",
          "type": "uint256"
        }
      ],
      "stateMutability": "view",
      "type": "function"
    },
    {
      "inputs": [
        {
          "internalType": "address",
          "name": "",
          "type": "address"
        }
      ],
      "name": "stakedESSBalance",
      "outputs": [
        {
          "internalType": "uint256",
          "name": "",
          "type": "uint256"
        }
      ],
      "stateMutability": "view",
      "type": "function"
    },
    {
      "inputs": [
        {
          "internalType": "address",
          "name": "",
          "type": "address"
        }
      ],
      "name": "timeTier",
      "outputs": [
        {
          "internalType": "uint256",
          "name": "",
          "type": "uint256"
        }
      ],
      "stateMutability": "view",
      "type": "function"
    },
    {
      "inputs": [
        {
          "internalType": "address",
          "name": "newOwner",
          "type": "address"
        }
      ],
      "name": "transferOwnership",
      "outputs": [],
      "stateMutability": "nonpayable",
      "type": "function"
    },
    {
      "inputs": [
        {
          "internalType": "uint256",
          "name": "_amount",
          "type": "uint256"
        }
      ],
      "name": "unstakeTokens",
      "outputs": [],
      "stateMutability": "nonpayable",
      "type": "function"
    }
  ],
  "bytecode": "0x60806040523480156200001157600080fd5b50604051620014cd380380620014cd833981016040819052620000349162000122565b6200003f33620000b5565b600880546001600160a01b038088166001600160a01b031992831617909255600a8054878416908316179055600b8054928616929091169190911790556064620000948369d3c21bcecceda10000006200017f565b620000a09190620001ad565b60105560115550504260125550620001d09050565b600080546001600160a01b038381166001600160a01b0319831681178455604051919092169283917f8be0079c531659141344cd1fd0a4f28419497f9722a3daafe3b4186f6b6457e09190a35050565b80516001600160a01b03811681146200011d57600080fd5b919050565b600080600080600060a086880312156200013b57600080fd5b620001468662000105565b9450620001566020870162000105565b9350620001666040870162000105565b6060870151608090970151959894975095949392505050565b6000816000190483118215151615620001a857634e487b7160e01b600052601160045260246000fd5b500290565b600082620001cb57634e487b7160e01b600052601260045260246000fd5b500490565b6112ed80620001e06000396000f3fe608060405234801561001057600080fd5b50600436106100f55760003560e01c8063715018a611610097578063b77cf9c611610066578063b77cf9c61461022c578063cb03fb1e1461024c578063dc540cf81461026c578063f2fde38b1461027457600080fd5b8063715018a6146101e05780637547c7a3146101e857806388e1e939146101fb5780638da5cb5b1461021b57600080fd5b80635ba7905e116100d35780635ba7905e146101625780635ca5e0681461018d578063608e4dd0146101ad578063696786d3146101c057600080fd5b80630f3c1fe5146100fa5780633c41ed431461012d57806344cfedbd14610142575b600080fd5b61011a61010836600461111d565b60066020526000908152604090205481565b6040519081526020015b60405180910390f35b61014061013b366004611146565b610287565b005b61011a61015036600461111d565b60026020526000908152604090205481565b600854610175906001600160a01b031681565b6040516001600160a01b039091168152602001610124565b61011a61019b366004611146565b60076020526000908152604090205481565b6101406101bb366004611146565b61057d565b61011a6101ce36600461111d565b60046020526000908152604090205481565b6101406106a4565b6101406101f6366004611146565b61070a565b61011a61020936600461111d565b60016020526000908152604090205481565b6000546001600160a01b0316610175565b61011a61023a36600461111d565b60056020526000908152604090205481565b61011a61025a36600461111d565b60036020526000908152604090205481565b610140610871565b61014061028236600461111d565b610d48565b600081116102dc5760405162461bcd60e51b815260206004820152601a60248201527f416d6f756e74206d757374206265206d6f7265207468616e203000000000000060448201526064015b60405180910390fd5b600a54604080516393e6198760e01b8152905183926001600160a01b03169162fdd58e91339184916393e61987916004808201926020929091908290030181865afa15801561032f573d6000803e3d6000fd5b505050506040513d601f19601f82011682018060405250810190610353919061115f565b6040516001600160e01b031960e085901b1681526001600160a01b0390921660048301526024820152604401602060405180830381865afa15801561039c573d6000803e3d6000fd5b505050506040513d601f19601f820116820180604052508101906103c0919061115f565b10156104225760405162461bcd60e51b815260206004820152602b60248201527f54686520506c6179657220646f6573206e6f74206861766520656e6f7567682060448201526a5661756c7420506172747360a81b60648201526084016102d3565b600a54604051637921219560e11b8152336004820152306024820152600160448201526064810183905260a06084820152600060a48201526001600160a01b039091169063f242432a9060c401600060405180830381600087803b15801561048957600080fd5b505af115801561049d573d6000803e3d6000fd5b5050336000908152600660205260409020546104bc925083915061118e565b3360008181526006602052604080822093909355600b54925163de325b8f60e01b81526004810192909252916001600160a01b03169063de325b8f90602401602060405180830381865afa158015610518573d6000803e3d6000fd5b505050506040513d601f19601f8201168201806040525081019061053c919061115f565b60008181526007602052604090205490915061055990839061118e565b600082815260076020526040902055600e5461057690839061118e565b600e555050565b336000908152600160205260409020546105d95760405162461bcd60e51b815260206004820152601b60248201527f5374616b696e672062616c616e63652063616e6e6f742062652030000000000060448201526064016102d3565b3360009081526001602052604090205481111561064d5760405162461bcd60e51b815260206004820152602c60248201527f43616e6e6f7420756e7374616b65206d6f7265207468616e20796f757220737460448201526b616b65642062616c616e636560a01b60648201526084016102d3565b600854610665906001600160a01b0316303384610e13565b336000908152600160205260409020546106809082906111a6565b33600090815260016020526040902055600d5461069e9082906111a6565b600d5550565b6000546001600160a01b031633146106fe5760405162461bcd60e51b815260206004820181905260248201527f4f776e61626c653a2063616c6c6572206973206e6f7420746865206f776e657260448201526064016102d3565b6107086000610e73565b565b6000811161075a5760405162461bcd60e51b815260206004820152601b60248201527f416d6f756e74206d757374206265206d6f7265207468616e20302e000000000060448201526064016102d3565b336000818152600160205260409020546008549091610784916001600160a01b0316903085610e13565b3360009081526001602052604090205461079f90839061118e565b336000908152600160205260408120919091558190036107d05733600090815260036020526040902042905561082d565b336000908152600160205260409020546107ea90826111d3565b3360009081526003602052604090205461080490426111a6565b61080e91906111e7565b3360009081526002602090815260408083209390935560039052204290555b81600d5461083b919061118e565b600d5461084891906111d3565b600c5461085591906111e7565b600c55600d5461086690839061118e565b600d55505042600f55565b60016011546012544261088491906111a6565b61088e91906111d3565b6108989190611206565b6011546108a591906111e7565b6012546108b2919061118e565b6013819055336000908152600560205260409020541061092a5760405162461bcd60e51b815260206004820152602d60248201527f54686520706c617965722068617320616c726561647920636c61696d6564206960448201526c37103a3434b99032b837b1b41760991b60648201526084016102d3565b600f5461093790426111a6565b600c54610944919061118e565b600c819055600d54610955916111e7565b601755600e546018556003600081905260076020527f3be6fd20d5acfde5b873b48692cd31f4d3c7e8ee8a813af4696af8859e5ca6c654600b54604051633093550960e01b815291926001600160a01b03909116916330935509916109c09160040190815260200190565b602060405180830381865afa1580156109dd573d6000803e3d6000fd5b505050506040513d601f19601f82011682018060405250810190610a01919061115f565b610a0b91906111e7565b6002600081905260076020527fb7c774451310d1be4108bc180d1b52823cb0ee0274a6c0081bcaf94f115fb96d54600b54604051633093550960e01b815291926001600160a01b0390911691633093550991610a6d9160040190815260200190565b602060405180830381865afa158015610a8a573d6000803e3d6000fd5b505050506040513d601f19601f82011682018060405250810190610aae919061115f565b610ab891906111e7565b6001600081905260076020527fb39221ace053465ec3453ce2b36430bd138b997ecea25c1043da0c366812b82854600b54604051633093550960e01b815291926001600160a01b0390911691633093550991610b1a9160040190815260200190565b602060405180830381865afa158015610b37573d6000803e3d6000fd5b505050506040513d601f19601f82011682018060405250810190610b5b919061115f565b610b6591906111e7565b610b6f919061118e565b610b79919061118e565b60195560175433600090815260026020908152604080832054600190925290912054610ba591906111e7565b610baf91906111d3565b601455600e5433600090815260066020526040902054610bcf91906111d3565b601555600e54600b5460405163de325b8f60e01b81523360048201526007916000916001600160a01b039091169063de325b8f90602401602060405180830381865afa158015610c23573d6000803e3d6000fd5b505050506040513d601f19601f82011682018060405250810190610c47919061115f565b815260200190815260200160002054610c6091906111d3565b6016819055601954600091610c7591906111d3565b60646010546003610c8691906111e7565b610c9091906111d3565b610c9a91906111e7565b601854601554610caa91906111d3565b60646010546007610cbb91906111e7565b610cc591906111d3565b610ccf91906111e7565b601754601454610cdf91906111d3565b6064601054605a610cf091906111e7565b610cfa91906111d3565b610d0491906111e7565b610d0e919061118e565b610d18919061118e565b600854909150610d33906001600160a01b0316303384610e13565b50336000908152600560205260409020429055565b6000546001600160a01b03163314610da25760405162461bcd60e51b815260206004820181905260248201527f4f776e61626c653a2063616c6c6572206973206e6f7420746865206f776e657260448201526064016102d3565b6001600160a01b038116610e075760405162461bcd60e51b815260206004820152602660248201527f4f776e61626c653a206e6577206f776e657220697320746865207a65726f206160448201526564647265737360d01b60648201526084016102d3565b610e1081610e73565b50565b604080516001600160a01b0385811660248301528416604482015260648082018490528251808303909101815260849091019091526020810180516001600160e01b03166323b872dd60e01b179052610e6d908590610ec3565b50505050565b600080546001600160a01b038381166001600160a01b0319831681178455604051919092169283917f8be0079c531659141344cd1fd0a4f28419497f9722a3daafe3b4186f6b6457e09190a35050565b6000610f18826040518060400160405280602081526020017f5361666545524332303a206c6f772d6c6576656c2063616c6c206661696c6564815250856001600160a01b0316610f9a9092919063ffffffff16565b805190915015610f955780806020019051810190610f36919061121a565b610f955760405162461bcd60e51b815260206004820152602a60248201527f5361666545524332303a204552433230206f7065726174696f6e20646964206e6044820152691bdd081cdd58d8d9595960b21b60648201526084016102d3565b505050565b6060610fa98484600085610fb3565b90505b9392505050565b6060824710156110145760405162461bcd60e51b815260206004820152602660248201527f416464726573733a20696e73756666696369656e742062616c616e636520666f6044820152651c8818d85b1b60d21b60648201526084016102d3565b6001600160a01b0385163b61106b5760405162461bcd60e51b815260206004820152601d60248201527f416464726573733a2063616c6c20746f206e6f6e2d636f6e747261637400000060448201526064016102d3565b600080866001600160a01b031685876040516110879190611268565b60006040518083038185875af1925050503d80600081146110c4576040519150601f19603f3d011682016040523d82523d6000602084013e6110c9565b606091505b50915091506110d98282866110e4565b979650505050505050565b606083156110f3575081610fac565b8251156111035782518084602001fd5b8160405162461bcd60e51b81526004016102d39190611284565b60006020828403121561112f57600080fd5b81356001600160a01b0381168114610fac57600080fd5b60006020828403121561115857600080fd5b5035919050565b60006020828403121561117157600080fd5b5051919050565b634e487b7160e01b600052601160045260246000fd5b600082198211156111a1576111a1611178565b500190565b6000828210156111b8576111b8611178565b500390565b634e487b7160e01b600052601260045260246000fd5b6000826111e2576111e26111bd565b500490565b600081600019048311821515161561120157611201611178565b500290565b600082611215576112156111bd565b500690565b60006020828403121561122c57600080fd5b81518015158114610fac57600080fd5b60005b8381101561125757818101518382015260200161123f565b83811115610e6d5750506000910152565b6000825161127a81846020870161123c565b9190910192915050565b60208152600082518060208401526112a381604085016020870161123c565b601f01601f1916919091016040019291505056fea26469706673582212204f36e2bcd33f565ca8e5d5c1f510e294ca004aa4e996f15a32bca96b0ed8011f64736f6c634300080d0033",
  "linkReferences": {},
  "deployedLinkReferences": {}
}