{
  "_format": "hh-sol-artifact-1",
  "contractName": "MothoraVault",
  "sourceName": "contracts/MothoraVault.sol",
  "abi": [
    {
      "inputs": [
        {
          "internalType": "address",
          "name": "_tokenAddress",
          "type": "address"
        },
        {
          "internalType": "address",
          "name": "_gameItemsAddress",
          "type": "address"
        },
        {
          "internalType": "address",
          "name": "_playerContractAddress",
          "type": "address"
        },
        {
          "internalType": "uint256",
          "name": "_epochRewardsPercentage",
          "type": "uint256"
        },
        {
          "internalType": "uint256",
          "name": "_epochDuration",
          "type": "uint256"
        }
      ],
      "stateMutability": "nonpayable",
      "type": "constructor"
    },
    {
      "anonymous": false,
      "inputs": [
        {
          "indexed": true,
          "internalType": "address",
          "name": "previousOwner",
          "type": "address"
        },
        {
          "indexed": true,
          "internalType": "address",
          "name": "newOwner",
          "type": "address"
        }
      ],
      "name": "OwnershipTransferred",
      "type": "event"
    },
    {
      "inputs": [
        {
          "internalType": "address",
          "name": "",
          "type": "address"
        }
      ],
      "name": "RewardsBalance",
      "outputs": [
        {
          "internalType": "uint256",
          "name": "",
          "type": "uint256"
        }
      ],
      "stateMutability": "view",
      "type": "function"
    },
    {
      "inputs": [
        {
          "internalType": "bool",
          "name": "autocompound",
          "type": "bool"
        }
      ],
      "name": "claimEpochRewards",
      "outputs": [],
      "stateMutability": "nonpayable",
      "type": "function"
    },
    {
      "inputs": [
        {
          "internalType": "uint256",
          "name": "_amount",
          "type": "uint256"
        }
      ],
      "name": "contributeVaultParts",
      "outputs": [],
      "stateMutability": "nonpayable",
      "type": "function"
    },
    {
      "inputs": [],
      "name": "distributeRewards",
      "outputs": [],
      "stateMutability": "nonpayable",
      "type": "function"
    },
    {
      "inputs": [
        {
          "internalType": "uint256",
          "name": "numerator",
          "type": "uint256"
        },
        {
          "internalType": "uint256",
          "name": "denominator",
          "type": "uint256"
        },
        {
          "internalType": "uint256",
          "name": "precision",
          "type": "uint256"
        }
      ],
      "name": "divider",
      "outputs": [
        {
          "internalType": "uint256",
          "name": "",
          "type": "uint256"
        }
      ],
      "stateMutability": "pure",
      "type": "function"
    },
    {
      "inputs": [],
      "name": "epochDuration",
      "outputs": [
        {
          "internalType": "uint256",
          "name": "",
          "type": "uint256"
        }
      ],
      "stateMutability": "view",
      "type": "function"
    },
    {
      "inputs": [],
      "name": "epochRewards",
      "outputs": [
        {
          "internalType": "uint256",
          "name": "",
          "type": "uint256"
        }
      ],
      "stateMutability": "view",
      "type": "function"
    },
    {
      "inputs": [],
      "name": "essenceInterface",
      "outputs": [
        {
          "internalType": "contract IERC20",
          "name": "",
          "type": "address"
        }
      ],
      "stateMutability": "view",
      "type": "function"
    },
    {
      "inputs": [
        {
          "internalType": "uint256",
          "name": "",
          "type": "uint256"
        }
      ],
      "name": "factionPartsBalance",
      "outputs": [
        {
          "internalType": "uint256",
          "name": "",
          "type": "uint256"
        }
      ],
      "stateMutability": "view",
      "type": "function"
    },
    {
      "inputs": [],
      "name": "factor1",
      "outputs": [
        {
          "internalType": "uint256",
          "name": "",
          "type": "uint256"
        }
      ],
      "stateMutability": "view",
      "type": "function"
    },
    {
      "inputs": [],
      "name": "factor2",
      "outputs": [
        {
          "internalType": "uint256",
          "name": "",
          "type": "uint256"
        }
      ],
      "stateMutability": "view",
      "type": "function"
    },
    {
      "inputs": [],
      "name": "factor3",
      "outputs": [
        {
          "internalType": "uint256",
          "name": "",
          "type": "uint256"
        }
      ],
      "stateMutability": "view",
      "type": "function"
    },
    {
      "inputs": [
        {
          "internalType": "address",
          "name": "_player",
          "type": "address"
        }
      ],
      "name": "getTotalBalance",
      "outputs": [
        {
          "internalType": "uint256",
          "name": "balance",
          "type": "uint256"
        },
        {
          "internalType": "uint256",
          "name": "stakedBalance",
          "type": "uint256"
        },
        {
          "internalType": "uint256",
          "name": "pendingRewards",
          "type": "uint256"
        }
      ],
      "stateMutability": "view",
      "type": "function"
    },
    {
      "inputs": [
        {
          "internalType": "address",
          "name": "",
          "type": "address"
        }
      ],
      "name": "lastUpdate",
      "outputs": [
        {
          "internalType": "uint256",
          "name": "",
          "type": "uint256"
        }
      ],
      "stateMutability": "view",
      "type": "function"
    },
    {
      "inputs": [],
      "name": "maxedFactor1",
      "outputs": [
        {
          "internalType": "uint256",
          "name": "",
          "type": "uint256"
        }
      ],
      "stateMutability": "view",
      "type": "function"
    },
    {
      "inputs": [],
      "name": "maxedFactor2",
      "outputs": [
        {
          "internalType": "uint256",
          "name": "",
          "type": "uint256"
        }
      ],
      "stateMutability": "view",
      "type": "function"
    },
    {
      "inputs": [],
      "name": "maxedFactor3",
      "outputs": [
        {
          "internalType": "uint256",
          "name": "",
          "type": "uint256"
        }
      ],
      "stateMutability": "view",
      "type": "function"
    },
    {
      "inputs": [
        {
          "internalType": "address",
          "name": "",
          "type": "address"
        },
        {
          "internalType": "address",
          "name": "",
          "type": "address"
        },
        {
          "internalType": "uint256",
          "name": "",
          "type": "uint256"
        },
        {
          "internalType": "uint256",
          "name": "",
          "type": "uint256"
        },
        {
          "internalType": "bytes",
          "name": "",
          "type": "bytes"
        }
      ],
      "name": "onERC1155Received",
      "outputs": [
        {
          "internalType": "bytes4",
          "name": "",
          "type": "bytes4"
        }
      ],
      "stateMutability": "nonpayable",
      "type": "function"
    },
    {
      "inputs": [],
      "name": "owner",
      "outputs": [
        {
          "internalType": "address",
          "name": "",
          "type": "address"
        }
      ],
      "stateMutability": "view",
      "type": "function"
    },
    {
      "inputs": [
        {
          "internalType": "uint256",
          "name": "",
          "type": "uint256"
        }
      ],
      "name": "playerAddresses",
      "outputs": [
        {
          "internalType": "address",
          "name": "",
          "type": "address"
        }
      ],
      "stateMutability": "view",
      "type": "function"
    },
    {
      "inputs": [
        {
          "internalType": "address",
          "name": "",
          "type": "address"
        }
      ],
      "name": "playerIds",
      "outputs": [
        {
          "internalType": "uint256",
          "name": "",
          "type": "uint256"
        }
      ],
      "stateMutability": "view",
      "type": "function"
    },
    {
      "inputs": [
        {
          "internalType": "address",
          "name": "",
          "type": "address"
        }
      ],
      "name": "playerStakedPartsBalance",
      "outputs": [
        {
          "internalType": "uint256",
          "name": "",
          "type": "uint256"
        }
      ],
      "stateMutability": "view",
      "type": "function"
    },
    {
      "inputs": [],
      "name": "renounceOwnership",
      "outputs": [],
      "stateMutability": "nonpayable",
      "type": "function"
    },
    {
      "inputs": [
        {
          "internalType": "uint256",
          "name": "_amount",
          "type": "uint256"
        }
      ],
      "name": "stakeTokens",
      "outputs": [],
      "stateMutability": "nonpayable",
      "type": "function"
    },
    {
      "inputs": [
        {
          "internalType": "address",
          "name": "",
          "type": "address"
        }
      ],
      "name": "stakedDuration",
      "outputs": [
        {
          "internalType": "uint256",
          "name": "",
          "type": "uint256"
        }
      ],
      "stateMutability": "view",
      "type": "function"
    },
    {
      "inputs": [
        {
          "internalType": "address",
          "name": "",
          "type": "address"
        }
      ],
      "name": "stakedESSBalance",
      "outputs": [
        {
          "internalType": "uint256",
          "name": "",
          "type": "uint256"
        }
      ],
      "stateMutability": "view",
      "type": "function"
    },
    {
      "inputs": [
        {
          "internalType": "address",
          "name": "",
          "type": "address"
        }
      ],
      "name": "timeTier",
      "outputs": [
        {
          "internalType": "uint256",
          "name": "",
          "type": "uint256"
        }
      ],
      "stateMutability": "view",
      "type": "function"
    },
    {
      "inputs": [],
      "name": "totalStakedBalance",
      "outputs": [
        {
          "internalType": "uint256",
          "name": "",
          "type": "uint256"
        }
      ],
      "stateMutability": "view",
      "type": "function"
    },
    {
      "inputs": [
        {
          "internalType": "address",
          "name": "newOwner",
          "type": "address"
        }
      ],
      "name": "transferOwnership",
      "outputs": [],
      "stateMutability": "nonpayable",
      "type": "function"
    },
    {
      "inputs": [
        {
          "internalType": "uint256",
          "name": "_amount",
          "type": "uint256"
        }
      ],
      "name": "unstakeTokens",
      "outputs": [],
      "stateMutability": "nonpayable",
      "type": "function"
    }
  ],
  "bytecode": "0x60806040523480156200001157600080fd5b5060405162001ea738038062001ea7833981016040819052620000349162000101565b6200003f3362000094565b60018055600a80546001600160a01b03199081166001600160a01b0397881617909155600c8054821695871695909517909455600d80549094169290941691909117909155601255601355426014556200015e565b600080546001600160a01b038381166001600160a01b0319831681178455604051919092169283917f8be0079c531659141344cd1fd0a4f28419497f9722a3daafe3b4186f6b6457e09190a35050565b80516001600160a01b0381168114620000fc57600080fd5b919050565b600080600080600060a086880312156200011a57600080fd5b6200012586620000e4565b94506200013560208701620000e4565b93506200014560408701620000e4565b6060870151608090970151959894975095949392505050565b611d39806200016e6000396000f3fe608060405234801561001057600080fd5b50600436106101da5760003560e01c806372cf177311610104578063cb03fb1e116100a2578063e12a770011610071578063e12a770014610408578063eaaa1b1d14610411578063f23a6e6114610431578063f2fde38b1461046957600080fd5b8063cb03fb1e14610387578063d36ec061146103a7578063d3d38193146103c7578063d7f81f36146103f557600080fd5b80637d9f2155116100de5780637d9f21551461034457806388e1e9391461034d5780638ace109f1461036d5780638da5cb5b1461037657600080fd5b806372cf1773146103155780637547c7a314610328578063773f7a3a1461033b57600080fd5b806344cfedbd1161017c578063608e4dd01161014b578063608e4dd0146102d2578063696786d3146102e55780636f4a2cd014610305578063715018a61461030d57600080fd5b806344cfedbd146102805780634c880e22146102a05780634ff0876a146102a95780635ca5e068146102b257600080fd5b806315c6aee2116101b857806315c6aee2146102465780632ee981e61461025957806334a0d80e146102625780633c41ed431461026b57600080fd5b80630620eedc146101df5780630f3c1fe5146101fb57806313476a461461021b575b600080fd5b6101e8600e5481565b6040519081526020015b60405180910390f35b6101e86102093660046118b8565b60086020526000908152604090205481565b600a5461022e906001600160a01b031681565b6040516001600160a01b0390911681526020016101f2565b61022e6102543660046118d3565b61047c565b6101e8601b5481565b6101e860165481565b61027e6102793660046118d3565b6104a6565b005b6101e861028e3660046118b8565b60056020526000908152604090205481565b6101e8601a5481565b6101e860135481565b6101e86102c03660046118d3565b60096020526000908152604090205481565b61027e6102e03660046118d3565b6107c1565b6101e86102f33660046118b8565b60076020526000908152604090205481565b61027e61093d565b61027e610ff1565b61027e6103233660046118fa565b611027565b61027e6103363660046118d3565b611086565b6101e8600f5481565b6101e860175481565b6101e861035b3660046118b8565b60026020526000908152604090205481565b6101e860185481565b6000546001600160a01b031661022e565b6101e86103953660046118b8565b60066020526000908152604090205481565b6101e86103b53660046118b8565b60046020526000908152604090205481565b6103da6103d53660046118b8565b611122565b604080519384526020840192909252908201526060016101f2565b6101e8610403366004611917565b6111c9565b6101e860195481565b6101e861041f3660046118b8565b60036020526000908152604090205481565b61045061043f366004611959565b63f23a6e6160e01b95945050505050565b6040516001600160e01b031990911681526020016101f2565b61027e6104773660046118b8565b611217565b601c818154811061048c57600080fd5b6000918252602090912001546001600160a01b0316905081565b6002600154036104d15760405162461bcd60e51b81526004016104c890611a3f565b60405180910390fd5b6002600155806105235760405162461bcd60e51b815260206004820152601a60248201527f416d6f756e74206d757374206265206d6f7265207468616e203000000000000060448201526064016104c8565b600c54604080516393e6198760e01b8152905183926001600160a01b03169162fdd58e91339184916393e61987916004808201926020929091908290030181865afa158015610576573d6000803e3d6000fd5b505050506040513d601f19601f8201168201806040525081019061059a9190611a76565b6040516001600160e01b031960e085901b1681526001600160a01b0390921660048301526024820152604401602060405180830381865afa1580156105e3573d6000803e3d6000fd5b505050506040513d601f19601f820116820180604052508101906106079190611a76565b10156106695760405162461bcd60e51b815260206004820152602b60248201527f54686520506c6179657220646f6573206e6f74206861766520656e6f7567682060448201526a5661756c7420506172747360a81b60648201526084016104c8565b600c54604051637921219560e11b81523360048201523060248201526000604482018190526064820184905260a0608483015260a48201526001600160a01b039091169063f242432a9060c401600060405180830381600087803b1580156106d057600080fd5b505af11580156106e4573d6000803e3d6000fd5b50503360009081526008602052604081208054859450909250610708908490611aa5565b9091555050600d5460405163de325b8f60e01b815233600482015282916009916000916001600160a01b03169063de325b8f90602401602060405180830381865afa15801561075b573d6000803e3d6000fd5b505050506040513d601f19601f8201168201806040525081019061077f9190611a76565b8152602001908152602001600020600082825461079c9190611aa5565b9250508190555080601060008282546107b59190611aa5565b90915550506001805550565b6002600154036107e35760405162461bcd60e51b81526004016104c890611a3f565b6002600155806108355760405162461bcd60e51b815260206004820152601b60248201527f416d6f756e74206d757374206265206d6f7265207468616e20302e000000000060448201526064016104c8565b336000908152600260205260409020546108915760405162461bcd60e51b815260206004820152601b60248201527f5374616b696e672062616c616e63652063616e6e6f742062652030000000000060448201526064016104c8565b336000908152600260205260409020548111156109055760405162461bcd60e51b815260206004820152602c60248201527f43616e6e6f7420756e7374616b65206d6f7265207468616e20796f757220737460448201526b616b65642062616c616e636560a01b60648201526084016104c8565b3360009081526002602052604081208054839290610924908490611abd565b9250508190555080600e60008282546107b59190611abd565b6000546001600160a01b031633146109675760405162461bcd60e51b81526004016104c890611ad4565b6000600e54116109b95760405162461bcd60e51b815260206004820152601a60248201527f546865726520617265206e6f20746f6b656e73207374616b656400000000000060448201526064016104c8565b6013546014546109c99042611abd565b6109d39190611b09565b6013546109e09190611b2b565b6014546109ed9190611aa5565b601581905560115410610a575760405162461bcd60e51b815260206004820152602c60248201527f54686520706c617965722068617320616c726561647920636c61696d6564206960448201526b0dc40e8d0d2e640cae0dec6d60a31b60648201526084016104c8565b610a82601254600e54610a6a9190611b2b565b610a7690610258611b2b565b63bbf81e0060006111c9565b600f55600060165560015b601d548111610b4957610ad0601c610aa6600184611abd565b81548110610ab657610ab6611b4a565b6000918252602090912001546001600160a01b03166112b2565b60026000601c610ae1600186611abd565b81548110610af157610af1611b4a565b60009182526020808320909101546001600160a01b03168352820192909252604001902054610b209190611b2b565b60166000828254610b319190611aa5565b90915550819050610b4181611b60565b915050610a8d565b506010546017556003600081905260096020527fc575c31fea594a6eb97c8e9d3f9caee4c16218c6ef37e923234c0fe9014a61e754600d54604051633093550960e01b815291926001600160a01b0390911691633093550991610bb29160040190815260200190565b602060405180830381865afa158015610bcf573d6000803e3d6000fd5b505050506040513d601f19601f82011682018060405250810190610bf39190611a76565b610bfd9190611b2b565b6002600081905260096020527f6cde3cea4b3a3fb2488b2808bae7556f4a405e50f65e1794383bc026131b13c354600d54604051633093550960e01b815291926001600160a01b0390911691633093550991610c5f9160040190815260200190565b602060405180830381865afa158015610c7c573d6000803e3d6000fd5b505050506040513d601f19601f82011682018060405250810190610ca09190611a76565b610caa9190611b2b565b6001600081905260096020527f92e85d02570a8092d09a6e3a57665bc3815a2699a4074001bf1ccabf660f5a3654600d54604051633093550960e01b815291926001600160a01b0390911691633093550991610d0c9160040190815260200190565b602060405180830381865afa158015610d29573d6000803e3d6000fd5b505050506040513d601f19601f82011682018060405250810190610d4d9190611a76565b610d579190611b2b565b610d619190611aa5565b610d6b9190611aa5565b60185560015b601d548111610fea57610d8a601c610aa6600184611abd565b60026000601c610d9b600186611abd565b81548110610dab57610dab611b4a565b60009182526020808320909101546001600160a01b03168352820192909252604001902054610dda9190611b2b565b60195560086000601c610dee600185611abd565b81548110610dfe57610dfe611b4a565b60009182526020808320909101546001600160a01b039081168452908301939093526040909101812054601a55600d546009921663de325b8f601c610e44600187611abd565b81548110610e5457610e54611b4a565b60009182526020909120015460405160e083901b6001600160e01b03191681526001600160a01b039091166004820152602401602060405180830381865afa158015610ea4573d6000803e3d6000fd5b505050506040513d601f19601f82011682018060405250810190610ec89190611a76565b8152602081019190915260400160002054601b819055600f54610f0f91610ef0906005611b2b565b610efa9190611b2b565b601854610f08906064611b2b565b60006111c9565b610f3c600f54601a546019610f249190611b2b565b610f2e9190611b2b565b601754610f08906064611b2b565b610f69600f546019546046610f519190611b2b565b610f5b9190611b2b565b601654610f08906064611b2b565b610f739190611aa5565b610f7d9190611aa5565b60036000601c610f8e600186611abd565b81548110610f9e57610f9e611b4a565b60009182526020808320909101546001600160a01b0316835282019290925260400181208054909190610fd2908490611aa5565b90915550819050610fe281611b60565b915050610d71565b5042601155565b6000546001600160a01b0316331461101b5760405162461bcd60e51b81526004016104c890611ad4565b611025600061147e565b565b801561104b5733600090815260036020526040902054611046906114ce565b611073565b33600081815260036020526040902054600a54611073926001600160a01b0390911691611610565b5033600090815260036020526040812055565b6002600154036110a85760405162461bcd60e51b81526004016104c890611a3f565b6002600155806110fa5760405162461bcd60e51b815260206004820152601b60248201527f416d6f756e74206d757374206265206d6f7265207468616e20302e000000000060448201526064016104c8565b600a54611112906001600160a01b0316333084611678565b61111b816114ce565b5060018055565b600a546040516370a0823160e01b81526001600160a01b03838116600483015260009283928392909116906370a0823190602401602060405180830381865afa158015611173573d6000803e3d6000fd5b505050506040513d601f19601f820116820180604052508101906111979190611a76565b6001600160a01b0394909416600090815260026020908152604080832054600390925290912054949590949350915050565b6000600a836111d9846001611aa5565b6111e490600a611c5f565b6111ee9087611b2b565b6111f89190611b09565b611203906005611aa5565b61120d9190611b09565b90505b9392505050565b6000546001600160a01b031633146112415760405162461bcd60e51b81526004016104c890611ad4565b6001600160a01b0381166112a65760405162461bcd60e51b815260206004820152602660248201527f4f776e61626c653a206e6577206f776e657220697320746865207a65726f206160448201526564647265737360d01b60648201526084016104c8565b6112af8161147e565b50565b6001600160a01b0381166000908152600660205260408120546112d59042611abd565b6001600160a01b038316600090815260056020526040812080549091906112fd908490611aa5565b90915550506001600160a01b0382166000908152600660209081526040808320429055600590915290205461025810611351576001600160a01b0382166000908152600760205260409020600a9055611462565b6001600160a01b03821660009081526005602052604090205461025810801561139457506001600160a01b0382166000908152600560205260409020546104b010155b156113ba576001600160a01b0382166000908152600760205260409020600d9055611462565b6001600160a01b0382166000908152600560205260409020546104b01080156113fd57506001600160a01b038216600090815260056020526040902054610bb810155b15611423576001600160a01b038216600090815260076020526040902060109055611462565b6001600160a01b038216600090815260056020526040902054610bb81015611462576001600160a01b0382166000908152600760205260409020601490555b506001600160a01b031660009081526007602052604090205490565b600080546001600160a01b038381166001600160a01b0319831681178455604051919092169283917f8be0079c531659141344cd1fd0a4f28419497f9722a3daafe3b4186f6b6457e09190a35050565b33600090815260026020526040812054908190036115805733600090815260046020526040812054900361156957601d805490600061150c83611b60565b9091555050601d5433600081815260046020526040812092909255601c805460018101825592527f0e4562a10381dec21b205ed72637e6b1b523bdd0e4d4d50af5cd23dd4500a21190910180546001600160a01b03191690911790555b3360009081526006602052604090204290556115cf565b3360009081526002602052604090205461159a9082611b09565b336000908152600660205260409020546115b49042611abd565b6115be9190611b2b565b336000908152600560205260409020555b33600090815260026020526040812080548492906115ee908490611aa5565b9250508190555081600e60008282546116079190611aa5565b90915550505050565b6040516001600160a01b03831660248201526044810182905261167390849063a9059cbb60e01b906064015b60408051601f198184030181529190526020810180516001600160e01b03166001600160e01b0319909316929092179091526116b6565b505050565b6040516001600160a01b03808516602483015283166044820152606481018290526116b09085906323b872dd60e01b9060840161163c565b50505050565b600061170b826040518060400160405280602081526020017f5361666545524332303a206c6f772d6c6576656c2063616c6c206661696c6564815250856001600160a01b03166117889092919063ffffffff16565b80519091501561167357808060200190518101906117299190611c6b565b6116735760405162461bcd60e51b815260206004820152602a60248201527f5361666545524332303a204552433230206f7065726174696f6e20646964206e6044820152691bdd081cdd58d8d9595960b21b60648201526084016104c8565b606061120d8484600085856001600160a01b0385163b6117ea5760405162461bcd60e51b815260206004820152601d60248201527f416464726573733a2063616c6c20746f206e6f6e2d636f6e747261637400000060448201526064016104c8565b600080866001600160a01b031685876040516118069190611cb4565b60006040518083038185875af1925050503d8060008114611843576040519150601f19603f3d011682016040523d82523d6000602084013e611848565b606091505b5091509150611858828286611863565b979650505050505050565b60608315611872575081611210565b8251156118825782518084602001fd5b8160405162461bcd60e51b81526004016104c89190611cd0565b80356001600160a01b03811681146118b357600080fd5b919050565b6000602082840312156118ca57600080fd5b6112108261189c565b6000602082840312156118e557600080fd5b5035919050565b80151581146112af57600080fd5b60006020828403121561190c57600080fd5b8135611210816118ec565b60008060006060848603121561192c57600080fd5b505081359360208301359350604090920135919050565b634e487b7160e01b600052604160045260246000fd5b600080600080600060a0868803121561197157600080fd5b61197a8661189c565b94506119886020870161189c565b93506040860135925060608601359150608086013567ffffffffffffffff808211156119b357600080fd5b818801915088601f8301126119c757600080fd5b8135818111156119d9576119d9611943565b604051601f8201601f19908116603f01168101908382118183101715611a0157611a01611943565b816040528281528b6020848701011115611a1a57600080fd5b8260208601602083013760006020848301015280955050505050509295509295909350565b6020808252601f908201527f5265656e7472616e637947756172643a207265656e7472616e742063616c6c00604082015260600190565b600060208284031215611a8857600080fd5b5051919050565b634e487b7160e01b600052601160045260246000fd5b60008219821115611ab857611ab8611a8f565b500190565b600082821015611acf57611acf611a8f565b500390565b6020808252818101527f4f776e61626c653a2063616c6c6572206973206e6f7420746865206f776e6572604082015260600190565b600082611b2657634e487b7160e01b600052601260045260246000fd5b500490565b6000816000190483118215151615611b4557611b45611a8f565b500290565b634e487b7160e01b600052603260045260246000fd5b600060018201611b7257611b72611a8f565b5060010190565b600181815b80851115611bb4578160001904821115611b9a57611b9a611a8f565b80851615611ba757918102915b93841c9390800290611b7e565b509250929050565b600082611bcb57506001611c59565b81611bd857506000611c59565b8160018114611bee5760028114611bf857611c14565b6001915050611c59565b60ff841115611c0957611c09611a8f565b50506001821b611c59565b5060208310610133831016604e8410600b8410161715611c37575081810a611c59565b611c418383611b79565b8060001904821115611c5557611c55611a8f565b0290505b92915050565b60006112108383611bbc565b600060208284031215611c7d57600080fd5b8151611210816118ec565b60005b83811015611ca3578181015183820152602001611c8b565b838111156116b05750506000910152565b60008251611cc6818460208701611c88565b9190910192915050565b6020815260008251806020840152611cef816040850160208701611c88565b601f01601f1916919091016040019291505056fea26469706673582212206e650d5556c5523a4d3dbc740a915ebd60a0e5140e1bda649ba579ed0f8dbf5864736f6c634300080d0033",
  "linkReferences": {},
  "deployedLinkReferences": {}
}