{
  "_format": "hh-sol-artifact-1",
  "contractName": "GameItems",
  "sourceName": "contracts/GameItems.sol",
  "abi": [
    {
      "inputs": [
        {
          "internalType": "string",
          "name": "_initialFolder",
          "type": "string"
        },
        {
          "internalType": "address",
          "name": "_playerContractAddress",
          "type": "address"
        }
      ],
      "stateMutability": "nonpayable",
      "type": "constructor"
    },
    {
      "anonymous": false,
      "inputs": [
        {
          "indexed": true,
          "internalType": "address",
          "name": "account",
          "type": "address"
        },
        {
          "indexed": true,
          "internalType": "address",
          "name": "operator",
          "type": "address"
        },
        {
          "indexed": false,
          "internalType": "bool",
          "name": "approved",
          "type": "bool"
        }
      ],
      "name": "ApprovalForAll",
      "type": "event"
    },
    {
      "anonymous": false,
      "inputs": [
        {
          "indexed": true,
          "internalType": "address",
          "name": "previousOwner",
          "type": "address"
        },
        {
          "indexed": true,
          "internalType": "address",
          "name": "newOwner",
          "type": "address"
        }
      ],
      "name": "OwnershipTransferred",
      "type": "event"
    },
    {
      "anonymous": false,
      "inputs": [
        {
          "indexed": true,
          "internalType": "address",
          "name": "operator",
          "type": "address"
        },
        {
          "indexed": true,
          "internalType": "address",
          "name": "from",
          "type": "address"
        },
        {
          "indexed": true,
          "internalType": "address",
          "name": "to",
          "type": "address"
        },
        {
          "indexed": false,
          "internalType": "uint256[]",
          "name": "ids",
          "type": "uint256[]"
        },
        {
          "indexed": false,
          "internalType": "uint256[]",
          "name": "values",
          "type": "uint256[]"
        }
      ],
      "name": "TransferBatch",
      "type": "event"
    },
    {
      "anonymous": false,
      "inputs": [
        {
          "indexed": true,
          "internalType": "address",
          "name": "operator",
          "type": "address"
        },
        {
          "indexed": true,
          "internalType": "address",
          "name": "from",
          "type": "address"
        },
        {
          "indexed": true,
          "internalType": "address",
          "name": "to",
          "type": "address"
        },
        {
          "indexed": false,
          "internalType": "uint256",
          "name": "id",
          "type": "uint256"
        },
        {
          "indexed": false,
          "internalType": "uint256",
          "name": "value",
          "type": "uint256"
        }
      ],
      "name": "TransferSingle",
      "type": "event"
    },
    {
      "anonymous": false,
      "inputs": [
        {
          "indexed": false,
          "internalType": "string",
          "name": "value",
          "type": "string"
        },
        {
          "indexed": true,
          "internalType": "uint256",
          "name": "id",
          "type": "uint256"
        }
      ],
      "name": "URI",
      "type": "event"
    },
    {
      "inputs": [],
      "name": "CONGLOMERATE",
      "outputs": [
        {
          "internalType": "uint256",
          "name": "",
          "type": "uint256"
        }
      ],
      "stateMutability": "view",
      "type": "function"
    },
    {
      "inputs": [],
      "name": "DOC",
      "outputs": [
        {
          "internalType": "uint256",
          "name": "",
          "type": "uint256"
        }
      ],
      "stateMutability": "view",
      "type": "function"
    },
    {
      "inputs": [],
      "name": "VAHNU",
      "outputs": [
        {
          "internalType": "uint256",
          "name": "",
          "type": "uint256"
        }
      ],
      "stateMutability": "view",
      "type": "function"
    },
    {
      "inputs": [],
      "name": "VAULTPARTS",
      "outputs": [
        {
          "internalType": "uint256",
          "name": "",
          "type": "uint256"
        }
      ],
      "stateMutability": "view",
      "type": "function"
    },
    {
      "inputs": [
        {
          "internalType": "address",
          "name": "account",
          "type": "address"
        },
        {
          "internalType": "uint256",
          "name": "id",
          "type": "uint256"
        }
      ],
      "name": "balanceOf",
      "outputs": [
        {
          "internalType": "uint256",
          "name": "",
          "type": "uint256"
        }
      ],
      "stateMutability": "view",
      "type": "function"
    },
    {
      "inputs": [
        {
          "internalType": "address[]",
          "name": "accounts",
          "type": "address[]"
        },
        {
          "internalType": "uint256[]",
          "name": "ids",
          "type": "uint256[]"
        }
      ],
      "name": "balanceOfBatch",
      "outputs": [
        {
          "internalType": "uint256[]",
          "name": "",
          "type": "uint256[]"
        }
      ],
      "stateMutability": "view",
      "type": "function"
    },
    {
      "inputs": [
        {
          "internalType": "address",
          "name": "account",
          "type": "address"
        },
        {
          "internalType": "address",
          "name": "operator",
          "type": "address"
        }
      ],
      "name": "isApprovedForAll",
      "outputs": [
        {
          "internalType": "bool",
          "name": "",
          "type": "bool"
        }
      ],
      "stateMutability": "view",
      "type": "function"
    },
    {
      "inputs": [
        {
          "internalType": "address",
          "name": "_recipient",
          "type": "address"
        },
        {
          "internalType": "uint256",
          "name": "_id",
          "type": "uint256"
        }
      ],
      "name": "mintCharacter",
      "outputs": [],
      "stateMutability": "nonpayable",
      "type": "function"
    },
    {
      "inputs": [
        {
          "internalType": "address",
          "name": "recipient",
          "type": "address"
        },
        {
          "internalType": "uint256",
          "name": "amount",
          "type": "uint256"
        }
      ],
      "name": "mintVaultParts",
      "outputs": [],
      "stateMutability": "nonpayable",
      "type": "function"
    },
    {
      "inputs": [],
      "name": "owner",
      "outputs": [
        {
          "internalType": "address",
          "name": "",
          "type": "address"
        }
      ],
      "stateMutability": "view",
      "type": "function"
    },
    {
      "inputs": [],
      "name": "playerContractAddress",
      "outputs": [
        {
          "internalType": "address",
          "name": "",
          "type": "address"
        }
      ],
      "stateMutability": "view",
      "type": "function"
    },
    {
      "inputs": [],
      "name": "renounceOwnership",
      "outputs": [],
      "stateMutability": "nonpayable",
      "type": "function"
    },
    {
      "inputs": [
        {
          "internalType": "address",
          "name": "from",
          "type": "address"
        },
        {
          "internalType": "address",
          "name": "to",
          "type": "address"
        },
        {
          "internalType": "uint256[]",
          "name": "ids",
          "type": "uint256[]"
        },
        {
          "internalType": "uint256[]",
          "name": "amounts",
          "type": "uint256[]"
        },
        {
          "internalType": "bytes",
          "name": "data",
          "type": "bytes"
        }
      ],
      "name": "safeBatchTransferFrom",
      "outputs": [],
      "stateMutability": "nonpayable",
      "type": "function"
    },
    {
      "inputs": [
        {
          "internalType": "address",
          "name": "from",
          "type": "address"
        },
        {
          "internalType": "address",
          "name": "to",
          "type": "address"
        },
        {
          "internalType": "uint256",
          "name": "id",
          "type": "uint256"
        },
        {
          "internalType": "uint256",
          "name": "amount",
          "type": "uint256"
        },
        {
          "internalType": "bytes",
          "name": "data",
          "type": "bytes"
        }
      ],
      "name": "safeTransferFrom",
      "outputs": [],
      "stateMutability": "nonpayable",
      "type": "function"
    },
    {
      "inputs": [
        {
          "internalType": "address",
          "name": "operator",
          "type": "address"
        },
        {
          "internalType": "bool",
          "name": "approved",
          "type": "bool"
        }
      ],
      "name": "setApprovalForAll",
      "outputs": [],
      "stateMutability": "nonpayable",
      "type": "function"
    },
    {
      "inputs": [
        {
          "internalType": "uint256",
          "name": "tokenId",
          "type": "uint256"
        },
        {
          "internalType": "string",
          "name": "NFTuri",
          "type": "string"
        }
      ],
      "name": "setTokenUri",
      "outputs": [],
      "stateMutability": "nonpayable",
      "type": "function"
    },
    {
      "inputs": [
        {
          "internalType": "bytes4",
          "name": "interfaceId",
          "type": "bytes4"
        }
      ],
      "name": "supportsInterface",
      "outputs": [
        {
          "internalType": "bool",
          "name": "",
          "type": "bool"
        }
      ],
      "stateMutability": "view",
      "type": "function"
    },
    {
      "inputs": [
        {
          "internalType": "address",
          "name": "newOwner",
          "type": "address"
        }
      ],
      "name": "transferOwnership",
      "outputs": [],
      "stateMutability": "nonpayable",
      "type": "function"
    },
    {
      "inputs": [
        {
          "internalType": "uint256",
          "name": "tokenId",
          "type": "uint256"
        }
      ],
      "name": "uri",
      "outputs": [
        {
          "internalType": "string",
          "name": "",
          "type": "string"
        }
      ],
      "stateMutability": "view",
      "type": "function"
    }
  ],
  "bytecode": "0x60806040523480156200001157600080fd5b506040516200201838038062002018833981016040819052620000349162000378565b8160405160200162000047919062000445565b60408051601f1981840301815291905262000062816200010f565b506200006e3362000128565b6200009d60008360405160200162000087919062000474565b60408051601f198184030181529190526200017a565b620000b6600183604051602001620000879190620004a9565b620000cf600283604051602001620000879190620004de565b620000e860038360405160200162000087919062000513565b600580546001600160a01b0319166001600160a01b03929092169190911790555062000584565b8051620001249060029060208401906200026c565b5050565b600380546001600160a01b038381166001600160a01b0319831681179093556040519116919082907f8be0079c531659141344cd1fd0a4f28419497f9722a3daafe3b4186f6b6457e090600090a35050565b6003546001600160a01b03163314620001da5760405162461bcd60e51b815260206004820181905260248201527f4f776e61626c653a2063616c6c6572206973206e6f7420746865206f776e657260448201526064015b60405180910390fd5b60008281526004602052604090208054620001f59062000548565b159050620002465760405162461bcd60e51b815260206004820152601560248201527f43616e6e6f7420736574207572692074776963652e00000000000000000000006044820152606401620001d1565b6000828152600460209081526040909120825162000267928401906200026c565b505050565b8280546200027a9062000548565b90600052602060002090601f0160209004810192826200029e5760008555620002e9565b82601f10620002b957805160ff1916838001178555620002e9565b82800160010185558215620002e9579182015b82811115620002e9578251825591602001919060010190620002cc565b50620002f7929150620002fb565b5090565b5b80821115620002f75760008155600101620002fc565b634e487b7160e01b600052604160045260246000fd5b60005b83811015620003455781810151838201526020016200032b565b8381111562000355576000848401525b50505050565b80516001600160a01b03811681146200037357600080fd5b919050565b600080604083850312156200038c57600080fd5b82516001600160401b0380821115620003a457600080fd5b818501915085601f830112620003b957600080fd5b815181811115620003ce57620003ce62000312565b604051601f8201601f19908116603f01168101908382118183101715620003f957620003f962000312565b816040528281528860208487010111156200041357600080fd5b6200042683602083016020880162000328565b80965050505050506200043c602084016200035b565b90509250929050565b600082516200045981846020870162000328565b683db4b23e973539b7b760b91b920191825250600901919050565b600082516200048881846020870162000328565b600360fc1b92019182525064173539b7b760d91b6001820152600601919050565b60008251620004bd81846020870162000328565b603160f81b92019182525064173539b7b760d91b6001820152600601919050565b60008251620004f281846020870162000328565b601960f91b92019182525064173539b7b760d91b6001820152600601919050565b600082516200052781846020870162000328565b603360f81b92019182525064173539b7b760d91b6001820152600601919050565b600181811c908216806200055d57607f821691505b6020821081036200057e57634e487b7160e01b600052602260045260246000fd5b50919050565b611a8480620005946000396000f3fe608060405234801561001057600080fd5b50600436106101205760003560e01c8063715018a6116100ad578063d0fda67a11610071578063d0fda67a14610258578063dc02b94614610260578063e985e9c514610273578063f242432a146102af578063f2fde38b146102c257600080fd5b8063715018a61461021c57806388898601146102245780638da5cb5b1461022c57806393e619871461023d578063a22cb4651461024557600080fd5b80632eb2c2d6116100f45780632eb2c2d6146101a35780634e1273f4146101b65780634eda39e2146101d657806357f7789e146102015780635baa3a071461021457600080fd5b8062fdd58e1461012557806301ffc9a71461014b5780630e89341c1461016e57806314ff845c1461018e575b600080fd5b6101386101333660046111e1565b6102d5565b6040519081526020015b60405180910390f35b61015e610159366004611221565b61036c565b6040519015158152602001610142565b61018161017c366004611245565b6103be565b60405161014291906112ab565b6101a161019c3660046111e1565b610460565b005b6101a16101b1366004611414565b61054d565b6101c96101c43660046114be565b6105e4565b60405161014291906115c4565b6005546101e9906001600160a01b031681565b6040516001600160a01b039091168152602001610142565b6101a161020f3660046115d7565b61070e565b610138600381565b6101a16107bc565b610138600181565b6003546001600160a01b03166101e9565b610138600081565b6101a1610253366004611628565b6107f2565b610138600281565b6101a161026e3660046111e1565b6107fd565b61015e610281366004611664565b6001600160a01b03918216600090815260016020908152604080832093909416825291909152205460ff1690565b6101a16102bd366004611697565b610873565b6101a16102d03660046116fc565b6108fa565b60006001600160a01b0383166103465760405162461bcd60e51b815260206004820152602b60248201527f455243313135353a2062616c616e636520717565727920666f7220746865207a60448201526a65726f206164647265737360a81b60648201526084015b60405180910390fd5b506000908152602081815260408083206001600160a01b03949094168352929052205490565b60006001600160e01b03198216636cdb3d1360e11b148061039d57506001600160e01b031982166303a24d0760e21b145b806103b857506301ffc9a760e01b6001600160e01b03198316145b92915050565b60008181526004602052604090208054606091906103db90611717565b80601f016020809104026020016040519081016040528092919081815260200182805461040790611717565b80156104545780601f1061042957610100808354040283529160200191610454565b820191906000526020600020905b81548152906001019060200180831161043757829003601f168201915b50505050509050919050565b6005546001600160a01b031633146104ba5760405162461bcd60e51b815260206004820152601c60248201527f4e6f7420706c6179657220636f6e747261637420616464726573732e00000000604482015260640161033d565b8061052d5760405162461bcd60e51b815260206004820152603c60248201527f54686520506c617965722063616e6e6f74206d696e74205661756c745061727460448201527f73206f6e204d696e744368617261637465722066756e6374696f6e2e00000000606482015260840161033d565b6105498282600160405180602001604052806000815250610995565b5050565b6001600160a01b03851633148061056957506105698533610281565b6105d05760405162461bcd60e51b815260206004820152603260248201527f455243313135353a207472616e736665722063616c6c6572206973206e6f74206044820152711bdddb995c881b9bdc88185c1c1c9bdd995960721b606482015260840161033d565b6105dd8585858585610a9f565b5050505050565b606081518351146106495760405162461bcd60e51b815260206004820152602960248201527f455243313135353a206163636f756e747320616e6420696473206c656e677468604482015268040dad2e6dac2e8c6d60bb1b606482015260840161033d565b6000835167ffffffffffffffff811115610665576106656112be565b60405190808252806020026020018201604052801561068e578160200160208202803683370190505b50905060005b8451811015610706576106d98582815181106106b2576106b2611751565b60200260200101518583815181106106cc576106cc611751565b60200260200101516102d5565b8282815181106106eb576106eb611751565b60209081029190910101526106ff8161177d565b9050610694565b509392505050565b6003546001600160a01b031633146107385760405162461bcd60e51b815260040161033d90611796565b6000828152600460205260409020805461075190611717565b1590506107985760405162461bcd60e51b815260206004820152601560248201527421b0b73737ba1039b2ba103ab934903a3bb4b1b29760591b604482015260640161033d565b600082815260046020908152604090912082516107b79284019061112c565b505050565b6003546001600160a01b031633146107e65760405162461bcd60e51b815260040161033d90611796565b6107f06000610c7c565b565b610549338383610cce565b6005546001600160a01b031633146108575760405162461bcd60e51b815260206004820152601c60248201527f4e6f7420706c6179657220636f6e747261637420616464726573732e00000000604482015260640161033d565b6105498260008360405180602001604052806000815250610995565b6001600160a01b03851633148061088f575061088f8533610281565b6108ed5760405162461bcd60e51b815260206004820152602960248201527f455243313135353a2063616c6c6572206973206e6f74206f776e6572206e6f7260448201526808185c1c1c9bdd995960ba1b606482015260840161033d565b6105dd8585858585610dae565b6003546001600160a01b031633146109245760405162461bcd60e51b815260040161033d90611796565b6001600160a01b0381166109895760405162461bcd60e51b815260206004820152602660248201527f4f776e61626c653a206e6577206f776e657220697320746865207a65726f206160448201526564647265737360d01b606482015260840161033d565b61099281610c7c565b50565b6001600160a01b0384166109f55760405162461bcd60e51b815260206004820152602160248201527f455243313135353a206d696e7420746f20746865207a65726f206164647265736044820152607360f81b606482015260840161033d565b33610a0f81600087610a0688610ecb565b6105dd88610ecb565b6000848152602081815260408083206001600160a01b038916845290915281208054859290610a3f9084906117cb565b909155505060408051858152602081018590526001600160a01b0380881692600092918516917fc3d58168c5ae7397731d063d5bbf3d657854427343f4c083240f7aacaa2d0f62910160405180910390a46105dd81600087878787610f16565b8151835114610b015760405162461bcd60e51b815260206004820152602860248201527f455243313135353a2069647320616e6420616d6f756e7473206c656e677468206044820152670dad2e6dac2e8c6d60c31b606482015260840161033d565b6001600160a01b038416610b275760405162461bcd60e51b815260040161033d906117e3565b3360005b8451811015610c0e576000858281518110610b4857610b48611751565b602002602001015190506000858381518110610b6657610b66611751565b602090810291909101810151600084815280835260408082206001600160a01b038e168352909352919091205490915081811015610bb65760405162461bcd60e51b815260040161033d90611828565b6000838152602081815260408083206001600160a01b038e8116855292528083208585039055908b16825281208054849290610bf39084906117cb565b9250508190555050505080610c079061177d565b9050610b2b565b50846001600160a01b0316866001600160a01b0316826001600160a01b03167f4a39dc06d4c0dbc64b70af90fd698a233a518aa5d07e595d983b8c0526c8f7fb8787604051610c5e929190611872565b60405180910390a4610c74818787878787611071565b505050505050565b600380546001600160a01b038381166001600160a01b0319831681179093556040519116919082907f8be0079c531659141344cd1fd0a4f28419497f9722a3daafe3b4186f6b6457e090600090a35050565b816001600160a01b0316836001600160a01b031603610d415760405162461bcd60e51b815260206004820152602960248201527f455243313135353a2073657474696e6720617070726f76616c20737461747573604482015268103337b91039b2b63360b91b606482015260840161033d565b6001600160a01b03838116600081815260016020908152604080832094871680845294825291829020805460ff191686151590811790915591519182527f17307eab39ab6107e8899845ad3d59bd9653f200f220920489ca2b5937696c31910160405180910390a3505050565b6001600160a01b038416610dd45760405162461bcd60e51b815260040161033d906117e3565b33610de4818787610a0688610ecb565b6000848152602081815260408083206001600160a01b038a16845290915290205483811015610e255760405162461bcd60e51b815260040161033d90611828565b6000858152602081815260408083206001600160a01b038b8116855292528083208785039055908816825281208054869290610e629084906117cb565b909155505060408051868152602081018690526001600160a01b03808916928a821692918616917fc3d58168c5ae7397731d063d5bbf3d657854427343f4c083240f7aacaa2d0f62910160405180910390a4610ec2828888888888610f16565b50505050505050565b60408051600180825281830190925260609160009190602080830190803683370190505090508281600081518110610f0557610f05611751565b602090810291909101015292915050565b6001600160a01b0384163b15610c745760405163f23a6e6160e01b81526001600160a01b0385169063f23a6e6190610f5a90899089908890889088906004016118a0565b6020604051808303816000875af1925050508015610f95575060408051601f3d908101601f19168201909252610f92918101906118e5565b60015b61104157610fa1611902565b806308c379a003610fda5750610fb561191e565b80610fc05750610fdc565b8060405162461bcd60e51b815260040161033d91906112ab565b505b60405162461bcd60e51b815260206004820152603460248201527f455243313135353a207472616e7366657220746f206e6f6e20455243313135356044820152732932b1b2b4bb32b91034b6b83632b6b2b73a32b960611b606482015260840161033d565b6001600160e01b0319811663f23a6e6160e01b14610ec25760405162461bcd60e51b815260040161033d906119a8565b6001600160a01b0384163b15610c745760405163bc197c8160e01b81526001600160a01b0385169063bc197c81906110b590899089908890889088906004016119f0565b6020604051808303816000875af19250505080156110f0575060408051601f3d908101601f191682019092526110ed918101906118e5565b60015b6110fc57610fa1611902565b6001600160e01b0319811663bc197c8160e01b14610ec25760405162461bcd60e51b815260040161033d906119a8565b82805461113890611717565b90600052602060002090601f01602090048101928261115a57600085556111a0565b82601f1061117357805160ff19168380011785556111a0565b828001600101855582156111a0579182015b828111156111a0578251825591602001919060010190611185565b506111ac9291506111b0565b5090565b5b808211156111ac57600081556001016111b1565b80356001600160a01b03811681146111dc57600080fd5b919050565b600080604083850312156111f457600080fd5b6111fd836111c5565b946020939093013593505050565b6001600160e01b03198116811461099257600080fd5b60006020828403121561123357600080fd5b813561123e8161120b565b9392505050565b60006020828403121561125757600080fd5b5035919050565b6000815180845260005b8181101561128457602081850181015186830182015201611268565b81811115611296576000602083870101525b50601f01601f19169290920160200192915050565b60208152600061123e602083018461125e565b634e487b7160e01b600052604160045260246000fd5b601f8201601f1916810167ffffffffffffffff811182821017156112fa576112fa6112be565b6040525050565b600067ffffffffffffffff82111561131b5761131b6112be565b5060051b60200190565b600082601f83011261133657600080fd5b8135602061134382611301565b60405161135082826112d4565b83815260059390931b850182019282810191508684111561137057600080fd5b8286015b8481101561138b5780358352918301918301611374565b509695505050505050565b600067ffffffffffffffff8311156113b0576113b06112be565b6040516113c7601f8501601f1916602001826112d4565b8091508381528484840111156113dc57600080fd5b83836020830137600060208583010152509392505050565b600082601f83011261140557600080fd5b61123e83833560208501611396565b600080600080600060a0868803121561142c57600080fd5b611435866111c5565b9450611443602087016111c5565b9350604086013567ffffffffffffffff8082111561146057600080fd5b61146c89838a01611325565b9450606088013591508082111561148257600080fd5b61148e89838a01611325565b935060808801359150808211156114a457600080fd5b506114b1888289016113f4565b9150509295509295909350565b600080604083850312156114d157600080fd5b823567ffffffffffffffff808211156114e957600080fd5b818501915085601f8301126114fd57600080fd5b8135602061150a82611301565b60405161151782826112d4565b83815260059390931b850182019282810191508984111561153757600080fd5b948201945b8386101561155c5761154d866111c5565b8252948201949082019061153c565b9650508601359250508082111561157257600080fd5b5061157f85828601611325565b9150509250929050565b600081518084526020808501945080840160005b838110156115b95781518752958201959082019060010161159d565b509495945050505050565b60208152600061123e6020830184611589565b600080604083850312156115ea57600080fd5b82359150602083013567ffffffffffffffff81111561160857600080fd5b8301601f8101851361161957600080fd5b61157f85823560208401611396565b6000806040838503121561163b57600080fd5b611644836111c5565b91506020830135801515811461165957600080fd5b809150509250929050565b6000806040838503121561167757600080fd5b611680836111c5565b915061168e602084016111c5565b90509250929050565b600080600080600060a086880312156116af57600080fd5b6116b8866111c5565b94506116c6602087016111c5565b93506040860135925060608601359150608086013567ffffffffffffffff8111156116f057600080fd5b6114b1888289016113f4565b60006020828403121561170e57600080fd5b61123e826111c5565b600181811c9082168061172b57607f821691505b60208210810361174b57634e487b7160e01b600052602260045260246000fd5b50919050565b634e487b7160e01b600052603260045260246000fd5b634e487b7160e01b600052601160045260246000fd5b60006001820161178f5761178f611767565b5060010190565b6020808252818101527f4f776e61626c653a2063616c6c6572206973206e6f7420746865206f776e6572604082015260600190565b600082198211156117de576117de611767565b500190565b60208082526025908201527f455243313135353a207472616e7366657220746f20746865207a65726f206164604082015264647265737360d81b606082015260800190565b6020808252602a908201527f455243313135353a20696e73756666696369656e742062616c616e636520666f60408201526939103a3930b739b332b960b11b606082015260800190565b6040815260006118856040830185611589565b82810360208401526118978185611589565b95945050505050565b6001600160a01b03868116825285166020820152604081018490526060810183905260a0608082018190526000906118da9083018461125e565b979650505050505050565b6000602082840312156118f757600080fd5b815161123e8161120b565b600060033d111561191b5760046000803e5060005160e01c5b90565b600060443d101561192c5790565b6040516003193d81016004833e81513d67ffffffffffffffff816024840111818411171561195c57505050505090565b82850191508151818111156119745750505050505090565b843d870101602082850101111561198e5750505050505090565b61199d602082860101876112d4565b509095945050505050565b60208082526028908201527f455243313135353a204552433131353552656365697665722072656a656374656040820152676420746f6b656e7360c01b606082015260800190565b6001600160a01b0386811682528516602082015260a060408201819052600090611a1c90830186611589565b8281036060840152611a2e8186611589565b90508281036080840152611a42818561125e565b9897505050505050505056fea26469706673582212202ca95e7fb0d0608f4b51eb33db833a0ad1c720e76b1afdfba565e1f52ce21a2164736f6c634300080d0033",
  "linkReferences": {},
  "deployedLinkReferences": {}
}