{
  "address": "0x610178dA211FEF7D417bC0e6FeD39F05609AD788",
  "abi": [
    {
      "inputs": [
        {
          "internalType": "contract MothoraGame",
          "name": "_mothoraGame",
          "type": "address"
        },
        {
          "internalType": "uint256",
          "name": "_epochRewardsPercentage",
          "type": "uint256"
        },
        {
          "internalType": "uint256",
          "name": "_epochDuration",
          "type": "uint256"
        }
      ],
      "stateMutability": "nonpayable",
      "type": "constructor"
    },
    {
      "anonymous": false,
      "inputs": [
        {
          "indexed": true,
          "internalType": "address",
          "name": "mothoraGameContractAddress",
          "type": "address"
        }
      ],
      "name": "MothoraGameAddressUpdated",
      "type": "event"
    },
    {
      "anonymous": false,
      "inputs": [
        {
          "indexed": true,
          "internalType": "address",
          "name": "previousOwner",
          "type": "address"
        },
        {
          "indexed": true,
          "internalType": "address",
          "name": "newOwner",
          "type": "address"
        }
      ],
      "name": "OwnershipTransferred",
      "type": "event"
    },
    {
      "inputs": [
        {
          "internalType": "address",
          "name": "",
          "type": "address"
        }
      ],
      "name": "RewardsBalance",
      "outputs": [
        {
          "internalType": "uint256",
          "name": "",
          "type": "uint256"
        }
      ],
      "stateMutability": "view",
      "type": "function"
    },
    {
      "inputs": [
        {
          "internalType": "bool",
          "name": "autocompound",
          "type": "bool"
        }
      ],
      "name": "claimEpochRewards",
      "outputs": [],
      "stateMutability": "nonpayable",
      "type": "function"
    },
    {
      "inputs": [
        {
          "internalType": "uint256",
          "name": "_amount",
          "type": "uint256"
        }
      ],
      "name": "contributeArtifacts",
      "outputs": [],
      "stateMutability": "nonpayable",
      "type": "function"
    },
    {
      "inputs": [],
      "name": "distributeRewards",
      "outputs": [],
      "stateMutability": "nonpayable",
      "type": "function"
    },
    {
      "inputs": [
        {
          "internalType": "uint256",
          "name": "numerator",
          "type": "uint256"
        },
        {
          "internalType": "uint256",
          "name": "denominator",
          "type": "uint256"
        },
        {
          "internalType": "uint256",
          "name": "precision",
          "type": "uint256"
        }
      ],
      "name": "divider",
      "outputs": [
        {
          "internalType": "uint256",
          "name": "",
          "type": "uint256"
        }
      ],
      "stateMutability": "pure",
      "type": "function"
    },
    {
      "inputs": [],
      "name": "epochDuration",
      "outputs": [
        {
          "internalType": "uint256",
          "name": "",
          "type": "uint256"
        }
      ],
      "stateMutability": "view",
      "type": "function"
    },
    {
      "inputs": [],
      "name": "epochRewards",
      "outputs": [
        {
          "internalType": "uint256",
          "name": "",
          "type": "uint256"
        }
      ],
      "stateMutability": "view",
      "type": "function"
    },
    {
      "inputs": [],
      "name": "epochRewardsPercentage",
      "outputs": [
        {
          "internalType": "uint256",
          "name": "",
          "type": "uint256"
        }
      ],
      "stateMutability": "view",
      "type": "function"
    },
    {
      "inputs": [],
      "name": "epochStartTime",
      "outputs": [
        {
          "internalType": "uint256",
          "name": "",
          "type": "uint256"
        }
      ],
      "stateMutability": "view",
      "type": "function"
    },
    {
      "inputs": [
        {
          "internalType": "uint256",
          "name": "",
          "type": "uint256"
        }
      ],
      "name": "factionPartsBalance",
      "outputs": [
        {
          "internalType": "uint256",
          "name": "",
          "type": "uint256"
        }
      ],
      "stateMutability": "view",
      "type": "function"
    },
    {
      "inputs": [
        {
          "internalType": "uint256",
          "name": "_faction",
          "type": "uint256"
        }
      ],
      "name": "getFactionVaultPartsBalance",
      "outputs": [
        {
          "internalType": "uint256",
          "name": "factionVaultPartsBalance",
          "type": "uint256"
        }
      ],
      "stateMutability": "view",
      "type": "function"
    },
    {
      "inputs": [],
      "name": "getMothoraGame",
      "outputs": [
        {
          "internalType": "address",
          "name": "",
          "type": "address"
        }
      ],
      "stateMutability": "view",
      "type": "function"
    },
    {
      "inputs": [
        {
          "internalType": "address",
          "name": "_player",
          "type": "address"
        }
      ],
      "name": "getPlayerVaultPartsBalance",
      "outputs": [
        {
          "internalType": "uint256",
          "name": "playerVaultPartsBalance",
          "type": "uint256"
        }
      ],
      "stateMutability": "view",
      "type": "function"
    },
    {
      "inputs": [
        {
          "internalType": "address",
          "name": "_player",
          "type": "address"
        }
      ],
      "name": "getTotalBalance",
      "outputs": [
        {
          "internalType": "uint256",
          "name": "balance",
          "type": "uint256"
        },
        {
          "internalType": "uint256",
          "name": "stakedBalance",
          "type": "uint256"
        },
        {
          "internalType": "uint256",
          "name": "pendingRewards",
          "type": "uint256"
        }
      ],
      "stateMutability": "view",
      "type": "function"
    },
    {
      "inputs": [],
      "name": "lastDistributionTime",
      "outputs": [
        {
          "internalType": "uint256",
          "name": "",
          "type": "uint256"
        }
      ],
      "stateMutability": "view",
      "type": "function"
    },
    {
      "inputs": [
        {
          "internalType": "address",
          "name": "",
          "type": "address"
        }
      ],
      "name": "lastUpdate",
      "outputs": [
        {
          "internalType": "uint256",
          "name": "",
          "type": "uint256"
        }
      ],
      "stateMutability": "view",
      "type": "function"
    },
    {
      "inputs": [
        {
          "internalType": "address",
          "name": "",
          "type": "address"
        },
        {
          "internalType": "address",
          "name": "",
          "type": "address"
        },
        {
          "internalType": "uint256[]",
          "name": "",
          "type": "uint256[]"
        },
        {
          "internalType": "uint256[]",
          "name": "",
          "type": "uint256[]"
        },
        {
          "internalType": "bytes",
          "name": "",
          "type": "bytes"
        }
      ],
      "name": "onERC1155BatchReceived",
      "outputs": [
        {
          "internalType": "bytes4",
          "name": "",
          "type": "bytes4"
        }
      ],
      "stateMutability": "nonpayable",
      "type": "function"
    },
    {
      "inputs": [
        {
          "internalType": "address",
          "name": "",
          "type": "address"
        },
        {
          "internalType": "address",
          "name": "",
          "type": "address"
        },
        {
          "internalType": "uint256",
          "name": "",
          "type": "uint256"
        },
        {
          "internalType": "uint256",
          "name": "",
          "type": "uint256"
        },
        {
          "internalType": "bytes",
          "name": "",
          "type": "bytes"
        }
      ],
      "name": "onERC1155Received",
      "outputs": [
        {
          "internalType": "bytes4",
          "name": "",
          "type": "bytes4"
        }
      ],
      "stateMutability": "nonpayable",
      "type": "function"
    },
    {
      "inputs": [],
      "name": "owner",
      "outputs": [
        {
          "internalType": "address",
          "name": "",
          "type": "address"
        }
      ],
      "stateMutability": "view",
      "type": "function"
    },
    {
      "inputs": [
        {
          "internalType": "uint256",
          "name": "",
          "type": "uint256"
        }
      ],
      "name": "playerAddresses",
      "outputs": [
        {
          "internalType": "address",
          "name": "",
          "type": "address"
        }
      ],
      "stateMutability": "view",
      "type": "function"
    },
    {
      "inputs": [],
      "name": "playerId",
      "outputs": [
        {
          "internalType": "uint256",
          "name": "",
          "type": "uint256"
        }
      ],
      "stateMutability": "view",
      "type": "function"
    },
    {
      "inputs": [
        {
          "internalType": "address",
          "name": "",
          "type": "address"
        }
      ],
      "name": "playerIds",
      "outputs": [
        {
          "internalType": "uint256",
          "name": "",
          "type": "uint256"
        }
      ],
      "stateMutability": "view",
      "type": "function"
    },
    {
      "inputs": [
        {
          "internalType": "address",
          "name": "",
          "type": "address"
        }
      ],
      "name": "playerStakedPartsBalance",
      "outputs": [
        {
          "internalType": "uint256",
          "name": "",
          "type": "uint256"
        }
      ],
      "stateMutability": "view",
      "type": "function"
    },
    {
      "inputs": [],
      "name": "renounceOwnership",
      "outputs": [],
      "stateMutability": "nonpayable",
      "type": "function"
    },
    {
      "inputs": [
        {
          "internalType": "address",
          "name": "mothoraGameContractAddress",
          "type": "address"
        }
      ],
      "name": "setMothoraGame",
      "outputs": [],
      "stateMutability": "nonpayable",
      "type": "function"
    },
    {
      "inputs": [
        {
          "internalType": "uint256",
          "name": "_amount",
          "type": "uint256"
        }
      ],
      "name": "stakeTokens",
      "outputs": [],
      "stateMutability": "nonpayable",
      "type": "function"
    },
    {
      "inputs": [
        {
          "internalType": "address",
          "name": "",
          "type": "address"
        }
      ],
      "name": "stakedDuration",
      "outputs": [
        {
          "internalType": "uint256",
          "name": "",
          "type": "uint256"
        }
      ],
      "stateMutability": "view",
      "type": "function"
    },
    {
      "inputs": [
        {
          "internalType": "address",
          "name": "",
          "type": "address"
        }
      ],
      "name": "stakedESSBalance",
      "outputs": [
        {
          "internalType": "uint256",
          "name": "",
          "type": "uint256"
        }
      ],
      "stateMutability": "view",
      "type": "function"
    },
    {
      "inputs": [
        {
          "internalType": "bytes4",
          "name": "interfaceId",
          "type": "bytes4"
        }
      ],
      "name": "supportsInterface",
      "outputs": [
        {
          "internalType": "bool",
          "name": "",
          "type": "bool"
        }
      ],
      "stateMutability": "view",
      "type": "function"
    },
    {
      "inputs": [
        {
          "internalType": "address",
          "name": "",
          "type": "address"
        }
      ],
      "name": "timeTier",
      "outputs": [
        {
          "internalType": "uint256",
          "name": "",
          "type": "uint256"
        }
      ],
      "stateMutability": "view",
      "type": "function"
    },
    {
      "inputs": [],
      "name": "totalStakedBalance",
      "outputs": [
        {
          "internalType": "uint256",
          "name": "",
          "type": "uint256"
        }
      ],
      "stateMutability": "view",
      "type": "function"
    },
    {
      "inputs": [],
      "name": "totalVaultPartsContributed",
      "outputs": [
        {
          "internalType": "uint256",
          "name": "",
          "type": "uint256"
        }
      ],
      "stateMutability": "view",
      "type": "function"
    },
    {
      "inputs": [
        {
          "internalType": "address",
          "name": "newOwner",
          "type": "address"
        }
      ],
      "name": "transferOwnership",
      "outputs": [],
      "stateMutability": "nonpayable",
      "type": "function"
    },
    {
      "inputs": [
        {
          "internalType": "uint256",
          "name": "_amount",
          "type": "uint256"
        }
      ],
      "name": "unstakeTokens",
      "outputs": [],
      "stateMutability": "nonpayable",
      "type": "function"
    }
  ],
  "transactionHash": "0x2dde15c6bb434abe133a28de181db0ab5e6f16de091d6b72230eb0fd8ae9475e",
  "args": [
    "0xe7f1725E7734CE288F8367e1Bb143E90bb3F0512",
    15,
    600
  ],
  "numDeployments": 1,
  "solcInputHash": "a8ecd0cd184449efbcab2f28aa23e473",
  "bytecode": "0x60806040523480156200001157600080fd5b5060405162002811380380620028118339810160408190526200003491620000c4565b6200003f3362000074565b60018055600a80546001600160a01b0319166001600160a01b039490941693909317909255600f556010554260115562000109565b600080546001600160a01b038381166001600160a01b0319831681178455604051919092169283917f8be0079c531659141344cd1fd0a4f28419497f9722a3daafe3b4186f6b6457e09190a35050565b600080600060608486031215620000da57600080fd5b83516001600160a01b0381168114620000f257600080fd5b602085015160409095015190969495509392505050565b6126f880620001196000396000f3fe608060405234801561001057600080fd5b50600436106102065760003560e01c806384e936631161011a578063d36ec061116100ad578063ee9420b21161007c578063ee9420b2146104e4578063f23a6e61146104f7578063f2fde38b14610516578063f60ca64114610529578063ffc1a8de1461053257600080fd5b8063d36ec06114610463578063d3d3819314610483578063d7f81f36146104b1578063eaaa1b1d146104c457600080fd5b80639dc36179116100e95780639dc36179146103da578063bc197c81146103fa578063cb03fb1e14610432578063d0ca5f6c1461045257600080fd5b806384e936631461037757806388e1e939146103805780638da5cb5b146103a0578063986812e8146103b157600080fd5b8063608e4dd01161019d578063715018a61161016c578063715018a61461033757806372cf17731461033f5780637547c7a31461035257806375b1735014610365578063773f7a3a1461036e57600080fd5b8063608e4dd0146102f3578063696786d3146103065780636f4a2cd014610326578063713c0e1a1461032e57600080fd5b806315c6aee2116101d957806315c6aee21461027f57806344cfedbd146102aa5780634ff0876a146102ca5780635ca5e068146102d357600080fd5b806301ffc9a71461020b57806302ee2700146102335780630620eedc146102485780630f3c1fe51461025f575b600080fd5b61021e6102193660046120dd565b61053b565b60405190151581526020015b60405180910390f35b61024661024136600461211c565b610572565b005b610251600b5481565b60405190815260200161022a565b61025161026d36600461211c565b60086020526000908152604090205481565b61029261028d366004612139565b6105c4565b6040516001600160a01b03909116815260200161022a565b6102516102b836600461211c565b60056020526000908152604090205481565b61025160105481565b6102516102e1366004612139565b60096020526000908152604090205481565b610246610301366004612139565b6105ee565b61025161031436600461211c565b60076020526000908152604090205481565b61024661088e565b61025160135481565b6102466110b1565b61024661034d366004612160565b6110c5565b610246610360366004612139565b611289565b610251600e5481565b610251600c5481565b610251600f5481565b61025161038e36600461211c565b60026020526000908152604090205481565b6000546001600160a01b0316610292565b6102516103bf36600461211c565b6001600160a01b031660009081526008602052604090205490565b6102516103e8366004612139565b60009081526009602052604090205490565b6104196104083660046122a9565b63bc197c8160e01b95945050505050565b6040516001600160e01b0319909116815260200161022a565b61025161044036600461211c565b60066020526000908152604090205481565b600a546001600160a01b0316610292565b61025161047136600461211c565b60046020526000908152604090205481565b61049661049136600461211c565b6114aa565b6040805193845260208401929092529082015260600161022a565b6102516104bf366004612357565b6115c4565b6102516104d236600461211c565b60036020526000908152604090205481565b6102466104f2366004612139565b611612565b610419610505366004612383565b63f23a6e6160e01b95945050505050565b61024661052436600461211c565b611a9c565b61025160115481565b610251600d5481565b60006001600160e01b03198216630271189760e51b148061056c57506301ffc9a760e01b6001600160e01b03198316145b92915050565b61057a611b15565b600a80546001600160a01b0319166001600160a01b0383169081179091556040517fb470247bc93cda00b99087355b926ca47d43fc2d926a1fc9dda5c26af915d06d90600090a250565b601281815481106105d457600080fd5b6000918252602090912001546001600160a01b0316905081565b6002600154036106195760405162461bcd60e51b8152600401610610906123ec565b60405180910390fd5b6002600155600a54604051631895c2d560e31b81523360048201526000916001600160a01b03169063c4ae16a890602401602060405180830381865afa158015610667573d6000803e3d6000fd5b505050506040513d601f19601f8201168201806040525081019061068b9190612423565b600a54604051630f45db9160e01b81523360048201529192506000916001600160a01b0390911690630f45db9190602401602060405180830381865afa1580156106d9573d6000803e3d6000fd5b505050506040513d601f19601f820116820180604052508101906106fd919061243c565b9050811580159061070c575080155b6107285760405162461bcd60e51b815260040161061090612459565b600083116107785760405162461bcd60e51b815260206004820152601b60248201527f416d6f756e74206d757374206265206d6f7265207468616e20302e00000000006044820152606401610610565b336000908152600260205260409020546107d45760405162461bcd60e51b815260206004820152601b60248201527f5374616b696e672062616c616e63652063616e6e6f74206265203000000000006044820152606401610610565b336000908152600260205260409020548311156108485760405162461bcd60e51b815260206004820152602c60248201527f43616e6e6f7420756e7374616b65206d6f7265207468616e20796f757220737460448201526b616b65642062616c616e636560a01b6064820152608401610610565b336000908152600260205260408120805485929061086790849061249b565b9250508190555082600b6000828254610880919061249b565b909155505060018055505050565b610896611b15565b6000600b54116108e85760405162461bcd60e51b815260206004820152601a60248201527f546865726520617265206e6f20746f6b656e73207374616b65640000000000006044820152606401610610565b6000601054601154426108fb919061249b565b61090591906124b2565b60105461091291906124d4565b60115461091f91906124f3565b905080600e54106109875760405162461bcd60e51b815260206004820152602c60248201527f54686520706c617965722068617320616c726561647920636c61696d6564206960448201526b0dc40e8d0d2e640cae0dec6d60a31b6064820152608401610610565b6109b2600f54600b5461099a91906124d4565b6109a6906102586124d4565b63bbf81e0060006115c4565b600c55601280546040805160208084028201810190925282815260009390929091830182828015610a0c57602002820191906000526020600020905b81546001600160a01b031681526001909101906020018083116109ee575b5050601354600c54949550939250600091508190508080808060015b888111610b135760006002818c610a4060018661249b565b81518110610a5057610a5061250b565b60200260200101516001600160a01b03166001600160a01b03168152602001908152602001600020541115610b0b57610aab8a610a8e60018461249b565b81518110610a9e57610a9e61250b565b6020026020010151611b6f565b600260008c610abb60018661249b565b81518110610acb57610acb61250b565b60200260200101516001600160a01b03166001600160a01b0316815260200190815260200160002054610afe91906124d4565b610b0890886124f3565b96505b600101610a28565b50600d546003600081905260096020527fc575c31fea594a6eb97c8e9d3f9caee4c16218c6ef37e923234c0fe9014a61e754600a54604051633093550960e01b81526004810193909352929750916001600160a01b031690633093550990602401602060405180830381865afa158015610b91573d6000803e3d6000fd5b505050506040513d601f19601f82011682018060405250810190610bb59190612423565b610bbf91906124d4565b6002600081905260096020527f6cde3cea4b3a3fb2488b2808bae7556f4a405e50f65e1794383bc026131b13c354600a54604051633093550960e01b815291926001600160a01b0390911691633093550991610c219160040190815260200190565b602060405180830381865afa158015610c3e573d6000803e3d6000fd5b505050506040513d601f19601f82011682018060405250810190610c629190612423565b610c6c91906124d4565b6001600081905260096020527f92e85d02570a8092d09a6e3a57665bc3815a2699a4074001bf1ccabf660f5a3654600a54604051633093550960e01b815291926001600160a01b0390911691633093550991610cce9160040190815260200190565b602060405180830381865afa158015610ceb573d6000803e3d6000fd5b505050506040513d601f19601f82011682018060405250810190610d0f9190612423565b610d1991906124d4565b610d2391906124f3565b610d2d91906124f3565b93508415610f8c57600060015b6013548111610f8557610d528b610a8e60018461249b565b600260006012610d6360018661249b565b81548110610d7357610d7361250b565b60009182526020808320909101546001600160a01b03168352820192909252604001902054610da291906124d4565b9450600860008c610db460018561249b565b81518110610dc457610dc461250b565b6020908102919091018101516001600160a01b0390811683529082019290925260400160002054600a549095501663915109798c610e0360018561249b565b81518110610e1357610e1361250b565b60200260200101516040518263ffffffff1660e01b8152600401610e4691906001600160a01b0391909116815260200190565b602060405180830381865afa158015610e63573d6000803e3d6000fd5b505050506040513d601f19601f82011682018060405250810190610e879190612423565b60008181526009602052604090205493509150610ec589610ea98560056124d4565b610eb391906124d4565b610ebe8860646124d4565b60006115c4565b610ee98a610ed48760196124d4565b610ede91906124d4565b610ebe8a60646124d4565b610f0d8b610ef88960466124d4565b610f0291906124d4565b610ebe8c60646124d4565b610f1791906124f3565b610f2191906124f3565b600360008d610f3160018661249b565b81518110610f4157610f4161250b565b60200260200101516001600160a01b03166001600160a01b031681526020019081526020016000206000828254610f7891906124f3565b9091555050600101610d3a565b50506110a1565b60015b601354811161109f57610fd26012610fa860018461249b565b81548110610fb857610fb861250b565b6000918252602090912001546001600160a01b0316611b6f565b600260006012610fe360018661249b565b81548110610ff357610ff361250b565b60009182526020808320909101546001600160a01b0316835282019290925260400190205461102291906124d4565b935061103d600c548561103591906124d4565b8860006115c4565b60036000601261104e60018661249b565b8154811061105e5761105e61250b565b60009182526020808320909101546001600160a01b03168352820192909252604001812080549091906110929084906124f3565b9091555050600101610f8f565b505b505042600e555050505050505050565b6110b9611b15565b6110c36000611cc5565b565b600a54604051631895c2d560e31b81523360048201526000916001600160a01b03169063c4ae16a890602401602060405180830381865afa15801561110e573d6000803e3d6000fd5b505050506040513d601f19601f820116820180604052508101906111329190612423565b600a54604051630f45db9160e01b81523360048201529192506000916001600160a01b0390911690630f45db9190602401602060405180830381865afa158015611180573d6000803e3d6000fd5b505050506040513d601f19601f820116820180604052508101906111a4919061243c565b905081158015906111b3575080155b6111cf5760405162461bcd60e51b815260040161061090612459565b336000908152600360205260408120805491905583156111f7576111f281611d15565b611283565b6112833382600a60009054906101000a90046001600160a01b03166001600160a01b03166306274eac6040518163ffffffff1660e01b8152600401602060405180830381865afa15801561124f573d6000803e3d6000fd5b505050506040513d601f19601f820116820180604052508101906112739190612521565b6001600160a01b03169190611e57565b50505050565b6002600154036112ab5760405162461bcd60e51b8152600401610610906123ec565b6002600155600a54604051631895c2d560e31b81523360048201526000916001600160a01b03169063c4ae16a890602401602060405180830381865afa1580156112f9573d6000803e3d6000fd5b505050506040513d601f19601f8201168201806040525081019061131d9190612423565b600a54604051630f45db9160e01b81523360048201529192506000916001600160a01b0390911690630f45db9190602401602060405180830381865afa15801561136b573d6000803e3d6000fd5b505050506040513d601f19601f8201168201806040525081019061138f919061243c565b9050811580159061139e575080155b6113ba5760405162461bcd60e51b815260040161061090612459565b6000831161140a5760405162461bcd60e51b815260206004820152601b60248201527f416d6f756e74206d757374206265206d6f7265207468616e20302e00000000006044820152606401610610565b611498333085600a60009054906101000a90046001600160a01b03166001600160a01b03166306274eac6040518163ffffffff1660e01b8152600401602060405180830381865afa158015611463573d6000803e3d6000fd5b505050506040513d601f19601f820116820180604052508101906114879190612521565b6001600160a01b0316929190611ebf565b6114a183611d15565b50506001805550565b6000806000600a60009054906101000a90046001600160a01b03166001600160a01b03166306274eac6040518163ffffffff1660e01b8152600401602060405180830381865afa158015611502573d6000803e3d6000fd5b505050506040513d601f19601f820116820180604052508101906115269190612521565b6040516370a0823160e01b81526001600160a01b03868116600483015291909116906370a0823190602401602060405180830381865afa15801561156e573d6000803e3d6000fd5b505050506040513d601f19601f820116820180604052508101906115929190612423565b6001600160a01b0394909416600090815260026020908152604080832054600390925290912054949590949350915050565b6000600a836115d48460016124f3565b6115df90600a612622565b6115e990876124d4565b6115f391906124b2565b6115fe9060056124f3565b61160891906124b2565b90505b9392505050565b6002600154036116345760405162461bcd60e51b8152600401610610906123ec565b6002600155600a54604051631895c2d560e31b81523360048201526000916001600160a01b03169063c4ae16a890602401602060405180830381865afa158015611682573d6000803e3d6000fd5b505050506040513d601f19601f820116820180604052508101906116a69190612423565b600a54604051630f45db9160e01b81523360048201529192506000916001600160a01b0390911690630f45db9190602401602060405180830381865afa1580156116f4573d6000803e3d6000fd5b505050506040513d601f19601f82011682018060405250810190611718919061243c565b90508115801590611727575080155b6117435760405162461bcd60e51b815260040161061090612459565b600083116117935760405162461bcd60e51b815260206004820152601a60248201527f416d6f756e74206d757374206265206d6f7265207468616e20300000000000006044820152606401610610565b600a5460408051631dcf023d60e11b815290516000926001600160a01b031691633b9e047a9160048083019260209291908290030181865afa1580156117dd573d6000803e3d6000fd5b505050506040513d601f19601f820116820180604052508101906118019190612521565b905083816001600160a01b031662fdd58e33846001600160a01b03166347312a756040518163ffffffff1660e01b8152600401602060405180830381865afa158015611851573d6000803e3d6000fd5b505050506040513d601f19601f820116820180604052508101906118759190612423565b6040516001600160e01b031960e085901b1681526001600160a01b0390921660048301526024820152604401602060405180830381865afa1580156118be573d6000803e3d6000fd5b505050506040513d601f19601f820116820180604052508101906118e29190612423565b10156119425760405162461bcd60e51b815260206004820152602960248201527f54686520506c6179657220646f6573206e6f74206861766520656e6f7567682060448201526841727469666163747360b81b6064820152608401610610565b33600090815260086020526040812080548692906119619084906124f3565b9091555050600a54604051639151097960e01b81523360048201526000916001600160a01b031690639151097990602401602060405180830381865afa1580156119af573d6000803e3d6000fd5b505050506040513d601f19601f820116820180604052508101906119d39190612423565b9050846009600083815260200190815260200160002060008282546119f891906124f3565b9250508190555084600d6000828254611a1191906124f3565b9091555050604051637921219560e11b81523360048201523060248201526000604482018190526064820187905260a0608483015260a48201526001600160a01b0383169063f242432a9060c401600060405180830381600087803b158015611a7957600080fd5b505af1158015611a8d573d6000803e3d6000fd5b50506001805550505050505050565b611aa4611b15565b6001600160a01b038116611b095760405162461bcd60e51b815260206004820152602660248201527f4f776e61626c653a206e6577206f776e657220697320746865207a65726f206160448201526564647265737360d01b6064820152608401610610565b611b1281611cc5565b50565b6000546001600160a01b031633146110c35760405162461bcd60e51b815260206004820181905260248201527f4f776e61626c653a2063616c6c6572206973206e6f7420746865206f776e65726044820152606401610610565b6001600160a01b038116600090815260066020526040812054611b92904261249b565b6001600160a01b03831660009081526005602052604081208054909190611bba9084906124f3565b90915550506001600160a01b038216600090815260066020908152604080832042905560059091529020546102588111611c0f576001600160a01b0383166000908152600760205260409020600a9055611ca8565b61025881118015611c2257506104b08111155b15611c48576001600160a01b0383166000908152600760205260409020600d9055611ca8565b6104b081118015611c5b5750610bb88111155b15611c81576001600160a01b038316600090815260076020526040902060109055611ca8565b610bb8811115611ca8576001600160a01b0383166000908152600760205260409020601490555b50506001600160a01b031660009081526007602052604090205490565b600080546001600160a01b038381166001600160a01b0319831681178455604051919092169283917f8be0079c531659141344cd1fd0a4f28419497f9722a3daafe3b4186f6b6457e09190a35050565b3360009081526002602052604081205490819003611dc757336000908152600460205260408120549003611db05760138054906000611d538361262e565b9091555050601354336000818152600460205260408120929092556012805460018101825592527fbb8a6a4669ba250d26cd7a459eca9d215f8307e33aebe50379bc5a3617ec344490910180546001600160a01b03191690911790555b336000908152600660205260409020429055611e16565b33600090815260026020526040902054611de190826124b2565b33600090815260066020526040902054611dfb904261249b565b611e0591906124d4565b336000908152600560205260409020555b3360009081526002602052604081208054849290611e359084906124f3565b9250508190555081600b6000828254611e4e91906124f3565b90915550505050565b6040516001600160a01b038316602482015260448101829052611eba90849063a9059cbb60e01b906064015b60408051601f198184030181529190526020810180516001600160e01b03166001600160e01b031990931692909217909152611ef7565b505050565b6040516001600160a01b03808516602483015283166044820152606481018290526112839085906323b872dd60e01b90608401611e83565b6000611f4c826040518060400160405280602081526020017f5361666545524332303a206c6f772d6c6576656c2063616c6c206661696c6564815250856001600160a01b0316611fc99092919063ffffffff16565b805190915015611eba5780806020019051810190611f6a919061243c565b611eba5760405162461bcd60e51b815260206004820152602a60248201527f5361666545524332303a204552433230206f7065726174696f6e20646964206e6044820152691bdd081cdd58d8d9595960b21b6064820152608401610610565b60606116088484600085856001600160a01b0385163b61202b5760405162461bcd60e51b815260206004820152601d60248201527f416464726573733a2063616c6c20746f206e6f6e2d636f6e74726163740000006044820152606401610610565b600080866001600160a01b031685876040516120479190612673565b60006040518083038185875af1925050503d8060008114612084576040519150601f19603f3d011682016040523d82523d6000602084013e612089565b606091505b50915091506120998282866120a4565b979650505050505050565b606083156120b357508161160b565b8251156120c35782518084602001fd5b8160405162461bcd60e51b8152600401610610919061268f565b6000602082840312156120ef57600080fd5b81356001600160e01b03198116811461160b57600080fd5b6001600160a01b0381168114611b1257600080fd5b60006020828403121561212e57600080fd5b813561160b81612107565b60006020828403121561214b57600080fd5b5035919050565b8015158114611b1257600080fd5b60006020828403121561217257600080fd5b813561160b81612152565b634e487b7160e01b600052604160045260246000fd5b604051601f8201601f1916810167ffffffffffffffff811182821017156121bc576121bc61217d565b604052919050565b600082601f8301126121d557600080fd5b8135602067ffffffffffffffff8211156121f1576121f161217d565b8160051b612200828201612193565b928352848101820192828101908785111561221a57600080fd5b83870192505b8483101561209957823582529183019190830190612220565b600082601f83011261224a57600080fd5b813567ffffffffffffffff8111156122645761226461217d565b612277601f8201601f1916602001612193565b81815284602083860101111561228c57600080fd5b816020850160208301376000918101602001919091529392505050565b600080600080600060a086880312156122c157600080fd5b85356122cc81612107565b945060208601356122dc81612107565b9350604086013567ffffffffffffffff808211156122f957600080fd5b61230589838a016121c4565b9450606088013591508082111561231b57600080fd5b61232789838a016121c4565b9350608088013591508082111561233d57600080fd5b5061234a88828901612239565b9150509295509295909350565b60008060006060848603121561236c57600080fd5b505081359360208301359350604090920135919050565b600080600080600060a0868803121561239b57600080fd5b85356123a681612107565b945060208601356123b681612107565b93506040860135925060608601359150608086013567ffffffffffffffff8111156123e057600080fd5b61234a88828901612239565b6020808252601f908201527f5265656e7472616e637947756172643a207265656e7472616e742063616c6c00604082015260600190565b60006020828403121561243557600080fd5b5051919050565b60006020828403121561244e57600080fd5b815161160b81612152565b6020808252601290820152714143434f554e545f4e4f545f41435449564560701b604082015260600190565b634e487b7160e01b600052601160045260246000fd5b6000828210156124ad576124ad612485565b500390565b6000826124cf57634e487b7160e01b600052601260045260246000fd5b500490565b60008160001904831182151516156124ee576124ee612485565b500290565b6000821982111561250657612506612485565b500190565b634e487b7160e01b600052603260045260246000fd5b60006020828403121561253357600080fd5b815161160b81612107565b600181815b8085111561257957816000190482111561255f5761255f612485565b8085161561256c57918102915b93841c9390800290612543565b509250929050565b6000826125905750600161056c565b8161259d5750600061056c565b81600181146125b357600281146125bd576125d9565b600191505061056c565b60ff8411156125ce576125ce612485565b50506001821b61056c565b5060208310610133831016604e8410600b84101617156125fc575081810a61056c565b612606838361253e565b806000190482111561261a5761261a612485565b029392505050565b600061160b8383612581565b60006001820161264057612640612485565b5060010190565b60005b8381101561266257818101518382015260200161264a565b838111156112835750506000910152565b60008251612685818460208701612647565b9190910192915050565b60208152600082518060208401526126ae816040850160208701612647565b601f01601f1916919091016040019291505056fea264697066735822122004a82c9fe6a29199183e0945c13c461ce3840b8e96a2911623523ed8d5b1665564736f6c634300080f0033",
  "devdoc": {
    "kind": "dev",
    "methods": {
      "getMothoraGame()": {
        "details": "Returns the address of the Mothora Game Hub Contract",
        "returns": {
          "_0": "The Mothora Game address*"
        }
      },
      "owner()": {
        "details": "Returns the address of the current owner."
      },
      "renounceOwnership()": {
        "details": "Leaves the contract without owner. It will not be possible to call `onlyOwner` functions anymore. Can only be called by the current owner. NOTE: Renouncing ownership will leave the contract without an owner, thereby removing any functionality that is only available to the owner."
      },
      "setMothoraGame(address)": {
        "details": "Updates the address of the Mothora Game",
        "params": {
          "mothoraGameContractAddress": "The new Mothora Game address*"
        }
      },
      "supportsInterface(bytes4)": {
        "details": "See {IERC165-supportsInterface}."
      },
      "transferOwnership(address)": {
        "details": "Transfers ownership of the contract to a new account (`newOwner`). Can only be called by the current owner."
      }
    },
    "version": 1
  },
  "userdoc": {
    "kind": "user",
    "methods": {},
    "version": 1
  },
  "storageLayout": {
    "storage": [
      {
        "astId": 5349,
        "contract": "contracts/modules/EssenceAbsorber.sol:EssenceAbsorber",
        "label": "_owner",
        "offset": 0,
        "slot": "0",
        "type": "t_address"
      },
      {
        "astId": 5573,
        "contract": "contracts/modules/EssenceAbsorber.sol:EssenceAbsorber",
        "label": "_status",
        "offset": 0,
        "slot": "1",
        "type": "t_uint256"
      },
      {
        "astId": 13459,
        "contract": "contracts/modules/EssenceAbsorber.sol:EssenceAbsorber",
        "label": "stakedESSBalance",
        "offset": 0,
        "slot": "2",
        "type": "t_mapping(t_address,t_uint256)"
      },
      {
        "astId": 13463,
        "contract": "contracts/modules/EssenceAbsorber.sol:EssenceAbsorber",
        "label": "RewardsBalance",
        "offset": 0,
        "slot": "3",
        "type": "t_mapping(t_address,t_uint256)"
      },
      {
        "astId": 13467,
        "contract": "contracts/modules/EssenceAbsorber.sol:EssenceAbsorber",
        "label": "playerIds",
        "offset": 0,
        "slot": "4",
        "type": "t_mapping(t_address,t_uint256)"
      },
      {
        "astId": 13471,
        "contract": "contracts/modules/EssenceAbsorber.sol:EssenceAbsorber",
        "label": "stakedDuration",
        "offset": 0,
        "slot": "5",
        "type": "t_mapping(t_address,t_uint256)"
      },
      {
        "astId": 13475,
        "contract": "contracts/modules/EssenceAbsorber.sol:EssenceAbsorber",
        "label": "lastUpdate",
        "offset": 0,
        "slot": "6",
        "type": "t_mapping(t_address,t_uint256)"
      },
      {
        "astId": 13479,
        "contract": "contracts/modules/EssenceAbsorber.sol:EssenceAbsorber",
        "label": "timeTier",
        "offset": 0,
        "slot": "7",
        "type": "t_mapping(t_address,t_uint256)"
      },
      {
        "astId": 13483,
        "contract": "contracts/modules/EssenceAbsorber.sol:EssenceAbsorber",
        "label": "playerStakedPartsBalance",
        "offset": 0,
        "slot": "8",
        "type": "t_mapping(t_address,t_uint256)"
      },
      {
        "astId": 13487,
        "contract": "contracts/modules/EssenceAbsorber.sol:EssenceAbsorber",
        "label": "factionPartsBalance",
        "offset": 0,
        "slot": "9",
        "type": "t_mapping(t_uint256,t_uint256)"
      },
      {
        "astId": 13490,
        "contract": "contracts/modules/EssenceAbsorber.sol:EssenceAbsorber",
        "label": "mothoraGameContract",
        "offset": 0,
        "slot": "10",
        "type": "t_contract(MothoraGame)12188"
      },
      {
        "astId": 13492,
        "contract": "contracts/modules/EssenceAbsorber.sol:EssenceAbsorber",
        "label": "totalStakedBalance",
        "offset": 0,
        "slot": "11",
        "type": "t_uint256"
      },
      {
        "astId": 13494,
        "contract": "contracts/modules/EssenceAbsorber.sol:EssenceAbsorber",
        "label": "epochRewards",
        "offset": 0,
        "slot": "12",
        "type": "t_uint256"
      },
      {
        "astId": 13496,
        "contract": "contracts/modules/EssenceAbsorber.sol:EssenceAbsorber",
        "label": "totalVaultPartsContributed",
        "offset": 0,
        "slot": "13",
        "type": "t_uint256"
      },
      {
        "astId": 13498,
        "contract": "contracts/modules/EssenceAbsorber.sol:EssenceAbsorber",
        "label": "lastDistributionTime",
        "offset": 0,
        "slot": "14",
        "type": "t_uint256"
      },
      {
        "astId": 13500,
        "contract": "contracts/modules/EssenceAbsorber.sol:EssenceAbsorber",
        "label": "epochRewardsPercentage",
        "offset": 0,
        "slot": "15",
        "type": "t_uint256"
      },
      {
        "astId": 13502,
        "contract": "contracts/modules/EssenceAbsorber.sol:EssenceAbsorber",
        "label": "epochDuration",
        "offset": 0,
        "slot": "16",
        "type": "t_uint256"
      },
      {
        "astId": 13504,
        "contract": "contracts/modules/EssenceAbsorber.sol:EssenceAbsorber",
        "label": "epochStartTime",
        "offset": 0,
        "slot": "17",
        "type": "t_uint256"
      },
      {
        "astId": 13507,
        "contract": "contracts/modules/EssenceAbsorber.sol:EssenceAbsorber",
        "label": "playerAddresses",
        "offset": 0,
        "slot": "18",
        "type": "t_array(t_address)dyn_storage"
      },
      {
        "astId": 13509,
        "contract": "contracts/modules/EssenceAbsorber.sol:EssenceAbsorber",
        "label": "playerId",
        "offset": 0,
        "slot": "19",
        "type": "t_uint256"
      }
    ],
    "types": {
      "t_address": {
        "encoding": "inplace",
        "label": "address",
        "numberOfBytes": "20"
      },
      "t_array(t_address)dyn_storage": {
        "base": "t_address",
        "encoding": "dynamic_array",
        "label": "address[]",
        "numberOfBytes": "32"
      },
      "t_contract(MothoraGame)12188": {
        "encoding": "inplace",
        "label": "contract MothoraGame",
        "numberOfBytes": "20"
      },
      "t_mapping(t_address,t_uint256)": {
        "encoding": "mapping",
        "key": "t_address",
        "label": "mapping(address => uint256)",
        "numberOfBytes": "32",
        "value": "t_uint256"
      },
      "t_mapping(t_uint256,t_uint256)": {
        "encoding": "mapping",
        "key": "t_uint256",
        "label": "mapping(uint256 => uint256)",
        "numberOfBytes": "32",
        "value": "t_uint256"
      },
      "t_uint256": {
        "encoding": "inplace",
        "label": "uint256",
        "numberOfBytes": "32"
      }
    }
  }
}