{
  "address": "0xA51c1fc2f0D1a1b8494Ed1FE312d7C3a78Ed91C0",
  "abi": [
    {
      "inputs": [],
      "stateMutability": "nonpayable",
      "type": "constructor"
    },
    {
      "anonymous": false,
      "inputs": [
        {
          "indexed": false,
          "internalType": "address",
          "name": "flow",
          "type": "address"
        },
        {
          "indexed": false,
          "internalType": "bool",
          "name": "value",
          "type": "bool"
        }
      ],
      "name": "CallbackSet",
      "type": "event"
    },
    {
      "anonymous": false,
      "inputs": [
        {
          "indexed": true,
          "internalType": "address",
          "name": "flow",
          "type": "address"
        },
        {
          "indexed": false,
          "internalType": "uint256",
          "name": "amount",
          "type": "uint256"
        },
        {
          "indexed": false,
          "internalType": "uint256",
          "name": "startTimestamp",
          "type": "uint256"
        },
        {
          "indexed": false,
          "internalType": "uint256",
          "name": "endTimestamp",
          "type": "uint256"
        }
      ],
      "name": "FlowAdded",
      "type": "event"
    },
    {
      "anonymous": false,
      "inputs": [
        {
          "indexed": true,
          "internalType": "address",
          "name": "flow",
          "type": "address"
        },
        {
          "indexed": false,
          "internalType": "uint256",
          "name": "amount",
          "type": "uint256"
        }
      ],
      "name": "FlowDefunded",
      "type": "event"
    },
    {
      "anonymous": false,
      "inputs": [
        {
          "indexed": true,
          "internalType": "address",
          "name": "flow",
          "type": "address"
        },
        {
          "indexed": false,
          "internalType": "uint256",
          "name": "amount",
          "type": "uint256"
        }
      ],
      "name": "FlowFunded",
      "type": "event"
    },
    {
      "anonymous": false,
      "inputs": [
        {
          "indexed": true,
          "internalType": "address",
          "name": "flow",
          "type": "address"
        },
        {
          "indexed": false,
          "internalType": "address",
          "name": "from",
          "type": "address"
        },
        {
          "indexed": false,
          "internalType": "uint256",
          "name": "amount",
          "type": "uint256"
        }
      ],
      "name": "FlowGrant",
      "type": "event"
    },
    {
      "anonymous": false,
      "inputs": [
        {
          "indexed": true,
          "internalType": "address",
          "name": "flow",
          "type": "address"
        }
      ],
      "name": "FlowRemoved",
      "type": "event"
    },
    {
      "anonymous": false,
      "inputs": [
        {
          "indexed": true,
          "internalType": "address",
          "name": "flow",
          "type": "address"
        },
        {
          "indexed": false,
          "internalType": "uint256",
          "name": "startTimestamp",
          "type": "uint256"
        },
        {
          "indexed": false,
          "internalType": "uint256",
          "name": "endTimestamp",
          "type": "uint256"
        }
      ],
      "name": "FlowTimeUpdated",
      "type": "event"
    },
    {
      "anonymous": false,
      "inputs": [
        {
          "indexed": false,
          "internalType": "uint8",
          "name": "version",
          "type": "uint8"
        }
      ],
      "name": "Initialized",
      "type": "event"
    },
    {
      "anonymous": false,
      "inputs": [
        {
          "indexed": true,
          "internalType": "address",
          "name": "flow",
          "type": "address"
        },
        {
          "indexed": false,
          "internalType": "uint256",
          "name": "rewardsPaid",
          "type": "uint256"
        },
        {
          "indexed": false,
          "internalType": "uint256",
          "name": "rewardsPaidInTotal",
          "type": "uint256"
        }
      ],
      "name": "RewardsPaid",
      "type": "event"
    },
    {
      "anonymous": false,
      "inputs": [
        {
          "indexed": true,
          "internalType": "bytes32",
          "name": "role",
          "type": "bytes32"
        },
        {
          "indexed": true,
          "internalType": "bytes32",
          "name": "previousAdminRole",
          "type": "bytes32"
        },
        {
          "indexed": true,
          "internalType": "bytes32",
          "name": "newAdminRole",
          "type": "bytes32"
        }
      ],
      "name": "RoleAdminChanged",
      "type": "event"
    },
    {
      "anonymous": false,
      "inputs": [
        {
          "indexed": true,
          "internalType": "bytes32",
          "name": "role",
          "type": "bytes32"
        },
        {
          "indexed": true,
          "internalType": "address",
          "name": "account",
          "type": "address"
        },
        {
          "indexed": true,
          "internalType": "address",
          "name": "sender",
          "type": "address"
        }
      ],
      "name": "RoleGranted",
      "type": "event"
    },
    {
      "anonymous": false,
      "inputs": [
        {
          "indexed": true,
          "internalType": "bytes32",
          "name": "role",
          "type": "bytes32"
        },
        {
          "indexed": true,
          "internalType": "address",
          "name": "account",
          "type": "address"
        },
        {
          "indexed": true,
          "internalType": "address",
          "name": "sender",
          "type": "address"
        }
      ],
      "name": "RoleRevoked",
      "type": "event"
    },
    {
      "anonymous": false,
      "inputs": [
        {
          "indexed": false,
          "internalType": "address",
          "name": "to",
          "type": "address"
        },
        {
          "indexed": false,
          "internalType": "uint256",
          "name": "amount",
          "type": "uint256"
        }
      ],
      "name": "Withdraw",
      "type": "event"
    },
    {
      "inputs": [],
      "name": "DEFAULT_ADMIN_ROLE",
      "outputs": [
        {
          "internalType": "bytes32",
          "name": "",
          "type": "bytes32"
        }
      ],
      "stateMutability": "view",
      "type": "function"
    },
    {
      "inputs": [],
      "name": "ESSENCE_FIELD_CREATOR_ROLE",
      "outputs": [
        {
          "internalType": "bytes32",
          "name": "",
          "type": "bytes32"
        }
      ],
      "stateMutability": "view",
      "type": "function"
    },
    {
      "inputs": [],
      "name": "PRECISION",
      "outputs": [
        {
          "internalType": "uint256",
          "name": "",
          "type": "uint256"
        }
      ],
      "stateMutability": "view",
      "type": "function"
    },
    {
      "inputs": [
        {
          "internalType": "address",
          "name": "_flow",
          "type": "address"
        },
        {
          "internalType": "uint256",
          "name": "_totalRewards",
          "type": "uint256"
        },
        {
          "internalType": "uint256",
          "name": "_startTimestamp",
          "type": "uint256"
        },
        {
          "internalType": "uint256",
          "name": "_endTimestamp",
          "type": "uint256"
        },
        {
          "internalType": "bool",
          "name": "_callback",
          "type": "bool"
        }
      ],
      "name": "addFlow",
      "outputs": [],
      "stateMutability": "nonpayable",
      "type": "function"
    },
    {
      "inputs": [
        {
          "internalType": "address",
          "name": "",
          "type": "address"
        }
      ],
      "name": "callbackRegistry",
      "outputs": [
        {
          "internalType": "bool",
          "name": "",
          "type": "bool"
        }
      ],
      "stateMutability": "view",
      "type": "function"
    },
    {
      "inputs": [
        {
          "internalType": "address",
          "name": "_flow",
          "type": "address"
        },
        {
          "internalType": "uint256",
          "name": "_amount",
          "type": "uint256"
        }
      ],
      "name": "defundFlow",
      "outputs": [],
      "stateMutability": "nonpayable",
      "type": "function"
    },
    {
      "inputs": [],
      "name": "essence",
      "outputs": [
        {
          "internalType": "contract IERC20Upgradeable",
          "name": "",
          "type": "address"
        }
      ],
      "stateMutability": "view",
      "type": "function"
    },
    {
      "inputs": [
        {
          "internalType": "address",
          "name": "",
          "type": "address"
        }
      ],
      "name": "flowConfig",
      "outputs": [
        {
          "internalType": "uint256",
          "name": "totalRewards",
          "type": "uint256"
        },
        {
          "internalType": "uint256",
          "name": "startTimestamp",
          "type": "uint256"
        },
        {
          "internalType": "uint256",
          "name": "endTimestamp",
          "type": "uint256"
        },
        {
          "internalType": "uint256",
          "name": "lastRewardTimestamp",
          "type": "uint256"
        },
        {
          "internalType": "uint256",
          "name": "ratePerSecond",
          "type": "uint256"
        },
        {
          "internalType": "uint256",
          "name": "paid",
          "type": "uint256"
        }
      ],
      "stateMutability": "view",
      "type": "function"
    },
    {
      "inputs": [
        {
          "internalType": "address",
          "name": "_flow",
          "type": "address"
        },
        {
          "internalType": "uint256",
          "name": "_amount",
          "type": "uint256"
        }
      ],
      "name": "fundFlow",
      "outputs": [],
      "stateMutability": "nonpayable",
      "type": "function"
    },
    {
      "inputs": [
        {
          "internalType": "address",
          "name": "_flow",
          "type": "address"
        }
      ],
      "name": "getFlowConfig",
      "outputs": [
        {
          "components": [
            {
              "internalType": "uint256",
              "name": "totalRewards",
              "type": "uint256"
            },
            {
              "internalType": "uint256",
              "name": "startTimestamp",
              "type": "uint256"
            },
            {
              "internalType": "uint256",
              "name": "endTimestamp",
              "type": "uint256"
            },
            {
              "internalType": "uint256",
              "name": "lastRewardTimestamp",
              "type": "uint256"
            },
            {
              "internalType": "uint256",
              "name": "ratePerSecond",
              "type": "uint256"
            },
            {
              "internalType": "uint256",
              "name": "paid",
              "type": "uint256"
            }
          ],
          "internalType": "struct IEssenceField.EssenceFlow",
          "name": "",
          "type": "tuple"
        }
      ],
      "stateMutability": "view",
      "type": "function"
    },
    {
      "inputs": [],
      "name": "getFlows",
      "outputs": [
        {
          "internalType": "address[]",
          "name": "",
          "type": "address[]"
        }
      ],
      "stateMutability": "view",
      "type": "function"
    },
    {
      "inputs": [],
      "name": "getGlobalRatePerSecond",
      "outputs": [
        {
          "internalType": "uint256",
          "name": "globalRatePerSecond",
          "type": "uint256"
        }
      ],
      "stateMutability": "view",
      "type": "function"
    },
    {
      "inputs": [
        {
          "internalType": "address",
          "name": "_flow",
          "type": "address"
        }
      ],
      "name": "getPendingRewards",
      "outputs": [
        {
          "internalType": "uint256",
          "name": "pendingRewards",
          "type": "uint256"
        }
      ],
      "stateMutability": "view",
      "type": "function"
    },
    {
      "inputs": [
        {
          "internalType": "address",
          "name": "_flow",
          "type": "address"
        }
      ],
      "name": "getRatePerSecond",
      "outputs": [
        {
          "internalType": "uint256",
          "name": "ratePerSecond",
          "type": "uint256"
        }
      ],
      "stateMutability": "view",
      "type": "function"
    },
    {
      "inputs": [
        {
          "internalType": "bytes32",
          "name": "role",
          "type": "bytes32"
        }
      ],
      "name": "getRoleAdmin",
      "outputs": [
        {
          "internalType": "bytes32",
          "name": "",
          "type": "bytes32"
        }
      ],
      "stateMutability": "view",
      "type": "function"
    },
    {
      "inputs": [
        {
          "internalType": "bytes32",
          "name": "role",
          "type": "bytes32"
        },
        {
          "internalType": "uint256",
          "name": "index",
          "type": "uint256"
        }
      ],
      "name": "getRoleMember",
      "outputs": [
        {
          "internalType": "address",
          "name": "",
          "type": "address"
        }
      ],
      "stateMutability": "view",
      "type": "function"
    },
    {
      "inputs": [
        {
          "internalType": "bytes32",
          "name": "role",
          "type": "bytes32"
        }
      ],
      "name": "getRoleMemberCount",
      "outputs": [
        {
          "internalType": "uint256",
          "name": "",
          "type": "uint256"
        }
      ],
      "stateMutability": "view",
      "type": "function"
    },
    {
      "inputs": [
        {
          "internalType": "bytes32",
          "name": "role",
          "type": "bytes32"
        },
        {
          "internalType": "address",
          "name": "account",
          "type": "address"
        }
      ],
      "name": "grantRole",
      "outputs": [],
      "stateMutability": "nonpayable",
      "type": "function"
    },
    {
      "inputs": [
        {
          "internalType": "address",
          "name": "_flow",
          "type": "address"
        },
        {
          "internalType": "uint256",
          "name": "_amount",
          "type": "uint256"
        }
      ],
      "name": "grantTokenToFlow",
      "outputs": [],
      "stateMutability": "nonpayable",
      "type": "function"
    },
    {
      "inputs": [
        {
          "internalType": "bytes32",
          "name": "role",
          "type": "bytes32"
        },
        {
          "internalType": "address",
          "name": "account",
          "type": "address"
        }
      ],
      "name": "hasRole",
      "outputs": [
        {
          "internalType": "bool",
          "name": "",
          "type": "bool"
        }
      ],
      "stateMutability": "view",
      "type": "function"
    },
    {
      "inputs": [
        {
          "internalType": "address",
          "name": "_essence",
          "type": "address"
        }
      ],
      "name": "init",
      "outputs": [],
      "stateMutability": "nonpayable",
      "type": "function"
    },
    {
      "inputs": [
        {
          "internalType": "address",
          "name": "_flow",
          "type": "address"
        }
      ],
      "name": "removeFlow",
      "outputs": [],
      "stateMutability": "nonpayable",
      "type": "function"
    },
    {
      "inputs": [
        {
          "internalType": "bytes32",
          "name": "role",
          "type": "bytes32"
        },
        {
          "internalType": "address",
          "name": "account",
          "type": "address"
        }
      ],
      "name": "renounceRole",
      "outputs": [],
      "stateMutability": "nonpayable",
      "type": "function"
    },
    {
      "inputs": [],
      "name": "requestRewards",
      "outputs": [
        {
          "internalType": "uint256",
          "name": "rewardsPaid",
          "type": "uint256"
        }
      ],
      "stateMutability": "nonpayable",
      "type": "function"
    },
    {
      "inputs": [
        {
          "internalType": "bytes32",
          "name": "role",
          "type": "bytes32"
        },
        {
          "internalType": "address",
          "name": "account",
          "type": "address"
        }
      ],
      "name": "revokeRole",
      "outputs": [],
      "stateMutability": "nonpayable",
      "type": "function"
    },
    {
      "inputs": [
        {
          "internalType": "address",
          "name": "_flow",
          "type": "address"
        },
        {
          "internalType": "bool",
          "name": "_value",
          "type": "bool"
        }
      ],
      "name": "setCallback",
      "outputs": [],
      "stateMutability": "nonpayable",
      "type": "function"
    },
    {
      "inputs": [
        {
          "internalType": "address",
          "name": "_essence",
          "type": "address"
        }
      ],
      "name": "setEssenceToken",
      "outputs": [],
      "stateMutability": "nonpayable",
      "type": "function"
    },
    {
      "inputs": [
        {
          "internalType": "bytes4",
          "name": "interfaceId",
          "type": "bytes4"
        }
      ],
      "name": "supportsInterface",
      "outputs": [
        {
          "internalType": "bool",
          "name": "",
          "type": "bool"
        }
      ],
      "stateMutability": "view",
      "type": "function"
    },
    {
      "inputs": [
        {
          "internalType": "address",
          "name": "_flow",
          "type": "address"
        },
        {
          "internalType": "uint256",
          "name": "_startTimestamp",
          "type": "uint256"
        },
        {
          "internalType": "uint256",
          "name": "_endTimestamp",
          "type": "uint256"
        }
      ],
      "name": "updateFlowTime",
      "outputs": [],
      "stateMutability": "nonpayable",
      "type": "function"
    },
    {
      "inputs": [
        {
          "internalType": "address",
          "name": "_to",
          "type": "address"
        },
        {
          "internalType": "uint256",
          "name": "_amount",
          "type": "uint256"
        }
      ],
      "name": "withdrawEssence",
      "outputs": [],
      "stateMutability": "nonpayable",
      "type": "function"
    }
  ],
  "transactionHash": "0xfc6368ec7871ed9d98eec4346d92b6cce1e09a4793f82f83b6b781cab9d32374",
  "args": [],
  "numDeployments": 1,
  "solcInputHash": "179c5969a6e2a95153c16bf03df6a5b5",
  "bytecode": "0x60806040523480156200001157600080fd5b50600054610100900460ff1615808015620000335750600054600160ff909116105b8062000063575062000050306200013d60201b620019641760201c565b15801562000063575060005460ff166001145b620000cb5760405162461bcd60e51b815260206004820152602e60248201527f496e697469616c697a61626c653a20636f6e747261637420697320616c72656160448201526d191e481a5b9a5d1a585b1a5e995960921b606482015260840160405180910390fd5b6000805460ff191660011790558015620000ef576000805461ff0019166101001790555b801562000136576000805461ff0019169055604051600181527f7f26b83ff96e1f2b6a682f133852f6798a09c465da95921460cefb38474024989060200160405180910390a15b506200014c565b6001600160a01b03163b151590565b61281b806200015c6000396000f3fe608060405234801561001057600080fd5b50600436106101da5760003560e01c806391d1485411610104578063b373004e116100a2578063e3c5e66f11610071578063e3c5e66f14610466578063e6868fad14610479578063f6ed2017146104d8578063faa535af146104eb57600080fd5b8063b373004e146103bd578063bdeb4d0a1461042d578063ca15c87314610440578063d547741f1461045357600080fd5b8063a217fddf116100de578063a217fddf1461037b578063aaf5eb6814610383578063ae5c935714610392578063b2eb853f1461039a57600080fd5b806391d1485414610342578063989c33c0146103555780639c1e88c01461036857600080fd5b8063483fdbfb1161017c5780637e11ee0d1161014b5780637e11ee0d146103015780637e38e9b9146103145780639010d07c1461032757806391a2024d1461033a57600080fd5b8063483fdbfb1461029957806359e95eea146102ae5780635c7abcc2146102c15780636afee039146102ec57600080fd5b8063248a9ca3116101b8578063248a9ca31461022f5780632f2ff15d1461026057806336568abe146102735780634744d1661461028657600080fd5b806301ffc9a7146101df57806319ab453c14610207578063204f85891461021c575b600080fd5b6101f26101ed36600461235c565b6104fe565b60405190151581526020015b60405180910390f35b61021a6102153660046123a2565b610529565b005b61021a61022a3660046123bd565b61068b565b61025261023d3660046123f0565b60009081526065602052604090206001015490565b6040519081526020016101fe565b61021a61026e366004612409565b61098e565b61021a610281366004612409565b6109b8565b6102526102943660046123a2565b610a32565b6102526000805160206127c683398151915281565b61021a6102bc3660046123a2565b610a73565b60c9546102d4906001600160a01b031681565b6040516001600160a01b0390911681526020016101fe565b6102f4610c19565b6040516101fe9190612435565b61021a61030f366004612490565b610c2a565b61021a6103223660046124c7565b610dbc565b6102d461033536600461251b565b610f86565b610252610fa5565b6101f2610350366004612409565b610ff0565b61021a61036336600461253d565b61101b565b61021a61037636600461253d565b6112ab565b610252600081565b610252670de0b6b3a764000081565b610252611448565b6101f26103a83660046123a2565b60cd6020526000908152604090205460ff1681565b6104006103cb3660046123a2565b60ca60205260009081526040902080546001820154600283015460038401546004850154600590950154939492939192909186565b604080519687526020870195909552938501929092526060840152608083015260a082015260c0016101fe565b61021a61043b36600461253d565b6115af565b61025261044e3660046123f0565b611625565b61021a610461366004612409565b61163c565b61021a61047436600461253d565b611661565b61048c6104873660046123a2565b6117fd565b6040516101fe9190600060c082019050825182526020830151602083015260408301516040830152606083015160608301526080830151608083015260a083015160a083015292915050565b6102526104e63660046123a2565b611898565b61021a6104f93660046123a2565b611929565b60006001600160e01b03198216635a05180f60e01b1480610523575061052382611973565b92915050565b600054610100900460ff16158080156105495750600054600160ff909116105b806105635750303b158015610563575060005460ff166001145b6105cb5760405162461bcd60e51b815260206004820152602e60248201527f496e697469616c697a61626c653a20636f6e747261637420697320616c72656160448201526d191e481a5b9a5d1a585b1a5e995960921b60648201526084015b60405180910390fd5b6000805460ff1916600117905580156105ee576000805461ff0019166101001790555b60c980546001600160a01b0319166001600160a01b0384161790556106216000805160206127c6833981519152806119a8565b6106396000805160206127c6833981519152336119f3565b610641611a15565b8015610687576000805461ff0019169055604051600181527f7f26b83ff96e1f2b6a682f133852f6798a09c465da95921460cefb38474024989060200160405180910390a15b5050565b6000805160206127c68339815191526106a381611a82565b836106af60cb82611a8f565b6106cb5760405162461bcd60e51b81526004016105c290612567565b6001600160a01b038516600090815260cd6020526040902054859060ff161561074257806001600160a01b031663bc1f03286040518163ffffffff1660e01b8152600401600060405180830381600087803b15801561072957600080fd5b505af115801561073d573d6000803e3d6000fd5b505050505b6001600160a01b038616600090815260ca6020526040902085156107ca574286116107bb5760405162461bcd60e51b8152602060048201526024808201527f737461727454696d657374616d702063616e6e6f7420626520696e20746865206044820152631c185cdd60e21b60648201526084016105c2565b60018101869055600381018690555b84156108725785851161081b5760405162461bcd60e51b815260206004820152601960248201527852657761726473206d757374206c617374203e20312073656360381b60448201526064016105c2565b42851161086a5760405162461bcd60e51b815260206004820152601e60248201527f43616e6e6f7420656e64207265776172647320696e207468652070617374000060448201526064016105c2565b600281018590555b670de0b6b3a76400008160030154826002015461088f91906125aa565b60058301548354670de0b6b3a7640000916108a9916125aa565b6108b391906125bd565b6108bd91906125dc565b6108c791906125dc565b600482015560408051878152602081018790526001600160a01b038916917f7a64782400476b9f095c4a017385a74eb56752241c05e67edb613d5438ce8305910160405180910390a2506001600160a01b038116600090815260cd602052604090205460ff161561098657806001600160a01b0316634f9845196040518163ffffffff1660e01b8152600401600060405180830381600087803b15801561096d57600080fd5b505af1158015610981573d6000803e3d6000fd5b505050505b505050505050565b6000828152606560205260409020600101546109a981611a82565b6109b383836119f3565b505050565b6001600160a01b0381163314610a285760405162461bcd60e51b815260206004820152602f60248201527f416363657373436f6e74726f6c3a2063616e206f6e6c792072656e6f756e636560448201526e103937b632b9903337b91039b2b63360891b60648201526084016105c2565b6106878282611ab1565b6001600160a01b038116600090815260ca60205260408120600181015442118015610a605750806002015442105b15610a6d57806004015491505b50919050565b6000805160206127c6833981519152610a8b81611a82565b81610a9760cb82611a8f565b610ab35760405162461bcd60e51b81526004016105c290612567565b6001600160a01b038316600090815260cd6020526040902054839060ff1615610b2a57806001600160a01b031663bc1f03286040518163ffffffff1660e01b8152600401600060405180830381600087803b158015610b1157600080fd5b505af1158015610b25573d6000803e3d6000fd5b505050505b610b3560cb85611acf565b15610b9e576001600160a01b038416600081815260ca602052604080822082815560018101839055600281018390556003810183905560048101839055600501829055517fac0c9b359342d5dadbe051c7a44df3eb16c3a882c575cb0c24d09e69f344c4cd9190a25b6001600160a01b038116600090815260cd602052604090205460ff1615610c1357806001600160a01b0316634f9845196040518163ffffffff1660e01b8152600401600060405180830381600087803b158015610bfa57600080fd5b505af1158015610c0e573d6000803e3d6000fd5b505050505b50505050565b6060610c2560cb611ae4565b905090565b6000805160206127c6833981519152610c4281611a82565b82610c4e60cb82611a8f565b610c6a5760405162461bcd60e51b81526004016105c290612567565b6001600160a01b038416600090815260cd6020526040902054849060ff1615610ce157806001600160a01b031663bc1f03286040518163ffffffff1660e01b8152600401600060405180830381600087803b158015610cc857600080fd5b505af1158015610cdc573d6000803e3d6000fd5b505050505b6001600160a01b038516600081815260cd6020908152604091829020805460ff19168815159081179091558251938452908301527fb5541a615b23b714aea0fdeb7ca01ff9286be2c990ab585f7dc8f094701ff50f910160405180910390a16001600160a01b038116600090815260cd602052604090205460ff1615610db557806001600160a01b0316634f9845196040518163ffffffff1660e01b8152600401600060405180830381600087803b158015610d9c57600080fd5b505af1158015610db0573d6000803e3d6000fd5b505050505b5050505050565b6000805160206127c6833981519152610dd481611a82565b838311610e1f5760405162461bcd60e51b815260206004820152601960248201527852657761726473206d757374206c617374203e20312073656360381b60448201526064016105c2565b610e2a60cb87611a8f565b15610e775760405162461bcd60e51b815260206004820152601f60248201527f466c6f7720666f72206164647265737320616c7265616479206578697374730060448201526064016105c2565b610e8260cb87611af1565b15610986576040518060c00160405280868152602001858152602001848152602001858152602001670de0b6b3a76400008686610ebf91906125aa565b610ed1670de0b6b3a76400008a6125bd565b610edb91906125dc565b610ee591906125dc565b8152600060209182018190526001600160a01b03891680825260ca83526040918290208451815584840151600182015584830151600282015560608086015160038301556080860151600483015560a0909501516005909101558151898152928301889052908201869052917f524794d0cc1a37b020a21028413d745fb829bbd3db9552141148487d7733c66f910160405180910390a26109868683610c2a565b6000828152609760205260408120610f9e9083611b06565b9392505050565b600080610fb260cb611b12565b905060005b81811015610feb57610fcd61029460cb83611b06565b610fd790846125fe565b925080610fe381612611565b915050610fb7565b505090565b60009182526065602090815260408084206001600160a01b0393909316845291905290205460ff1690565b6000805160206127c683398151915261103381611a82565b8261103f60cb82611a8f565b61105b5760405162461bcd60e51b81526004016105c290612567565b6001600160a01b038416600090815260ca6020526040902060020154849042106110975760405162461bcd60e51b81526004016105c29061262a565b6001600160a01b038516600090815260cd6020526040902054859060ff161561110e57806001600160a01b031663bc1f03286040518163ffffffff1660e01b8152600401600060405180830381600087803b1580156110f557600080fd5b505af1158015611109573d6000803e3d6000fd5b505050505b6001600160a01b038616600090815260ca602052604081206003810154600282015491929161113d91906125aa565b905060008260050154836000015461115591906125aa565b9050808811156111bd5760405162461bcd60e51b815260206004820152602d60248201527f52656475636520616d6f756e7420746f6f206c617267652c207265776172647360448201526c08185b1c9958591e481c185a59609a1b60648201526084016105c2565b670de0b6b3a764000082816111d28b856125aa565b6111dc91906125bd565b6111e691906125dc565b6111f091906125dc565b60048401558254889084906000906112099084906125aa565b90915550506040518881526001600160a01b038a16907f9aea882777a026e561213aaa6fab753a56532b6f3764f1b2851cbb261e91bc2c9060200160405180910390a25050506001600160a01b038116600090815260cd602052604090205460ff161561098657806001600160a01b0316634f9845196040518163ffffffff1660e01b8152600401600060405180830381600087803b15801561096d57600080fd5b816112b760cb82611a8f565b6112d35760405162461bcd60e51b81526004016105c290612567565b6001600160a01b038316600090815260ca60205260409020600201548390421061130f5760405162461bcd60e51b81526004016105c29061262a565b6001600160a01b038416600090815260cd6020526040902054849060ff161561138657806001600160a01b031663bc1f03286040518163ffffffff1660e01b8152600401600060405180830381600087803b15801561136d57600080fd5b505af1158015611381573d6000803e3d6000fd5b505050505b6113908585611b1c565b60c9546113a8906001600160a01b0316333087611bb9565b60408051338152602081018690526001600160a01b038716917f2ad253ffea8ff783a71e19ed79d6880bf9e1c8cc935582803340c62524c0d522910160405180910390a26001600160a01b038116600090815260cd602052604090205460ff1615610db557806001600160a01b0316634f9845196040518163ffffffff1660e01b8152600401600060405180830381600087803b158015610d9c57600080fd5b33600081815260ca60205260408120909161146290611898565b91508115806114da575060c9546040516370a0823160e01b815230600482015283916001600160a01b0316906370a0823190602401602060405180830381865afa1580156114b4573d6000803e3d6000fd5b505050506040513d601f19601f820116820180604052508101906114d8919061264e565b105b156114e757600091505090565b818160050160008282546114fb91906125fe565b909155505042600382015580546005820154111561154e5760405162461bcd60e51b815260206004820152601060248201526f52657761726473206f766572666c6f7760801b60448201526064016105c2565b60c954611565906001600160a01b03163384611c24565b600581015460405133917f53195aae24c76f608fd5b9b6ee2da62eb3a6f4e5279d15a8ddfef43199a4b38e916115a391868252602082015260400190565b60405180910390a25090565b6000805160206127c68339815191526115c781611a82565b60c9546115de906001600160a01b03168484611c24565b604080516001600160a01b0385168152602081018490527f884edad9ce6fa2440d8a54cc123490eb96d2768479d49ff9c7366125a9424364910160405180910390a1505050565b600081815260976020526040812061052390611b12565b60008281526065602052604090206001015461165781611a82565b6109b38383611ab1565b6000805160206127c683398151915261167981611a82565b8261168560cb82611a8f565b6116a15760405162461bcd60e51b81526004016105c290612567565b6001600160a01b038416600090815260ca6020526040902060020154849042106116dd5760405162461bcd60e51b81526004016105c29061262a565b6001600160a01b038516600090815260cd6020526040902054859060ff161561175457806001600160a01b031663bc1f03286040518163ffffffff1660e01b8152600401600060405180830381600087803b15801561173b57600080fd5b505af115801561174f573d6000803e3d6000fd5b505050505b61175e8686611b1c565b856001600160a01b03167f1fb19fb97797ac8a07575d49f5e4022becd0870c4581a361eebd132f577a4c7b8660405161179991815260200190565b60405180910390a26001600160a01b038116600090815260cd602052604090205460ff161561098657806001600160a01b0316634f9845196040518163ffffffff1660e01b8152600401600060405180830381600087803b15801561096d57600080fd5b6118366040518060c001604052806000815260200160008152602001600081526020016000815260200160008152602001600081525090565b506001600160a01b0316600090815260ca6020908152604091829020825160c08101845281548152600182015492810192909252600281015492820192909252600382015460608201526004820154608082015260059091015460a082015290565b6001600160a01b038116600090815260ca60205260408120600581015481546003830154600284015442106118d8576118d183836125aa565b9450611920565b804211156119205760006118ec82426125aa565b90508460040154816118fe91906125bd565b95508261190b87866125fe565b111561191e5761191b84846125aa565b95505b505b50505050919050565b6000805160206127c683398151915261194181611a82565b5060c980546001600160a01b0319166001600160a01b0392909216919091179055565b6001600160a01b03163b151590565b60006001600160e01b03198216637965db0b60e01b148061052357506301ffc9a760e01b6001600160e01b0319831614610523565b600082815260656020526040808220600101805490849055905190918391839186917fbd79b86ffe0ab8e8776151514217cd7cacd52c909f66475c3af44e129f0b00ff9190a4505050565b6119fd8282611c54565b60008281526097602052604090206109b39082611af1565b600054610100900460ff16611a805760405162461bcd60e51b815260206004820152602b60248201527f496e697469616c697a61626c653a20636f6e7472616374206973206e6f74206960448201526a6e697469616c697a696e6760a81b60648201526084016105c2565b565b611a8c8133611cda565b50565b6001600160a01b03811660009081526001830160205260408120541515610f9e565b611abb8282611d3e565b60008281526097602052604090206109b390825b6000610f9e836001600160a01b038416611da5565b60606000610f9e83611e98565b6000610f9e836001600160a01b038416611ef4565b6000610f9e8383611f43565b6000610523825490565b6001600160a01b038216600090815260ca6020526040812060038101546002820154919291611b4b91906125aa565b90506000826004015482611b5f91906125bd565b9050670de0b6b3a76400008281611b7687856125fe565b611b8091906125bd565b611b8a91906125dc565b611b9491906125dc565b6004840155825484908490600090611bad9084906125fe565b90915550505050505050565b6040516001600160a01b0380851660248301528316604482015260648101829052610c139085906323b872dd60e01b906084015b60408051601f198184030181529190526020810180516001600160e01b03166001600160e01b031990931692909217909152611f6d565b6040516001600160a01b0383166024820152604481018290526109b390849063a9059cbb60e01b90606401611bed565b611c5e8282610ff0565b6106875760008281526065602090815260408083206001600160a01b03851684529091529020805460ff19166001179055611c963390565b6001600160a01b0316816001600160a01b0316837f2f8788117e7eff1d82e926ec794901d17c78024a50270940304540a733656f0d60405160405180910390a45050565b611ce48282610ff0565b61068757611cfc816001600160a01b0316601461203f565b611d0783602061203f565b604051602001611d1892919061268b565b60408051601f198184030181529082905262461bcd60e51b82526105c291600401612700565b611d488282610ff0565b156106875760008281526065602090815260408083206001600160a01b0385168085529252808320805460ff1916905551339285917ff6391f5c32d9c69d2a47ea670b442974b53935d1edc7fd64eb21e047a839171b9190a45050565b60008181526001830160205260408120548015611e8e576000611dc96001836125aa565b8554909150600090611ddd906001906125aa565b9050818114611e42576000866000018281548110611dfd57611dfd612733565b9060005260206000200154905080876000018481548110611e2057611e20612733565b6000918252602080832090910192909255918252600188019052604090208390555b8554869080611e5357611e53612749565b600190038181906000526020600020016000905590558560010160008681526020019081526020016000206000905560019350505050610523565b6000915050610523565b606081600001805480602002602001604051908101604052809291908181526020018280548015611ee857602002820191906000526020600020905b815481526020019060010190808311611ed4575b50505050509050919050565b6000818152600183016020526040812054611f3b57508154600181810184556000848152602080822090930184905584548482528286019093526040902091909155610523565b506000610523565b6000826000018281548110611f5a57611f5a612733565b9060005260206000200154905092915050565b6000611fc2826040518060400160405280602081526020017f5361666545524332303a206c6f772d6c6576656c2063616c6c206661696c6564815250856001600160a01b03166121db9092919063ffffffff16565b8051909150156109b35780806020019051810190611fe0919061275f565b6109b35760405162461bcd60e51b815260206004820152602a60248201527f5361666545524332303a204552433230206f7065726174696f6e20646964206e6044820152691bdd081cdd58d8d9595960b21b60648201526084016105c2565b6060600061204e8360026125bd565b6120599060026125fe565b67ffffffffffffffff8111156120715761207161277c565b6040519080825280601f01601f19166020018201604052801561209b576020820181803683370190505b509050600360fc1b816000815181106120b6576120b6612733565b60200101906001600160f81b031916908160001a905350600f60fb1b816001815181106120e5576120e5612733565b60200101906001600160f81b031916908160001a90535060006121098460026125bd565b6121149060016125fe565b90505b600181111561218c576f181899199a1a9b1b9c1cb0b131b232b360811b85600f166010811061214857612148612733565b1a60f81b82828151811061215e5761215e612733565b60200101906001600160f81b031916908160001a90535060049490941c9361218581612792565b9050612117565b508315610f9e5760405162461bcd60e51b815260206004820181905260248201527f537472696e67733a20686578206c656e67746820696e73756666696369656e7460448201526064016105c2565b60606121ea84846000856121f2565b949350505050565b6060824710156122535760405162461bcd60e51b815260206004820152602660248201527f416464726573733a20696e73756666696369656e742062616c616e636520666f6044820152651c8818d85b1b60d21b60648201526084016105c2565b6001600160a01b0385163b6122aa5760405162461bcd60e51b815260206004820152601d60248201527f416464726573733a2063616c6c20746f206e6f6e2d636f6e747261637400000060448201526064016105c2565b600080866001600160a01b031685876040516122c691906127a9565b60006040518083038185875af1925050503d8060008114612303576040519150601f19603f3d011682016040523d82523d6000602084013e612308565b606091505b5091509150612318828286612323565b979650505050505050565b60608315612332575081610f9e565b8251156123425782518084602001fd5b8160405162461bcd60e51b81526004016105c29190612700565b60006020828403121561236e57600080fd5b81356001600160e01b031981168114610f9e57600080fd5b80356001600160a01b038116811461239d57600080fd5b919050565b6000602082840312156123b457600080fd5b610f9e82612386565b6000806000606084860312156123d257600080fd5b6123db84612386565b95602085013595506040909401359392505050565b60006020828403121561240257600080fd5b5035919050565b6000806040838503121561241c57600080fd5b8235915061242c60208401612386565b90509250929050565b6020808252825182820181905260009190848201906040850190845b818110156124765783516001600160a01b031683529284019291840191600101612451565b50909695505050505050565b8015158114611a8c57600080fd5b600080604083850312156124a357600080fd5b6124ac83612386565b915060208301356124bc81612482565b809150509250929050565b600080600080600060a086880312156124df57600080fd5b6124e886612386565b9450602086013593506040860135925060608601359150608086013561250d81612482565b809150509295509295909350565b6000806040838503121561252e57600080fd5b50508035926020909101359150565b6000806040838503121561255057600080fd5b61255983612386565b946020939093013593505050565b602080825260139082015272119b1bddc8191bd95cc81b9bdd08195e1a5cdd606a1b604082015260600190565b634e487b7160e01b600052601160045260246000fd5b8181038181111561052357610523612594565b60008160001904831182151516156125d7576125d7612594565b500290565b6000826125f957634e487b7160e01b600052601260045260246000fd5b500490565b8082018082111561052357610523612594565b60006001820161262357612623612594565b5060010190565b6020808252600a9082015269119b1bddc8195b99195960b21b604082015260600190565b60006020828403121561266057600080fd5b5051919050565b60005b8381101561268257818101518382015260200161266a565b50506000910152565b7f416363657373436f6e74726f6c3a206163636f756e74200000000000000000008152600083516126c3816017850160208801612667565b7001034b99036b4b9b9b4b733903937b6329607d1b60179184019182015283516126f4816028840160208801612667565b01602801949350505050565b602081526000825180602084015261271f816040850160208701612667565b601f01601f19169190910160400192915050565b634e487b7160e01b600052603260045260246000fd5b634e487b7160e01b600052603160045260246000fd5b60006020828403121561277157600080fd5b8151610f9e81612482565b634e487b7160e01b600052604160045260246000fd5b6000816127a1576127a1612594565b506000190190565b600082516127bb818460208701612667565b919091019291505056fe7bf6ef789eb80773c7781b0e42ea7bca86828f4880d963549f5b220bf0301e5aa2646970667358221220282333740ead830cef6061e8b3113de6e9a850e216d1eab63f078e7a78af6cb264736f6c63430008100033",
  "devdoc": {
    "kind": "dev",
    "methods": {
      "addFlow(address,uint256,uint256,uint256,bool)": {
        "params": {
          "_callback": "should callback be used (if you don't know, set false)",
          "_endTimestamp": "when ESSENCE flow should end",
          "_flow": "address of the contract that gets rewards",
          "_startTimestamp": "when ESSENCE flow should start",
          "_totalRewards": "amount of ESSENCE that should be distributed in total"
        }
      },
      "constructor": {
        "custom:oz-upgrades-unsafe-allow": "constructor"
      },
      "getRoleAdmin(bytes32)": {
        "details": "Returns the admin role that controls `role`. See {grantRole} and {revokeRole}. To change a role's admin, use {_setRoleAdmin}."
      },
      "getRoleMember(bytes32,uint256)": {
        "details": "Returns one of the accounts that have `role`. `index` must be a value between 0 and {getRoleMemberCount}, non-inclusive. Role bearers are not sorted in any particular way, and their ordering may change at any point. WARNING: When using {getRoleMember} and {getRoleMemberCount}, make sure you perform all queries on the same block. See the following https://forum.openzeppelin.com/t/iterating-over-elements-on-enumerableset-in-openzeppelin-contracts/2296[forum post] for more information."
      },
      "getRoleMemberCount(bytes32)": {
        "details": "Returns the number of accounts that have `role`. Can be used together with {getRoleMember} to enumerate all bearers of a role."
      },
      "grantRole(bytes32,address)": {
        "details": "Grants `role` to `account`. If `account` had not been already granted `role`, emits a {RoleGranted} event. Requirements: - the caller must have ``role``'s admin role. May emit a {RoleGranted} event."
      },
      "hasRole(bytes32,address)": {
        "details": "Returns `true` if `account` has been granted `role`."
      },
      "renounceRole(bytes32,address)": {
        "details": "Revokes `role` from the calling account. Roles are often managed via {grantRole} and {revokeRole}: this function's purpose is to provide a mechanism for accounts to lose their privileges if they are compromised (such as when a trusted device is misplaced). If the calling account had been revoked `role`, emits a {RoleRevoked} event. Requirements: - the caller must be `account`. May emit a {RoleRevoked} event."
      },
      "revokeRole(bytes32,address)": {
        "details": "Revokes `role` from `account`. If `account` had been granted `role`, emits a {RoleRevoked} event. Requirements: - the caller must have ``role``'s admin role. May emit a {RoleRevoked} event."
      },
      "supportsInterface(bytes4)": {
        "details": "See {IERC165-supportsInterface}."
      }
    },
    "version": 1
  },
  "userdoc": {
    "kind": "user",
    "methods": {
      "callbackRegistry(address)": {
        "notice": "flow address => bool"
      },
      "flowConfig(address)": {
        "notice": "flow address => EssenceFlow"
      },
      "requestRewards()": {
        "notice": "how anyone can call this function but only flows that exist have amounts."
      }
    },
    "version": 1
  },
  "storageLayout": {
    "storage": [
      {
        "astId": 838,
        "contract": "contracts/modules/EssenceField.sol:EssenceField",
        "label": "_initialized",
        "offset": 0,
        "slot": "0",
        "type": "t_uint8"
      },
      {
        "astId": 841,
        "contract": "contracts/modules/EssenceField.sol:EssenceField",
        "label": "_initializing",
        "offset": 1,
        "slot": "0",
        "type": "t_bool"
      },
      {
        "astId": 2065,
        "contract": "contracts/modules/EssenceField.sol:EssenceField",
        "label": "__gap",
        "offset": 0,
        "slot": "1",
        "type": "t_array(t_uint256)50_storage"
      },
      {
        "astId": 2335,
        "contract": "contracts/modules/EssenceField.sol:EssenceField",
        "label": "__gap",
        "offset": 0,
        "slot": "51",
        "type": "t_array(t_uint256)50_storage"
      },
      {
        "astId": 433,
        "contract": "contracts/modules/EssenceField.sol:EssenceField",
        "label": "_roles",
        "offset": 0,
        "slot": "101",
        "type": "t_mapping(t_bytes32,t_struct(RoleData)428_storage)"
      },
      {
        "astId": 732,
        "contract": "contracts/modules/EssenceField.sol:EssenceField",
        "label": "__gap",
        "offset": 0,
        "slot": "102",
        "type": "t_array(t_uint256)49_storage"
      },
      {
        "astId": 282,
        "contract": "contracts/modules/EssenceField.sol:EssenceField",
        "label": "_roleMembers",
        "offset": 0,
        "slot": "151",
        "type": "t_mapping(t_bytes32,t_struct(AddressSet)4511_storage)"
      },
      {
        "astId": 392,
        "contract": "contracts/modules/EssenceField.sol:EssenceField",
        "label": "__gap",
        "offset": 0,
        "slot": "152",
        "type": "t_array(t_uint256)49_storage"
      },
      {
        "astId": 17434,
        "contract": "contracts/modules/EssenceField.sol:EssenceField",
        "label": "essence",
        "offset": 0,
        "slot": "201",
        "type": "t_contract(IERC20Upgradeable)1348"
      },
      {
        "astId": 17440,
        "contract": "contracts/modules/EssenceField.sol:EssenceField",
        "label": "flowConfig",
        "offset": 0,
        "slot": "202",
        "type": "t_mapping(t_address,t_struct(EssenceFlow)12325_storage)"
      },
      {
        "astId": 17444,
        "contract": "contracts/modules/EssenceField.sol:EssenceField",
        "label": "flows",
        "offset": 0,
        "slot": "203",
        "type": "t_struct(AddressSet)4511_storage"
      },
      {
        "astId": 17449,
        "contract": "contracts/modules/EssenceField.sol:EssenceField",
        "label": "callbackRegistry",
        "offset": 0,
        "slot": "205",
        "type": "t_mapping(t_address,t_bool)"
      }
    ],
    "types": {
      "t_address": {
        "encoding": "inplace",
        "label": "address",
        "numberOfBytes": "20"
      },
      "t_array(t_bytes32)dyn_storage": {
        "base": "t_bytes32",
        "encoding": "dynamic_array",
        "label": "bytes32[]",
        "numberOfBytes": "32"
      },
      "t_array(t_uint256)49_storage": {
        "base": "t_uint256",
        "encoding": "inplace",
        "label": "uint256[49]",
        "numberOfBytes": "1568"
      },
      "t_array(t_uint256)50_storage": {
        "base": "t_uint256",
        "encoding": "inplace",
        "label": "uint256[50]",
        "numberOfBytes": "1600"
      },
      "t_bool": {
        "encoding": "inplace",
        "label": "bool",
        "numberOfBytes": "1"
      },
      "t_bytes32": {
        "encoding": "inplace",
        "label": "bytes32",
        "numberOfBytes": "32"
      },
      "t_contract(IERC20Upgradeable)1348": {
        "encoding": "inplace",
        "label": "contract IERC20Upgradeable",
        "numberOfBytes": "20"
      },
      "t_mapping(t_address,t_bool)": {
        "encoding": "mapping",
        "key": "t_address",
        "label": "mapping(address => bool)",
        "numberOfBytes": "32",
        "value": "t_bool"
      },
      "t_mapping(t_address,t_struct(EssenceFlow)12325_storage)": {
        "encoding": "mapping",
        "key": "t_address",
        "label": "mapping(address => struct IEssenceField.EssenceFlow)",
        "numberOfBytes": "32",
        "value": "t_struct(EssenceFlow)12325_storage"
      },
      "t_mapping(t_bytes32,t_struct(AddressSet)4511_storage)": {
        "encoding": "mapping",
        "key": "t_bytes32",
        "label": "mapping(bytes32 => struct EnumerableSetUpgradeable.AddressSet)",
        "numberOfBytes": "32",
        "value": "t_struct(AddressSet)4511_storage"
      },
      "t_mapping(t_bytes32,t_struct(RoleData)428_storage)": {
        "encoding": "mapping",
        "key": "t_bytes32",
        "label": "mapping(bytes32 => struct AccessControlUpgradeable.RoleData)",
        "numberOfBytes": "32",
        "value": "t_struct(RoleData)428_storage"
      },
      "t_mapping(t_bytes32,t_uint256)": {
        "encoding": "mapping",
        "key": "t_bytes32",
        "label": "mapping(bytes32 => uint256)",
        "numberOfBytes": "32",
        "value": "t_uint256"
      },
      "t_struct(AddressSet)4511_storage": {
        "encoding": "inplace",
        "label": "struct EnumerableSetUpgradeable.AddressSet",
        "members": [
          {
            "astId": 4510,
            "contract": "contracts/modules/EssenceField.sol:EssenceField",
            "label": "_inner",
            "offset": 0,
            "slot": "0",
            "type": "t_struct(Set)4210_storage"
          }
        ],
        "numberOfBytes": "64"
      },
      "t_struct(EssenceFlow)12325_storage": {
        "encoding": "inplace",
        "label": "struct IEssenceField.EssenceFlow",
        "members": [
          {
            "astId": 12314,
            "contract": "contracts/modules/EssenceField.sol:EssenceField",
            "label": "totalRewards",
            "offset": 0,
            "slot": "0",
            "type": "t_uint256"
          },
          {
            "astId": 12316,
            "contract": "contracts/modules/EssenceField.sol:EssenceField",
            "label": "startTimestamp",
            "offset": 0,
            "slot": "1",
            "type": "t_uint256"
          },
          {
            "astId": 12318,
            "contract": "contracts/modules/EssenceField.sol:EssenceField",
            "label": "endTimestamp",
            "offset": 0,
            "slot": "2",
            "type": "t_uint256"
          },
          {
            "astId": 12320,
            "contract": "contracts/modules/EssenceField.sol:EssenceField",
            "label": "lastRewardTimestamp",
            "offset": 0,
            "slot": "3",
            "type": "t_uint256"
          },
          {
            "astId": 12322,
            "contract": "contracts/modules/EssenceField.sol:EssenceField",
            "label": "ratePerSecond",
            "offset": 0,
            "slot": "4",
            "type": "t_uint256"
          },
          {
            "astId": 12324,
            "contract": "contracts/modules/EssenceField.sol:EssenceField",
            "label": "paid",
            "offset": 0,
            "slot": "5",
            "type": "t_uint256"
          }
        ],
        "numberOfBytes": "192"
      },
      "t_struct(RoleData)428_storage": {
        "encoding": "inplace",
        "label": "struct AccessControlUpgradeable.RoleData",
        "members": [
          {
            "astId": 425,
            "contract": "contracts/modules/EssenceField.sol:EssenceField",
            "label": "members",
            "offset": 0,
            "slot": "0",
            "type": "t_mapping(t_address,t_bool)"
          },
          {
            "astId": 427,
            "contract": "contracts/modules/EssenceField.sol:EssenceField",
            "label": "adminRole",
            "offset": 0,
            "slot": "1",
            "type": "t_bytes32"
          }
        ],
        "numberOfBytes": "64"
      },
      "t_struct(Set)4210_storage": {
        "encoding": "inplace",
        "label": "struct EnumerableSetUpgradeable.Set",
        "members": [
          {
            "astId": 4205,
            "contract": "contracts/modules/EssenceField.sol:EssenceField",
            "label": "_values",
            "offset": 0,
            "slot": "0",
            "type": "t_array(t_bytes32)dyn_storage"
          },
          {
            "astId": 4209,
            "contract": "contracts/modules/EssenceField.sol:EssenceField",
            "label": "_indexes",
            "offset": 0,
            "slot": "1",
            "type": "t_mapping(t_bytes32,t_uint256)"
          }
        ],
        "numberOfBytes": "64"
      },
      "t_uint256": {
        "encoding": "inplace",
        "label": "uint256",
        "numberOfBytes": "32"
      },
      "t_uint8": {
        "encoding": "inplace",
        "label": "uint8",
        "numberOfBytes": "1"
      }
    }
  }
}