{
  "address": "0x959922bE3CAee4b8Cd9a407cc3ac1C251C2007B1",
  "abi": [
    {
      "inputs": [],
      "stateMutability": "nonpayable",
      "type": "constructor"
    },
    {
      "anonymous": false,
      "inputs": [
        {
          "indexed": true,
          "internalType": "address",
          "name": "user",
          "type": "address"
        },
        {
          "indexed": true,
          "internalType": "uint256",
          "name": "index",
          "type": "uint256"
        },
        {
          "indexed": false,
          "internalType": "uint256",
          "name": "amount",
          "type": "uint256"
        },
        {
          "indexed": false,
          "internalType": "enum EssenceAbsorberV2.Lock",
          "name": "lock",
          "type": "uint8"
        }
      ],
      "name": "Deposit",
      "type": "event"
    },
    {
      "anonymous": false,
      "inputs": [
        {
          "indexed": true,
          "internalType": "address",
          "name": "user",
          "type": "address"
        },
        {
          "indexed": true,
          "internalType": "uint256",
          "name": "index",
          "type": "uint256"
        },
        {
          "indexed": false,
          "internalType": "uint256",
          "name": "amount",
          "type": "uint256"
        }
      ],
      "name": "Harvest",
      "type": "event"
    },
    {
      "anonymous": false,
      "inputs": [
        {
          "indexed": false,
          "internalType": "uint8",
          "name": "version",
          "type": "uint8"
        }
      ],
      "name": "Initialized",
      "type": "event"
    },
    {
      "anonymous": false,
      "inputs": [
        {
          "indexed": false,
          "internalType": "uint256",
          "name": "distributedRewards",
          "type": "uint256"
        },
        {
          "indexed": false,
          "internalType": "uint256",
          "name": "undistributedRewards",
          "type": "uint256"
        },
        {
          "indexed": false,
          "internalType": "uint256",
          "name": "epSupply",
          "type": "uint256"
        },
        {
          "indexed": false,
          "internalType": "uint256",
          "name": "accEssencePerEpShare",
          "type": "uint256"
        }
      ],
      "name": "LogUpdateRewards",
      "type": "event"
    },
    {
      "anonymous": false,
      "inputs": [
        {
          "indexed": true,
          "internalType": "bytes32",
          "name": "role",
          "type": "bytes32"
        },
        {
          "indexed": true,
          "internalType": "bytes32",
          "name": "previousAdminRole",
          "type": "bytes32"
        },
        {
          "indexed": true,
          "internalType": "bytes32",
          "name": "newAdminRole",
          "type": "bytes32"
        }
      ],
      "name": "RoleAdminChanged",
      "type": "event"
    },
    {
      "anonymous": false,
      "inputs": [
        {
          "indexed": true,
          "internalType": "bytes32",
          "name": "role",
          "type": "bytes32"
        },
        {
          "indexed": true,
          "internalType": "address",
          "name": "account",
          "type": "address"
        },
        {
          "indexed": true,
          "internalType": "address",
          "name": "sender",
          "type": "address"
        }
      ],
      "name": "RoleGranted",
      "type": "event"
    },
    {
      "anonymous": false,
      "inputs": [
        {
          "indexed": true,
          "internalType": "bytes32",
          "name": "role",
          "type": "bytes32"
        },
        {
          "indexed": true,
          "internalType": "address",
          "name": "account",
          "type": "address"
        },
        {
          "indexed": true,
          "internalType": "address",
          "name": "sender",
          "type": "address"
        }
      ],
      "name": "RoleRevoked",
      "type": "event"
    },
    {
      "anonymous": false,
      "inputs": [
        {
          "indexed": false,
          "internalType": "address",
          "name": "nft",
          "type": "address"
        },
        {
          "indexed": false,
          "internalType": "uint256",
          "name": "tokenId",
          "type": "uint256"
        },
        {
          "indexed": false,
          "internalType": "uint256",
          "name": "amount",
          "type": "uint256"
        },
        {
          "indexed": false,
          "internalType": "uint256",
          "name": "currentPower",
          "type": "uint256"
        }
      ],
      "name": "Staked",
      "type": "event"
    },
    {
      "anonymous": false,
      "inputs": [
        {
          "indexed": true,
          "internalType": "address",
          "name": "to",
          "type": "address"
        },
        {
          "indexed": false,
          "internalType": "uint256",
          "name": "amount",
          "type": "uint256"
        }
      ],
      "name": "UndistributedRewardsWithdraw",
      "type": "event"
    },
    {
      "anonymous": false,
      "inputs": [
        {
          "indexed": false,
          "internalType": "address",
          "name": "nft",
          "type": "address"
        },
        {
          "indexed": false,
          "internalType": "uint256",
          "name": "tokenId",
          "type": "uint256"
        },
        {
          "indexed": false,
          "internalType": "uint256",
          "name": "amount",
          "type": "uint256"
        },
        {
          "indexed": false,
          "internalType": "uint256",
          "name": "currentPower",
          "type": "uint256"
        }
      ],
      "name": "Unstaked",
      "type": "event"
    },
    {
      "anonymous": false,
      "inputs": [
        {
          "indexed": false,
          "internalType": "uint256",
          "name": "util",
          "type": "uint256"
        }
      ],
      "name": "UtilizationRate",
      "type": "event"
    },
    {
      "anonymous": false,
      "inputs": [
        {
          "indexed": true,
          "internalType": "address",
          "name": "user",
          "type": "address"
        },
        {
          "indexed": true,
          "internalType": "uint256",
          "name": "index",
          "type": "uint256"
        },
        {
          "indexed": false,
          "internalType": "uint256",
          "name": "amount",
          "type": "uint256"
        }
      ],
      "name": "Withdraw",
      "type": "event"
    },
    {
      "inputs": [],
      "name": "DAY",
      "outputs": [
        {
          "internalType": "uint256",
          "name": "",
          "type": "uint256"
        }
      ],
      "stateMutability": "view",
      "type": "function"
    },
    {
      "inputs": [],
      "name": "DEFAULT_ADMIN_ROLE",
      "outputs": [
        {
          "internalType": "bytes32",
          "name": "",
          "type": "bytes32"
        }
      ],
      "stateMutability": "view",
      "type": "function"
    },
    {
      "inputs": [],
      "name": "FACTION_ABSORBER_ADMIN_ROLE",
      "outputs": [
        {
          "internalType": "bytes32",
          "name": "",
          "type": "bytes32"
        }
      ],
      "stateMutability": "view",
      "type": "function"
    },
    {
      "inputs": [],
      "name": "ONE",
      "outputs": [
        {
          "internalType": "uint256",
          "name": "",
          "type": "uint256"
        }
      ],
      "stateMutability": "view",
      "type": "function"
    },
    {
      "inputs": [],
      "name": "ONE_MONTH",
      "outputs": [
        {
          "internalType": "uint256",
          "name": "",
          "type": "uint256"
        }
      ],
      "stateMutability": "view",
      "type": "function"
    },
    {
      "inputs": [],
      "name": "ONE_WEEK",
      "outputs": [
        {
          "internalType": "uint256",
          "name": "",
          "type": "uint256"
        }
      ],
      "stateMutability": "view",
      "type": "function"
    },
    {
      "inputs": [],
      "name": "SIX_MONTHS",
      "outputs": [
        {
          "internalType": "uint256",
          "name": "",
          "type": "uint256"
        }
      ],
      "stateMutability": "view",
      "type": "function"
    },
    {
      "inputs": [],
      "name": "THREE_MONTHS",
      "outputs": [
        {
          "internalType": "uint256",
          "name": "",
          "type": "uint256"
        }
      ],
      "stateMutability": "view",
      "type": "function"
    },
    {
      "inputs": [],
      "name": "TWELVE_MONTHS",
      "outputs": [
        {
          "internalType": "uint256",
          "name": "",
          "type": "uint256"
        }
      ],
      "stateMutability": "view",
      "type": "function"
    },
    {
      "inputs": [],
      "name": "TWO_WEEKS",
      "outputs": [
        {
          "internalType": "uint256",
          "name": "",
          "type": "uint256"
        }
      ],
      "stateMutability": "view",
      "type": "function"
    },
    {
      "inputs": [],
      "name": "absorberRods",
      "outputs": [
        {
          "internalType": "address",
          "name": "",
          "type": "address"
        }
      ],
      "stateMutability": "view",
      "type": "function"
    },
    {
      "inputs": [
        {
          "internalType": "address",
          "name": "",
          "type": "address"
        },
        {
          "internalType": "uint256",
          "name": "",
          "type": "uint256"
        }
      ],
      "name": "absorberRodsStaked",
      "outputs": [
        {
          "internalType": "uint256",
          "name": "",
          "type": "uint256"
        }
      ],
      "stateMutability": "view",
      "type": "function"
    },
    {
      "inputs": [
        {
          "internalType": "address",
          "name": "",
          "type": "address"
        }
      ],
      "name": "absorberRodsStakedAmount",
      "outputs": [
        {
          "internalType": "uint256",
          "name": "",
          "type": "uint256"
        }
      ],
      "stateMutability": "view",
      "type": "function"
    },
    {
      "inputs": [],
      "name": "accEssencePerEpShare",
      "outputs": [
        {
          "internalType": "uint256",
          "name": "",
          "type": "uint256"
        }
      ],
      "stateMutability": "view",
      "type": "function"
    },
    {
      "inputs": [
        {
          "internalType": "address",
          "name": "_exclude",
          "type": "address"
        }
      ],
      "name": "addExcludedAddress",
      "outputs": [],
      "stateMutability": "nonpayable",
      "type": "function"
    },
    {
      "inputs": [],
      "name": "artifact",
      "outputs": [
        {
          "internalType": "address",
          "name": "",
          "type": "address"
        }
      ],
      "stateMutability": "view",
      "type": "function"
    },
    {
      "inputs": [],
      "name": "artifactMetadataStore",
      "outputs": [
        {
          "internalType": "address",
          "name": "",
          "type": "address"
        }
      ],
      "stateMutability": "view",
      "type": "function"
    },
    {
      "inputs": [
        {
          "internalType": "uint256",
          "name": "",
          "type": "uint256"
        },
        {
          "internalType": "uint256",
          "name": "",
          "type": "uint256"
        }
      ],
      "name": "artifactPowerTable",
      "outputs": [
        {
          "internalType": "uint256",
          "name": "",
          "type": "uint256"
        }
      ],
      "stateMutability": "view",
      "type": "function"
    },
    {
      "inputs": [
        {
          "internalType": "address",
          "name": "_user",
          "type": "address"
        },
        {
          "internalType": "uint256",
          "name": "_depositId",
          "type": "uint256"
        }
      ],
      "name": "calcualteVestedPrincipal",
      "outputs": [
        {
          "internalType": "uint256",
          "name": "amount",
          "type": "uint256"
        }
      ],
      "stateMutability": "view",
      "type": "function"
    },
    {
      "inputs": [
        {
          "internalType": "address",
          "name": "",
          "type": "address"
        }
      ],
      "name": "currentId",
      "outputs": [
        {
          "internalType": "uint256",
          "name": "",
          "type": "uint256"
        }
      ],
      "stateMutability": "view",
      "type": "function"
    },
    {
      "inputs": [
        {
          "internalType": "uint256",
          "name": "_amount",
          "type": "uint256"
        },
        {
          "internalType": "enum EssenceAbsorberV2.Lock",
          "name": "_lock",
          "type": "uint8"
        }
      ],
      "name": "deposit",
      "outputs": [],
      "stateMutability": "nonpayable",
      "type": "function"
    },
    {
      "inputs": [],
      "name": "essence",
      "outputs": [
        {
          "internalType": "contract IERC20Upgradeable",
          "name": "",
          "type": "address"
        }
      ],
      "stateMutability": "view",
      "type": "function"
    },
    {
      "inputs": [],
      "name": "essenceField",
      "outputs": [
        {
          "internalType": "contract IEssenceField",
          "name": "",
          "type": "address"
        }
      ],
      "stateMutability": "view",
      "type": "function"
    },
    {
      "inputs": [],
      "name": "essenceTotalDeposits",
      "outputs": [
        {
          "internalType": "uint256",
          "name": "",
          "type": "uint256"
        }
      ],
      "stateMutability": "view",
      "type": "function"
    },
    {
      "inputs": [
        {
          "internalType": "uint256",
          "name": "_amount",
          "type": "uint256"
        }
      ],
      "name": "getAbsorberRodsPower",
      "outputs": [
        {
          "internalType": "uint256",
          "name": "power",
          "type": "uint256"
        }
      ],
      "stateMutability": "pure",
      "type": "function"
    },
    {
      "inputs": [
        {
          "internalType": "address",
          "name": "_user",
          "type": "address"
        }
      ],
      "name": "getAllUserDepositIds",
      "outputs": [
        {
          "internalType": "uint256[]",
          "name": "",
          "type": "uint256[]"
        }
      ],
      "stateMutability": "view",
      "type": "function"
    },
    {
      "inputs": [
        {
          "internalType": "uint256",
          "name": "_artifactGeneration",
          "type": "uint256"
        },
        {
          "internalType": "uint256",
          "name": "_artifactRarity",
          "type": "uint256"
        }
      ],
      "name": "getArtifactPower",
      "outputs": [
        {
          "internalType": "uint256",
          "name": "",
          "type": "uint256"
        }
      ],
      "stateMutability": "view",
      "type": "function"
    },
    {
      "inputs": [],
      "name": "getArtifactPowerTable",
      "outputs": [
        {
          "internalType": "uint256[][]",
          "name": "",
          "type": "uint256[][]"
        }
      ],
      "stateMutability": "view",
      "type": "function"
    },
    {
      "inputs": [],
      "name": "getExcludedAddresses",
      "outputs": [
        {
          "internalType": "address[]",
          "name": "",
          "type": "address[]"
        }
      ],
      "stateMutability": "view",
      "type": "function"
    },
    {
      "inputs": [
        {
          "internalType": "enum EssenceAbsorberV2.Lock",
          "name": "_lock",
          "type": "uint8"
        }
      ],
      "name": "getLockPower",
      "outputs": [
        {
          "internalType": "uint256",
          "name": "power",
          "type": "uint256"
        },
        {
          "internalType": "uint256",
          "name": "timelock",
          "type": "uint256"
        }
      ],
      "stateMutability": "pure",
      "type": "function"
    },
    {
      "inputs": [
        {
          "internalType": "address",
          "name": "_nft",
          "type": "address"
        },
        {
          "internalType": "uint256",
          "name": "_tokenId",
          "type": "uint256"
        },
        {
          "internalType": "uint256",
          "name": "_amount",
          "type": "uint256"
        }
      ],
      "name": "getNftPower",
      "outputs": [
        {
          "internalType": "uint256",
          "name": "",
          "type": "uint256"
        }
      ],
      "stateMutability": "view",
      "type": "function"
    },
    {
      "inputs": [
        {
          "internalType": "uint256",
          "name": "_essenceReward",
          "type": "uint256"
        }
      ],
      "name": "getRealEssenceReward",
      "outputs": [
        {
          "internalType": "uint256",
          "name": "distributedRewards",
          "type": "uint256"
        },
        {
          "internalType": "uint256",
          "name": "undistributedRewards",
          "type": "uint256"
        }
      ],
      "stateMutability": "view",
      "type": "function"
    },
    {
      "inputs": [
        {
          "internalType": "bytes32",
          "name": "role",
          "type": "bytes32"
        }
      ],
      "name": "getRoleAdmin",
      "outputs": [
        {
          "internalType": "bytes32",
          "name": "",
          "type": "bytes32"
        }
      ],
      "stateMutability": "view",
      "type": "function"
    },
    {
      "inputs": [
        {
          "internalType": "bytes32",
          "name": "role",
          "type": "bytes32"
        },
        {
          "internalType": "uint256",
          "name": "index",
          "type": "uint256"
        }
      ],
      "name": "getRoleMember",
      "outputs": [
        {
          "internalType": "address",
          "name": "",
          "type": "address"
        }
      ],
      "stateMutability": "view",
      "type": "function"
    },
    {
      "inputs": [
        {
          "internalType": "bytes32",
          "name": "role",
          "type": "bytes32"
        }
      ],
      "name": "getRoleMemberCount",
      "outputs": [
        {
          "internalType": "uint256",
          "name": "",
          "type": "uint256"
        }
      ],
      "stateMutability": "view",
      "type": "function"
    },
    {
      "inputs": [
        {
          "internalType": "address",
          "name": "_user",
          "type": "address"
        }
      ],
      "name": "getStakedArtifacts",
      "outputs": [
        {
          "internalType": "uint256[]",
          "name": "",
          "type": "uint256[]"
        }
      ],
      "stateMutability": "view",
      "type": "function"
    },
    {
      "inputs": [
        {
          "internalType": "address",
          "name": "_user",
          "type": "address"
        }
      ],
      "name": "getUserPower",
      "outputs": [
        {
          "internalType": "uint256",
          "name": "",
          "type": "uint256"
        }
      ],
      "stateMutability": "view",
      "type": "function"
    },
    {
      "inputs": [
        {
          "internalType": "enum EssenceAbsorberV2.Lock",
          "name": "_lock",
          "type": "uint8"
        }
      ],
      "name": "getVestingTime",
      "outputs": [
        {
          "internalType": "uint256",
          "name": "vestingTime",
          "type": "uint256"
        }
      ],
      "stateMutability": "pure",
      "type": "function"
    },
    {
      "inputs": [
        {
          "internalType": "bytes32",
          "name": "role",
          "type": "bytes32"
        },
        {
          "internalType": "address",
          "name": "account",
          "type": "address"
        }
      ],
      "name": "grantRole",
      "outputs": [],
      "stateMutability": "nonpayable",
      "type": "function"
    },
    {
      "inputs": [],
      "name": "harvestAll",
      "outputs": [],
      "stateMutability": "nonpayable",
      "type": "function"
    },
    {
      "inputs": [
        {
          "internalType": "uint256",
          "name": "_depositId",
          "type": "uint256"
        }
      ],
      "name": "harvestPosition",
      "outputs": [],
      "stateMutability": "nonpayable",
      "type": "function"
    },
    {
      "inputs": [
        {
          "internalType": "bytes32",
          "name": "role",
          "type": "bytes32"
        },
        {
          "internalType": "address",
          "name": "account",
          "type": "address"
        }
      ],
      "name": "hasRole",
      "outputs": [
        {
          "internalType": "bool",
          "name": "",
          "type": "bool"
        }
      ],
      "stateMutability": "view",
      "type": "function"
    },
    {
      "inputs": [
        {
          "internalType": "address",
          "name": "_essence",
          "type": "address"
        },
        {
          "internalType": "address",
          "name": "_essenceField",
          "type": "address"
        }
      ],
      "name": "init",
      "outputs": [],
      "stateMutability": "nonpayable",
      "type": "function"
    },
    {
      "inputs": [
        {
          "internalType": "uint256",
          "name": "_tokenId",
          "type": "uint256"
        }
      ],
      "name": "isArtifact1_1",
      "outputs": [
        {
          "internalType": "bool",
          "name": "",
          "type": "bool"
        }
      ],
      "stateMutability": "view",
      "type": "function"
    },
    {
      "inputs": [
        {
          "internalType": "address",
          "name": "",
          "type": "address"
        }
      ],
      "name": "isArtifact1_1Staked",
      "outputs": [
        {
          "internalType": "bool",
          "name": "",
          "type": "bool"
        }
      ],
      "stateMutability": "view",
      "type": "function"
    },
    {
      "inputs": [
        {
          "internalType": "address",
          "name": "",
          "type": "address"
        },
        {
          "internalType": "address",
          "name": "",
          "type": "address"
        },
        {
          "internalType": "uint256[]",
          "name": "",
          "type": "uint256[]"
        },
        {
          "internalType": "uint256[]",
          "name": "",
          "type": "uint256[]"
        },
        {
          "internalType": "bytes",
          "name": "",
          "type": "bytes"
        }
      ],
      "name": "onERC1155BatchReceived",
      "outputs": [
        {
          "internalType": "bytes4",
          "name": "",
          "type": "bytes4"
        }
      ],
      "stateMutability": "nonpayable",
      "type": "function"
    },
    {
      "inputs": [
        {
          "internalType": "address",
          "name": "",
          "type": "address"
        },
        {
          "internalType": "address",
          "name": "",
          "type": "address"
        },
        {
          "internalType": "uint256",
          "name": "",
          "type": "uint256"
        },
        {
          "internalType": "uint256",
          "name": "",
          "type": "uint256"
        },
        {
          "internalType": "bytes",
          "name": "",
          "type": "bytes"
        }
      ],
      "name": "onERC1155Received",
      "outputs": [
        {
          "internalType": "bytes4",
          "name": "",
          "type": "bytes4"
        }
      ],
      "stateMutability": "nonpayable",
      "type": "function"
    },
    {
      "inputs": [
        {
          "internalType": "address",
          "name": "_user",
          "type": "address"
        }
      ],
      "name": "pendingRewardsAll",
      "outputs": [
        {
          "internalType": "uint256",
          "name": "pending",
          "type": "uint256"
        }
      ],
      "stateMutability": "view",
      "type": "function"
    },
    {
      "inputs": [
        {
          "internalType": "address",
          "name": "_user",
          "type": "address"
        },
        {
          "internalType": "uint256",
          "name": "_depositId",
          "type": "uint256"
        }
      ],
      "name": "pendingRewardsPosition",
      "outputs": [
        {
          "internalType": "uint256",
          "name": "pending",
          "type": "uint256"
        }
      ],
      "stateMutability": "view",
      "type": "function"
    },
    {
      "inputs": [],
      "name": "performanceBoost",
      "outputs": [],
      "stateMutability": "nonpayable",
      "type": "function"
    },
    {
      "inputs": [
        {
          "internalType": "address",
          "name": "",
          "type": "address"
        }
      ],
      "name": "powers",
      "outputs": [
        {
          "internalType": "uint256",
          "name": "",
          "type": "uint256"
        }
      ],
      "stateMutability": "view",
      "type": "function"
    },
    {
      "inputs": [
        {
          "internalType": "address",
          "name": "_excluded",
          "type": "address"
        }
      ],
      "name": "removeExcludedAddress",
      "outputs": [],
      "stateMutability": "nonpayable",
      "type": "function"
    },
    {
      "inputs": [
        {
          "internalType": "bytes32",
          "name": "role",
          "type": "bytes32"
        },
        {
          "internalType": "address",
          "name": "account",
          "type": "address"
        }
      ],
      "name": "renounceRole",
      "outputs": [],
      "stateMutability": "nonpayable",
      "type": "function"
    },
    {
      "inputs": [
        {
          "internalType": "bytes32",
          "name": "role",
          "type": "bytes32"
        },
        {
          "internalType": "address",
          "name": "account",
          "type": "address"
        }
      ],
      "name": "revokeRole",
      "outputs": [],
      "stateMutability": "nonpayable",
      "type": "function"
    },
    {
      "inputs": [
        {
          "internalType": "address",
          "name": "_absorberRods",
          "type": "address"
        }
      ],
      "name": "setAbsorberRods",
      "outputs": [],
      "stateMutability": "nonpayable",
      "type": "function"
    },
    {
      "inputs": [
        {
          "internalType": "address",
          "name": "_artifact",
          "type": "address"
        }
      ],
      "name": "setArtifact",
      "outputs": [],
      "stateMutability": "nonpayable",
      "type": "function"
    },
    {
      "inputs": [
        {
          "internalType": "address",
          "name": "_artifactMetadataStore",
          "type": "address"
        }
      ],
      "name": "setArtifactMetadataStore",
      "outputs": [],
      "stateMutability": "nonpayable",
      "type": "function"
    },
    {
      "inputs": [
        {
          "internalType": "uint256[][]",
          "name": "_artifactPowerTable",
          "type": "uint256[][]"
        }
      ],
      "name": "setArtifactPowerTable",
      "outputs": [],
      "stateMutability": "nonpayable",
      "type": "function"
    },
    {
      "inputs": [
        {
          "internalType": "address",
          "name": "_essence",
          "type": "address"
        }
      ],
      "name": "setEssenceToken",
      "outputs": [],
      "stateMutability": "nonpayable",
      "type": "function"
    },
    {
      "inputs": [
        {
          "internalType": "uint256",
          "name": "_utilizationOverride",
          "type": "uint256"
        }
      ],
      "name": "setUtilizationOverride",
      "outputs": [],
      "stateMutability": "nonpayable",
      "type": "function"
    },
    {
      "inputs": [
        {
          "internalType": "uint256",
          "name": "_tokenId",
          "type": "uint256"
        },
        {
          "internalType": "uint256",
          "name": "_amount",
          "type": "uint256"
        }
      ],
      "name": "stakeAbsorberRods",
      "outputs": [],
      "stateMutability": "nonpayable",
      "type": "function"
    },
    {
      "inputs": [
        {
          "internalType": "uint256",
          "name": "_tokenId",
          "type": "uint256"
        }
      ],
      "name": "stakeArtifact",
      "outputs": [],
      "stateMutability": "nonpayable",
      "type": "function"
    },
    {
      "inputs": [
        {
          "internalType": "bytes4",
          "name": "interfaceId",
          "type": "bytes4"
        }
      ],
      "name": "supportsInterface",
      "outputs": [
        {
          "internalType": "bool",
          "name": "",
          "type": "bool"
        }
      ],
      "stateMutability": "view",
      "type": "function"
    },
    {
      "inputs": [],
      "name": "toggleUnlockAll",
      "outputs": [],
      "stateMutability": "nonpayable",
      "type": "function"
    },
    {
      "inputs": [],
      "name": "totalEpToken",
      "outputs": [
        {
          "internalType": "uint256",
          "name": "",
          "type": "uint256"
        }
      ],
      "stateMutability": "view",
      "type": "function"
    },
    {
      "inputs": [],
      "name": "totalRewardsEarned",
      "outputs": [
        {
          "internalType": "uint256",
          "name": "",
          "type": "uint256"
        }
      ],
      "stateMutability": "view",
      "type": "function"
    },
    {
      "inputs": [],
      "name": "totalUndistributedRewards",
      "outputs": [
        {
          "internalType": "uint256",
          "name": "",
          "type": "uint256"
        }
      ],
      "stateMutability": "view",
      "type": "function"
    },
    {
      "inputs": [],
      "name": "unlockAll",
      "outputs": [
        {
          "internalType": "bool",
          "name": "",
          "type": "bool"
        }
      ],
      "stateMutability": "view",
      "type": "function"
    },
    {
      "inputs": [
        {
          "internalType": "uint256",
          "name": "_tokenId",
          "type": "uint256"
        },
        {
          "internalType": "uint256",
          "name": "_amount",
          "type": "uint256"
        }
      ],
      "name": "unstakeAbsorberRods",
      "outputs": [],
      "stateMutability": "nonpayable",
      "type": "function"
    },
    {
      "inputs": [
        {
          "internalType": "uint256",
          "name": "_tokenId",
          "type": "uint256"
        }
      ],
      "name": "unstakeArtifact",
      "outputs": [],
      "stateMutability": "nonpayable",
      "type": "function"
    },
    {
      "inputs": [
        {
          "internalType": "address",
          "name": "",
          "type": "address"
        },
        {
          "internalType": "uint256",
          "name": "",
          "type": "uint256"
        }
      ],
      "name": "userInfo",
      "outputs": [
        {
          "internalType": "uint256",
          "name": "originalDepositAmount",
          "type": "uint256"
        },
        {
          "internalType": "uint256",
          "name": "depositAmount",
          "type": "uint256"
        },
        {
          "internalType": "uint256",
          "name": "epAmount",
          "type": "uint256"
        },
        {
          "internalType": "uint256",
          "name": "lockedUntil",
          "type": "uint256"
        },
        {
          "internalType": "uint256",
          "name": "vestingLastUpdate",
          "type": "uint256"
        },
        {
          "internalType": "int256",
          "name": "rewardDebt",
          "type": "int256"
        },
        {
          "internalType": "enum EssenceAbsorberV2.Lock",
          "name": "lock",
          "type": "uint8"
        }
      ],
      "stateMutability": "view",
      "type": "function"
    },
    {
      "inputs": [],
      "name": "utilization",
      "outputs": [
        {
          "internalType": "uint256",
          "name": "util",
          "type": "uint256"
        }
      ],
      "stateMutability": "view",
      "type": "function"
    },
    {
      "inputs": [],
      "name": "utilizationOverride",
      "outputs": [
        {
          "internalType": "uint256",
          "name": "",
          "type": "uint256"
        }
      ],
      "stateMutability": "view",
      "type": "function"
    },
    {
      "inputs": [],
      "name": "withdrawAll",
      "outputs": [],
      "stateMutability": "nonpayable",
      "type": "function"
    },
    {
      "inputs": [],
      "name": "withdrawAndHarvestAll",
      "outputs": [],
      "stateMutability": "nonpayable",
      "type": "function"
    },
    {
      "inputs": [
        {
          "internalType": "uint256",
          "name": "_depositId",
          "type": "uint256"
        },
        {
          "internalType": "uint256",
          "name": "_amount",
          "type": "uint256"
        }
      ],
      "name": "withdrawAndHarvestPosition",
      "outputs": [],
      "stateMutability": "nonpayable",
      "type": "function"
    },
    {
      "inputs": [
        {
          "internalType": "uint256",
          "name": "_depositId",
          "type": "uint256"
        },
        {
          "internalType": "uint256",
          "name": "_amount",
          "type": "uint256"
        }
      ],
      "name": "withdrawPosition",
      "outputs": [
        {
          "internalType": "bool",
          "name": "",
          "type": "bool"
        }
      ],
      "stateMutability": "nonpayable",
      "type": "function"
    },
    {
      "inputs": [
        {
          "internalType": "address",
          "name": "_to",
          "type": "address"
        }
      ],
      "name": "withdrawUndistributedRewards",
      "outputs": [],
      "stateMutability": "nonpayable",
      "type": "function"
    }
  ],
  "transactionHash": "0xd2c96bdbca9370ff09eadf2a946f2e6b86bef3d1e6f1d4a2ba7f6fe3e5bd102e",
  "args": [],
  "numDeployments": 1,
  "solcInputHash": "179c5969a6e2a95153c16bf03df6a5b5",
  "bytecode": "0x60806040523480156200001157600080fd5b50600054610100900460ff1615808015620000335750600054600160ff909116105b8062000063575062000050306200013d60201b62003bbf1760201c565b15801562000063575060005460ff166001145b620000cb5760405162461bcd60e51b815260206004820152602e60248201527f496e697469616c697a61626c653a20636f6e747261637420697320616c72656160448201526d191e481a5b9a5d1a585b1a5e995960921b606482015260840160405180910390fd5b6000805460ff191660011790558015620000ef576000805461ff0019166101001790555b801562000136576000805461ff0019169055604051600181527f7f26b83ff96e1f2b6a682f133852f6798a09c465da95921460cefb38474024989060200160405180910390a15b506200014c565b6001600160a01b03163b151590565b615532806200015c6000396000f3fe608060405234801561001057600080fd5b506004361061046a5760003560e01c8063853828b61161024c578063bc197c8111610146578063d82b99d7116100c3578063f09a401611610087578063f09a401614610a76578063f15576a614610a89578063f23a6e6114610a93578063faa535af14610ab2578063fd90904c14610ac557600080fd5b8063d82b99d714610a1f578063d9914e8514610a32578063e4fb824114610a45578063ea21cd9214610a66578063ecbefab714610a6e57600080fd5b8063ca15c8731161010a578063ca15c873146109c7578063cd11be3e146109da578063cd24b0a3146109e4578063d44c0a63146109f9578063d547741f14610a0c57600080fd5b8063bc197c8114610950578063bf7cb26414610988578063c2ee3a081461099b578063c4048800146109aa578063c47b633f146109bd57600080fd5b8063a217fddf116101d4578063a9e8084e11610198578063a9e8084e146108fc578063aba617021461090f578063b04a699614610922578063b260177814610935578063ba579c741461094857600080fd5b8063a217fddf146108a7578063a5b063be146108af578063a646c35d146108c3578063a7e69fb4146108d6578063a9b54bcd146108e957600080fd5b80639010d07c1161021b5780639010d07c1461085357806391d1485414610866578063934d1fa4146108795780639428e0d9146108815780639931c4031461089457600080fd5b8063853828b61461082f5780638d8a0371146108375780638e6f6b77146108415780638ed955b91461084b57600080fd5b806336568abe1161036857806362c2fd6b116102e557806373503857116102a957806373503857146107db57806378a7770c146107e35780637a9de514146108075780637c0c9199146108115780637c4a485c1461082457600080fd5b806362c2fd6b14610766578063654cfdff1461077a578063688e90601461078d5780636902bd10146107b55780636930987e146107c857600080fd5b806353db390c1161032c57806353db390c1461070457806359fe213b146107175780635b35dd521461072a5780635c7abcc21461073d5780635fdf199a1461075157600080fd5b806336568abe1461068b57806339d9924a1461069e5780633ac28642146106ca5780635235ebb7146106dd578063532572d6146106f057600080fd5b806320f8e94e116103f657806327cfe856116103ba57806327cfe856146106495780632aa64534146106535780632b9f6a911461065b5780632f2ff15d146106655780632f623e771461067857600080fd5b806320f8e94e1461058557806321ce919d146105985780632299b8fa14610605578063248a9ca31461062657806327ca8e9d1461054d57600080fd5b80631156d8491161043d5780631156d849146105105780631245aeaf14610525578063138f77821461053a5780631ea5360a1461054f57806320988cef1461057b57600080fd5b806301ffc9a71461046f57806302931e59146104975780630dd4117a146104cf5780630fd74ee0146104ef575b600080fd5b61048261047d366004614a73565b610ad8565b60405190151581526020015b60405180910390f35b6104c16104a5366004614ab4565b6001600160a01b03166000908152610142602052604090205490565b60405190815260200161048e565b6104e26104dd366004614ab4565b610ae9565b60405161048e9190614acf565b6104c16104fd366004614ab4565b6101426020526000908152604090205481565b610518610b0e565b60405161048e9190614b13565b6104c16000805160206154dd83398151915281565b61054d610548366004614ab4565b610ba8565b005b6104c161055d366004614b9d565b61014060209081526000928352604080842090915290825290205481565b6104c162278d0081565b61054d610593366004614bc7565b610be4565b6105f26105a6366004614b9d565b61013c6020908152600092835260408084209091529082529020805460018201546002830154600384015460048501546005860154600690960154949593949293919290919060ff1687565b60405161048e9796959493929190614c18565b6104c1610613366004614ab4565b61013e6020526000908152604090205481565b6104c1610634366004614bc7565b60009081526065602052604090206001015490565b6104c16201518081565b61054d610ef7565b6104c16101325481565b61054d610673366004614c5a565b61108d565b6104c1610686366004614c93565b6110b7565b61054d610699366004614c5a565b611166565b610137546106b2906001600160a01b031681565b6040516001600160a01b03909116815260200161048e565b61054d6106d8366004614bc7565b6111e4565b6104e26106eb366004614ab4565b611345565b61012e546106b2906001600160a01b031681565b6104c1610712366004614cb0565b61136a565b6104c1610725366004614ab4565b6113ec565b610482610738366004614bc7565b611473565b61012d546106b2906001600160a01b031681565b610759611594565b60405161048e9190614cd2565b610139546106b2906001600160a01b031681565b61054d610788366004614d13565b6115a6565b6107a061079b366004614c93565b6118bf565b6040805192835260208301919091520161048e565b6104c16107c3366004614b9d565b6119f4565b61054d6107d6366004614ab4565b611adb565b61054d611b17565b6104826107f1366004614ab4565b61013a6020526000908152604090205460ff1681565b6104c16101345481565b61054d61081f366004614cb0565b611b75565b6104c16301e1338081565b61054d611f30565b6104c16101315481565b6104c162093a8081565b61054d611f8f565b6106b2610861366004614cb0565b611fea565b610482610874366004614c5a565b612002565b6104c161202d565b61054d61088f366004614ab4565b61203e565b61054d6108a2366004614bc7565b61207a565b6104c1600081565b610138546106b2906001600160a01b031681565b61054d6108d1366004614ab4565b612359565b61054d6108e4366004614cb0565b61250f565b61054d6108f7366004614ab4565b612523565b61054d61090a366004614cb0565b6126d3565b61054d61091d366004614bc7565b612a75565b6104c1610930366004614d43565b612e66565b61054d610943366004614e4e565b612fc9565b6104c1612ff5565b61096f61095e366004614f7e565b63bc197c8160e01b95945050505050565b6040516001600160e01b0319909116815260200161048e565b6107a0610996366004614bc7565b613003565b6104c1670de0b6b3a764000081565b6104c16109b8366004614cb0565b6130a9565b6104c16101305481565b6104c16109d5366004614bc7565b6130e7565b6104c16101335481565b61012e5461048290600160a01b900460ff1681565b6104c1610a07366004614bc7565b6130fe565b61054d610a1a366004614c5a565b613111565b610482610a2d366004614cb0565b613136565b61054d610a40366004614ab4565b61347f565b6104c1610a53366004614ab4565b6101416020526000908152604090205481565b6104c1613643565b6104c1613843565b61054d610a84366004615028565b613851565b6104c161012f5481565b61096f610aa1366004615052565b63f23a6e6160e01b95945050505050565b61054d610ac0366004614ab4565b613a8f565b6104c1610ad3366004614b9d565b613acb565b6000610ae382613bce565b92915050565b6001600160a01b038116600090815261013d60205260409020606090610ae390613bf3565b606061013b805480602002602001604051908101604052809291908181526020016000905b82821015610b9f57600084815260209081902083018054604080518285028101850190915281815292830182828015610b8b57602002820191906000526020600020905b815481526020019060010190808311610b77575b505050505081526020019060010190610b33565b50505050905090565b6000805160206154dd833981519152610bc081613c00565b5061013980546001600160a01b0319166001600160a01b0392909216919091179055565b610132548015610d1557600080610c6e61012e60009054906101000a90046001600160a01b03166001600160a01b031663ae5c93576040518163ffffffff1660e01b81526004016020604051808303816000875af1158015610c4a573d6000803e3d6000fd5b505050506040513d601f19601f8201168201806040525081019061099691906150b7565b915091508161012f6000828254610c8591906150e6565b92505081905550806101306000828254610c9f91906150e6565b90915550839050610cb8670de0b6b3a7640000846150f9565b610cc29190615118565b6101316000828254610cd491906150e6565b909155505061013154604080518481526020810184905280820186905260608101929092525160008051602061549d8339815191529181900360800190a150505b6000610d1f613643565b90506000805160206154bd83398151915281604051610d4091815260200190565b60405180910390a133600090815261013c60209081526040808320868452909152812060058101546101315460028301549293928391610d9c91670de0b6b3a764000091610d8d916150f9565b610d979190615118565b613c0d565b9050818112610dba57610db7610db2838361513a565b613c7b565b92505b600584018190556001840154158015610dd557506002840154155b15610de457610de43388613ccd565b8215610e025761012d54610e02906001600160a01b03163385613d30565b604051838152879033907f71bab65ced2e5750775a0613be067df48ef06cf92a496ebf7663ae06609249549060200160405180910390a36101335461012d546040516370a0823160e01b81523060048201526001600160a01b03909116906370a0823190602401602060405180830381865afa158015610e86573d6000803e3d6000fd5b505050506040513d601f19601f82011682018060405250810190610eaa91906150b7565b1015610eec5760405162461bcd60e51b815260206004820152600c60248201526b52756e206f6e2062616e6b7360a01b60448201526064015b60405180910390fd5b50505050505050565b565b6000805160206154dd833981519152610f0f81613c00565b61013254801561101c57600080610f7561012e60009054906101000a90046001600160a01b03166001600160a01b031663ae5c93576040518163ffffffff1660e01b81526004016020604051808303816000875af1158015610c4a573d6000803e3d6000fd5b915091508161012f6000828254610f8c91906150e6565b92505081905550806101306000828254610fa691906150e6565b90915550839050610fbf670de0b6b3a7640000846150f9565b610fc99190615118565b6101316000828254610fdb91906150e6565b909155505061013154604080518481526020810184905280820186905260608101929092525160008051602061549d8339815191529181900360800190a150505b6000611026613643565b90506000805160206154bd8339815191528160405161104791815260200190565b60405180910390a161012e54600160a01b900460ff1661106857600161106b565b60005b61012e8054911515600160a01b0260ff60a01b19909216919091179055505050565b6000828152606560205260409020600101546110a881613c00565b6110b28383613d93565b505050565b6000808260048111156110cc576110cc614be0565b036110d957506000919050565b60018260048111156110ed576110ed614be0565b036110fc575062093a80919050565b600282600481111561111057611110614be0565b0361111f575062127500919050565b600382600481111561113357611133614be0565b03611142575062278d00919050565b600482600481111561115657611156614be0565b036111615750623b53805b919050565b6001600160a01b03811633146111d65760405162461bcd60e51b815260206004820152602f60248201527f416363657373436f6e74726f6c3a2063616e206f6e6c792072656e6f756e636560448201526e103937b632b9903337b91039b2b63360891b6064820152608401610ee3565b6111e08282613db5565b5050565b6000805160206154dd8339815191526111fc81613c00565b6101325480156113095760008061126261012e60009054906101000a90046001600160a01b03166001600160a01b031663ae5c93576040518163ffffffff1660e01b81526004016020604051808303816000875af1158015610c4a573d6000803e3d6000fd5b915091508161012f600082825461127991906150e6565b9250508190555080610130600082825461129391906150e6565b909155508390506112ac670de0b6b3a7640000846150f9565b6112b69190615118565b61013160008282546112c891906150e6565b909155505061013154604080518481526020810184905280820186905260608101929092525160008051602061549d8339815191529181900360800190a150505b6000611313613643565b90506000805160206154bd8339815191528160405161133491815260200190565b60405180910390a150505061013455565b6001600160a01b038116600090815261013f60205260409020606090610ae390613bf3565b61013b546000908310801561139d575061013b838154811061138e5761138e61515a565b60009182526020909120015482105b156113e35761013b83815481106113b6576113b661515a565b9060005260206000200182815481106113d1576113d161515a565b90600052602060002001549050610ae3565b50600092915050565b6001600160a01b038116600090815261013d60205260408120819061141090613dd7565b905060005b8181101561146c576001600160a01b038416600090815261013d602052604081206114409083613de1565b905061144c8582613acb565b61145690856150e6565b935050808061146490615170565b915050611415565b5050919050565b610137546040516328225a8160e21b8152600481018390526000916001600160a01b03169063a0896a04906024016040805180830381865afa9250505080156114d9575060408051601f3d908101601f191682019092526114d691810190615189565b60015b611556576114e56151ec565b806308c379a00361150457506114f9615208565b806113e3575061151d565b634e487b710361151d57611516615292565b906113e357505b3d808015611547576040519150601f19603f3d011682016040523d82523d6000602084013e61154c565b606091505b5060009392505050565b60008151600181111561156b5761156b614be0565b14801561158d575060008160200151600481111561158b5761158b614be0565b145b9392505050565b60606115a1610135613bf3565b905090565b6101325480156116b35760008061160c61012e60009054906101000a90046001600160a01b03166001600160a01b031663ae5c93576040518163ffffffff1660e01b81526004016020604051808303816000875af1158015610c4a573d6000803e3d6000fd5b915091508161012f600082825461162391906150e6565b9250508190555080610130600082825461163d91906150e6565b90915550839050611656670de0b6b3a7640000846150f9565b6116609190615118565b610131600082825461167291906150e6565b909155505061013154604080518481526020810184905280820186905260608101929092525160008051602061549d8339815191529181900360800190a150505b60006116bd613643565b90506000805160206154bd833981519152816040516116de91815260200190565b60405180910390a133600090815261013d60205260409020610bb89061170390613dd7565b106117505760405162461bcd60e51b815260206004820152601b60248201527f4d6178206465706f73697473206e756d626572207265616368656400000000006044820152606401610ee3565b60008061175c33613ded565b9150915060008061176c876118bf565b3360009081526101426020526040812054929450909250670de0b6b3a764000061179683866150e6565b6117a0908c6150f9565b6117aa9190615118565b6117b4908b6150e6565b90508961013360008282546117c991906150e6565b925050819055508061013260008282546117e391906150e6565b9091555050898655600186018a90556002860181905561180383426150e6565b6003870181905560048701556101315461182b90670de0b6b3a764000090610d8d90846150f9565b60058701556006860180548a919060ff1916600183600481111561185157611851614be0565b021790555061012d5461186f906001600160a01b031633308d613e6c565b84336001600160a01b03167fa7db47d395930224de3f54139208b4a958fe3747c2ad1dee5a6624643a6def938c8c6040516118ab9291906152b2565b60405180910390a350505050505050505050565b600080808360048111156118d5576118d5614be0565b036118fa5767016345785d8a00006118f162093a8060026150f9565b91509150915091565b600183600481111561190e5761190e614be0565b0361192857506703782dace9d900009262278d0092509050565b600283600481111561193c5761193c614be0565b0361195857670b1a2bc2ec5000006118f162278d0060036150f9565b600383600481111561196c5761196c614be0565b03611988576718fae27693b400006118f162278d0060066150f9565b600483600481111561199c5761199c614be0565b036119b75750673782dace9d900000926301e1338092509050565b60405162461bcd60e51b8152602060048201526012602482015271496e76616c6964206c6f636b2076616c756560701b6044820152606401610ee3565b6001600160a01b038216600090815261013c6020908152604080832084845290915281206006810154815460ff9091169083611a2f836110b7565b8460030154611a3e91906150e6565b60038501549091504282111580611a5f575061012e54600160a01b900460ff165b15611a705784600101549550611ad0565b80421115611ad0576000611a8482846152c6565b611a8e83426152c6565b611a9890866150f9565b611aa29190615118565b90506000866001015485611ab691906152c6565b905081811015611acd57611aca81836152c6565b97505b50505b505050505092915050565b6000805160206154dd833981519152611af381613c00565b5061013880546001600160a01b0319166001600160a01b0392909216919091179055565b33600090815261013d60205260408120611b3090613bf3565b905060005b81518110156111e057611b63828281518110611b5357611b5361515a565b602002602001015160001961250f565b80611b6d81615170565b915050611b35565b610132548015611c8257600080611bdb61012e60009054906101000a90046001600160a01b03166001600160a01b031663ae5c93576040518163ffffffff1660e01b81526004016020604051808303816000875af1158015610c4a573d6000803e3d6000fd5b915091508161012f6000828254611bf291906150e6565b92505081905550806101306000828254611c0c91906150e6565b90915550839050611c25670de0b6b3a7640000846150f9565b611c2f9190615118565b6101316000828254611c4191906150e6565b909155505061013154604080518481526020810184905280820186905260608101929092525160008051602061549d8339815191529181900360800190a150505b6000611c8c613643565b90506000805160206154bd83398151915281604051611cad91815260200190565b60405180910390a1610138546001600160a01b0316611d0a5760405162461bcd60e51b815260206004820152601960248201527843616e6e6f74207374616b65204162736f72626572526f647360381b6044820152606401610ee3565b60008311611d485760405162461bcd60e51b815260206004820152600b60248201526a0416d6f756e7420697320360ac1b6044820152606401610ee3565b33600090815261014060209081526040808320878452909152902054831115611db35760405162461bcd60e51b815260206004820152601760248201527f576974686472617720616d6f756e7420746f6f206269670000000000000000006044820152606401610ee3565b3360009081526101406020908152604080832087845290915281208054859290611dde9084906152c6565b9091555050336000908152610141602052604081208054859290611e039084906152c6565b909155505061013854600090611e23906001600160a01b03168686612e66565b3360009081526101426020526040812080549293508392909190611e489084906152c6565b90915550611e57905033613ea4565b6101385460408051602081018252600081529051637921219560e11b81526001600160a01b039092169163f242432a91611e9b91309133918b918b91600401615329565b600060405180830381600087803b158015611eb557600080fd5b505af1158015611ec9573d6000803e3d6000fd5b5050610138543360009081526101426020526040908190205490517f204fccf0d92ed8d48f204adb39b2e81e92bad0dedb93f5716ca9478cfb57de009450611f2193506001600160a01b039092169189918991615363565b60405180910390a15050505050565b33600090815261013d60205260408120611f4990613bf3565b905060005b81518110156111e057611f7c828281518110611f6c57611f6c61515a565b6020026020010151600019613136565b5080611f8781615170565b915050611f4e565b33600090815261013d60205260408120611fa890613bf3565b905060005b81518110156111e057611fd8828281518110611fcb57611fcb61515a565b6020026020010151610be4565b80611fe281615170565b915050611fad565b600082815260976020526040812061158d9083613de1565b60009182526065602090815260408084206001600160a01b0393909316845291905290205460ff1690565b61203b62093a8060026150f9565b81565b6000805160206154dd83398151915261205681613c00565b5061013780546001600160a01b0319166001600160a01b0392909216919091179055565b610132548015612187576000806120e061012e60009054906101000a90046001600160a01b03166001600160a01b031663ae5c93576040518163ffffffff1660e01b81526004016020604051808303816000875af1158015610c4a573d6000803e3d6000fd5b915091508161012f60008282546120f791906150e6565b9250508190555080610130600082825461211191906150e6565b9091555083905061212a670de0b6b3a7640000846150f9565b6121349190615118565b610131600082825461214691906150e6565b909155505061013154604080518481526020810184905280820186905260608101929092525160008051602061549d8339815191529181900360800190a150505b6000612191613643565b90506000805160206154bd833981519152816040516121b291815260200190565b60405180910390a133600090815261013f602052604090206121d4908461409d565b6122145760405162461bcd60e51b8152602060048201526011602482015270139195081a5cc81b9bdd081cdd185ad959607a1b6044820152606401610ee3565b61221d83611473565b1561223b5733600090815261013a60205260409020805460ff191690555b61013954600090612257906001600160a01b0316856001612e66565b336000908152610142602052604081208054929350839290919061227c9084906152c6565b9091555061228b905033613ea4565b610139546040516323b872dd60e01b8152306004820152336024820152604481018690526001600160a01b03909116906323b872dd90606401600060405180830381600087803b1580156122de57600080fd5b505af11580156122f2573d6000803e3d6000fd5b5050610139543360009081526101426020526040908190205490517f204fccf0d92ed8d48f204adb39b2e81e92bad0dedb93f5716ca9478cfb57de00945061234b93506001600160a01b03909216918891600191615363565b60405180910390a150505050565b6000805160206154dd83398151915261237181613c00565b61013254801561247e576000806123d761012e60009054906101000a90046001600160a01b03166001600160a01b031663ae5c93576040518163ffffffff1660e01b81526004016020604051808303816000875af1158015610c4a573d6000803e3d6000fd5b915091508161012f60008282546123ee91906150e6565b9250508190555080610130600082825461240891906150e6565b90915550839050612421670de0b6b3a7640000846150f9565b61242b9190615118565b610131600082825461243d91906150e6565b909155505061013154604080518481526020810184905280820186905260608101929092525160008051602061549d8339815191529181900360800190a150505b6000612488613643565b90506000805160206154bd833981519152816040516124a991815260200190565b60405180910390a16124bd610135856140a9565b6125095760405162461bcd60e51b815260206004820152601760248201527f41646472657373206973206e6f74206578636c756465640000000000000000006044820152606401610ee3565b50505050565b6125198282613136565b506111e082610be4565b6000805160206154dd83398151915261253b81613c00565b610132548015612648576000806125a161012e60009054906101000a90046001600160a01b03166001600160a01b031663ae5c93576040518163ffffffff1660e01b81526004016020604051808303816000875af1158015610c4a573d6000803e3d6000fd5b915091508161012f60008282546125b891906150e6565b925050819055508061013060008282546125d291906150e6565b909155508390506125eb670de0b6b3a7640000846150f9565b6125f59190615118565b610131600082825461260791906150e6565b909155505061013154604080518481526020810184905280820186905260608101929092525160008051602061549d8339815191529181900360800190a150505b6000612652613643565b90506000805160206154bd8339815191528160405161267391815260200190565b60405180910390a1612687610135856140be565b6125095760405162461bcd60e51b815260206004820152601860248201527f4164647265737320616c7265616479206578636c7564656400000000000000006044820152606401610ee3565b6101325480156127e05760008061273961012e60009054906101000a90046001600160a01b03166001600160a01b031663ae5c93576040518163ffffffff1660e01b81526004016020604051808303816000875af1158015610c4a573d6000803e3d6000fd5b915091508161012f600082825461275091906150e6565b9250508190555080610130600082825461276a91906150e6565b90915550839050612783670de0b6b3a7640000846150f9565b61278d9190615118565b610131600082825461279f91906150e6565b909155505061013154604080518481526020810184905280820186905260608101929092525160008051602061549d8339815191529181900360800190a150505b60006127ea613643565b90506000805160206154bd8339815191528160405161280b91815260200190565b60405180910390a1610138546001600160a01b03166128685760405162461bcd60e51b815260206004820152601960248201527843616e6e6f74207374616b65204162736f72626572526f647360381b6044820152606401610ee3565b600083116128a65760405162461bcd60e51b815260206004820152600b60248201526a0416d6f756e7420697320360ac1b6044820152606401610ee3565b33600090815261014060209081526040808320878452909152812080548592906128d19084906150e6565b90915550503360009081526101416020526040812080548592906128f69084906150e6565b909155505033600090815261014160205260409020546014101561295c5760405162461bcd60e51b815260206004820152601e60248201527f4d6178203230206162736f72626572526f6473207065722077616c6c657400006044820152606401610ee3565b61013854600090612977906001600160a01b03168686612e66565b336000908152610142602052604081208054929350839290919061299c9084906150e6565b909155506129ab905033613ea4565b6101385460408051602081018252600081529051637921219560e11b81526001600160a01b039092169163f242432a916129ef91339130918b918b91600401615329565b600060405180830381600087803b158015612a0957600080fd5b505af1158015612a1d573d6000803e3d6000fd5b5050610138543360009081526101426020526040908190205490517fb4caaf29adda3eefee3ad552a8e85058589bf834c7466cae4ee58787f70589ed9450611f2193506001600160a01b039092169189918991615363565b610132548015612b8257600080612adb61012e60009054906101000a90046001600160a01b03166001600160a01b031663ae5c93576040518163ffffffff1660e01b81526004016020604051808303816000875af1158015610c4a573d6000803e3d6000fd5b915091508161012f6000828254612af291906150e6565b92505081905550806101306000828254612b0c91906150e6565b90915550839050612b25670de0b6b3a7640000846150f9565b612b2f9190615118565b6101316000828254612b4191906150e6565b909155505061013154604080518481526020810184905280820186905260608101929092525160008051602061549d8339815191529181900360800190a150505b6000612b8c613643565b90506000805160206154bd83398151915281604051612bad91815260200190565b60405180910390a1610139546001600160a01b0316612c065760405162461bcd60e51b815260206004820152601560248201527410d85b9b9bdd081cdd185ad948105c9d1a599858dd605a1b6044820152606401610ee3565b33600090815261013f60205260409020612c2090846140d3565b612c615760405162461bcd60e51b815260206004820152601260248201527113919508185b1c9958591e481cdd185ad95960721b6044820152606401610ee3565b33600090815261013f60205260409020600390612c7d90613dd7565b1115612ccb5760405162461bcd60e51b815260206004820152601a60248201527f4d6178203320617274696661637473207065722077616c6c65740000000000006044820152606401610ee3565b612cd483611473565b15612d565733600090815261013a602052604090205460ff1615612d3a5760405162461bcd60e51b815260206004820152601d60248201527f4d6178203120312f31206172746966616374207065722077616c6c65740000006044820152606401610ee3565b33600090815261013a60205260409020805460ff191660011790555b61013954600090612d72906001600160a01b0316856001612e66565b3360009081526101426020526040812080549293508392909190612d979084906150e6565b90915550612da6905033613ea4565b610139546040516323b872dd60e01b8152336004820152306024820152604481018690526001600160a01b03909116906323b872dd90606401600060405180830381600087803b158015612df957600080fd5b505af1158015612e0d573d6000803e3d6000fd5b5050610139543360009081526101426020526040908190205490517fb4caaf29adda3eefee3ad552a8e85058589bf834c7466cae4ee58787f70589ed945061234b93506001600160a01b03909216918891600191615363565b610138546000906001600160a01b0390811690851603612e9057612e89826130fe565b905061158d565b610139546001600160a01b039081169085160361154c57610137546040516328225a8160e21b8152600481018590526001600160a01b039091169063a0896a04906024016040805180830381865afa925050508015612f0c575060408051601f3d908101601f19168201909252612f0991810190615189565b60015b612f9457612f186151ec565b806308c379a003612f415750612f2c615208565b80612f375750612f5a565b600091505061158d565b634e487b7103612f5a57612f53615292565b90612f3757505b3d808015612f84576040519150601f19603f3d011682016040523d82523d6000602084013e612f89565b606091505b50600091505061158d565b8051612fc1906001811115612fab57612fab614be0565b8260200151600481111561071257610712614be0565b91505061158d565b6000805160206154dd833981519152612fe181613c00565b81516110b29061013b90602085019061493c565b61203b62278d0060066150f9565b6000806000613010613643565b9050670429d069189e000081101561302b5760009250613097565b67058d15e17628000081101561305957600a6130488560056150f9565b6130529190615118565b9250613097565b6706f05b59d3b2000081101561307657600a6130488560066150f9565b670853a0d2313c000081101561309357600a6130488560086150f9565b8392505b6130a183856152c6565b915050915091565b61013b82815481106130ba57600080fd5b9060005260206000200181815481106130d257600080fd5b90600052602060002001600091509150505481565b6000818152609760205260408120610ae390613dd7565b6000610ae382662386f26fc100006150f9565b60008281526065602052604090206001015461312c81613c00565b6110b28383613db5565b6101325460009080156132465760008061319f61012e60009054906101000a90046001600160a01b03166001600160a01b031663ae5c93576040518163ffffffff1660e01b81526004016020604051808303816000875af1158015610c4a573d6000803e3d6000fd5b915091508161012f60008282546131b691906150e6565b925050819055508061013060008282546131d091906150e6565b909155508390506131e9670de0b6b3a7640000846150f9565b6131f39190615118565b610131600082825461320591906150e6565b909155505061013154604080518481526020810184905280820186905260608101929092525160008051602061549d8339815191529181900360800190a150505b6000613250613643565b90506000805160206154bd8339815191528160405161327191815260200190565b60405180910390a133600090815261013c602090815260408083208884529091528120600181015490918190036132ad57600094505050613477565b808611156132b9578095505b61012e54600160a01b900460ff1661333b57816003015442101561331f5760405162461bcd60e51b815260206004820152601860248201527f506f736974696f6e206973207374696c6c206c6f636b656400000000000000006044820152606401610ee3565b600061332b33896140df565b905080871115613339578096505b505b600081613350670de0b6b3a7640000896150f9565b61335a9190615118565b90506000670de0b6b3a764000082856002015461337791906150f9565b6133819190615118565b905080610132600082825461339691906152c6565b925050819055508761013360008282546133b091906152c6565b92505081905550878460010160008282546133cb91906152c6565b92505081905550808460020160008282546133e691906152c6565b90915550506101315461340790670de0b6b3a764000090610d8d90846150f9565b84600501600082825461341a919061513a565b909155505061012d54613437906001600160a01b0316338a613d30565b604051888152899033907ff279e6a1f5e320cca91135676d9cb6e44ca8a08c0b88342bcdb1144f6511b5689060200160405180910390a360019650505050505b505092915050565b6000805160206154dd83398151915261349781613c00565b6101325480156135a4576000806134fd61012e60009054906101000a90046001600160a01b03166001600160a01b031663ae5c93576040518163ffffffff1660e01b81526004016020604051808303816000875af1158015610c4a573d6000803e3d6000fd5b915091508161012f600082825461351491906150e6565b9250508190555080610130600082825461352e91906150e6565b90915550839050613547670de0b6b3a7640000846150f9565b6135519190615118565b610131600082825461356391906150e6565b909155505061013154604080518481526020810184905280820186905260608101929092525160008051602061549d8339815191529181900360800190a150505b60006135ae613643565b90506000805160206154bd833981519152816040516135cf91815260200190565b60405180910390a16101308054600090915561012d546135f9906001600160a01b03168683613d30565b846001600160a01b03167f7c83d02a6ed4d6182087a0e243293e39c967dc6f12958ea7201d63214728d0f08260405161363491815260200190565b60405180910390a25050505050565b610134546000901561365757506101345490565b61012d54604080516318160ddd60e01b815290516000926001600160a01b0316916318160ddd9160048083019260209291908290030181865afa1580156136a2573d6000803e3d6000fd5b505050506040513d601f19601f820116820180604052508101906136c691906150b7565b905060006136d5610135613dd7565b905060005b818110156137865761012d546001600160a01b03166370a0823161370061013584613de1565b6040516001600160e01b031960e084901b1681526001600160a01b039091166004820152602401602060405180830381865afa158015613744573d6000803e3d6000fd5b505050506040513d601f19601f8201168201806040525081019061376891906150b7565b61377290846152c6565b92508061377e81615170565b9150506136da565b506101335461012d546040516370a0823160e01b8152306004820152600092916001600160a01b0316906370a0823190602401602060405180830381865afa1580156137d6573d6000803e3d6000fd5b505050506040513d601f19601f820116820180604052508101906137fa91906150b7565b61380491906152c6565b905061381081846152c6565b9250821561383d5782670de0b6b3a76400006101335461383091906150f9565b61383a9190615118565b93505b50505090565b61203b62278d0060036150f9565b600054610100900460ff16158080156138715750600054600160ff909116105b8061388b5750303b15801561388b575060005460ff166001145b6138ee5760405162461bcd60e51b815260206004820152602e60248201527f496e697469616c697a61626c653a20636f6e747261637420697320616c72656160448201526d191e481a5b9a5d1a585b1a5e995960921b6064820152608401610ee3565b6000805460ff191660011790558015613911576000805461ff0019166101001790555b61012d80546001600160a01b038086166001600160a01b03199283161790925561012e80549285169290911691909117905561395b6000805160206154dd8339815191528061411d565b6139736000805160206154dd83398151915233613d93565b60405180604001604052806040518060a001604052806753444835ec5800008152602001671bc16d674ec800008152602001670a688906bd8b00008152602001670de0b6b3a764000081526020016706f05b59d3b2000081525081526020016040518060a0016040528067058d15e17628000081526020016703782dace9d900008152602001670214e8348c4f0000815260200167016345785d8a0000815260200166b1a2bc2ec5000081525081525061013b906002613a34929190614995565b50613a3d614168565b613a45614168565b80156110b2576000805461ff0019169055604051600181527f7f26b83ff96e1f2b6a682f133852f6798a09c465da95921460cefb38474024989060200160405180910390a1505050565b6000805160206154dd833981519152613aa781613c00565b5061012d80546001600160a01b0319166001600160a01b0392909216919091179055565b6001600160a01b03828116600090815261013c60209081526040808320858452909152808220610131546101325461012e54935163f6ed201760e01b815230600482015294959294919390928692613b47929091169063f6ed201790602401602060405180830381865afa158015610c4a573d6000803e3d6000fd5b50905081613b5d670de0b6b3a7640000836150f9565b613b679190615118565b613b7190846150e6565b92506000846005015490506000613b9a670de0b6b3a7640000868860020154610d8d91906150f9565b9050818112613bb357613bb0610db2838361513a565b96505b50505050505092915050565b6001600160a01b03163b151590565b60006001600160e01b03198216630271189760e51b1480610ae35750610ae3826141d3565b6060600061158d836141f8565b613c0a8133614254565b50565b60006001600160ff1b03821115613c775760405162461bcd60e51b815260206004820152602860248201527f53616665436173743a2076616c756520646f65736e27742066697420696e2061604482015267371034b73a191a9b60c11b6064820152608401610ee3565b5090565b600080821215613c775760405162461bcd60e51b815260206004820181905260248201527f53616665436173743a2076616c7565206d75737420626520706f7369746976656044820152606401610ee3565b6001600160a01b038216600090815261013d60205260409020613cf0908261409d565b6111e05760405162461bcd60e51b81526020600482015260116024820152706465706f7369744964202165786973747360781b6044820152606401610ee3565b6040516001600160a01b0383166024820152604481018290526110b290849063a9059cbb60e01b906064015b60408051601f198184030181529190526020810180516001600160e01b03166001600160e01b0319909316929092179091526142b8565b613d9d828261438a565b60008281526097602052604090206110b290826140be565b613dbf8282614410565b60008281526097602052604090206110b290826140a9565b6000610ae3825490565b600061158d8383614477565b6001600160a01b038116600090815261013e6020526040812080548291908290613e1690615170565b91829055506001600160a01b038416600090815261013d60205260409020909150613e4190826140d3565b506001600160a01b03909216600090815261013c602090815260408083208584529091529020929050565b6040516001600160a01b03808516602483015283166044820152606481018290526125099085906323b872dd60e01b90608401613d5c565b6001600160a01b0381166000908152610142602090815260408083205461013d9092528220909190613ed590613bf3565b905060005b8151811015612509576000828281518110613ef757613ef761515a565b6020908102919091018101516001600160a01b038716600090815261013c8352604080822083835290935291822060068101549193509190613f3b9060ff166118bf565b5060018301549091506000670de0b6b3a7640000613f5989856150e6565b613f6390846150f9565b613f6d9190615118565b613f7790836150e6565b600285015490915080821115614004576000613f9382846152c6565b9050613fb0670de0b6b3a76400006101315483610d8d91906150f9565b866005016000828254613fc39190615389565b92505081905550806101326000828254613fdd91906150e6565b9250508190555080866002016000828254613ff891906150e6565b90915550614084915050565b8082101561408457600061401883836152c6565b9050614035670de0b6b3a76400006101315483610d8d91906150f9565b866005016000828254614048919061513a565b9250508190555080610132600082825461406291906152c6565b925050819055508086600201600082825461407d91906152c6565b9091555050505b505050505050808061409590615170565b915050613eda565b600061158d83836144a1565b600061158d836001600160a01b0384166144a1565b600061158d836001600160a01b03841661459b565b600061158d838361459b565b60006140eb83836119f4565b6001600160a01b03909316600090815261013c6020908152604080832094835293905291909120426004909101555090565b600082815260656020526040808220600101805490849055905190918391839186917fbd79b86ffe0ab8e8776151514217cd7cacd52c909f66475c3af44e129f0b00ff9190a4505050565b600054610100900460ff16610ef55760405162461bcd60e51b815260206004820152602b60248201527f496e697469616c697a61626c653a20636f6e7472616374206973206e6f74206960448201526a6e697469616c697a696e6760a81b6064820152608401610ee3565b60006001600160e01b03198216635a05180f60e01b1480610ae35750610ae3826145ea565b60608160000180548060200260200160405190810160405280929190818152602001828054801561424857602002820191906000526020600020905b815481526020019060010190808311614234575b50505050509050919050565b61425e8282612002565b6111e057614276816001600160a01b0316601461461f565b61428183602061461f565b6040516020016142929291906153a9565b60408051601f198184030181529082905262461bcd60e51b8252610ee39160040161541e565b600061430d826040518060400160405280602081526020017f5361666545524332303a206c6f772d6c6576656c2063616c6c206661696c6564815250856001600160a01b03166147bb9092919063ffffffff16565b8051909150156110b2578080602001905181019061432b9190615431565b6110b25760405162461bcd60e51b815260206004820152602a60248201527f5361666545524332303a204552433230206f7065726174696f6e20646964206e6044820152691bdd081cdd58d8d9595960b21b6064820152608401610ee3565b6143948282612002565b6111e05760008281526065602090815260408083206001600160a01b03851684529091529020805460ff191660011790556143cc3390565b6001600160a01b0316816001600160a01b0316837f2f8788117e7eff1d82e926ec794901d17c78024a50270940304540a733656f0d60405160405180910390a45050565b61441a8282612002565b156111e05760008281526065602090815260408083206001600160a01b0385168085529252808320805460ff1916905551339285917ff6391f5c32d9c69d2a47ea670b442974b53935d1edc7fd64eb21e047a839171b9190a45050565b600082600001828154811061448e5761448e61515a565b9060005260206000200154905092915050565b6000818152600183016020526040812054801561458a5760006144c56001836152c6565b85549091506000906144d9906001906152c6565b905081811461453e5760008660000182815481106144f9576144f961515a565b906000526020600020015490508087600001848154811061451c5761451c61515a565b6000918252602080832090910192909255918252600188019052604090208390555b855486908061454f5761454f615453565b600190038181906000526020600020016000905590558560010160008681526020019081526020016000206000905560019350505050610ae3565b6000915050610ae3565b5092915050565b60008181526001830160205260408120546145e257508154600181810184556000848152602080822090930184905584548482528286019093526040902091909155610ae3565b506000610ae3565b60006001600160e01b03198216637965db0b60e01b1480610ae357506301ffc9a760e01b6001600160e01b0319831614610ae3565b6060600061462e8360026150f9565b6146399060026150e6565b67ffffffffffffffff81111561465157614651614d76565b6040519080825280601f01601f19166020018201604052801561467b576020820181803683370190505b509050600360fc1b816000815181106146965761469661515a565b60200101906001600160f81b031916908160001a905350600f60fb1b816001815181106146c5576146c561515a565b60200101906001600160f81b031916908160001a90535060006146e98460026150f9565b6146f49060016150e6565b90505b600181111561476c576f181899199a1a9b1b9c1cb0b131b232b360811b85600f16601081106147285761472861515a565b1a60f81b82828151811061473e5761473e61515a565b60200101906001600160f81b031916908160001a90535060049490941c9361476581615469565b90506146f7565b50831561158d5760405162461bcd60e51b815260206004820181905260248201527f537472696e67733a20686578206c656e67746820696e73756666696369656e746044820152606401610ee3565b60606147ca84846000856147d2565b949350505050565b6060824710156148335760405162461bcd60e51b815260206004820152602660248201527f416464726573733a20696e73756666696369656e742062616c616e636520666f6044820152651c8818d85b1b60d21b6064820152608401610ee3565b6001600160a01b0385163b61488a5760405162461bcd60e51b815260206004820152601d60248201527f416464726573733a2063616c6c20746f206e6f6e2d636f6e74726163740000006044820152606401610ee3565b600080866001600160a01b031685876040516148a69190615480565b60006040518083038185875af1925050503d80600081146148e3576040519150601f19603f3d011682016040523d82523d6000602084013e6148e8565b606091505b50915091506148f8828286614903565b979650505050505050565b6060831561491257508161158d565b8251156149225782518084602001fd5b8160405162461bcd60e51b8152600401610ee3919061541e565b828054828255906000526020600020908101928215614989579160200282015b8281111561498957825180516149799184916020909101906149dc565b509160200191906001019061495c565b50613c77929150614a23565b828054828255906000526020600020908101928215614989579160200282015b828111156149895782516149cc90839060056149dc565b50916020019190600101906149b5565b828054828255906000526020600020908101928215614a17579160200282015b82811115614a175782518255916020019190600101906149fc565b50613c77929150614a40565b80821115613c77576000614a378282614a55565b50600101614a23565b5b80821115613c775760008155600101614a41565b5080546000825590600052602060002090810190613c0a9190614a40565b600060208284031215614a8557600080fd5b81356001600160e01b03198116811461158d57600080fd5b80356001600160a01b038116811461116157600080fd5b600060208284031215614ac657600080fd5b61158d82614a9d565b6020808252825182820181905260009190848201906040850190845b81811015614b0757835183529284019291840191600101614aeb565b50909695505050505050565b6000602080830181845280855180835260408601915060408160051b87010192508387016000805b83811015614b8f57888603603f19018552825180518088529088019088880190845b81811015614b795783518352928a0192918a0191600101614b5d565b5090975050509386019391860191600101614b3b565b509398975050505050505050565b60008060408385031215614bb057600080fd5b614bb983614a9d565b946020939093013593505050565b600060208284031215614bd957600080fd5b5035919050565b634e487b7160e01b600052602160045260246000fd5b60058110614c1457634e487b7160e01b600052602160045260246000fd5b9052565b600060e0820190508882528760208301528660408301528560608301528460808301528360a0830152614c4e60c0830184614bf6565b98975050505050505050565b60008060408385031215614c6d57600080fd5b82359150614c7d60208401614a9d565b90509250929050565b60058110613c0a57600080fd5b600060208284031215614ca557600080fd5b813561158d81614c86565b60008060408385031215614cc357600080fd5b50508035926020909101359150565b6020808252825182820181905260009190848201906040850190845b81811015614b075783516001600160a01b031683529284019291840191600101614cee565b60008060408385031215614d2657600080fd5b823591506020830135614d3881614c86565b809150509250929050565b600080600060608486031215614d5857600080fd5b614d6184614a9d565b95602085013595506040909401359392505050565b634e487b7160e01b600052604160045260246000fd5b601f8201601f1916810167ffffffffffffffff81118282101715614db257614db2614d76565b6040525050565b600067ffffffffffffffff821115614dd357614dd3614d76565b5060051b60200190565b600082601f830112614dee57600080fd5b81356020614dfb82614db9565b604051614e088282614d8c565b83815260059390931b8501820192828101915086841115614e2857600080fd5b8286015b84811015614e435780358352918301918301614e2c565b509695505050505050565b60006020808385031215614e6157600080fd5b823567ffffffffffffffff80821115614e7957600080fd5b818501915085601f830112614e8d57600080fd5b8135614e9881614db9565b604051614ea58282614d8c565b82815260059290921b8401850191858101915088831115614ec557600080fd5b8585015b83811015614efd57803585811115614ee15760008081fd5b614eef8b89838a0101614ddd565b845250918601918601614ec9565b5098975050505050505050565b600082601f830112614f1b57600080fd5b813567ffffffffffffffff811115614f3557614f35614d76565b604051614f4c601f8301601f191660200182614d8c565b818152846020838601011115614f6157600080fd5b816020850160208301376000918101602001919091529392505050565b600080600080600060a08688031215614f9657600080fd5b614f9f86614a9d565b9450614fad60208701614a9d565b9350604086013567ffffffffffffffff80821115614fca57600080fd5b614fd689838a01614ddd565b94506060880135915080821115614fec57600080fd5b614ff889838a01614ddd565b9350608088013591508082111561500e57600080fd5b5061501b88828901614f0a565b9150509295509295909350565b6000806040838503121561503b57600080fd5b61504483614a9d565b9150614c7d60208401614a9d565b600080600080600060a0868803121561506a57600080fd5b61507386614a9d565b945061508160208701614a9d565b93506040860135925060608601359150608086013567ffffffffffffffff8111156150ab57600080fd5b61501b88828901614f0a565b6000602082840312156150c957600080fd5b5051919050565b634e487b7160e01b600052601160045260246000fd5b80820180821115610ae357610ae36150d0565b6000816000190483118215151615615113576151136150d0565b500290565b60008261513557634e487b7160e01b600052601260045260246000fd5b500490565b8181036000831280158383131683831282161715614594576145946150d0565b634e487b7160e01b600052603260045260246000fd5b600060018201615182576151826150d0565b5060010190565b60006040828403121561519b57600080fd5b6040516040810181811067ffffffffffffffff821117156151be576151be614d76565b6040528251600281106151d057600080fd5b815260208301516151e081614c86565b60208201529392505050565b600060033d11156152055760046000803e5060005160e01c5b90565b600060443d10156152165790565b6040516003193d81016004833e81513d67ffffffffffffffff816024840111818411171561524657505050505090565b828501915081518181111561525e5750505050505090565b843d87010160208285010111156152785750505050505090565b61528760208286010187614d8c565b509095945050505050565b60008060233d11156152ae576020600460003e50506000516001905b9091565b8281526040810161158d6020830184614bf6565b81810381811115610ae357610ae36150d0565b60005b838110156152f45781810151838201526020016152dc565b50506000910152565b600081518084526153158160208601602086016152d9565b601f01601f19169290920160200192915050565b6001600160a01b03868116825285166020820152604081018490526060810183905260a0608082018190526000906148f8908301846152fd565b6001600160a01b0394909416845260208401929092526040830152606082015260800190565b8082018281126000831280158216821582161715613477576134776150d0565b7f416363657373436f6e74726f6c3a206163636f756e74200000000000000000008152600083516153e18160178501602088016152d9565b7001034b99036b4b9b9b4b733903937b6329607d1b60179184019182015283516154128160288401602088016152d9565b01602801949350505050565b60208152600061158d60208301846152fd565b60006020828403121561544357600080fd5b8151801515811461158d57600080fd5b634e487b7160e01b600052603160045260246000fd5b600081615478576154786150d0565b506000190190565b600082516154928184602087016152d9565b919091019291505056fe51ba001b2556bfc97b1ed73ece5dee29b5c284d8435120c957515cf11017f000163eacd81cbfca2d1ec176759e7107e34229c5cbc5ec0b3fde68ffdef1157e025199402c8bed06f2396e145fcd5fb5c3e7f91cd824966ba06598d38ae20b09f2a2646970667358221220f7b5c7b76b68fba57853347a14e9f66ebf0f4a4e6d1f4f5526292d4c1f28630564736f6c63430008100033",
  "devdoc": {
    "kind": "dev",
    "methods": {
      "constructor": {
        "custom:oz-upgrades-unsafe-allow": "constructor"
      },
      "getRoleAdmin(bytes32)": {
        "details": "Returns the admin role that controls `role`. See {grantRole} and {revokeRole}. To change a role's admin, use {_setRoleAdmin}."
      },
      "getRoleMember(bytes32,uint256)": {
        "details": "Returns one of the accounts that have `role`. `index` must be a value between 0 and {getRoleMemberCount}, non-inclusive. Role bearers are not sorted in any particular way, and their ordering may change at any point. WARNING: When using {getRoleMember} and {getRoleMemberCount}, make sure you perform all queries on the same block. See the following https://forum.openzeppelin.com/t/iterating-over-elements-on-enumerableset-in-openzeppelin-contracts/2296[forum post] for more information."
      },
      "getRoleMemberCount(bytes32)": {
        "details": "Returns the number of accounts that have `role`. Can be used together with {getRoleMember} to enumerate all bearers of a role."
      },
      "grantRole(bytes32,address)": {
        "details": "Grants `role` to `account`. If `account` had not been already granted `role`, emits a {RoleGranted} event. Requirements: - the caller must have ``role``'s admin role. May emit a {RoleGranted} event."
      },
      "hasRole(bytes32,address)": {
        "details": "Returns `true` if `account` has been granted `role`."
      },
      "renounceRole(bytes32,address)": {
        "details": "Revokes `role` from the calling account. Roles are often managed via {grantRole} and {revokeRole}: this function's purpose is to provide a mechanism for accounts to lose their privileges if they are compromised (such as when a trusted device is misplaced). If the calling account had been revoked `role`, emits a {RoleRevoked} event. Requirements: - the caller must be `account`. May emit a {RoleRevoked} event."
      },
      "revokeRole(bytes32,address)": {
        "details": "Revokes `role` from `account`. If `account` had been granted `role`, emits a {RoleRevoked} event. Requirements: - the caller must have ``role``'s admin role. May emit a {RoleRevoked} event."
      }
    },
    "version": 1
  },
  "userdoc": {
    "kind": "user",
    "methods": {
      "accEssencePerEpShare()": {
        "notice": "EP stands for ESSENCE POWER, representing the multiplier over the ESSENCE a user has, and thus their share of emissions this represents the amount of essence per ESSENCE POWER token shares that exist Having high EP enables a user to gain a greater share of emissions but does not increase the rate of ESSENCE emissions for the game."
      },
      "currentId(address)": {
        "notice": "user => deposit index"
      },
      "pendingRewardsPosition(address,uint256)": {
        "notice": "essenceField.getPendingRewards: calculates the rewards still available to this absorber from the stream that was enabled getRealEssenceRewards, strangulates the stream by a % according to the utilization of this absorber"
      },
      "performanceBoost()": {
        "notice": "This function could do a chainlink request to obtain the person's social score from off-chain The score enters in the power equation of the user to calculate new EP (_recalculateEPAmount) If the update is done in a pull fashion, it is up to the user to call the function whenever he sees a surplus in reward from doing it (frontend could compute cost of update). It could also be called whenever the user deposits/harvests/withdraws/stakesNFTs If done in push fashion, system has to provide an ordered array of user addresses and Ids to update the power and _recalculate the EP amount. This involves a lot of gas costs and storage updates, but in a rollup could be doable."
      },
      "toggleUnlockAll()": {
        "notice": "EMERGENCY ONLY"
      },
      "totalEpToken()": {
        "notice": "this represents the total amount of EP Shares that exist"
      },
      "userInfo(address,uint256)": {
        "notice": "user => depositId => UserInfo"
      },
      "utilization()": {
        "notice": "how this function calculates the utilization % of this absorber"
      }
    },
    "notice": "Contract is using an admin role to manage its configuration. Admin role is assigned to a multi-sig wallet controlled by trusted team members. Admin role aka FACTION_ABSORBER_ADMIN_ROLE, as initialized during init() to msg.sender can:  Add/Remove addresses to excludedAddresses, which impacts the utilization calculation, by calling   addExcludedAddress() and removeExcludedAddress(), respectively.  Set/Unset an arbitrary override value for the value returned by utilization(), by calling   setUtilizationOverride().  Change at any time the essence token address, which is set during init(), to an arbitrary one, by calling   setEssenceToken().  Set absorberRods to an arbitrary address (including address(0), in which case absorberRods staking/unstaking is   disabled), by calling setAbsorberRods().  Set artifact to an arbitrary address (including address(0), in which case artifact staking/unstaking is disabled),   by calling setArtifact().  Set artifactMetadataStore to an arbitrary address (used for artifact 1:1 checking and artifact nft power computation),   by calling setArtifactMetadataStore().  Re-set the artifactPowerTable array to arbitrary values, by calling setArtifactPowerTable().  Set/Unset the emergency unlockAll state, by calling toggleUnlockAll().  Withdraw all undistributed rewards to an arbitrary address, by calling withdrawUndistributedRewards().",
    "version": 1
  },
  "storageLayout": {
    "storage": [
      {
        "astId": 838,
        "contract": "contracts/modules/EssenceAbsorberV2.sol:EssenceAbsorberV2",
        "label": "_initialized",
        "offset": 0,
        "slot": "0",
        "type": "t_uint8"
      },
      {
        "astId": 841,
        "contract": "contracts/modules/EssenceAbsorberV2.sol:EssenceAbsorberV2",
        "label": "_initializing",
        "offset": 1,
        "slot": "0",
        "type": "t_bool"
      },
      {
        "astId": 2065,
        "contract": "contracts/modules/EssenceAbsorberV2.sol:EssenceAbsorberV2",
        "label": "__gap",
        "offset": 0,
        "slot": "1",
        "type": "t_array(t_uint256)50_storage"
      },
      {
        "astId": 2335,
        "contract": "contracts/modules/EssenceAbsorberV2.sol:EssenceAbsorberV2",
        "label": "__gap",
        "offset": 0,
        "slot": "51",
        "type": "t_array(t_uint256)50_storage"
      },
      {
        "astId": 433,
        "contract": "contracts/modules/EssenceAbsorberV2.sol:EssenceAbsorberV2",
        "label": "_roles",
        "offset": 0,
        "slot": "101",
        "type": "t_mapping(t_bytes32,t_struct(RoleData)428_storage)"
      },
      {
        "astId": 732,
        "contract": "contracts/modules/EssenceAbsorberV2.sol:EssenceAbsorberV2",
        "label": "__gap",
        "offset": 0,
        "slot": "102",
        "type": "t_array(t_uint256)49_storage"
      },
      {
        "astId": 282,
        "contract": "contracts/modules/EssenceAbsorberV2.sol:EssenceAbsorberV2",
        "label": "_roleMembers",
        "offset": 0,
        "slot": "151",
        "type": "t_mapping(t_bytes32,t_struct(AddressSet)4511_storage)"
      },
      {
        "astId": 392,
        "contract": "contracts/modules/EssenceAbsorberV2.sol:EssenceAbsorberV2",
        "label": "__gap",
        "offset": 0,
        "slot": "152",
        "type": "t_array(t_uint256)49_storage"
      },
      {
        "astId": 1269,
        "contract": "contracts/modules/EssenceAbsorberV2.sol:EssenceAbsorberV2",
        "label": "__gap",
        "offset": 0,
        "slot": "201",
        "type": "t_array(t_uint256)50_storage"
      },
      {
        "astId": 1215,
        "contract": "contracts/modules/EssenceAbsorberV2.sol:EssenceAbsorberV2",
        "label": "__gap",
        "offset": 0,
        "slot": "251",
        "type": "t_array(t_uint256)50_storage"
      },
      {
        "astId": 14694,
        "contract": "contracts/modules/EssenceAbsorberV2.sol:EssenceAbsorberV2",
        "label": "essence",
        "offset": 0,
        "slot": "301",
        "type": "t_contract(IERC20Upgradeable)1348"
      },
      {
        "astId": 14697,
        "contract": "contracts/modules/EssenceAbsorberV2.sol:EssenceAbsorberV2",
        "label": "essenceField",
        "offset": 0,
        "slot": "302",
        "type": "t_contract(IEssenceField)12371"
      },
      {
        "astId": 14699,
        "contract": "contracts/modules/EssenceAbsorberV2.sol:EssenceAbsorberV2",
        "label": "unlockAll",
        "offset": 20,
        "slot": "302",
        "type": "t_bool"
      },
      {
        "astId": 14701,
        "contract": "contracts/modules/EssenceAbsorberV2.sol:EssenceAbsorberV2",
        "label": "totalRewardsEarned",
        "offset": 0,
        "slot": "303",
        "type": "t_uint256"
      },
      {
        "astId": 14703,
        "contract": "contracts/modules/EssenceAbsorberV2.sol:EssenceAbsorberV2",
        "label": "totalUndistributedRewards",
        "offset": 0,
        "slot": "304",
        "type": "t_uint256"
      },
      {
        "astId": 14706,
        "contract": "contracts/modules/EssenceAbsorberV2.sol:EssenceAbsorberV2",
        "label": "accEssencePerEpShare",
        "offset": 0,
        "slot": "305",
        "type": "t_uint256"
      },
      {
        "astId": 14709,
        "contract": "contracts/modules/EssenceAbsorberV2.sol:EssenceAbsorberV2",
        "label": "totalEpToken",
        "offset": 0,
        "slot": "306",
        "type": "t_uint256"
      },
      {
        "astId": 14711,
        "contract": "contracts/modules/EssenceAbsorberV2.sol:EssenceAbsorberV2",
        "label": "essenceTotalDeposits",
        "offset": 0,
        "slot": "307",
        "type": "t_uint256"
      },
      {
        "astId": 14713,
        "contract": "contracts/modules/EssenceAbsorberV2.sol:EssenceAbsorberV2",
        "label": "utilizationOverride",
        "offset": 0,
        "slot": "308",
        "type": "t_uint256"
      },
      {
        "astId": 14716,
        "contract": "contracts/modules/EssenceAbsorberV2.sol:EssenceAbsorberV2",
        "label": "excludedAddresses",
        "offset": 0,
        "slot": "309",
        "type": "t_struct(AddressSet)4511_storage"
      },
      {
        "astId": 14718,
        "contract": "contracts/modules/EssenceAbsorberV2.sol:EssenceAbsorberV2",
        "label": "artifactMetadataStore",
        "offset": 0,
        "slot": "311",
        "type": "t_address"
      },
      {
        "astId": 14720,
        "contract": "contracts/modules/EssenceAbsorberV2.sol:EssenceAbsorberV2",
        "label": "absorberRods",
        "offset": 0,
        "slot": "312",
        "type": "t_address"
      },
      {
        "astId": 14722,
        "contract": "contracts/modules/EssenceAbsorberV2.sol:EssenceAbsorberV2",
        "label": "artifact",
        "offset": 0,
        "slot": "313",
        "type": "t_address"
      },
      {
        "astId": 14726,
        "contract": "contracts/modules/EssenceAbsorberV2.sol:EssenceAbsorberV2",
        "label": "isArtifact1_1Staked",
        "offset": 0,
        "slot": "314",
        "type": "t_mapping(t_address,t_bool)"
      },
      {
        "astId": 14730,
        "contract": "contracts/modules/EssenceAbsorberV2.sol:EssenceAbsorberV2",
        "label": "artifactPowerTable",
        "offset": 0,
        "slot": "315",
        "type": "t_array(t_array(t_uint256)dyn_storage)dyn_storage"
      },
      {
        "astId": 14738,
        "contract": "contracts/modules/EssenceAbsorberV2.sol:EssenceAbsorberV2",
        "label": "userInfo",
        "offset": 0,
        "slot": "316",
        "type": "t_mapping(t_address,t_mapping(t_uint256,t_struct(UserInfo)14656_storage))"
      },
      {
        "astId": 14744,
        "contract": "contracts/modules/EssenceAbsorberV2.sol:EssenceAbsorberV2",
        "label": "allUserDepositIds",
        "offset": 0,
        "slot": "317",
        "type": "t_mapping(t_address,t_struct(UintSet)4668_storage)"
      },
      {
        "astId": 14749,
        "contract": "contracts/modules/EssenceAbsorberV2.sol:EssenceAbsorberV2",
        "label": "currentId",
        "offset": 0,
        "slot": "318",
        "type": "t_mapping(t_address,t_uint256)"
      },
      {
        "astId": 14754,
        "contract": "contracts/modules/EssenceAbsorberV2.sol:EssenceAbsorberV2",
        "label": "artifactStaked",
        "offset": 0,
        "slot": "319",
        "type": "t_mapping(t_address,t_struct(UintSet)4668_storage)"
      },
      {
        "astId": 14760,
        "contract": "contracts/modules/EssenceAbsorberV2.sol:EssenceAbsorberV2",
        "label": "absorberRodsStaked",
        "offset": 0,
        "slot": "320",
        "type": "t_mapping(t_address,t_mapping(t_uint256,t_uint256))"
      },
      {
        "astId": 14764,
        "contract": "contracts/modules/EssenceAbsorberV2.sol:EssenceAbsorberV2",
        "label": "absorberRodsStakedAmount",
        "offset": 0,
        "slot": "321",
        "type": "t_mapping(t_address,t_uint256)"
      },
      {
        "astId": 14768,
        "contract": "contracts/modules/EssenceAbsorberV2.sol:EssenceAbsorberV2",
        "label": "powers",
        "offset": 0,
        "slot": "322",
        "type": "t_mapping(t_address,t_uint256)"
      }
    ],
    "types": {
      "t_address": {
        "encoding": "inplace",
        "label": "address",
        "numberOfBytes": "20"
      },
      "t_array(t_array(t_uint256)dyn_storage)dyn_storage": {
        "base": "t_array(t_uint256)dyn_storage",
        "encoding": "dynamic_array",
        "label": "uint256[][]",
        "numberOfBytes": "32"
      },
      "t_array(t_bytes32)dyn_storage": {
        "base": "t_bytes32",
        "encoding": "dynamic_array",
        "label": "bytes32[]",
        "numberOfBytes": "32"
      },
      "t_array(t_uint256)49_storage": {
        "base": "t_uint256",
        "encoding": "inplace",
        "label": "uint256[49]",
        "numberOfBytes": "1568"
      },
      "t_array(t_uint256)50_storage": {
        "base": "t_uint256",
        "encoding": "inplace",
        "label": "uint256[50]",
        "numberOfBytes": "1600"
      },
      "t_array(t_uint256)dyn_storage": {
        "base": "t_uint256",
        "encoding": "dynamic_array",
        "label": "uint256[]",
        "numberOfBytes": "32"
      },
      "t_bool": {
        "encoding": "inplace",
        "label": "bool",
        "numberOfBytes": "1"
      },
      "t_bytes32": {
        "encoding": "inplace",
        "label": "bytes32",
        "numberOfBytes": "32"
      },
      "t_contract(IERC20Upgradeable)1348": {
        "encoding": "inplace",
        "label": "contract IERC20Upgradeable",
        "numberOfBytes": "20"
      },
      "t_contract(IEssenceField)12371": {
        "encoding": "inplace",
        "label": "contract IEssenceField",
        "numberOfBytes": "20"
      },
      "t_enum(Lock)14640": {
        "encoding": "inplace",
        "label": "enum EssenceAbsorberV2.Lock",
        "numberOfBytes": "1"
      },
      "t_int256": {
        "encoding": "inplace",
        "label": "int256",
        "numberOfBytes": "32"
      },
      "t_mapping(t_address,t_bool)": {
        "encoding": "mapping",
        "key": "t_address",
        "label": "mapping(address => bool)",
        "numberOfBytes": "32",
        "value": "t_bool"
      },
      "t_mapping(t_address,t_mapping(t_uint256,t_struct(UserInfo)14656_storage))": {
        "encoding": "mapping",
        "key": "t_address",
        "label": "mapping(address => mapping(uint256 => struct EssenceAbsorberV2.UserInfo))",
        "numberOfBytes": "32",
        "value": "t_mapping(t_uint256,t_struct(UserInfo)14656_storage)"
      },
      "t_mapping(t_address,t_mapping(t_uint256,t_uint256))": {
        "encoding": "mapping",
        "key": "t_address",
        "label": "mapping(address => mapping(uint256 => uint256))",
        "numberOfBytes": "32",
        "value": "t_mapping(t_uint256,t_uint256)"
      },
      "t_mapping(t_address,t_struct(UintSet)4668_storage)": {
        "encoding": "mapping",
        "key": "t_address",
        "label": "mapping(address => struct EnumerableSetUpgradeable.UintSet)",
        "numberOfBytes": "32",
        "value": "t_struct(UintSet)4668_storage"
      },
      "t_mapping(t_address,t_uint256)": {
        "encoding": "mapping",
        "key": "t_address",
        "label": "mapping(address => uint256)",
        "numberOfBytes": "32",
        "value": "t_uint256"
      },
      "t_mapping(t_bytes32,t_struct(AddressSet)4511_storage)": {
        "encoding": "mapping",
        "key": "t_bytes32",
        "label": "mapping(bytes32 => struct EnumerableSetUpgradeable.AddressSet)",
        "numberOfBytes": "32",
        "value": "t_struct(AddressSet)4511_storage"
      },
      "t_mapping(t_bytes32,t_struct(RoleData)428_storage)": {
        "encoding": "mapping",
        "key": "t_bytes32",
        "label": "mapping(bytes32 => struct AccessControlUpgradeable.RoleData)",
        "numberOfBytes": "32",
        "value": "t_struct(RoleData)428_storage"
      },
      "t_mapping(t_bytes32,t_uint256)": {
        "encoding": "mapping",
        "key": "t_bytes32",
        "label": "mapping(bytes32 => uint256)",
        "numberOfBytes": "32",
        "value": "t_uint256"
      },
      "t_mapping(t_uint256,t_struct(UserInfo)14656_storage)": {
        "encoding": "mapping",
        "key": "t_uint256",
        "label": "mapping(uint256 => struct EssenceAbsorberV2.UserInfo)",
        "numberOfBytes": "32",
        "value": "t_struct(UserInfo)14656_storage"
      },
      "t_mapping(t_uint256,t_uint256)": {
        "encoding": "mapping",
        "key": "t_uint256",
        "label": "mapping(uint256 => uint256)",
        "numberOfBytes": "32",
        "value": "t_uint256"
      },
      "t_struct(AddressSet)4511_storage": {
        "encoding": "inplace",
        "label": "struct EnumerableSetUpgradeable.AddressSet",
        "members": [
          {
            "astId": 4510,
            "contract": "contracts/modules/EssenceAbsorberV2.sol:EssenceAbsorberV2",
            "label": "_inner",
            "offset": 0,
            "slot": "0",
            "type": "t_struct(Set)4210_storage"
          }
        ],
        "numberOfBytes": "64"
      },
      "t_struct(RoleData)428_storage": {
        "encoding": "inplace",
        "label": "struct AccessControlUpgradeable.RoleData",
        "members": [
          {
            "astId": 425,
            "contract": "contracts/modules/EssenceAbsorberV2.sol:EssenceAbsorberV2",
            "label": "members",
            "offset": 0,
            "slot": "0",
            "type": "t_mapping(t_address,t_bool)"
          },
          {
            "astId": 427,
            "contract": "contracts/modules/EssenceAbsorberV2.sol:EssenceAbsorberV2",
            "label": "adminRole",
            "offset": 0,
            "slot": "1",
            "type": "t_bytes32"
          }
        ],
        "numberOfBytes": "64"
      },
      "t_struct(Set)4210_storage": {
        "encoding": "inplace",
        "label": "struct EnumerableSetUpgradeable.Set",
        "members": [
          {
            "astId": 4205,
            "contract": "contracts/modules/EssenceAbsorberV2.sol:EssenceAbsorberV2",
            "label": "_values",
            "offset": 0,
            "slot": "0",
            "type": "t_array(t_bytes32)dyn_storage"
          },
          {
            "astId": 4209,
            "contract": "contracts/modules/EssenceAbsorberV2.sol:EssenceAbsorberV2",
            "label": "_indexes",
            "offset": 0,
            "slot": "1",
            "type": "t_mapping(t_bytes32,t_uint256)"
          }
        ],
        "numberOfBytes": "64"
      },
      "t_struct(UintSet)4668_storage": {
        "encoding": "inplace",
        "label": "struct EnumerableSetUpgradeable.UintSet",
        "members": [
          {
            "astId": 4667,
            "contract": "contracts/modules/EssenceAbsorberV2.sol:EssenceAbsorberV2",
            "label": "_inner",
            "offset": 0,
            "slot": "0",
            "type": "t_struct(Set)4210_storage"
          }
        ],
        "numberOfBytes": "64"
      },
      "t_struct(UserInfo)14656_storage": {
        "encoding": "inplace",
        "label": "struct EssenceAbsorberV2.UserInfo",
        "members": [
          {
            "astId": 14642,
            "contract": "contracts/modules/EssenceAbsorberV2.sol:EssenceAbsorberV2",
            "label": "originalDepositAmount",
            "offset": 0,
            "slot": "0",
            "type": "t_uint256"
          },
          {
            "astId": 14644,
            "contract": "contracts/modules/EssenceAbsorberV2.sol:EssenceAbsorberV2",
            "label": "depositAmount",
            "offset": 0,
            "slot": "1",
            "type": "t_uint256"
          },
          {
            "astId": 14646,
            "contract": "contracts/modules/EssenceAbsorberV2.sol:EssenceAbsorberV2",
            "label": "epAmount",
            "offset": 0,
            "slot": "2",
            "type": "t_uint256"
          },
          {
            "astId": 14648,
            "contract": "contracts/modules/EssenceAbsorberV2.sol:EssenceAbsorberV2",
            "label": "lockedUntil",
            "offset": 0,
            "slot": "3",
            "type": "t_uint256"
          },
          {
            "astId": 14650,
            "contract": "contracts/modules/EssenceAbsorberV2.sol:EssenceAbsorberV2",
            "label": "vestingLastUpdate",
            "offset": 0,
            "slot": "4",
            "type": "t_uint256"
          },
          {
            "astId": 14652,
            "contract": "contracts/modules/EssenceAbsorberV2.sol:EssenceAbsorberV2",
            "label": "rewardDebt",
            "offset": 0,
            "slot": "5",
            "type": "t_int256"
          },
          {
            "astId": 14655,
            "contract": "contracts/modules/EssenceAbsorberV2.sol:EssenceAbsorberV2",
            "label": "lock",
            "offset": 0,
            "slot": "6",
            "type": "t_enum(Lock)14640"
          }
        ],
        "numberOfBytes": "224"
      },
      "t_uint256": {
        "encoding": "inplace",
        "label": "uint256",
        "numberOfBytes": "32"
      },
      "t_uint8": {
        "encoding": "inplace",
        "label": "uint8",
        "numberOfBytes": "1"
      }
    }
  }
}