{
  "address": "0x59b670e9fA9D0A427751Af201D676719a970857b",
  "abi": [
    {
      "inputs": [
        {
          "internalType": "uint64",
          "name": "subscriptionId",
          "type": "uint64"
        },
        {
          "internalType": "contract MothoraGame",
          "name": "mothoraGame",
          "type": "address"
        }
      ],
      "stateMutability": "nonpayable",
      "type": "constructor"
    },
    {
      "inputs": [
        {
          "internalType": "address",
          "name": "have",
          "type": "address"
        },
        {
          "internalType": "address",
          "name": "want",
          "type": "address"
        }
      ],
      "name": "OnlyCoordinatorCanFulfill",
      "type": "error"
    },
    {
      "anonymous": false,
      "inputs": [
        {
          "indexed": true,
          "internalType": "uint256",
          "name": "arenaId",
          "type": "uint256"
        },
        {
          "indexed": true,
          "internalType": "address",
          "name": "creator",
          "type": "address"
        }
      ],
      "name": "ArenaSessionCreated",
      "type": "event"
    },
    {
      "anonymous": false,
      "inputs": [
        {
          "indexed": true,
          "internalType": "uint256",
          "name": "arenaId",
          "type": "uint256"
        }
      ],
      "name": "ArenaSessionPostgame",
      "type": "event"
    },
    {
      "anonymous": false,
      "inputs": [
        {
          "indexed": true,
          "internalType": "uint256",
          "name": "arenaId",
          "type": "uint256"
        }
      ],
      "name": "ArenaSessionRewarded",
      "type": "event"
    },
    {
      "anonymous": false,
      "inputs": [
        {
          "indexed": true,
          "internalType": "address",
          "name": "mothoraGameContractAddress",
          "type": "address"
        }
      ],
      "name": "MothoraGameAddressUpdated",
      "type": "event"
    },
    {
      "anonymous": false,
      "inputs": [
        {
          "indexed": true,
          "internalType": "address",
          "name": "previousOwner",
          "type": "address"
        },
        {
          "indexed": true,
          "internalType": "address",
          "name": "newOwner",
          "type": "address"
        }
      ],
      "name": "OwnershipTransferred",
      "type": "event"
    },
    {
      "inputs": [],
      "name": "arenaSessionsCounter",
      "outputs": [
        {
          "internalType": "uint256",
          "name": "_value",
          "type": "uint256"
        }
      ],
      "stateMutability": "view",
      "type": "function"
    },
    {
      "inputs": [
        {
          "internalType": "uint256",
          "name": "arenaId",
          "type": "uint256"
        }
      ],
      "name": "getArenaSessionData",
      "outputs": [
        {
          "internalType": "uint256",
          "name": "status",
          "type": "uint256"
        },
        {
          "internalType": "address[]",
          "name": "players",
          "type": "address[]"
        }
      ],
      "stateMutability": "view",
      "type": "function"
    },
    {
      "inputs": [],
      "name": "getMothoraGame",
      "outputs": [
        {
          "internalType": "address",
          "name": "",
          "type": "address"
        }
      ],
      "stateMutability": "view",
      "type": "function"
    },
    {
      "inputs": [
        {
          "internalType": "uint256",
          "name": "requestId",
          "type": "uint256"
        },
        {
          "internalType": "uint256[]",
          "name": "randomWords",
          "type": "uint256[]"
        }
      ],
      "name": "mockRandomnessFulfillment",
      "outputs": [],
      "stateMutability": "nonpayable",
      "type": "function"
    },
    {
      "inputs": [
        {
          "internalType": "uint256",
          "name": "arenaId",
          "type": "uint256"
        },
        {
          "internalType": "uint256",
          "name": "requestId",
          "type": "uint256"
        }
      ],
      "name": "mockTerminateArenaSession",
      "outputs": [],
      "stateMutability": "nonpayable",
      "type": "function"
    },
    {
      "inputs": [],
      "name": "owner",
      "outputs": [
        {
          "internalType": "address",
          "name": "",
          "type": "address"
        }
      ],
      "stateMutability": "view",
      "type": "function"
    },
    {
      "inputs": [
        {
          "internalType": "uint256",
          "name": "requestId",
          "type": "uint256"
        },
        {
          "internalType": "uint256[]",
          "name": "randomWords",
          "type": "uint256[]"
        }
      ],
      "name": "rawFulfillRandomWords",
      "outputs": [],
      "stateMutability": "nonpayable",
      "type": "function"
    },
    {
      "inputs": [],
      "name": "renounceOwnership",
      "outputs": [],
      "stateMutability": "nonpayable",
      "type": "function"
    },
    {
      "inputs": [
        {
          "internalType": "address",
          "name": "mothoraGameContractAddress",
          "type": "address"
        }
      ],
      "name": "setMothoraGame",
      "outputs": [],
      "stateMutability": "nonpayable",
      "type": "function"
    },
    {
      "inputs": [
        {
          "internalType": "address[]",
          "name": "players",
          "type": "address[]"
        }
      ],
      "name": "startArenaSession",
      "outputs": [
        {
          "internalType": "uint256",
          "name": "",
          "type": "uint256"
        }
      ],
      "stateMutability": "nonpayable",
      "type": "function"
    },
    {
      "inputs": [
        {
          "internalType": "uint256",
          "name": "arenaId",
          "type": "uint256"
        }
      ],
      "name": "terminateArenaSession",
      "outputs": [],
      "stateMutability": "nonpayable",
      "type": "function"
    },
    {
      "inputs": [
        {
          "internalType": "address",
          "name": "newOwner",
          "type": "address"
        }
      ],
      "name": "transferOwnership",
      "outputs": [],
      "stateMutability": "nonpayable",
      "type": "function"
    }
  ],
  "transactionHash": "0x030d22a272ece7ec6090279bcdcf1d8e78c29c036adf814f3eaf2aa5e899125c",
  "args": [
    4948,
    "0xe7f1725E7734CE288F8367e1Bb143E90bb3F0512"
  ],
  "numDeployments": 1,
  "solcInputHash": "179c5969a6e2a95153c16bf03df6a5b5",
  "bytecode": "0x60a0604052600780546001600160a01b0319908116736168499c0cffcacd319c818142124b7a15e857ab17909155600880549091167301be23585060835e02b77ef475b0cc51aa1e07091790557fd89b2bf150e3b9e13446986e571fb9cab24b13cea0a43ea20a6049a85cc807cc600955600a805464030007a12065ffffffffffff1990911617905534801561009457600080fd5b5060405162001980380380620019808339810160408190526100b59161018a565b6007546001600160a01b031660805281816100cf3361013a565b600754600580546001600160a01b03199081166001600160a01b0393841617909155600854600680546001600160401b03909616600160a01b026001600160e01b03199096169184169190911794909417909355600480549290911691909216179055506101dc9050565b600080546001600160a01b038381166001600160a01b0319831681178455604051919092169283917f8be0079c531659141344cd1fd0a4f28419497f9722a3daafe3b4186f6b6457e09190a35050565b6000806040838503121561019d57600080fd5b82516001600160401b03811681146101b457600080fd5b60208401519092506001600160a01b03811681146101d157600080fd5b809150509250929050565b608051611781620001ff60003960008181610219015261025b01526117816000f3fe608060405234801561001057600080fd5b50600436106100b45760003560e01c80638da5cb5b116100715780638da5cb5b1461013a578063a95752191461015f578063d0ca5f6c14610172578063e6407ffe14610183578063f2fde38b14610196578063fe074236146101a957600080fd5b806302ee2700146100b95780631fe543e3146100ce578063255db6fe146100e1578063322e6edc146100fe5780636c43fc2614610111578063715018a614610132575b600080fd5b6100cc6100c73660046113f5565b6101bc565b005b6100cc6100dc366004611484565b61020e565b6001546100eb9081565b6040519081526020015b60405180910390f35b6100cc61010c366004611526565b61029b565b61012461011f366004611548565b6104cf565b6040516100f5929190611561565b6100cc6105a3565b6000546001600160a01b03165b6040516001600160a01b0390911681526020016100f5565b6100eb61016d3660046115b8565b6105b7565b6004546001600160a01b0316610147565b6100cc610191366004611548565b610b86565b6100cc6101a43660046113f5565b610e81565b6100cc6101b7366004611484565b61028d565b6101c4610efa565b600480546001600160a01b0319166001600160a01b0383169081179091556040517fb470247bc93cda00b99087355b926ca47d43fc2d926a1fc9dda5c26af915d06d90600090a250565b336001600160a01b037f0000000000000000000000000000000000000000000000000000000000000000161461028d5760405163073e64fd60e21b81523360048201526001600160a01b037f00000000000000000000000000000000000000000000000000000000000000001660248201526044015b60405180910390fd5b6102978282610f54565b5050565b60048054604051631895c2d560e31b815233928101929092526000916001600160a01b039091169063c4ae16a890602401602060405180830381865afa1580156102e9573d6000803e3d6000fd5b505050506040513d601f19601f8201168201806040525081019061030d9190611652565b60048054604051630f45db9160e01b815233928101929092529192506000916001600160a01b031690630f45db9190602401602060405180830381865afa15801561035c573d6000803e3d6000fd5b505050506040513d601f19601f82011682018060405250810190610380919061166b565b9050811580159061038f575080155b6103ab5760405162461bcd60e51b81526004016102849061168d565b3360009081526003602052604090205484146104055760405162461bcd60e51b81526020600482015260196024820152782a22a926a4a720aa27a92fa727aa2fa4a72fa9a2a9a9a4a7a760391b6044820152606401610284565b600160008581526002602052604090205460ff16600381111561042a5761042a6116b9565b1461046c5760405162461bcd60e51b815260206004820152601260248201527153455353494f4e5f4e4f545f494e47414d4560701b6044820152606401610284565b6000848152600260208181526040808420805460ff1916909317909255858352600b905280822080546001600160a01b031916331790555185917fe7d4f36ea90437a58d33ed55900254ebec12b5b26a19a52840031656ea43d22091a250505050565b6000818152600260205260408082208151808301909252805460609284929091829060ff166003811115610505576105056116b9565b6003811115610516576105166116b9565b81526020016001820180548060200260200160405190810160405280929190818152602001828054801561057357602002820191906000526020600020905b81546001600160a01b03168152600190910190602001808311610555575b505050505081525050905080600001516003811115610594576105946116b9565b92508060200151915050915091565b6105ab610efa565b6105b56000611314565b565b60048054604051631895c2d560e31b8152339281019290925260009182916001600160a01b03169063c4ae16a890602401602060405180830381865afa158015610605573d6000803e3d6000fd5b505050506040513d601f19601f820116820180604052508101906106299190611652565b60048054604051630f45db9160e01b815233928101929092529192506000916001600160a01b031690630f45db9190602401602060405180830381865afa158015610678573d6000803e3d6000fd5b505050506040513d601f19601f8201168201806040525081019061069c919061166b565b905081158015906106ab575080155b6106c75760405162461bcd60e51b81526004016102849061168d565b6106cf611364565b84516060820181905260181161071e5760405162461bcd60e51b8152602060048201526014602482015273494e56414c49445f53455353494f4e5f53495a4560601b6044820152606401610284565b61072c600180546001019055565b600154608082015260005b8160600151811015610a5657858181518110610755576107556116cf565b6020908102919091018101516001600160a01b0390811691840182905260048054604051631895c2d560e31b81529182019390935291169063c4ae16a890602401602060405180830381865afa1580156107b3573d6000803e3d6000fd5b505050506040513d601f19601f820116820180604052508101906107d79190611652565b60a0830152600480546020840151604051630f45db9160e01b81526001600160a01b03918216938101939093521690630f45db9190602401602060405180830381865afa15801561082c573d6000803e3d6000fd5b505050506040513d601f19601f82011682018060405250810190610850919061166b565b15158252600480546020840151604051639151097960e01b81526001600160a01b03918216938101939093521690639151097990602401602060405180830381865afa1580156108a4573d6000803e3d6000fd5b505050506040513d601f19601f820116820180604052508101906108c89190611652565b60c0830181905260e0830151600191600481106108e7576108e76116cf565b602002018181516108f891906116e5565b90525060a08201511580159061090d57508151155b6109295760405162461bcd60e51b81526004016102849061168d565b6020808301516001600160a01b03166000908152600390915260409020541561098a5760405162461bcd60e51b8152602060048201526013602482015272282620aca2a92fa4a72fa0afa9a2a9a9a4a7a760691b6044820152606401610284565b81604001516001600160a01b031682602001516001600160a01b0316036109e95760405162461bcd60e51b81526020600482015260136024820152724f4e4c595f554e495155455f504c415945525360681b6044820152606401610284565b608082018051600090815260026020908152604080832082870180516001928301805480850182559087528587200180546001600160a01b0319166001600160a01b0392831617905595518151871686526003909452938290209290925591519092169084015201610737565b5060808101513360009081526003602052604090205414610ab25760405162461bcd60e51b815260206004820152601660248201527521a922a0aa27a92fa727aa2fa4a72fa9a2a9a9a4a7a760511b6044820152606401610284565b60015b60038111610b2f5760008260e001518260048110610ad557610ad56116cf565b602002015111610b275760405162461bcd60e51b815260206004820152601a60248201527f4e4f545f454e4f5547485f46414354494f4e5f4d454d424552530000000000006044820152606401610284565b600101610ab5565b50608081018051600090815260026020526040808220805460ff19166001179055915191513392917f5e46cf24ae58c4309e466c6023b279070ace2b57fda12278e6b4cc9322812d4291a360800151949350505050565b60048054604051631895c2d560e31b815233928101929092526000916001600160a01b039091169063c4ae16a890602401602060405180830381865afa158015610bd4573d6000803e3d6000fd5b505050506040513d601f19601f82011682018060405250810190610bf89190611652565b60048054604051630f45db9160e01b815233928101929092529192506000916001600160a01b031690630f45db9190602401602060405180830381865afa158015610c47573d6000803e3d6000fd5b505050506040513d601f19601f82011682018060405250810190610c6b919061166b565b90508115801590610c7a575080155b610c965760405162461bcd60e51b81526004016102849061168d565b336000908152600360205260409020548314610cf05760405162461bcd60e51b81526020600482015260196024820152782a22a926a4a720aa27a92fa727aa2fa4a72fa9a2a9a9a4a7a760391b6044820152606401610284565b600160008481526002602052604090205460ff166003811115610d1557610d156116b9565b14610d575760405162461bcd60e51b815260206004820152601260248201527153455353494f4e5f4e4f545f494e47414d4560701b6044820152606401610284565b6000838152600260208190526040808320805460ff19169092178255600190910154600554600954600654600a5494516305d3b1d360e41b8152600481019290925267ffffffffffffffff600160a01b90910416602482015261ffff640100000000850416604482015263ffffffff938416606482015292821660848401529092916001600160a01b0390911690635d3b1d309060a4016020604051808303816000875af1158015610e0d573d6000803e3d6000fd5b505050506040513d601f19601f82011682018060405250810190610e319190611652565b6000818152600b602052604080822080546001600160a01b031916331790555191925086917fe7d4f36ea90437a58d33ed55900254ebec12b5b26a19a52840031656ea43d2209190a25050505050565b610e89610efa565b6001600160a01b038116610eee5760405162461bcd60e51b815260206004820152602660248201527f4f776e61626c653a206e6577206f776e657220697320746865207a65726f206160448201526564647265737360d01b6064820152608401610284565b610ef781611314565b50565b6000546001600160a01b031633146105b55760405162461bcd60e51b815260206004820181905260248201527f4f776e61626c653a2063616c6c6572206973206e6f7420746865206f776e65726044820152606401610284565b6000828152600b60209081526040808320546001600160a01b031680845260039092528220549091819003610fc05760405162461bcd60e51b815260206004820152601260248201527114d154d4d253d397d35554d517d1561254d560721b6044820152606401610284565b600160008281526002602052604090205460ff166003811115610fe557610fe56116b9565b146110325760405162461bcd60e51b815260206004820152601860248201527f53455353494f4e5f414c52454144595f524557415244454400000000000000006044820152606401610284565b6000818152600260209081526040808320805460ff1916600317815560010154600480548351631dcf023d60e11b815293519295948594859485946001600160a01b0390941693633b9e047a9383820193909291908290030181865afa1580156110a0573d6000803e3d6000fd5b505050506040513d601f19601f820116820180604052508101906110c4919061170c565b905060015b8581116112dd576000878152600260205260408120600101805491965090829081106110f7576110f76116cf565b9060005260206000200160009054906101000a90046001600160a01b031692506103e889828151811061112c5761112c6116cf565b602002602001015161113e9190611729565b6111499060016116e5565b9350876001600160a01b0316836001600160a01b03160361116957600194505b61032084106111e85761117d6004866116e5565b6040516375a877c160e11b81526001600160a01b038581166004830152602482018390529196509083169063eb50ef8290604401600060405180830381600087803b1580156111cb57600080fd5b505af11580156111df573d6000803e3d6000fd5b505050506112bc565b610320841080156111fb57506102588410155b1561120b5761117d6003866116e5565b6102588410801561121e57506101908410155b1561122e5761117d6002866116e5565b61019084108015611240575060c88410155b156112505761117d6001866116e5565b60c88410156112bc576040516375a877c160e11b81526001600160a01b0384811660048301526024820187905283169063eb50ef8290604401600060405180830381600087803b1580156112a357600080fd5b505af11580156112b7573d6000803e3d6000fd5b505050505b6001600160a01b0383166000908152600360205260408120556001016110c9565b5060405186907fd5f32e16607a54657fd5dbd91ad8c33ef665f94f597cdf1ffe286e3f9e8ad0d290600090a2505050505050505050565b600080546001600160a01b038381166001600160a01b0319831681178455604051919092169283917f8be0079c531659141344cd1fd0a4f28419497f9722a3daafe3b4186f6b6457e09190a35050565b60405180610100016040528060001515815260200160006001600160a01b0316815260200160006001600160a01b03168152602001600081526020016000815260200160008152602001600081526020016113bd6113c2565b905290565b60405180608001604052806004906020820280368337509192915050565b6001600160a01b0381168114610ef757600080fd5b60006020828403121561140757600080fd5b8135611412816113e0565b9392505050565b634e487b7160e01b600052604160045260246000fd5b604051601f8201601f1916810167ffffffffffffffff8111828210171561145857611458611419565b604052919050565b600067ffffffffffffffff82111561147a5761147a611419565b5060051b60200190565b6000806040838503121561149757600080fd5b8235915060208084013567ffffffffffffffff8111156114b657600080fd5b8401601f810186136114c757600080fd5b80356114da6114d582611460565b61142f565b81815260059190911b820183019083810190888311156114f957600080fd5b928401925b82841015611517578335825292840192908401906114fe565b80955050505050509250929050565b6000806040838503121561153957600080fd5b50508035926020909101359150565b60006020828403121561155a57600080fd5b5035919050565b6000604082018483526020604081850152818551808452606086019150828701935060005b818110156115ab5784516001600160a01b031683529383019391830191600101611586565b5090979650505050505050565b600060208083850312156115cb57600080fd5b823567ffffffffffffffff8111156115e257600080fd5b8301601f810185136115f357600080fd5b80356116016114d582611460565b81815260059190911b8201830190838101908783111561162057600080fd5b928401925b82841015611647578335611638816113e0565b82529284019290840190611625565b979650505050505050565b60006020828403121561166457600080fd5b5051919050565b60006020828403121561167d57600080fd5b8151801515811461141257600080fd5b6020808252601290820152714143434f554e545f4e4f545f41435449564560701b604082015260600190565b634e487b7160e01b600052602160045260246000fd5b634e487b7160e01b600052603260045260246000fd5b8082018082111561170657634e487b7160e01b600052601160045260246000fd5b92915050565b60006020828403121561171e57600080fd5b8151611412816113e0565b60008261174657634e487b7160e01b600052601260045260246000fd5b50069056fea264697066735822122008199eac7559f1addca561267541c60ccf5dfc07c54dfbf40aab5802880b04f364736f6c63430008100033",
  "devdoc": {
    "kind": "dev",
    "methods": {
      "getArenaSessionData(uint256)": {
        "details": "Returns the address of the Mothora Game Hub Contract*"
      },
      "getMothoraGame()": {
        "details": "Returns the address of the Mothora Game Hub Contract",
        "returns": {
          "_0": "The Mothora Game address*"
        }
      },
      "owner()": {
        "details": "Returns the address of the current owner."
      },
      "renounceOwnership()": {
        "details": "Leaves the contract without owner. It will not be possible to call `onlyOwner` functions anymore. Can only be called by the current owner. NOTE: Renouncing ownership will leave the contract without an owner, thereby removing any functionality that is only available to the owner."
      },
      "setMothoraGame(address)": {
        "details": "Updates the address of the Mothora Game",
        "params": {
          "mothoraGameContractAddress": "The new Mothora Game address*"
        }
      },
      "startArenaSession(address[])": {
        "details": "Starts an arena session",
        "params": {
          "players": "The addresses of players that will participate in the arena"
        },
        "returns": {
          "_0": "arenaId*"
        }
      },
      "terminateArenaSession(uint256)": {
        "details": "Finishes sessions that can be \"terminated\"This function could fetch off-chain information such as winning players through a chainlink adapterFor the current purpose will only determine rewards randomly and give a guaranteed extra reward to the callee of this function",
        "params": {
          "arenaId": "The id of the arena*"
        }
      },
      "transferOwnership(address)": {
        "details": "Transfers ownership of the contract to a new account (`newOwner`). Can only be called by the current owner."
      }
    },
    "version": 1
  },
  "userdoc": {
    "kind": "user",
    "methods": {},
    "version": 1
  },
  "storageLayout": {
    "storage": [
      {
        "astId": 5349,
        "contract": "contracts/Mock/MockArena.sol:MockArena",
        "label": "_owner",
        "offset": 0,
        "slot": "0",
        "type": "t_address"
      },
      {
        "astId": 12406,
        "contract": "contracts/Mock/MockArena.sol:MockArena",
        "label": "arenaSessionsCounter",
        "offset": 0,
        "slot": "1",
        "type": "t_struct(Counter)10384_storage"
      },
      {
        "astId": 12441,
        "contract": "contracts/Mock/MockArena.sol:MockArena",
        "label": "arenaSessionData",
        "offset": 0,
        "slot": "2",
        "type": "t_mapping(t_uint256,t_struct(ArenaData)12436_storage)"
      },
      {
        "astId": 12445,
        "contract": "contracts/Mock/MockArena.sol:MockArena",
        "label": "playerInSession",
        "offset": 0,
        "slot": "3",
        "type": "t_mapping(t_address,t_uint256)"
      },
      {
        "astId": 12448,
        "contract": "contracts/Mock/MockArena.sol:MockArena",
        "label": "mothoraGameContract",
        "offset": 0,
        "slot": "4",
        "type": "t_contract(MothoraGame)12269"
      },
      {
        "astId": 12454,
        "contract": "contracts/Mock/MockArena.sol:MockArena",
        "label": "COORDINATOR",
        "offset": 0,
        "slot": "5",
        "type": "t_contract(VRFCoordinatorV2Interface)248"
      },
      {
        "astId": 12457,
        "contract": "contracts/Mock/MockArena.sol:MockArena",
        "label": "LINKTOKEN",
        "offset": 0,
        "slot": "6",
        "type": "t_contract(LinkTokenInterface)152"
      },
      {
        "astId": 12459,
        "contract": "contracts/Mock/MockArena.sol:MockArena",
        "label": "s_subscriptionId",
        "offset": 20,
        "slot": "6",
        "type": "t_uint64"
      },
      {
        "astId": 12462,
        "contract": "contracts/Mock/MockArena.sol:MockArena",
        "label": "vrfCoordinator",
        "offset": 0,
        "slot": "7",
        "type": "t_address"
      },
      {
        "astId": 12465,
        "contract": "contracts/Mock/MockArena.sol:MockArena",
        "label": "link",
        "offset": 0,
        "slot": "8",
        "type": "t_address"
      },
      {
        "astId": 12468,
        "contract": "contracts/Mock/MockArena.sol:MockArena",
        "label": "keyHash",
        "offset": 0,
        "slot": "9",
        "type": "t_bytes32"
      },
      {
        "astId": 12471,
        "contract": "contracts/Mock/MockArena.sol:MockArena",
        "label": "callbackGasLimit",
        "offset": 0,
        "slot": "10",
        "type": "t_uint32"
      },
      {
        "astId": 12474,
        "contract": "contracts/Mock/MockArena.sol:MockArena",
        "label": "requestConfirmations",
        "offset": 4,
        "slot": "10",
        "type": "t_uint16"
      },
      {
        "astId": 12478,
        "contract": "contracts/Mock/MockArena.sol:MockArena",
        "label": "randomIdToTerminator",
        "offset": 0,
        "slot": "11",
        "type": "t_mapping(t_uint256,t_address)"
      }
    ],
    "types": {
      "t_address": {
        "encoding": "inplace",
        "label": "address",
        "numberOfBytes": "20"
      },
      "t_array(t_address)dyn_storage": {
        "base": "t_address",
        "encoding": "dynamic_array",
        "label": "address[]",
        "numberOfBytes": "32"
      },
      "t_bytes32": {
        "encoding": "inplace",
        "label": "bytes32",
        "numberOfBytes": "32"
      },
      "t_contract(LinkTokenInterface)152": {
        "encoding": "inplace",
        "label": "contract LinkTokenInterface",
        "numberOfBytes": "20"
      },
      "t_contract(MothoraGame)12269": {
        "encoding": "inplace",
        "label": "contract MothoraGame",
        "numberOfBytes": "20"
      },
      "t_contract(VRFCoordinatorV2Interface)248": {
        "encoding": "inplace",
        "label": "contract VRFCoordinatorV2Interface",
        "numberOfBytes": "20"
      },
      "t_enum(Status)12429": {
        "encoding": "inplace",
        "label": "enum Arena.Status",
        "numberOfBytes": "1"
      },
      "t_mapping(t_address,t_uint256)": {
        "encoding": "mapping",
        "key": "t_address",
        "label": "mapping(address => uint256)",
        "numberOfBytes": "32",
        "value": "t_uint256"
      },
      "t_mapping(t_uint256,t_address)": {
        "encoding": "mapping",
        "key": "t_uint256",
        "label": "mapping(uint256 => address)",
        "numberOfBytes": "32",
        "value": "t_address"
      },
      "t_mapping(t_uint256,t_struct(ArenaData)12436_storage)": {
        "encoding": "mapping",
        "key": "t_uint256",
        "label": "mapping(uint256 => struct Arena.ArenaData)",
        "numberOfBytes": "32",
        "value": "t_struct(ArenaData)12436_storage"
      },
      "t_struct(ArenaData)12436_storage": {
        "encoding": "inplace",
        "label": "struct Arena.ArenaData",
        "members": [
          {
            "astId": 12432,
            "contract": "contracts/Mock/MockArena.sol:MockArena",
            "label": "status",
            "offset": 0,
            "slot": "0",
            "type": "t_enum(Status)12429"
          },
          {
            "astId": 12435,
            "contract": "contracts/Mock/MockArena.sol:MockArena",
            "label": "players",
            "offset": 0,
            "slot": "1",
            "type": "t_array(t_address)dyn_storage"
          }
        ],
        "numberOfBytes": "64"
      },
      "t_struct(Counter)10384_storage": {
        "encoding": "inplace",
        "label": "struct Counters.Counter",
        "members": [
          {
            "astId": 10383,
            "contract": "contracts/Mock/MockArena.sol:MockArena",
            "label": "_value",
            "offset": 0,
            "slot": "0",
            "type": "t_uint256"
          }
        ],
        "numberOfBytes": "32"
      },
      "t_uint16": {
        "encoding": "inplace",
        "label": "uint16",
        "numberOfBytes": "2"
      },
      "t_uint256": {
        "encoding": "inplace",
        "label": "uint256",
        "numberOfBytes": "32"
      },
      "t_uint32": {
        "encoding": "inplace",
        "label": "uint32",
        "numberOfBytes": "4"
      },
      "t_uint64": {
        "encoding": "inplace",
        "label": "uint64",
        "numberOfBytes": "8"
      }
    }
  }
}