{
  "address": "0x5FbDB2315678afecb367f032d93F642f64180aa3",
  "abi": [
    {
      "anonymous": false,
      "inputs": [
        {
          "indexed": true,
          "internalType": "address",
          "name": "player",
          "type": "address"
        },
        {
          "indexed": false,
          "internalType": "uint256",
          "name": "id",
          "type": "uint256"
        }
      ],
      "name": "AccountCreated",
      "type": "event"
    },
    {
      "anonymous": false,
      "inputs": [
        {
          "indexed": true,
          "internalType": "address",
          "name": "player",
          "type": "address"
        },
        {
          "indexed": false,
          "internalType": "bool",
          "name": "freezeStatus",
          "type": "bool"
        }
      ],
      "name": "AccountStatusChanged",
      "type": "event"
    },
    {
      "anonymous": false,
      "inputs": [
        {
          "indexed": true,
          "internalType": "address",
          "name": "arenaModule",
          "type": "address"
        }
      ],
      "name": "ArenaModuleUpdated",
      "type": "event"
    },
    {
      "anonymous": false,
      "inputs": [
        {
          "indexed": true,
          "internalType": "address",
          "name": "artifacts",
          "type": "address"
        }
      ],
      "name": "ArtifactsModuleUpdated",
      "type": "event"
    },
    {
      "anonymous": false,
      "inputs": [
        {
          "indexed": true,
          "internalType": "address",
          "name": "cosmetics",
          "type": "address"
        }
      ],
      "name": "CosmeticsModuleUpdated",
      "type": "event"
    },
    {
      "anonymous": false,
      "inputs": [
        {
          "indexed": true,
          "internalType": "address",
          "name": "craftingModule",
          "type": "address"
        }
      ],
      "name": "CraftingModuleUpdated",
      "type": "event"
    },
    {
      "anonymous": false,
      "inputs": [
        {
          "indexed": true,
          "internalType": "address",
          "name": "essenceAbsorber",
          "type": "address"
        }
      ],
      "name": "EssenceAbsorberUpdated",
      "type": "event"
    },
    {
      "anonymous": false,
      "inputs": [
        {
          "indexed": true,
          "internalType": "address",
          "name": "essenceField",
          "type": "address"
        }
      ],
      "name": "EssenceFieldUpdated",
      "type": "event"
    },
    {
      "anonymous": false,
      "inputs": [
        {
          "indexed": true,
          "internalType": "address",
          "name": "essence",
          "type": "address"
        }
      ],
      "name": "EssenceUpdated",
      "type": "event"
    },
    {
      "anonymous": false,
      "inputs": [
        {
          "indexed": false,
          "internalType": "uint8",
          "name": "version",
          "type": "uint8"
        }
      ],
      "name": "Initialized",
      "type": "event"
    },
    {
      "anonymous": false,
      "inputs": [
        {
          "indexed": true,
          "internalType": "bytes32",
          "name": "role",
          "type": "bytes32"
        },
        {
          "indexed": true,
          "internalType": "bytes32",
          "name": "previousAdminRole",
          "type": "bytes32"
        },
        {
          "indexed": true,
          "internalType": "bytes32",
          "name": "newAdminRole",
          "type": "bytes32"
        }
      ],
      "name": "RoleAdminChanged",
      "type": "event"
    },
    {
      "anonymous": false,
      "inputs": [
        {
          "indexed": true,
          "internalType": "bytes32",
          "name": "role",
          "type": "bytes32"
        },
        {
          "indexed": true,
          "internalType": "address",
          "name": "account",
          "type": "address"
        },
        {
          "indexed": true,
          "internalType": "address",
          "name": "sender",
          "type": "address"
        }
      ],
      "name": "RoleGranted",
      "type": "event"
    },
    {
      "anonymous": false,
      "inputs": [
        {
          "indexed": true,
          "internalType": "bytes32",
          "name": "role",
          "type": "bytes32"
        },
        {
          "indexed": true,
          "internalType": "address",
          "name": "account",
          "type": "address"
        },
        {
          "indexed": true,
          "internalType": "address",
          "name": "sender",
          "type": "address"
        }
      ],
      "name": "RoleRevoked",
      "type": "event"
    },
    {
      "inputs": [],
      "name": "DEFAULT_ADMIN_ROLE",
      "outputs": [
        {
          "internalType": "bytes32",
          "name": "",
          "type": "bytes32"
        }
      ],
      "stateMutability": "view",
      "type": "function"
    },
    {
      "inputs": [],
      "name": "MOTHORA_GAME_MASTER",
      "outputs": [
        {
          "internalType": "bytes32",
          "name": "",
          "type": "bytes32"
        }
      ],
      "stateMutability": "view",
      "type": "function"
    },
    {
      "inputs": [],
      "name": "accountsCounter",
      "outputs": [
        {
          "internalType": "uint256",
          "name": "_value",
          "type": "uint256"
        }
      ],
      "stateMutability": "view",
      "type": "function"
    },
    {
      "inputs": [
        {
          "internalType": "address",
          "name": "player",
          "type": "address"
        },
        {
          "internalType": "bool",
          "name": "freezeStatus",
          "type": "bool"
        }
      ],
      "name": "changeFreezeStatus",
      "outputs": [],
      "stateMutability": "nonpayable",
      "type": "function"
    },
    {
      "inputs": [
        {
          "internalType": "uint256",
          "name": "faction",
          "type": "uint256"
        }
      ],
      "name": "createAccount",
      "outputs": [],
      "stateMutability": "nonpayable",
      "type": "function"
    },
    {
      "inputs": [
        {
          "internalType": "uint256",
          "name": "newFaction",
          "type": "uint256"
        }
      ],
      "name": "defect",
      "outputs": [],
      "stateMutability": "nonpayable",
      "type": "function"
    },
    {
      "inputs": [
        {
          "internalType": "bytes32",
          "name": "id",
          "type": "bytes32"
        }
      ],
      "name": "getAddress",
      "outputs": [
        {
          "internalType": "address",
          "name": "",
          "type": "address"
        }
      ],
      "stateMutability": "view",
      "type": "function"
    },
    {
      "inputs": [],
      "name": "getArena",
      "outputs": [
        {
          "internalType": "address",
          "name": "",
          "type": "address"
        }
      ],
      "stateMutability": "view",
      "type": "function"
    },
    {
      "inputs": [],
      "name": "getArtifacts",
      "outputs": [
        {
          "internalType": "address",
          "name": "",
          "type": "address"
        }
      ],
      "stateMutability": "view",
      "type": "function"
    },
    {
      "inputs": [],
      "name": "getCosmetics",
      "outputs": [
        {
          "internalType": "address",
          "name": "",
          "type": "address"
        }
      ],
      "stateMutability": "view",
      "type": "function"
    },
    {
      "inputs": [],
      "name": "getCrafting",
      "outputs": [
        {
          "internalType": "address",
          "name": "",
          "type": "address"
        }
      ],
      "stateMutability": "view",
      "type": "function"
    },
    {
      "inputs": [],
      "name": "getEssence",
      "outputs": [
        {
          "internalType": "address",
          "name": "",
          "type": "address"
        }
      ],
      "stateMutability": "view",
      "type": "function"
    },
    {
      "inputs": [],
      "name": "getEssenceAbsorber",
      "outputs": [
        {
          "internalType": "address",
          "name": "",
          "type": "address"
        }
      ],
      "stateMutability": "view",
      "type": "function"
    },
    {
      "inputs": [],
      "name": "getEssenceField",
      "outputs": [
        {
          "internalType": "address",
          "name": "",
          "type": "address"
        }
      ],
      "stateMutability": "view",
      "type": "function"
    },
    {
      "inputs": [
        {
          "internalType": "address",
          "name": "player",
          "type": "address"
        }
      ],
      "name": "getPlayerFaction",
      "outputs": [
        {
          "internalType": "uint256",
          "name": "",
          "type": "uint256"
        }
      ],
      "stateMutability": "view",
      "type": "function"
    },
    {
      "inputs": [
        {
          "internalType": "address",
          "name": "player",
          "type": "address"
        }
      ],
      "name": "getPlayerId",
      "outputs": [
        {
          "internalType": "uint256",
          "name": "",
          "type": "uint256"
        }
      ],
      "stateMutability": "view",
      "type": "function"
    },
    {
      "inputs": [
        {
          "internalType": "address",
          "name": "player",
          "type": "address"
        }
      ],
      "name": "getPlayerStatus",
      "outputs": [
        {
          "internalType": "bool",
          "name": "",
          "type": "bool"
        }
      ],
      "stateMutability": "view",
      "type": "function"
    },
    {
      "inputs": [
        {
          "internalType": "bytes32",
          "name": "role",
          "type": "bytes32"
        }
      ],
      "name": "getRoleAdmin",
      "outputs": [
        {
          "internalType": "bytes32",
          "name": "",
          "type": "bytes32"
        }
      ],
      "stateMutability": "view",
      "type": "function"
    },
    {
      "inputs": [
        {
          "internalType": "bytes32",
          "name": "role",
          "type": "bytes32"
        },
        {
          "internalType": "uint256",
          "name": "index",
          "type": "uint256"
        }
      ],
      "name": "getRoleMember",
      "outputs": [
        {
          "internalType": "address",
          "name": "",
          "type": "address"
        }
      ],
      "stateMutability": "view",
      "type": "function"
    },
    {
      "inputs": [
        {
          "internalType": "bytes32",
          "name": "role",
          "type": "bytes32"
        }
      ],
      "name": "getRoleMemberCount",
      "outputs": [
        {
          "internalType": "uint256",
          "name": "",
          "type": "uint256"
        }
      ],
      "stateMutability": "view",
      "type": "function"
    },
    {
      "inputs": [
        {
          "internalType": "bytes32",
          "name": "role",
          "type": "bytes32"
        },
        {
          "internalType": "address",
          "name": "account",
          "type": "address"
        }
      ],
      "name": "grantRole",
      "outputs": [],
      "stateMutability": "nonpayable",
      "type": "function"
    },
    {
      "inputs": [
        {
          "internalType": "bytes32",
          "name": "role",
          "type": "bytes32"
        },
        {
          "internalType": "address",
          "name": "account",
          "type": "address"
        }
      ],
      "name": "hasRole",
      "outputs": [
        {
          "internalType": "bool",
          "name": "",
          "type": "bool"
        }
      ],
      "stateMutability": "view",
      "type": "function"
    },
    {
      "inputs": [],
      "name": "init",
      "outputs": [],
      "stateMutability": "nonpayable",
      "type": "function"
    },
    {
      "inputs": [
        {
          "internalType": "bytes32",
          "name": "role",
          "type": "bytes32"
        },
        {
          "internalType": "address",
          "name": "account",
          "type": "address"
        }
      ],
      "name": "renounceRole",
      "outputs": [],
      "stateMutability": "nonpayable",
      "type": "function"
    },
    {
      "inputs": [
        {
          "internalType": "bytes32",
          "name": "role",
          "type": "bytes32"
        },
        {
          "internalType": "address",
          "name": "account",
          "type": "address"
        }
      ],
      "name": "revokeRole",
      "outputs": [],
      "stateMutability": "nonpayable",
      "type": "function"
    },
    {
      "inputs": [
        {
          "internalType": "address",
          "name": "arenaModule",
          "type": "address"
        }
      ],
      "name": "setArena",
      "outputs": [],
      "stateMutability": "nonpayable",
      "type": "function"
    },
    {
      "inputs": [
        {
          "internalType": "address",
          "name": "artifacts",
          "type": "address"
        }
      ],
      "name": "setArtifacts",
      "outputs": [],
      "stateMutability": "nonpayable",
      "type": "function"
    },
    {
      "inputs": [
        {
          "internalType": "address",
          "name": "cosmetics",
          "type": "address"
        }
      ],
      "name": "setCosmetics",
      "outputs": [],
      "stateMutability": "nonpayable",
      "type": "function"
    },
    {
      "inputs": [
        {
          "internalType": "address",
          "name": "crafting",
          "type": "address"
        }
      ],
      "name": "setCrafting",
      "outputs": [],
      "stateMutability": "nonpayable",
      "type": "function"
    },
    {
      "inputs": [
        {
          "internalType": "address",
          "name": "essence",
          "type": "address"
        }
      ],
      "name": "setEssence",
      "outputs": [],
      "stateMutability": "nonpayable",
      "type": "function"
    },
    {
      "inputs": [
        {
          "internalType": "address",
          "name": "essenceAbsorber",
          "type": "address"
        }
      ],
      "name": "setEssenceAbsorber",
      "outputs": [],
      "stateMutability": "nonpayable",
      "type": "function"
    },
    {
      "inputs": [
        {
          "internalType": "address",
          "name": "essenceField",
          "type": "address"
        }
      ],
      "name": "setEssenceField",
      "outputs": [],
      "stateMutability": "nonpayable",
      "type": "function"
    },
    {
      "inputs": [
        {
          "internalType": "bytes4",
          "name": "interfaceId",
          "type": "bytes4"
        }
      ],
      "name": "supportsInterface",
      "outputs": [
        {
          "internalType": "bool",
          "name": "",
          "type": "bool"
        }
      ],
      "stateMutability": "view",
      "type": "function"
    },
    {
      "inputs": [
        {
          "internalType": "uint256",
          "name": "",
          "type": "uint256"
        }
      ],
      "name": "totalFactionMembers",
      "outputs": [
        {
          "internalType": "uint256",
          "name": "",
          "type": "uint256"
        }
      ],
      "stateMutability": "view",
      "type": "function"
    }
  ],
  "transactionHash": "0xf26c66fc3f8e8a56f836c2b7f9d49c2cbd3e04c97fc90a2b079a8d907ea08c48",
  "args": [],
  "numDeployments": 1,
  "solcInputHash": "179c5969a6e2a95153c16bf03df6a5b5",
  "bytecode": "0x608060405234801561001057600080fd5b50611c54806100206000396000f3fe608060405234801561001057600080fd5b50600436106102065760003560e01c80638a5399721161011a578063abd5fed8116100ad578063ca15c8731161007c578063ca15c8731461045b578063cab139151461046e578063d547741f14610481578063e1c7392a14610494578063ea0478781461049c57600080fd5b8063abd5fed81461041a578063ad53b6da14610422578063b2a5d3b91461042a578063c4ae16a81461043257600080fd5b806391d14854116100e957806391d14854146103d75780639254527f146103ea578063a217fddf146103fd578063a95067f21461040557600080fd5b80638a5399721461038b5780638f0ecae21461039e5780639010d07c146103b157806391510979146103c457600080fd5b8063309355091161019d5780634da934c21161016c5780634da934c2146103425780634fb9d2cb1461034a57806361eed2aa1461035d5780636b0fac4c14610365578063834b72a91461037857600080fd5b80633093550914610301578063327fb65d1461031457806336568abe146103275780633b9e047a1461033a57600080fd5b80631d8e5831116101d95780631d8e58311461029757806321f8a721146102aa578063248a9ca3146102bd5780632f2ff15d146102ee57600080fd5b806301ffc9a71461020b57806306274eac146102335780630f45db91146102535780631bd5ff2814610282575b600080fd5b61021e61021936600461194b565b6104a6565b60405190151581526020015b60405180910390f35b61023b6104d1565b6040516001600160a01b03909116815260200161022a565b61021e610261366004611991565b6001600160a01b0316600090815260ce602052604090206001015460ff1690565b610295610290366004611991565b6104eb565b005b6102956102a5366004611991565b61057f565b61023b6102b83660046119ac565b610617565b6102e06102cb3660046119ac565b60009081526065602052604090206001015490565b60405190815260200161022a565b6102956102fc3660046119c5565b610632565b6102e061030f3660046119ac565b61065c565b610295610322366004611991565b610673565b6102956103353660046119c5565b610712565b61023b610795565b61023b6107ac565b610295610358366004611991565b6107ca565b61023b610861565b610295610373366004611991565b61087c565b6102956103863660046119f1565b610918565b6102956103993660046119ac565b6109f3565b6102956103ac366004611991565b610c33565b61023b6103bf366004611a2d565b610cc9565b6102e06103d2366004611991565b610ce8565b61021e6103e53660046119c5565b610d1d565b6102956103f8366004611991565b610d48565b6102e0600081565b6102e0600080516020611bff83398151915281565b61023b610de0565b61023b610df6565b61023b610e09565b6102e0610440366004611991565b6001600160a01b0316600090815260ce602052604090205490565b6102e06104693660046119ac565b610e20565b61029561047c3660046119ac565b610e37565b61029561048f3660046119c5565b610eae565b610295610ed3565b60c9546102e09081565b60006001600160e01b03198216635a05180f60e01b14806104cb57506104cb82611014565b92915050565b60006104e666455353454e434560c81b610617565b905090565b600080516020611bff83398151915261050381611049565b644152454e4160d81b600090815260cf6020527f1c1482a6e4c430abf977888e36ee01e787353e92104639a3b812139c2124eab180546001600160a01b0319166001600160a01b03851690811790915560405190917fc290807c26b42ea6c384feb90afc6dec8c5e32d56cbaf28480328d8e9f0baee591a25050565b600080516020611bff83398151915261059781611049565b68434f534d455449435360b81b600090815260cf6020527fbdd08949051b0175f516e4ddd291cd146298b5efc7358bf8023f9b03d0dbb13580546001600160a01b0319166001600160a01b03851690811790915560405190917feafd8faf15e6d5b5f2c5c4f0d3bec2685700676ded6ebc74231e680ea607c59f91a25050565b600090815260cf60205260409020546001600160a01b031690565b60008281526065602052604090206001015461064d81611049565b6106578383611053565b505050565b60ca816004811061066c57600080fd5b0154905081565b600080516020611bff83398151915261068b81611049565b6f22a9a9a2a721a2afa0a129a7a92122a960811b600090815260cf6020527fa4a05b94b01e8494d4ec1eea7ad6c14353dcfde00046338ae84cebf7990cb5ef80546001600160a01b0319166001600160a01b03851690811790915560405190917f74bcf1eddae7cc31c9a296e62b953f72dd67983f386bc7d7beb3f84742f8b7d291a25050565b6001600160a01b03811633146107875760405162461bcd60e51b815260206004820152602f60248201527f416363657373436f6e74726f6c3a2063616e206f6e6c792072656e6f756e636560448201526e103937b632b9903337b91039b2b63360891b60648201526084015b60405180910390fd5b6107918282611075565b5050565b60006104e66841525449464143545360b81b610617565b60006104e66f22a9a9a2a721a2afa0a129a7a92122a960811b610617565b600080516020611bff8339815191526107e281611049565b674352414654494e4760c01b600090815260cf6020527f27ed609da7cb87df41ce329a71ec7ddc440e059cfc077ec894855bdac46e153580546001600160a01b0319166001600160a01b03851690811790915560405190917f7f79dc6d12f7c9b7721f35ca9d39bb057995cf73d516d18ecb115fe6e0a318bb91a25050565b60006104e66c1154d4d15390d157d192515311609a1b610617565b600080516020611bff83398151915261089481611049565b6c1154d4d15390d157d192515311609a1b600090815260cf6020527f6ebd36032615b87f6a0400423044ae80a04de6f2ca2f30ccddb2c07e26ba4de280546001600160a01b0319166001600160a01b03851690811790915560405190917f58e1e0df15d41077a42c847c2abbdb1cfe2e8f96e895738ef4440fad830e39f691a25050565b600080516020611bff83398151915261093081611049565b6001600160a01b038316600090815260ce602052604081205490036109905760405162461bcd60e51b81526020600482015260166024820152751050d0d3d5539517d113d154d7d393d517d1561254d560521b604482015260640161077e565b6001600160a01b038316600081815260ce6020908152604091829020600101805460ff191686151590811790915591519182527f5923cec9cc42a5a043858dae8eeba878c8d559be9e11376f389e686033c131a9910160405180910390a2505050565b33600090815260ce60205260409020805460019091015460ff168115801590610a1a575080155b610a5b5760405162461bcd60e51b81526020600482015260126024820152714143434f554e545f4e4f545f41435449564560701b604482015260640161077e565b8260011480610a6a5750826002145b80610a755750826003145b610ac15760405162461bcd60e51b815260206004820152601860248201527f494e56414c49445f46414354494f4e5f53454c45435445440000000000000000604482015260640161077e565b6000610acc33610ce8565b9050808403610b1d5760405162461bcd60e51b815260206004820152601d60248201527f43414e4e4f545f4445464543545f544f5f53414d455f46414354494f4e000000604482015260640161077e565b600160ca8260048110610b3257610b32611a4f565b016000828254610b429190611a7b565b9091555050600184148015610b58575080600114155b15610b9d5733600090815260ce602052604090206001908101805461ff00191661010017905560ca815b016000828254610b929190611aa4565b90915550610c2d9050565b836002148015610bae575080600214155b15610bdd5733600090815260ce602052604090206001908101805461ff00191661020017905560ca6002610b82565b836003148015610bee575080600314155b15610c2d5733600090815260ce602052604081206001908101805461ff00191661030017905560cd805491929091610c27908490611aa4565b90915550505b50505050565b600080516020611bff833981519152610c4b81611049565b66455353454e434560c81b600090815260cf6020527fc4ee89588833fed99fa97e0a5c7af38853a7e156284de3ecfe35703f70075a4880546001600160a01b0319166001600160a01b03851690811790915560405190917fd20bffd68db7030ca02bc1a93cc6660a7ddf14fa4ea681734d1f156ddfb1ee6291a25050565b6000828152609760205260408120610ce19083611097565b9392505050565b6001600160a01b038116600090815260ce6020526040812060010154610100900460ff1660038111156104cb576104cb611a8e565b60009182526065602090815260408084206001600160a01b0393909316845291905290205460ff1690565b600080516020611bff833981519152610d6081611049565b6841525449464143545360b81b600090815260cf6020527f24b7bca84ebf46ad0ce79ba8cf6cae44b9934380ac67460ad198b7e9298314e580546001600160a01b0319166001600160a01b03851690811790915560405190917ff4d8b3e7d1fe0e09e6395ee1c7bf2bff856d2915de2a99de0482a93ef9114ab391a25050565b60006104e6674352414654494e4760c01b610617565b60006104e6644152454e4160d81b610617565b60006104e668434f534d455449435360b81b610617565b60008181526097602052604081206104cb906110a3565b610e40816110ad565b610e4e60c980546001019055565b6000610e5960c95490565b33600090815260ce602052604090208190559050610e7561123e565b60405181815233907f7325fb14450d3e5eb288c620b4ff1d6b43a41b33b4a4f143ae88cd4c12f99ea39060200160405180910390a25050565b600082815260656020526040902060010154610ec981611049565b6106578383611075565b600054610100900460ff1615808015610ef35750600054600160ff909116105b80610f0d5750303b158015610f0d575060005460ff166001145b610f705760405162461bcd60e51b815260206004820152602e60248201527f496e697469616c697a61626c653a20636f6e747261637420697320616c72656160448201526d191e481a5b9a5d1a585b1a5e995960921b606482015260840161077e565b6000805460ff191660011790558015610f93576000805461ff0019166101001790555b610fab600080516020611bff83398151915280611410565b610fc3600080516020611bff83398151915233611053565b610fcb61145b565b8015611011576000805461ff0019169055604051600181527f7f26b83ff96e1f2b6a682f133852f6798a09c465da95921460cefb38474024989060200160405180910390a15b50565b60006001600160e01b03198216637965db0b60e01b14806104cb57506301ffc9a760e01b6001600160e01b03198316146104cb565b61101181336114c8565b61105d828261152c565b600082815260976020526040902061065790826115b2565b61107f82826115c7565b6000828152609760205260409020610657908261162e565b6000610ce18383611643565b60006104cb825490565b600033600090815260ce6020526040902060010154610100900460ff1660038111156110db576110db611a8e565b146111285760405162461bcd60e51b815260206004820152601a60248201527f504c415945525f414c52454144595f4841535f46414354494f4e000000000000604482015260640161077e565b80600114806111375750806002145b806111425750806003145b6111805760405162461bcd60e51b815260206004820152600f60248201526e24a72b20a624a22fa320a1aa24a7a760891b604482015260640161077e565b806001036111c85733600090815260ce602052604090206001908101805461ff00191661010017905560ca815b0160008282546111bd9190611aa4565b909155506110119050565b806002036111fa5733600090815260ce602052604090206001908101805461ff00191661020017905560ca60026111ad565b806003036110115733600090815260ce602052604081206001908101805461ff00191661030017905560cd805491929091611236908490611aa4565b909155505050565b600033600090815260ce6020526040902060010154610100900460ff16600381111561126c5761126c611a8e565b036112b15760405162461bcd60e51b8152602060048201526015602482015274282620aca2a92fa420a9afa727afa320a1aa24a7a760591b604482015260640161077e565b33600090815260ce6020526040812060010154610100900460ff1660038111156112dd576112dd611a8e565b90506112e7610e09565b604051627eeac760e11b8152336004820152602481018390526001600160a01b03919091169062fdd58e90604401602060405180830381865afa158015611332573d6000803e3d6000fd5b505050506040513d601f19601f820116820180604052508101906113569190611ab7565b156113a35760405162461bcd60e51b815260206004820152601960248201527f4f4e4c595f4f4e455f534b494e5f5045525f46414354494f4e00000000000000604482015260640161077e565b6113ab610e09565b60405163053fe11760e21b8152336004820152602481018390526001600160a01b0391909116906314ff845c90604401600060405180830381600087803b1580156113f557600080fd5b505af1158015611409573d6000803e3d6000fd5b5050505050565b600082815260656020526040808220600101805490849055905190918391839186917fbd79b86ffe0ab8e8776151514217cd7cacd52c909f66475c3af44e129f0b00ff9190a4505050565b600054610100900460ff166114c65760405162461bcd60e51b815260206004820152602b60248201527f496e697469616c697a61626c653a20636f6e7472616374206973206e6f74206960448201526a6e697469616c697a696e6760a81b606482015260840161077e565b565b6114d28282610d1d565b610791576114ea816001600160a01b0316601461166d565b6114f583602061166d565b604051602001611506929190611af4565b60408051601f198184030181529082905262461bcd60e51b825261077e91600401611b69565b6115368282610d1d565b6107915760008281526065602090815260408083206001600160a01b03851684529091529020805460ff1916600117905561156e3390565b6001600160a01b0316816001600160a01b0316837f2f8788117e7eff1d82e926ec794901d17c78024a50270940304540a733656f0d60405160405180910390a45050565b6000610ce1836001600160a01b038416611809565b6115d18282610d1d565b156107915760008281526065602090815260408083206001600160a01b0385168085529252808320805460ff1916905551339285917ff6391f5c32d9c69d2a47ea670b442974b53935d1edc7fd64eb21e047a839171b9190a45050565b6000610ce1836001600160a01b038416611858565b600082600001828154811061165a5761165a611a4f565b9060005260206000200154905092915050565b6060600061167c836002611b9c565b611687906002611aa4565b67ffffffffffffffff81111561169f5761169f611bbb565b6040519080825280601f01601f1916602001820160405280156116c9576020820181803683370190505b509050600360fc1b816000815181106116e4576116e4611a4f565b60200101906001600160f81b031916908160001a905350600f60fb1b8160018151811061171357611713611a4f565b60200101906001600160f81b031916908160001a9053506000611737846002611b9c565b611742906001611aa4565b90505b60018111156117ba576f181899199a1a9b1b9c1cb0b131b232b360811b85600f166010811061177657611776611a4f565b1a60f81b82828151811061178c5761178c611a4f565b60200101906001600160f81b031916908160001a90535060049490941c936117b381611bd1565b9050611745565b508315610ce15760405162461bcd60e51b815260206004820181905260248201527f537472696e67733a20686578206c656e67746820696e73756666696369656e74604482015260640161077e565b6000818152600183016020526040812054611850575081546001818101845560008481526020808220909301849055845484825282860190935260409020919091556104cb565b5060006104cb565b6000818152600183016020526040812054801561194157600061187c600183611a7b565b855490915060009061189090600190611a7b565b90508181146118f55760008660000182815481106118b0576118b0611a4f565b90600052602060002001549050808760000184815481106118d3576118d3611a4f565b6000918252602080832090910192909255918252600188019052604090208390555b855486908061190657611906611be8565b6001900381819060005260206000200160009055905585600101600086815260200190815260200160002060009055600193505050506104cb565b60009150506104cb565b60006020828403121561195d57600080fd5b81356001600160e01b031981168114610ce157600080fd5b80356001600160a01b038116811461198c57600080fd5b919050565b6000602082840312156119a357600080fd5b610ce182611975565b6000602082840312156119be57600080fd5b5035919050565b600080604083850312156119d857600080fd5b823591506119e860208401611975565b90509250929050565b60008060408385031215611a0457600080fd5b611a0d83611975565b915060208301358015158114611a2257600080fd5b809150509250929050565b60008060408385031215611a4057600080fd5b50508035926020909101359150565b634e487b7160e01b600052603260045260246000fd5b634e487b7160e01b600052601160045260246000fd5b818103818111156104cb576104cb611a65565b634e487b7160e01b600052602160045260246000fd5b808201808211156104cb576104cb611a65565b600060208284031215611ac957600080fd5b5051919050565b60005b83811015611aeb578181015183820152602001611ad3565b50506000910152565b7f416363657373436f6e74726f6c3a206163636f756e7420000000000000000000815260008351611b2c816017850160208801611ad0565b7001034b99036b4b9b9b4b733903937b6329607d1b6017918401918201528351611b5d816028840160208801611ad0565b01602801949350505050565b6020815260008251806020840152611b88816040850160208701611ad0565b601f01601f19169190910160400192915050565b6000816000190483118215151615611bb657611bb6611a65565b500290565b634e487b7160e01b600052604160045260246000fd5b600081611be057611be0611a65565b506000190190565b634e487b7160e01b600052603160045260246000fdfece2cbeb9915fd38406d762e76a712d13417d9fc0556e7f36bf9467d5cb3e24c7a2646970667358221220cd3ab3ecec37d6da06dd45e6e6461c92e58cc19f70b6a4aa26a8d08de63fb58564736f6c63430008100033",
  "devdoc": {
    "kind": "dev",
    "methods": {
      "changeFreezeStatus(address,bool)": {
        "details": "Freezes an account for a player",
        "params": {
          "freezeStatus": "Whether to freeze or unfreeze the account*",
          "player": "The address of the player whose account is being frozen"
        }
      },
      "createAccount(uint256)": {
        "details": "Creates an account for a player",
        "params": {
          "faction": "The selected faction id*"
        }
      },
      "getAddress(bytes32)": {
        "details": "Returns an address by id",
        "returns": {
          "_0": "The address"
        }
      },
      "getArena()": {
        "details": "Returns the address of the ARENA",
        "returns": {
          "_0": "The ARENA address*"
        }
      },
      "getArtifacts()": {
        "details": "Returns the address of the ARTIFACTS",
        "returns": {
          "_0": "The ARTIFACTS address*"
        }
      },
      "getCosmetics()": {
        "details": "Returns the address of the COSMETICS",
        "returns": {
          "_0": "The COSMETICS address*"
        }
      },
      "getCrafting()": {
        "details": "Returns the address of the CRAFTING",
        "returns": {
          "_0": "The CRAFTING address*"
        }
      },
      "getEssence()": {
        "details": "Returns the address of the ESSENCE",
        "returns": {
          "_0": "The ESSENCE address*"
        }
      },
      "getEssenceAbsorber()": {
        "details": "Returns the address of the ESSENCE_ABSORBER",
        "returns": {
          "_0": "The ESSENCE_ABSORBER address*"
        }
      },
      "getEssenceField()": {
        "details": "Returns the address of the ESSENCE_FIELD",
        "returns": {
          "_0": "The ESSENCE_FIELD address*"
        }
      },
      "getPlayerFaction(address)": {
        "details": "Returns a player's faction",
        "returns": {
          "_0": "Faction code"
        }
      },
      "getPlayerId(address)": {
        "details": "Returns a player's id",
        "returns": {
          "_0": "Players'id"
        }
      },
      "getPlayerStatus(address)": {
        "details": "Returns a player's status",
        "returns": {
          "_0": "Frozen status"
        }
      },
      "getRoleAdmin(bytes32)": {
        "details": "Returns the admin role that controls `role`. See {grantRole} and {revokeRole}. To change a role's admin, use {_setRoleAdmin}."
      },
      "getRoleMember(bytes32,uint256)": {
        "details": "Returns one of the accounts that have `role`. `index` must be a value between 0 and {getRoleMemberCount}, non-inclusive. Role bearers are not sorted in any particular way, and their ordering may change at any point. WARNING: When using {getRoleMember} and {getRoleMemberCount}, make sure you perform all queries on the same block. See the following https://forum.openzeppelin.com/t/iterating-over-elements-on-enumerableset-in-openzeppelin-contracts/2296[forum post] for more information."
      },
      "getRoleMemberCount(bytes32)": {
        "details": "Returns the number of accounts that have `role`. Can be used together with {getRoleMember} to enumerate all bearers of a role."
      },
      "grantRole(bytes32,address)": {
        "details": "Grants `role` to `account`. If `account` had not been already granted `role`, emits a {RoleGranted} event. Requirements: - the caller must have ``role``'s admin role. May emit a {RoleGranted} event."
      },
      "hasRole(bytes32,address)": {
        "details": "Returns `true` if `account` has been granted `role`."
      },
      "renounceRole(bytes32,address)": {
        "details": "Revokes `role` from the calling account. Roles are often managed via {grantRole} and {revokeRole}: this function's purpose is to provide a mechanism for accounts to lose their privileges if they are compromised (such as when a trusted device is misplaced). If the calling account had been revoked `role`, emits a {RoleRevoked} event. Requirements: - the caller must be `account`. May emit a {RoleRevoked} event."
      },
      "revokeRole(bytes32,address)": {
        "details": "Revokes `role` from `account`. If `account` had been granted `role`, emits a {RoleRevoked} event. Requirements: - the caller must have ``role``'s admin role. May emit a {RoleRevoked} event."
      },
      "setArena(address)": {
        "details": "Updates the address of the ARENA",
        "params": {
          "arenaModule": "The new ARENA address*"
        }
      },
      "setArtifacts(address)": {
        "details": "Updates the address of the ARTIFACTS",
        "params": {
          "artifacts": "The new ARTIFACTS address*"
        }
      },
      "setCosmetics(address)": {
        "details": "Updates the address of the COSMETICS",
        "params": {
          "cosmetics": "The new COSMETICS address*"
        }
      },
      "setCrafting(address)": {
        "details": "Updates the address of the CRAFTING",
        "params": {
          "crafting": "The new CRAFTING address*"
        }
      },
      "setEssence(address)": {
        "details": "Updates the address of the ESSENCE",
        "params": {
          "essence": "The new ESSENCE address*"
        }
      },
      "setEssenceAbsorber(address)": {
        "details": "Updates the address of the ESSENCE_ABSORBER",
        "params": {
          "essenceAbsorber": "The new ESSENCE_ABSORBER address*"
        }
      },
      "setEssenceField(address)": {
        "details": "Updates the address of the ESSENCE_FIELD",
        "params": {
          "essenceField": "The new ESSENCE_FIELD address*"
        }
      },
      "supportsInterface(bytes4)": {
        "details": "See {IERC165-supportsInterface}."
      }
    },
    "version": 1
  },
  "userdoc": {
    "kind": "user",
    "methods": {},
    "version": 1
  },
  "storageLayout": {
    "storage": [
      {
        "astId": 838,
        "contract": "contracts/MothoraGame.sol:MothoraGame",
        "label": "_initialized",
        "offset": 0,
        "slot": "0",
        "type": "t_uint8"
      },
      {
        "astId": 841,
        "contract": "contracts/MothoraGame.sol:MothoraGame",
        "label": "_initializing",
        "offset": 1,
        "slot": "0",
        "type": "t_bool"
      },
      {
        "astId": 2065,
        "contract": "contracts/MothoraGame.sol:MothoraGame",
        "label": "__gap",
        "offset": 0,
        "slot": "1",
        "type": "t_array(t_uint256)50_storage"
      },
      {
        "astId": 2335,
        "contract": "contracts/MothoraGame.sol:MothoraGame",
        "label": "__gap",
        "offset": 0,
        "slot": "51",
        "type": "t_array(t_uint256)50_storage"
      },
      {
        "astId": 433,
        "contract": "contracts/MothoraGame.sol:MothoraGame",
        "label": "_roles",
        "offset": 0,
        "slot": "101",
        "type": "t_mapping(t_bytes32,t_struct(RoleData)428_storage)"
      },
      {
        "astId": 732,
        "contract": "contracts/MothoraGame.sol:MothoraGame",
        "label": "__gap",
        "offset": 0,
        "slot": "102",
        "type": "t_array(t_uint256)49_storage"
      },
      {
        "astId": 282,
        "contract": "contracts/MothoraGame.sol:MothoraGame",
        "label": "_roleMembers",
        "offset": 0,
        "slot": "151",
        "type": "t_mapping(t_bytes32,t_struct(AddressSet)4511_storage)"
      },
      {
        "astId": 392,
        "contract": "contracts/MothoraGame.sol:MothoraGame",
        "label": "__gap",
        "offset": 0,
        "slot": "152",
        "type": "t_array(t_uint256)49_storage"
      },
      {
        "astId": 11516,
        "contract": "contracts/MothoraGame.sol:MothoraGame",
        "label": "accountsCounter",
        "offset": 0,
        "slot": "201",
        "type": "t_struct(Counter)10384_storage"
      },
      {
        "astId": 11525,
        "contract": "contracts/MothoraGame.sol:MothoraGame",
        "label": "totalFactionMembers",
        "offset": 0,
        "slot": "202",
        "type": "t_array(t_uint256)4_storage"
      },
      {
        "astId": 11543,
        "contract": "contracts/MothoraGame.sol:MothoraGame",
        "label": "playerAccounts",
        "offset": 0,
        "slot": "206",
        "type": "t_mapping(t_address,t_struct(Account)11533_storage)"
      },
      {
        "astId": 11547,
        "contract": "contracts/MothoraGame.sol:MothoraGame",
        "label": "gameProtocolAddresses",
        "offset": 0,
        "slot": "207",
        "type": "t_mapping(t_bytes32,t_address)"
      }
    ],
    "types": {
      "t_address": {
        "encoding": "inplace",
        "label": "address",
        "numberOfBytes": "20"
      },
      "t_array(t_bytes32)dyn_storage": {
        "base": "t_bytes32",
        "encoding": "dynamic_array",
        "label": "bytes32[]",
        "numberOfBytes": "32"
      },
      "t_array(t_uint256)49_storage": {
        "base": "t_uint256",
        "encoding": "inplace",
        "label": "uint256[49]",
        "numberOfBytes": "1568"
      },
      "t_array(t_uint256)4_storage": {
        "base": "t_uint256",
        "encoding": "inplace",
        "label": "uint256[4]",
        "numberOfBytes": "128"
      },
      "t_array(t_uint256)50_storage": {
        "base": "t_uint256",
        "encoding": "inplace",
        "label": "uint256[50]",
        "numberOfBytes": "1600"
      },
      "t_bool": {
        "encoding": "inplace",
        "label": "bool",
        "numberOfBytes": "1"
      },
      "t_bytes32": {
        "encoding": "inplace",
        "label": "bytes32",
        "numberOfBytes": "32"
      },
      "t_enum(Faction)11521": {
        "encoding": "inplace",
        "label": "enum MothoraGame.Faction",
        "numberOfBytes": "1"
      },
      "t_mapping(t_address,t_bool)": {
        "encoding": "mapping",
        "key": "t_address",
        "label": "mapping(address => bool)",
        "numberOfBytes": "32",
        "value": "t_bool"
      },
      "t_mapping(t_address,t_struct(Account)11533_storage)": {
        "encoding": "mapping",
        "key": "t_address",
        "label": "mapping(address => struct MothoraGame.Account)",
        "numberOfBytes": "32",
        "value": "t_struct(Account)11533_storage"
      },
      "t_mapping(t_bytes32,t_address)": {
        "encoding": "mapping",
        "key": "t_bytes32",
        "label": "mapping(bytes32 => address)",
        "numberOfBytes": "32",
        "value": "t_address"
      },
      "t_mapping(t_bytes32,t_struct(AddressSet)4511_storage)": {
        "encoding": "mapping",
        "key": "t_bytes32",
        "label": "mapping(bytes32 => struct EnumerableSetUpgradeable.AddressSet)",
        "numberOfBytes": "32",
        "value": "t_struct(AddressSet)4511_storage"
      },
      "t_mapping(t_bytes32,t_struct(RoleData)428_storage)": {
        "encoding": "mapping",
        "key": "t_bytes32",
        "label": "mapping(bytes32 => struct AccessControlUpgradeable.RoleData)",
        "numberOfBytes": "32",
        "value": "t_struct(RoleData)428_storage"
      },
      "t_mapping(t_bytes32,t_uint256)": {
        "encoding": "mapping",
        "key": "t_bytes32",
        "label": "mapping(bytes32 => uint256)",
        "numberOfBytes": "32",
        "value": "t_uint256"
      },
      "t_struct(Account)11533_storage": {
        "encoding": "inplace",
        "label": "struct MothoraGame.Account",
        "members": [
          {
            "astId": 11527,
            "contract": "contracts/MothoraGame.sol:MothoraGame",
            "label": "id",
            "offset": 0,
            "slot": "0",
            "type": "t_uint256"
          },
          {
            "astId": 11529,
            "contract": "contracts/MothoraGame.sol:MothoraGame",
            "label": "frozen",
            "offset": 0,
            "slot": "1",
            "type": "t_bool"
          },
          {
            "astId": 11532,
            "contract": "contracts/MothoraGame.sol:MothoraGame",
            "label": "faction",
            "offset": 1,
            "slot": "1",
            "type": "t_enum(Faction)11521"
          }
        ],
        "numberOfBytes": "64"
      },
      "t_struct(AddressSet)4511_storage": {
        "encoding": "inplace",
        "label": "struct EnumerableSetUpgradeable.AddressSet",
        "members": [
          {
            "astId": 4510,
            "contract": "contracts/MothoraGame.sol:MothoraGame",
            "label": "_inner",
            "offset": 0,
            "slot": "0",
            "type": "t_struct(Set)4210_storage"
          }
        ],
        "numberOfBytes": "64"
      },
      "t_struct(Counter)10384_storage": {
        "encoding": "inplace",
        "label": "struct Counters.Counter",
        "members": [
          {
            "astId": 10383,
            "contract": "contracts/MothoraGame.sol:MothoraGame",
            "label": "_value",
            "offset": 0,
            "slot": "0",
            "type": "t_uint256"
          }
        ],
        "numberOfBytes": "32"
      },
      "t_struct(RoleData)428_storage": {
        "encoding": "inplace",
        "label": "struct AccessControlUpgradeable.RoleData",
        "members": [
          {
            "astId": 425,
            "contract": "contracts/MothoraGame.sol:MothoraGame",
            "label": "members",
            "offset": 0,
            "slot": "0",
            "type": "t_mapping(t_address,t_bool)"
          },
          {
            "astId": 427,
            "contract": "contracts/MothoraGame.sol:MothoraGame",
            "label": "adminRole",
            "offset": 0,
            "slot": "1",
            "type": "t_bytes32"
          }
        ],
        "numberOfBytes": "64"
      },
      "t_struct(Set)4210_storage": {
        "encoding": "inplace",
        "label": "struct EnumerableSetUpgradeable.Set",
        "members": [
          {
            "astId": 4205,
            "contract": "contracts/MothoraGame.sol:MothoraGame",
            "label": "_values",
            "offset": 0,
            "slot": "0",
            "type": "t_array(t_bytes32)dyn_storage"
          },
          {
            "astId": 4209,
            "contract": "contracts/MothoraGame.sol:MothoraGame",
            "label": "_indexes",
            "offset": 0,
            "slot": "1",
            "type": "t_mapping(t_bytes32,t_uint256)"
          }
        ],
        "numberOfBytes": "64"
      },
      "t_uint256": {
        "encoding": "inplace",
        "label": "uint256",
        "numberOfBytes": "32"
      },
      "t_uint8": {
        "encoding": "inplace",
        "label": "uint8",
        "numberOfBytes": "1"
      }
    }
  }
}