{
  "_format": "hh-sol-artifact-1",
  "contractName": "Player",
  "sourceName": "contracts/Player.sol",
  "abi": [
    {
      "anonymous": false,
      "inputs": [
        {
          "indexed": true,
          "internalType": "address",
          "name": "previousOwner",
          "type": "address"
        },
        {
          "indexed": true,
          "internalType": "address",
          "name": "newOwner",
          "type": "address"
        }
      ],
      "name": "OwnershipTransferred",
      "type": "event"
    },
    {
      "inputs": [],
      "name": "claimQuestRewards",
      "outputs": [],
      "stateMutability": "nonpayable",
      "type": "function"
    },
    {
      "inputs": [
        {
          "internalType": "uint256",
          "name": "_newFaction",
          "type": "uint256"
        }
      ],
      "name": "defect",
      "outputs": [],
      "stateMutability": "nonpayable",
      "type": "function"
    },
    {
      "inputs": [
        {
          "internalType": "address",
          "name": "_recipient",
          "type": "address"
        }
      ],
      "name": "getFaction",
      "outputs": [
        {
          "internalType": "uint256",
          "name": "",
          "type": "uint256"
        }
      ],
      "stateMutability": "view",
      "type": "function"
    },
    {
      "inputs": [
        {
          "internalType": "address",
          "name": "_recipient",
          "type": "address"
        }
      ],
      "name": "getQuestTimelock",
      "outputs": [
        {
          "internalType": "uint256",
          "name": "",
          "type": "uint256"
        }
      ],
      "stateMutability": "view",
      "type": "function"
    },
    {
      "inputs": [],
      "name": "goOnQuest",
      "outputs": [],
      "stateMutability": "nonpayable",
      "type": "function"
    },
    {
      "inputs": [
        {
          "internalType": "uint256",
          "name": "_faction",
          "type": "uint256"
        }
      ],
      "name": "joinAndMint",
      "outputs": [],
      "stateMutability": "nonpayable",
      "type": "function"
    },
    {
      "inputs": [
        {
          "internalType": "uint256",
          "name": "_faction",
          "type": "uint256"
        }
      ],
      "name": "joinFaction",
      "outputs": [],
      "stateMutability": "nonpayable",
      "type": "function"
    },
    {
      "inputs": [],
      "name": "mintCharacter",
      "outputs": [],
      "stateMutability": "nonpayable",
      "type": "function"
    },
    {
      "inputs": [],
      "name": "owner",
      "outputs": [
        {
          "internalType": "address",
          "name": "",
          "type": "address"
        }
      ],
      "stateMutability": "view",
      "type": "function"
    },
    {
      "inputs": [],
      "name": "random",
      "outputs": [
        {
          "internalType": "uint256",
          "name": "",
          "type": "uint256"
        }
      ],
      "stateMutability": "view",
      "type": "function"
    },
    {
      "inputs": [],
      "name": "renounceOwnership",
      "outputs": [],
      "stateMutability": "nonpayable",
      "type": "function"
    },
    {
      "inputs": [
        {
          "internalType": "address",
          "name": "_gameItemsAddress",
          "type": "address"
        }
      ],
      "name": "setGameItems",
      "outputs": [],
      "stateMutability": "nonpayable",
      "type": "function"
    },
    {
      "inputs": [
        {
          "internalType": "uint256",
          "name": "",
          "type": "uint256"
        }
      ],
      "name": "totalFactionMembers",
      "outputs": [
        {
          "internalType": "uint256",
          "name": "",
          "type": "uint256"
        }
      ],
      "stateMutability": "view",
      "type": "function"
    },
    {
      "inputs": [
        {
          "internalType": "address",
          "name": "newOwner",
          "type": "address"
        }
      ],
      "name": "transferOwnership",
      "outputs": [],
      "stateMutability": "nonpayable",
      "type": "function"
    }
  ],
  "bytecode": "0x608060405234801561001057600080fd5b5061001a3361001f565b61006f565b600080546001600160a01b038381166001600160a01b0319831681178455604051919092169283917f8be0079c531659141344cd1fd0a4f28419497f9722a3daafe3b4186f6b6457e09190a35050565b610fb78061007e6000396000f3fe608060405234801561001057600080fd5b50600436106100ea5760003560e01c80638da5cb5b1161008c578063e90bb55411610066578063e90bb5541461019f578063ec8884ec146101cb578063f2fde38b146101de578063faf039f4146101f157600080fd5b80638da5cb5b1461015e578063b7be8ad614610179578063de325b8f1461018c57600080fd5b80635ec01e4d116100c85780635ec01e4d14610132578063715018a61461013b578063775268e9146101435780638a5399721461014b57600080fd5b806301653d44146100ef5780632c87d916146100f9578063309355091461010c575b600080fd5b6100f76101f9565b005b6100f7610107366004610e57565b6103fc565b61011f61011a366004610e57565b610595565b6040519081526020015b60405180910390f35b61011f60055481565b6100f76105ac565b6100f76105e2565b6100f7610159366004610e57565b610907565b6000546040516001600160a01b039091168152602001610129565b6100f7610187366004610e70565b610af8565b61011f61019a366004610e70565b610b44565b61011f6101ad366004610e70565b6001600160a01b031660009081526006602052604090206001015490565b6100f76101d9366004610e57565b610b7c565b6100f76101ec366004610e70565b610b8d565b6100f7610c25565b6007546001600160a01b031662fdd58e3361021381610b44565b6040516001600160e01b031960e085901b1681526001600160a01b0390921660048301526024820152604401602060405180830381865afa15801561025c573d6000803e3d6000fd5b505050506040513d601f19601f820116820180604052508101906102809190610ea0565b6001146102f15760405162461bcd60e51b815260206004820152603460248201527f54686520506c6179657220646f6573206e6f74206f776e2061206368617261636044820152733a32b91037b3103a3434b9903330b1ba34b7b71760611b60648201526084015b60405180910390fd5b33600090815260066020526040902060010154421161035c5760405162461bcd60e51b815260206004820152602160248201527f54686520506c6179657220697320616c7265616479206f6e20612071756573746044820152601760f91b60648201526084016102e8565b3360009081526006602052604090205460ff16156103cc5760405162461bcd60e51b815260206004820152602760248201527f54686520506c6179657220686173206e6f7420636c61696d656420697473207260448201526632bbb0b932399760c91b60648201526084016102e8565b6103d742603c610ecf565b336000908152600660205260409020600180820192909255805460ff19169091179055565b33600090815260066020526040902054610100900460ff16600381111561042557610425610ee7565b1561047d5760405162461bcd60e51b815260206004820152602260248201527f5468697320706c6179657220616c72656164792068617320612066616374696f604482015261371760f11b60648201526084016102e8565b806001148061048c5750806002145b806104975750806003145b6104e35760405162461bcd60e51b815260206004820152601e60248201527f506c656173652073656c65637420612076616c69642066616374696f6e2e000060448201526064016102e8565b8060010361052757336000908152600660205260409020805461ff001916610100179055600180805b01600082825461051c9190610ecf565b909155506105929050565b8060020361055557336000908152600660205260409020805461ff001916610200179055600180600261050c565b8060030361059257336000908152600660205260408120805461ff001916610300179055600480546001929061058c908490610ecf565b90915550505b50565b600181600481106105a557600080fd5b0154905081565b6000546001600160a01b031633146105d65760405162461bcd60e51b81526004016102e890610f13565b6105e06000610e07565b565b3360009081526006602052604090205460ff16151560011461066c5760405162461bcd60e51b815260206004820152603b60248201527f54686520506c617965722068617320746f20676f206f6e20612071756573742060448201527f666972737420746f20636c61696d2069747320726577617264732e000000000060648201526084016102e8565b3360009081526006602052604090206001015442116106cd5760405162461bcd60e51b815260206004820152601f60248201527f54686520506c61796572206973207374696c6c206f6e20612071756573742e0060448201526064016102e8565b6103e842446040516020016106ec929190918252602082015260400190565b6040516020818303038152906040528051906020012060001c61070f9190610f48565b60058190556103201161078657600754604051636e015ca360e11b8152336004820152600160248201526001600160a01b039091169063dc02b946906044015b600060405180830381600087803b15801561076957600080fd5b505af115801561077d573d6000803e3d6000fd5b505050506108ee565b61032060055410801561079d575061025860055410155b156107d957600754604051636e015ca360e11b8152336004820152600160248201526001600160a01b039091169063dc02b9469060440161074f565b6102586005541080156107f0575061019060055410155b1561082c57600754604051636e015ca360e11b8152336004820152600160248201526001600160a01b039091169063dc02b9469060440161074f565b610190600554108015610842575060c860055410155b1561087e57600754604051636e015ca360e11b8152336004820152600160248201526001600160a01b039091169063dc02b9469060440161074f565b60c860055410156108ee57600754604051636e015ca360e11b8152336004820152600160248201526001600160a01b039091169063dc02b94690604401600060405180830381600087803b1580156108d557600080fd5b505af11580156108e9573d6000803e3d6000fd5b505050505b336000908152600660205260409020805460ff19169055565b80600114806109165750806002145b806109215750806003145b61096d5760405162461bcd60e51b815260206004820152601e60248201527f506c656173652073656c65637420612076616c69642066616374696f6e2e000060448201526064016102e8565b600061097833610b44565b9050600180826004811061098e5761098e610efd565b01600082825461099e9190610f6a565b90915550506001821480156109dc5750600133600090815260066020526040902054610100900460ff1660038111156109d9576109d9610ee7565b14155b15610a1d57336000908152600660205260409020805461ff001916610100179055600180805b016000828254610a129190610ecf565b90915550610af49050565b816002148015610a565750600233600090815260066020526040902054610100900460ff166003811115610a5357610a53610ee7565b14155b15610a8157336000908152600660205260409020805461ff0019166102001790556001806002610a02565b816003148015610aba5750600333600090815260066020526040902054610100900460ff166003811115610ab757610ab7610ee7565b14155b15610af457336000908152600660205260408120805461ff0019166103001790556004805460019290610aee908490610ecf565b90915550505b5050565b6000546001600160a01b03163314610b225760405162461bcd60e51b81526004016102e890610f13565b600780546001600160a01b0319166001600160a01b0392909216919091179055565b6001600160a01b038116600090815260066020526040812054610100900460ff166003811115610b7657610b76610ee7565b92915050565b610b85816103fc565b610592610c25565b6000546001600160a01b03163314610bb75760405162461bcd60e51b81526004016102e890610f13565b6001600160a01b038116610c1c5760405162461bcd60e51b815260206004820152602660248201527f4f776e61626c653a206e6577206f776e657220697320746865207a65726f206160448201526564647265737360d01b60648201526084016102e8565b61059281610e07565b600033600090815260066020526040902054610100900460ff166003811115610c5057610c50610ee7565b03610c9d5760405162461bcd60e51b815260206004820152601f60248201527f5468697320506c6179657220686173206e6f2066616374696f6e207965742e0060448201526064016102e8565b6007546001600160a01b031662fdd58e33610cb781610b44565b6040516001600160e01b031960e085901b1681526001600160a01b0390921660048301526024820152604401602060405180830381865afa158015610d00573d6000803e3d6000fd5b505050506040513d601f19601f82011682018060405250810190610d249190610ea0565b15610d8c5760405162461bcd60e51b815260206004820152603260248201527f54686520506c617965722063616e206f6e6c79206d696e74203120436861726160448201527131ba32b91037b31032b0b1b4103a3cb8329760711b60648201526084016102e8565b6007546001600160a01b03166314ff845c33610da781610b44565b6040516001600160e01b031960e085901b1681526001600160a01b0390921660048301526024820152604401600060405180830381600087803b158015610ded57600080fd5b505af1158015610e01573d6000803e3d6000fd5b50505050565b600080546001600160a01b038381166001600160a01b0319831681178455604051919092169283917f8be0079c531659141344cd1fd0a4f28419497f9722a3daafe3b4186f6b6457e09190a35050565b600060208284031215610e6957600080fd5b5035919050565b600060208284031215610e8257600080fd5b81356001600160a01b0381168114610e9957600080fd5b9392505050565b600060208284031215610eb257600080fd5b5051919050565b634e487b7160e01b600052601160045260246000fd5b60008219821115610ee257610ee2610eb9565b500190565b634e487b7160e01b600052602160045260246000fd5b634e487b7160e01b600052603260045260246000fd5b6020808252818101527f4f776e61626c653a2063616c6c6572206973206e6f7420746865206f776e6572604082015260600190565b600082610f6557634e487b7160e01b600052601260045260246000fd5b500690565b600082821015610f7c57610f7c610eb9565b50039056fea2646970667358221220f7110b6dc312419cc9ec97a101762215fe0a3132728b3930fc35b0c9802a596f64736f6c634300080d0033",
  "linkReferences": {},
  "deployedLinkReferences": {}
}