{
  "_format": "hh-sol-artifact-1",
  "contractName": "Player",
  "sourceName": "contracts/Player.sol",
  "abi": [
    {
      "anonymous": false,
      "inputs": [
        {
          "indexed": true,
          "internalType": "address",
          "name": "previousOwner",
          "type": "address"
        },
        {
          "indexed": true,
          "internalType": "address",
          "name": "newOwner",
          "type": "address"
        }
      ],
      "name": "OwnershipTransferred",
      "type": "event"
    },
    {
      "inputs": [],
      "name": "claimQuestRewards",
      "outputs": [],
      "stateMutability": "nonpayable",
      "type": "function"
    },
    {
      "inputs": [
        {
          "internalType": "uint256",
          "name": "_newFaction",
          "type": "uint256"
        }
      ],
      "name": "defect",
      "outputs": [],
      "stateMutability": "nonpayable",
      "type": "function"
    },
    {
      "inputs": [
        {
          "internalType": "address",
          "name": "_recipient",
          "type": "address"
        }
      ],
      "name": "getFaction",
      "outputs": [
        {
          "internalType": "uint256",
          "name": "",
          "type": "uint256"
        }
      ],
      "stateMutability": "view",
      "type": "function"
    },
    {
      "inputs": [
        {
          "internalType": "address",
          "name": "_recipient",
          "type": "address"
        }
      ],
      "name": "getQuestIsLocked",
      "outputs": [
        {
          "internalType": "bool",
          "name": "",
          "type": "bool"
        }
      ],
      "stateMutability": "view",
      "type": "function"
    },
    {
      "inputs": [],
      "name": "goOnQuest",
      "outputs": [],
      "stateMutability": "nonpayable",
      "type": "function"
    },
    {
      "inputs": [
        {
          "internalType": "uint256",
          "name": "_faction",
          "type": "uint256"
        }
      ],
      "name": "joinAndMint",
      "outputs": [],
      "stateMutability": "nonpayable",
      "type": "function"
    },
    {
      "inputs": [
        {
          "internalType": "uint256",
          "name": "_faction",
          "type": "uint256"
        }
      ],
      "name": "joinFaction",
      "outputs": [],
      "stateMutability": "nonpayable",
      "type": "function"
    },
    {
      "inputs": [],
      "name": "mintCharacter",
      "outputs": [],
      "stateMutability": "nonpayable",
      "type": "function"
    },
    {
      "inputs": [],
      "name": "owner",
      "outputs": [
        {
          "internalType": "address",
          "name": "",
          "type": "address"
        }
      ],
      "stateMutability": "view",
      "type": "function"
    },
    {
      "inputs": [],
      "name": "random",
      "outputs": [
        {
          "internalType": "uint256",
          "name": "",
          "type": "uint256"
        }
      ],
      "stateMutability": "view",
      "type": "function"
    },
    {
      "inputs": [],
      "name": "renounceOwnership",
      "outputs": [],
      "stateMutability": "nonpayable",
      "type": "function"
    },
    {
      "inputs": [
        {
          "internalType": "address",
          "name": "_gameItemsAddress",
          "type": "address"
        }
      ],
      "name": "setGameItems",
      "outputs": [],
      "stateMutability": "nonpayable",
      "type": "function"
    },
    {
      "inputs": [
        {
          "internalType": "uint256",
          "name": "",
          "type": "uint256"
        }
      ],
      "name": "totalFactionMembers",
      "outputs": [
        {
          "internalType": "uint256",
          "name": "",
          "type": "uint256"
        }
      ],
      "stateMutability": "view",
      "type": "function"
    },
    {
      "inputs": [
        {
          "internalType": "address",
          "name": "newOwner",
          "type": "address"
        }
      ],
      "name": "transferOwnership",
      "outputs": [],
      "stateMutability": "nonpayable",
      "type": "function"
    }
  ],
  "bytecode": "0x608060405234801561001057600080fd5b5061001a3361001f565b61006f565b600080546001600160a01b038381166001600160a01b0319831681178455604051919092169283917f8be0079c531659141344cd1fd0a4f28419497f9722a3daafe3b4186f6b6457e09190a35050565b610fe18061007e6000396000f3fe608060405234801561001057600080fd5b50600436106100ea5760003560e01c80638a5399721161008c578063de325b8f11610066578063de325b8f146101af578063ec8884ec146101c2578063f2fde38b146101d5578063faf039f4146101e857600080fd5b80638a5399721461016e5780638da5cb5b14610181578063b7be8ad61461019c57600080fd5b806330935509116100c857806330935509146101345780635ec01e4d14610155578063715018a61461015e578063775268e91461016657600080fd5b806301653d44146100ef5780630779988c146100f95780632c87d91614610121575b600080fd5b6100f76101f0565b005b61010c610107366004610e81565b6103f3565b60405190151581526020015b60405180910390f35b6100f761012f366004610eb1565b610426565b610147610142366004610eb1565b6105bf565b604051908152602001610118565b61014760055481565b6100f76105d6565b6100f761060c565b6100f761017c366004610eb1565b610931565b6000546040516001600160a01b039091168152602001610118565b6100f76101aa366004610e81565b610b22565b6101476101bd366004610e81565b610b6e565b6100f76101d0366004610eb1565b610ba6565b6100f76101e3366004610e81565b610bb7565b6100f7610c4f565b6007546001600160a01b031662fdd58e3361020a81610b6e565b6040516001600160e01b031960e085901b1681526001600160a01b0390921660048301526024820152604401602060405180830381865afa158015610253573d6000803e3d6000fd5b505050506040513d601f19601f820116820180604052508101906102779190610eca565b6001146102e85760405162461bcd60e51b815260206004820152603460248201527f54686520506c6179657220646f6573206e6f74206f776e2061206368617261636044820152733a32b91037b3103a3434b9903330b1ba34b7b71760611b60648201526084015b60405180910390fd5b3360009081526006602052604090206001015442116103535760405162461bcd60e51b815260206004820152602160248201527f54686520506c6179657220697320616c7265616479206f6e20612071756573746044820152601760f91b60648201526084016102df565b3360009081526006602052604090205460ff16156103c35760405162461bcd60e51b815260206004820152602760248201527f54686520506c6179657220686173206e6f7420636c61696d656420697473207260448201526632bbb0b932399760c91b60648201526084016102df565b6103ce42603c610ef9565b336000908152600660205260409020600180820192909255805460ff19169091179055565b6001600160a01b03811660009081526006602052604081206001015442101561041e57506001919050565b506000919050565b33600090815260066020526040902054610100900460ff16600381111561044f5761044f610f11565b156104a75760405162461bcd60e51b815260206004820152602260248201527f5468697320706c6179657220616c72656164792068617320612066616374696f604482015261371760f11b60648201526084016102df565b80600114806104b65750806002145b806104c15750806003145b61050d5760405162461bcd60e51b815260206004820152601e60248201527f506c656173652073656c65637420612076616c69642066616374696f6e2e000060448201526064016102df565b8060010361055157336000908152600660205260409020805461ff001916610100179055600180805b0160008282546105469190610ef9565b909155506105bc9050565b8060020361057f57336000908152600660205260409020805461ff0019166102001790556001806002610536565b806003036105bc57336000908152600660205260408120805461ff00191661030017905560048054600192906105b6908490610ef9565b90915550505b50565b600181600481106105cf57600080fd5b0154905081565b6000546001600160a01b031633146106005760405162461bcd60e51b81526004016102df90610f3d565b61060a6000610e31565b565b3360009081526006602052604090205460ff1615156001146106965760405162461bcd60e51b815260206004820152603b60248201527f54686520506c617965722068617320746f20676f206f6e20612071756573742060448201527f666972737420746f20636c61696d2069747320726577617264732e000000000060648201526084016102df565b3360009081526006602052604090206001015442116106f75760405162461bcd60e51b815260206004820152601f60248201527f54686520506c61796572206973207374696c6c206f6e20612071756573742e0060448201526064016102df565b6103e84244604051602001610716929190918252602082015260400190565b6040516020818303038152906040528051906020012060001c6107399190610f72565b6005819055610320116107b057600754604051636e015ca360e11b8152336004820152600160248201526001600160a01b039091169063dc02b946906044015b600060405180830381600087803b15801561079357600080fd5b505af11580156107a7573d6000803e3d6000fd5b50505050610918565b6103206005541080156107c7575061025860055410155b1561080357600754604051636e015ca360e11b8152336004820152600160248201526001600160a01b039091169063dc02b94690604401610779565b61025860055410801561081a575061019060055410155b1561085657600754604051636e015ca360e11b8152336004820152600160248201526001600160a01b039091169063dc02b94690604401610779565b61019060055410801561086c575060c860055410155b156108a857600754604051636e015ca360e11b8152336004820152600160248201526001600160a01b039091169063dc02b94690604401610779565b60c8600554101561091857600754604051636e015ca360e11b8152336004820152600160248201526001600160a01b039091169063dc02b94690604401600060405180830381600087803b1580156108ff57600080fd5b505af1158015610913573d6000803e3d6000fd5b505050505b336000908152600660205260409020805460ff19169055565b80600114806109405750806002145b8061094b5750806003145b6109975760405162461bcd60e51b815260206004820152601e60248201527f506c656173652073656c65637420612076616c69642066616374696f6e2e000060448201526064016102df565b60006109a233610b6e565b905060018082600481106109b8576109b8610f27565b0160008282546109c89190610f94565b9091555050600182148015610a065750600133600090815260066020526040902054610100900460ff166003811115610a0357610a03610f11565b14155b15610a4757336000908152600660205260409020805461ff001916610100179055600180805b016000828254610a3c9190610ef9565b90915550610b1e9050565b816002148015610a805750600233600090815260066020526040902054610100900460ff166003811115610a7d57610a7d610f11565b14155b15610aab57336000908152600660205260409020805461ff0019166102001790556001806002610a2c565b816003148015610ae45750600333600090815260066020526040902054610100900460ff166003811115610ae157610ae1610f11565b14155b15610b1e57336000908152600660205260408120805461ff0019166103001790556004805460019290610b18908490610ef9565b90915550505b5050565b6000546001600160a01b03163314610b4c5760405162461bcd60e51b81526004016102df90610f3d565b600780546001600160a01b0319166001600160a01b0392909216919091179055565b6001600160a01b038116600090815260066020526040812054610100900460ff166003811115610ba057610ba0610f11565b92915050565b610baf81610426565b6105bc610c4f565b6000546001600160a01b03163314610be15760405162461bcd60e51b81526004016102df90610f3d565b6001600160a01b038116610c465760405162461bcd60e51b815260206004820152602660248201527f4f776e61626c653a206e6577206f776e657220697320746865207a65726f206160448201526564647265737360d01b60648201526084016102df565b6105bc81610e31565b600033600090815260066020526040902054610100900460ff166003811115610c7a57610c7a610f11565b03610cc75760405162461bcd60e51b815260206004820152601f60248201527f5468697320506c6179657220686173206e6f2066616374696f6e207965742e0060448201526064016102df565b6007546001600160a01b031662fdd58e33610ce181610b6e565b6040516001600160e01b031960e085901b1681526001600160a01b0390921660048301526024820152604401602060405180830381865afa158015610d2a573d6000803e3d6000fd5b505050506040513d601f19601f82011682018060405250810190610d4e9190610eca565b15610db65760405162461bcd60e51b815260206004820152603260248201527f54686520506c617965722063616e206f6e6c79206d696e74203120436861726160448201527131ba32b91037b31032b0b1b4103a3cb8329760711b60648201526084016102df565b6007546001600160a01b03166314ff845c33610dd181610b6e565b6040516001600160e01b031960e085901b1681526001600160a01b0390921660048301526024820152604401600060405180830381600087803b158015610e1757600080fd5b505af1158015610e2b573d6000803e3d6000fd5b50505050565b600080546001600160a01b038381166001600160a01b0319831681178455604051919092169283917f8be0079c531659141344cd1fd0a4f28419497f9722a3daafe3b4186f6b6457e09190a35050565b600060208284031215610e9357600080fd5b81356001600160a01b0381168114610eaa57600080fd5b9392505050565b600060208284031215610ec357600080fd5b5035919050565b600060208284031215610edc57600080fd5b5051919050565b634e487b7160e01b600052601160045260246000fd5b60008219821115610f0c57610f0c610ee3565b500190565b634e487b7160e01b600052602160045260246000fd5b634e487b7160e01b600052603260045260246000fd5b6020808252818101527f4f776e61626c653a2063616c6c6572206973206e6f7420746865206f776e6572604082015260600190565b600082610f8f57634e487b7160e01b600052601260045260246000fd5b500690565b600082821015610fa657610fa6610ee3565b50039056fea264697066735822122007a350485d82a3783577226d8a8404b58ad613d39cd1cf0b52d35d126a48b07664736f6c634300080d0033",
  "linkReferences": {},
  "deployedLinkReferences": {}
}