{
  "_format": "hh-sol-artifact-1",
  "contractName": "Player",
  "sourceName": "contracts/Player.sol",
  "abi": [
    {
      "anonymous": false,
      "inputs": [
        {
          "indexed": true,
          "internalType": "address",
          "name": "previousOwner",
          "type": "address"
        },
        {
          "indexed": true,
          "internalType": "address",
          "name": "newOwner",
          "type": "address"
        }
      ],
      "name": "OwnershipTransferred",
      "type": "event"
    },
    {
      "inputs": [],
      "name": "claimQuestRewards",
      "outputs": [],
      "stateMutability": "nonpayable",
      "type": "function"
    },
    {
      "inputs": [
        {
          "internalType": "uint256",
          "name": "_newFaction",
          "type": "uint256"
        }
      ],
      "name": "defect",
      "outputs": [],
      "stateMutability": "nonpayable",
      "type": "function"
    },
    {
      "inputs": [
        {
          "internalType": "address",
          "name": "_recipient",
          "type": "address"
        }
      ],
      "name": "getFaction",
      "outputs": [
        {
          "internalType": "uint256",
          "name": "",
          "type": "uint256"
        }
      ],
      "stateMutability": "view",
      "type": "function"
    },
    {
      "inputs": [
        {
          "internalType": "address",
          "name": "_recipient",
          "type": "address"
        }
      ],
      "name": "getMultiplier",
      "outputs": [
        {
          "internalType": "uint256",
          "name": "",
          "type": "uint256"
        }
      ],
      "stateMutability": "view",
      "type": "function"
    },
    {
      "inputs": [],
      "name": "goOnQuest",
      "outputs": [],
      "stateMutability": "nonpayable",
      "type": "function"
    },
    {
      "inputs": [
        {
          "internalType": "uint256",
          "name": "_faction",
          "type": "uint256"
        }
      ],
      "name": "joinFaction",
      "outputs": [],
      "stateMutability": "nonpayable",
      "type": "function"
    },
    {
      "inputs": [],
      "name": "mintCharacter",
      "outputs": [],
      "stateMutability": "nonpayable",
      "type": "function"
    },
    {
      "inputs": [],
      "name": "owner",
      "outputs": [
        {
          "internalType": "address",
          "name": "",
          "type": "address"
        }
      ],
      "stateMutability": "view",
      "type": "function"
    },
    {
      "inputs": [],
      "name": "random",
      "outputs": [
        {
          "internalType": "uint256",
          "name": "",
          "type": "uint256"
        }
      ],
      "stateMutability": "view",
      "type": "function"
    },
    {
      "inputs": [],
      "name": "renounceOwnership",
      "outputs": [],
      "stateMutability": "nonpayable",
      "type": "function"
    },
    {
      "inputs": [
        {
          "internalType": "address",
          "name": "_gameItemsAddress",
          "type": "address"
        }
      ],
      "name": "setGameItems",
      "outputs": [],
      "stateMutability": "nonpayable",
      "type": "function"
    },
    {
      "inputs": [
        {
          "internalType": "uint256",
          "name": "",
          "type": "uint256"
        }
      ],
      "name": "totalFactionMembers",
      "outputs": [
        {
          "internalType": "uint256",
          "name": "",
          "type": "uint256"
        }
      ],
      "stateMutability": "view",
      "type": "function"
    },
    {
      "inputs": [
        {
          "internalType": "address",
          "name": "newOwner",
          "type": "address"
        }
      ],
      "name": "transferOwnership",
      "outputs": [],
      "stateMutability": "nonpayable",
      "type": "function"
    }
  ],
  "bytecode": "0x608060405234801561001057600080fd5b5061001a3361001f565b61006f565b600080546001600160a01b038381166001600160a01b0319831681178455604051919092169283917f8be0079c531659141344cd1fd0a4f28419497f9722a3daafe3b4186f6b6457e09190a35050565b61114a8061007e6000396000f3fe608060405234801561001057600080fd5b50600436106100cf5760003560e01c80638a5399721161008c578063b7be8ad611610066578063b7be8ad614610171578063de325b8f14610184578063f2fde38b14610197578063faf039f4146101aa57600080fd5b80638a539972146101305780638da5cb5b14610143578063a9d637e11461015e57600080fd5b806301653d44146100d45780632c87d916146100de57806330935509146100f15780635ec01e4d14610117578063715018a614610120578063775268e914610128575b600080fd5b6100dc6101b2565b005b6100dc6100ec366004610fea565b6103b5565b6101046100ff366004610fea565b610545565b6040519081526020015b60405180910390f35b61010460055481565b6100dc61055c565b6100dc610592565b6100dc61013e366004610fea565b610a00565b6000546040516001600160a01b03909116815260200161010e565b61010461016c366004611003565b610bfb565b6100dc61017f366004611003565b610c9c565b610104610192366004611003565b610ce8565b6100dc6101a5366004611003565b610d20565b6100dc610db8565b6007546001600160a01b031662fdd58e336101cc81610ce8565b6040516001600160e01b031960e085901b1681526001600160a01b0390921660048301526024820152604401602060405180830381865afa158015610215573d6000803e3d6000fd5b505050506040513d601f19601f820116820180604052508101906102399190611033565b6001146102aa5760405162461bcd60e51b815260206004820152603460248201527f54686520506c6179657220646f6573206e6f74206f776e2061206368617261636044820152733a32b91037b3103a3434b9903330b1ba34b7b71760611b60648201526084015b60405180910390fd5b3360009081526006602052604090206001015442116103155760405162461bcd60e51b815260206004820152602160248201527f54686520506c6179657220697320616c7265616479206f6e20612071756573746044820152601760f91b60648201526084016102a1565b3360009081526006602052604090205460ff16156103855760405162461bcd60e51b815260206004820152602760248201527f54686520506c6179657220686173206e6f7420636c61696d656420697473207260448201526632bbb0b932399760c91b60648201526084016102a1565b610390426078611062565b336000908152600660205260409020600180820192909255805460ff19169091179055565b33600090815260066020526040902054610100900460ff1660038111156103de576103de61107a565b156104365760405162461bcd60e51b815260206004820152602260248201527f5468697320706c6179657220616c72656164792068617320612066616374696f604482015261371760f11b60648201526084016102a1565b80600114806104455750806002145b806104505750806003145b61049c5760405162461bcd60e51b815260206004820152601e60248201527f506c656173652073656c65637420612076616c69642066616374696f6e2e000060448201526064016102a1565b806001036104d457336000908152600660205260409020805461ff0019166101001790556002546104ce906001611062565b60025550565b8060020361050c57336000908152600660205260409020805461ff001916610200179055600354610506906001611062565b60035550565b8060030361054257336000908152600660205260409020805461ff00191661030017905560045461053e906001611062565b6004555b50565b6001816004811061055557600080fd5b0154905081565b6000546001600160a01b031633146105865760405162461bcd60e51b81526004016102a1906110a6565b6105906000610f9a565b565b3360009081526006602052604090205460ff16151560011461061c5760405162461bcd60e51b815260206004820152603b60248201527f54686520506c617965722068617320746f20676f206f6e20612071756573742060448201527f666972737420746f20636c61696d2069747320726577617264732e000000000060648201526084016102a1565b33600090815260066020526040902060010154421161067d5760405162461bcd60e51b815260206004820152601f60248201527f54686520506c61796572206973207374696c6c206f6e20612071756573742e0060448201526064016102a1565b6103e8424460405160200161069c929190918252602082015260400190565b6040516020818303038152906040528051906020012060001c6106bf91906110db565b60058190556103201161076757600754604051636e015ca360e11b8152336004820152600560248201526001600160a01b039091169063dc02b94690604401600060405180830381600087803b15801561071857600080fd5b505af115801561072c573d6000803e3d6000fd5b50503360009081526006602052604090206002015461074f925090506001611062565b336000908152600660205260409020600201556109e7565b61032060055410801561077e575061025860055410155b1561080857600754604051636e015ca360e11b81523360048083019190915260248201526001600160a01b039091169063dc02b94690604401600060405180830381600087803b1580156107d157600080fd5b505af11580156107e5573d6000803e3d6000fd5b505033600090815260066020526040902060029081015461074f93509150611062565b61025860055410801561081f575061019060055410155b156108a757600754604051636e015ca360e11b8152336004820152600360248201526001600160a01b039091169063dc02b94690604401600060405180830381600087803b15801561087057600080fd5b505af1158015610884573d6000803e3d6000fd5b50503360009081526006602052604090206002015461074f925090506003611062565b6101906005541080156108bd575060c860055410155b1561094557600754604051636e015ca360e11b8152336004820152600260248201526001600160a01b039091169063dc02b94690604401600060405180830381600087803b15801561090e57600080fd5b505af1158015610922573d6000803e3d6000fd5b50503360009081526006602052604090206002015461074f925090506004611062565b60c860055410156109e757600754604051636e015ca360e11b8152336004820152600160248201526001600160a01b039091169063dc02b94690604401600060405180830381600087803b15801561099c57600080fd5b505af11580156109b0573d6000803e3d6000fd5b5050336000908152600660205260409020600201546109d3925090506005611062565b336000908152600660205260409020600201555b336000908152600660205260409020805460ff19169055565b8060011480610a0f5750806002145b80610a1a5750806003145b610a665760405162461bcd60e51b815260206004820152601e60248201527f506c656173652073656c65637420612076616c69642066616374696f6e2e000060448201526064016102a1565b6000610a7133610ce8565b90506001808260048110610a8757610a87611090565b0154610a9391906110fd565b60018260048110610aa657610aa6611090565b0155600182148015610ae15750600133600090815260066020526040902054610100900460ff166003811115610ade57610ade61107a565b14155b15610b1a57336000908152600660205260409020805461ff001916610100179055600254610b10906001611062565b6001805b01555050565b816002148015610b535750600233600090815260066020526040902054610100900460ff166003811115610b5057610b5061107a565b14155b15610b8b57336000908152600660205260409020805461ff001916610200179055600354610b82906001611062565b60016002610b14565b816003148015610bc45750600333600090815260066020526040902054610100900460ff166003811115610bc157610bc161107a565b14155b15610bf757336000908152600660205260409020805461ff001916610300179055600454610bf3906001611062565b6004555b5050565b6000806001600160a01b038316600090815260066020526040902054610100900460ff166003811115610c3057610c3061107a565b03610c7d5760405162461bcd60e51b815260206004820152601f60248201527f5468697320506c6179657220686173206e6f2066616374696f6e207965742e0060448201526064016102a1565b506001600160a01b031660009081526006602052604090206002015490565b6000546001600160a01b03163314610cc65760405162461bcd60e51b81526004016102a1906110a6565b600780546001600160a01b0319166001600160a01b0392909216919091179055565b6001600160a01b038116600090815260066020526040812054610100900460ff166003811115610d1a57610d1a61107a565b92915050565b6000546001600160a01b03163314610d4a5760405162461bcd60e51b81526004016102a1906110a6565b6001600160a01b038116610daf5760405162461bcd60e51b815260206004820152602660248201527f4f776e61626c653a206e6577206f776e657220697320746865207a65726f206160448201526564647265737360d01b60648201526084016102a1565b61054281610f9a565b600033600090815260066020526040902054610100900460ff166003811115610de357610de361107a565b03610e305760405162461bcd60e51b815260206004820152601f60248201527f5468697320506c6179657220686173206e6f2066616374696f6e207965742e0060448201526064016102a1565b6007546001600160a01b031662fdd58e33610e4a81610ce8565b6040516001600160e01b031960e085901b1681526001600160a01b0390921660048301526024820152604401602060405180830381865afa158015610e93573d6000803e3d6000fd5b505050506040513d601f19601f82011682018060405250810190610eb79190611033565b15610f1f5760405162461bcd60e51b815260206004820152603260248201527f54686520506c617965722063616e206f6e6c79206d696e74203120436861726160448201527131ba32b91037b31032b0b1b4103a3cb8329760711b60648201526084016102a1565b6007546001600160a01b03166314ff845c33610f3a81610ce8565b6040516001600160e01b031960e085901b1681526001600160a01b0390921660048301526024820152604401600060405180830381600087803b158015610f8057600080fd5b505af1158015610f94573d6000803e3d6000fd5b50505050565b600080546001600160a01b038381166001600160a01b0319831681178455604051919092169283917f8be0079c531659141344cd1fd0a4f28419497f9722a3daafe3b4186f6b6457e09190a35050565b600060208284031215610ffc57600080fd5b5035919050565b60006020828403121561101557600080fd5b81356001600160a01b038116811461102c57600080fd5b9392505050565b60006020828403121561104557600080fd5b5051919050565b634e487b7160e01b600052601160045260246000fd5b600082198211156110755761107561104c565b500190565b634e487b7160e01b600052602160045260246000fd5b634e487b7160e01b600052603260045260246000fd5b6020808252818101527f4f776e61626c653a2063616c6c6572206973206e6f7420746865206f776e6572604082015260600190565b6000826110f857634e487b7160e01b600052601260045260246000fd5b500690565b60008282101561110f5761110f61104c565b50039056fea26469706673582212203608f95c37ea80a418592ad31ad3960d288f06cb74bdde1fea29b1ef7f360f6564736f6c634300080d0033",
  "linkReferences": {},
  "deployedLinkReferences": {}
}